{
  "_format": "hh-sol-artifact-1",
  "contractName": "Utils",
  "sourceName": "contracts/Utils.sol",
  "abi": [
    {
      "inputs": [
        {
          "internalType": "string",
          "name": "s1",
          "type": "string"
        },
        {
          "internalType": "string",
          "name": "s2",
          "type": "string"
        }
      ],
      "name": "areStringsEqual",
      "outputs": [
        {
          "internalType": "bool",
          "name": "",
          "type": "bool"
        }
      ],
      "stateMutability": "pure",
      "type": "function"
    }
  ],
  "bytecode": "0x6080806040523461001a5761018f9081610020823930815050f35b600080fdfe608080604052600436101561001357600080fd5b6000803560e01c63b1496cd41461002957600080fd5b60403660031901126100d25767ffffffffffffffff6004358181116100ce576100569036906004016100d5565b9290916024359081116100ca576100746100be9136906004016100d5565b9490938661009b60208285829b968380980196873781018883820152038084520182610108565b519020946040519381859284840197883782019083820152038084520182610108565b51902014604051908152f35b5080fd5b8280fd5b80fd5b9181601f840112156101035782359167ffffffffffffffff8311610103576020838186019501011161010357565b600080fd5b90601f8019910116810190811067ffffffffffffffff82111761012a57604052565b7f4e487b7100000000000000000000000000000000000000000000000000000000600052604160045260246000fdfea264697066735822122044364d1ad99adb0b0adf880bf3be4d5c1bffa625926c1491c4289218657b8d8564736f6c63430008130033",
  "linkReferences": {},
  "deployedLinkReferences": {}
}