{
  "_format": "hh-sol-artifact-1",
  "contractName": "PocketRegistry",
  "sourceName": "contracts/PocketRegistry.sol",
  "abi": [
    {
      "inputs": [],
      "stateMutability": "nonpayable",
      "type": "constructor"
    },
    {
      "anonymous": false,
      "inputs": [
        {
          "indexed": true,
          "internalType": "address",
          "name": "actor",
          "type": "address"
        },
        {
          "indexed": true,
          "internalType": "address",
          "name": "mintAddress",
          "type": "address"
        },
        {
          "indexed": false,
          "internalType": "bool",
          "name": "value",
          "type": "bool"
        }
      ],
      "name": "AddressWhitelisted",
      "type": "event"
    },
    {
      "anonymous": false,
      "inputs": [
        {
          "indexed": false,
          "internalType": "uint8",
          "name": "version",
          "type": "uint8"
        }
      ],
      "name": "Initialized",
      "type": "event"
    },
    {
      "anonymous": false,
      "inputs": [
        {
          "indexed": true,
          "internalType": "address",
          "name": "previousOwner",
          "type": "address"
        },
        {
          "indexed": true,
          "internalType": "address",
          "name": "newOwner",
          "type": "address"
        }
      ],
      "name": "OwnershipTransferred",
      "type": "event"
    },
    {
      "anonymous": false,
      "inputs": [
        {
          "indexed": false,
          "internalType": "address",
          "name": "account",
          "type": "address"
        }
      ],
      "name": "Paused",
      "type": "event"
    },
    {
      "anonymous": false,
      "inputs": [
        {
          "indexed": true,
          "internalType": "address",
          "name": "actor",
          "type": "address"
        },
        {
          "indexed": true,
          "internalType": "string",
          "name": "pocketId",
          "type": "string"
        },
        {
          "indexed": true,
          "internalType": "address",
          "name": "owner",
          "type": "address"
        },
        {
          "components": [
            {
              "internalType": "string",
              "name": "id",
              "type": "string"
            },
            {
              "internalType": "uint256",
              "name": "totalDepositedBaseAmount",
              "type": "uint256"
            },
            {
              "internalType": "uint256",
              "name": "totalSwappedBaseAmount",
              "type": "uint256"
            },
            {
              "internalType": "uint256",
              "name": "totalReceivedTargetAmount",
              "type": "uint256"
            },
            {
              "internalType": "uint256",
              "name": "totalClosedPositionInTargetTokenAmount",
              "type": "uint256"
            },
            {
              "internalType": "uint256",
              "name": "totalReceivedFundInBaseTokenAmount",
              "type": "uint256"
            },
            {
              "internalType": "uint256",
              "name": "baseTokenBalance",
              "type": "uint256"
            },
            {
              "internalType": "uint256",
              "name": "targetTokenBalance",
              "type": "uint256"
            },
            {
              "internalType": "uint256",
              "name": "executedBatchAmount",
              "type": "uint256"
            },
            {
              "internalType": "uint256",
              "name": "nextScheduledExecutionAt",
              "type": "uint256"
            },
            {
              "internalType": "enum Types.PocketStatus",
              "name": "status",
              "type": "uint8"
            },
            {
              "internalType": "address",
              "name": "owner",
              "type": "address"
            },
            {
              "internalType": "address",
              "name": "ammRouterAddress",
              "type": "address"
            },
            {
              "internalType": "address",
              "name": "baseTokenAddress",
              "type": "address"
            },
            {
              "internalType": "address",
              "name": "targetTokenAddress",
              "type": "address"
            },
            {
              "internalType": "uint256",
              "name": "startAt",
              "type": "uint256"
            },
            {
              "internalType": "uint256",
              "name": "batchVolume",
              "type": "uint256"
            },
            {
              "internalType": "uint256",
              "name": "frequency",
              "type": "uint256"
            },
            {
              "components": [
                {
                  "internalType": "uint256",
                  "name": "value0",
                  "type": "uint256"
                },
                {
                  "internalType": "uint256",
                  "name": "value1",
                  "type": "uint256"
                },
                {
                  "internalType": "enum Types.ValueComparisonOperator",
                  "name": "operator",
                  "type": "uint8"
                }
              ],
              "internalType": "struct Types.ValueComparison",
              "name": "openingPositionCondition",
              "type": "tuple"
            },
            {
              "components": [
                {
                  "internalType": "uint256",
                  "name": "value",
                  "type": "uint256"
                },
                {
                  "internalType": "enum Types.StopConditionOperator",
                  "name": "operator",
                  "type": "uint8"
                }
              ],
              "internalType": "struct Types.StopCondition[]",
              "name": "stopConditions",
              "type": "tuple[]"
            },
            {
              "components": [
                {
                  "internalType": "enum Types.TradingStopConditionType",
                  "name": "stopType",
                  "type": "uint8"
                },
                {
                  "internalType": "uint256",
                  "name": "value",
                  "type": "uint256"
                }
              ],
              "internalType": "struct Types.TradingStopCondition",
              "name": "takeProfitCondition",
              "type": "tuple"
            },
            {
              "components": [
                {
                  "internalType": "enum Types.TradingStopConditionType",
                  "name": "stopType",
                  "type": "uint8"
                },
                {
                  "internalType": "uint256",
                  "name": "value",
                  "type": "uint256"
                }
              ],
              "internalType": "struct Types.TradingStopCondition",
              "name": "stopLossCondition",
              "type": "tuple"
            }
          ],
          "indexed": false,
          "internalType": "struct Types.Pocket",
          "name": "pocketData",
          "type": "tuple"
        }
      ],
      "name": "PocketInitialized",
      "type": "event"
    },
    {
      "anonymous": false,
      "inputs": [
        {
          "indexed": true,
          "internalType": "address",
          "name": "actor",
          "type": "address"
        },
        {
          "indexed": true,
          "internalType": "string",
          "name": "pocketId",
          "type": "string"
        },
        {
          "indexed": true,
          "internalType": "address",
          "name": "owner",
          "type": "address"
        },
        {
          "indexed": false,
          "internalType": "string",
          "name": "reason",
          "type": "string"
        },
        {
          "components": [
            {
              "internalType": "string",
              "name": "id",
              "type": "string"
            },
            {
              "internalType": "uint256",
              "name": "totalDepositedBaseAmount",
              "type": "uint256"
            },
            {
              "internalType": "uint256",
              "name": "totalSwappedBaseAmount",
              "type": "uint256"
            },
            {
              "internalType": "uint256",
              "name": "totalReceivedTargetAmount",
              "type": "uint256"
            },
            {
              "internalType": "uint256",
              "name": "totalClosedPositionInTargetTokenAmount",
              "type": "uint256"
            },
            {
              "internalType": "uint256",
              "name": "totalReceivedFundInBaseTokenAmount",
              "type": "uint256"
            },
            {
              "internalType": "uint256",
              "name": "baseTokenBalance",
              "type": "uint256"
            },
            {
              "internalType": "uint256",
              "name": "targetTokenBalance",
              "type": "uint256"
            },
            {
              "internalType": "uint256",
              "name": "executedBatchAmount",
              "type": "uint256"
            },
            {
              "internalType": "uint256",
              "name": "nextScheduledExecutionAt",
              "type": "uint256"
            },
            {
              "internalType": "enum Types.PocketStatus",
              "name": "status",
              "type": "uint8"
            },
            {
              "internalType": "address",
              "name": "owner",
              "type": "address"
            },
            {
              "internalType": "address",
              "name": "ammRouterAddress",
              "type": "address"
            },
            {
              "internalType": "address",
              "name": "baseTokenAddress",
              "type": "address"
            },
            {
              "internalType": "address",
              "name": "targetTokenAddress",
              "type": "address"
            },
            {
              "internalType": "uint256",
              "name": "startAt",
              "type": "uint256"
            },
            {
              "internalType": "uint256",
              "name": "batchVolume",
              "type": "uint256"
            },
            {
              "internalType": "uint256",
              "name": "frequency",
              "type": "uint256"
            },
            {
              "components": [
                {
                  "internalType": "uint256",
                  "name": "value0",
                  "type": "uint256"
                },
                {
                  "internalType": "uint256",
                  "name": "value1",
                  "type": "uint256"
                },
                {
                  "internalType": "enum Types.ValueComparisonOperator",
                  "name": "operator",
                  "type": "uint8"
                }
              ],
              "internalType": "struct Types.ValueComparison",
              "name": "openingPositionCondition",
              "type": "tuple"
            },
            {
              "components": [
                {
                  "internalType": "uint256",
                  "name": "value",
                  "type": "uint256"
                },
                {
                  "internalType": "enum Types.StopConditionOperator",
                  "name": "operator",
                  "type": "uint8"
                }
              ],
              "internalType": "struct Types.StopCondition[]",
              "name": "stopConditions",
              "type": "tuple[]"
            },
            {
              "components": [
                {
                  "internalType": "enum Types.TradingStopConditionType",
                  "name": "stopType",
                  "type": "uint8"
                },
                {
                  "internalType": "uint256",
                  "name": "value",
                  "type": "uint256"
                }
              ],
              "internalType": "struct Types.TradingStopCondition",
              "name": "takeProfitCondition",
              "type": "tuple"
            },
            {
              "components": [
                {
                  "internalType": "enum Types.TradingStopConditionType",
                  "name": "stopType",
                  "type": "uint8"
                },
                {
                  "internalType": "uint256",
                  "name": "value",
                  "type": "uint256"
                }
              ],
              "internalType": "struct Types.TradingStopCondition",
              "name": "stopLossCondition",
              "type": "tuple"
            }
          ],
          "indexed": false,
          "internalType": "struct Types.Pocket",
          "name": "pocketData",
          "type": "tuple"
        }
      ],
      "name": "PocketUpdated",
      "type": "event"
    },
    {
      "anonymous": false,
      "inputs": [
        {
          "indexed": true,
          "internalType": "bytes32",
          "name": "role",
          "type": "bytes32"
        },
        {
          "indexed": true,
          "internalType": "bytes32",
          "name": "previousAdminRole",
          "type": "bytes32"
        },
        {
          "indexed": true,
          "internalType": "bytes32",
          "name": "newAdminRole",
          "type": "bytes32"
        }
      ],
      "name": "RoleAdminChanged",
      "type": "event"
    },
    {
      "anonymous": false,
      "inputs": [
        {
          "indexed": true,
          "internalType": "bytes32",
          "name": "role",
          "type": "bytes32"
        },
        {
          "indexed": true,
          "internalType": "address",
          "name": "account",
          "type": "address"
        },
        {
          "indexed": true,
          "internalType": "address",
          "name": "sender",
          "type": "address"
        }
      ],
      "name": "RoleGranted",
      "type": "event"
    },
    {
      "anonymous": false,
      "inputs": [
        {
          "indexed": true,
          "internalType": "bytes32",
          "name": "role",
          "type": "bytes32"
        },
        {
          "indexed": true,
          "internalType": "address",
          "name": "account",
          "type": "address"
        },
        {
          "indexed": true,
          "internalType": "address",
          "name": "sender",
          "type": "address"
        }
      ],
      "name": "RoleRevoked",
      "type": "event"
    },
    {
      "anonymous": false,
      "inputs": [
        {
          "indexed": false,
          "internalType": "address",
          "name": "account",
          "type": "address"
        }
      ],
      "name": "Unpaused",
      "type": "event"
    },
    {
      "inputs": [],
      "name": "DEFAULT_ADMIN_ROLE",
      "outputs": [
        {
          "internalType": "bytes32",
          "name": "",
          "type": "bytes32"
        }
      ],
      "stateMutability": "view",
      "type": "function"
    },
    {
      "inputs": [],
      "name": "OPERATOR",
      "outputs": [
        {
          "internalType": "bytes32",
          "name": "",
          "type": "bytes32"
        }
      ],
      "stateMutability": "view",
      "type": "function"
    },
    {
      "inputs": [],
      "name": "PERCENTAGE_PRECISION",
      "outputs": [
        {
          "internalType": "uint256",
          "name": "",
          "type": "uint256"
        }
      ],
      "stateMutability": "view",
      "type": "function"
    },
    {
      "inputs": [],
      "name": "RELAYER",
      "outputs": [
        {
          "internalType": "bytes32",
          "name": "",
          "type": "bytes32"
        }
      ],
      "stateMutability": "view",
      "type": "function"
    },
    {
      "inputs": [
        {
          "internalType": "address",
          "name": "",
          "type": "address"
        }
      ],
      "name": "allowedInteractiveAddresses",
      "outputs": [
        {
          "internalType": "bool",
          "name": "",
          "type": "bool"
        }
      ],
      "stateMutability": "view",
      "type": "function"
    },
    {
      "inputs": [
        {
          "internalType": "string",
          "name": "",
          "type": "string"
        }
      ],
      "name": "blacklistedIdMap",
      "outputs": [
        {
          "internalType": "bool",
          "name": "",
          "type": "bool"
        }
      ],
      "stateMutability": "view",
      "type": "function"
    },
    {
      "inputs": [
        {
          "internalType": "string",
          "name": "pocketId",
          "type": "string"
        }
      ],
      "name": "getBalanceInfoOf",
      "outputs": [
        {
          "internalType": "uint256",
          "name": "",
          "type": "uint256"
        },
        {
          "internalType": "uint256",
          "name": "",
          "type": "uint256"
        }
      ],
      "stateMutability": "view",
      "type": "function"
    },
    {
      "inputs": [
        {
          "internalType": "string",
          "name": "pocketId",
          "type": "string"
        }
      ],
      "name": "getOwnerOf",
      "outputs": [
        {
          "internalType": "address",
          "name": "",
          "type": "address"
        }
      ],
      "stateMutability": "view",
      "type": "function"
    },
    {
      "inputs": [
        {
          "internalType": "bytes32",
          "name": "role",
          "type": "bytes32"
        }
      ],
      "name": "getRoleAdmin",
      "outputs": [
        {
          "internalType": "bytes32",
          "name": "",
          "type": "bytes32"
        }
      ],
      "stateMutability": "view",
      "type": "function"
    },
    {
      "inputs": [
        {
          "internalType": "string",
          "name": "pocketId",
          "type": "string"
        }
      ],
      "name": "getStopConditionsOf",
      "outputs": [
        {
          "components": [
            {
              "internalType": "uint256",
              "name": "value",
              "type": "uint256"
            },
            {
              "internalType": "enum Types.StopConditionOperator",
              "name": "operator",
              "type": "uint8"
            }
          ],
          "internalType": "struct Types.StopCondition[]",
          "name": "",
          "type": "tuple[]"
        }
      ],
      "stateMutability": "view",
      "type": "function"
    },
    {
      "inputs": [
        {
          "internalType": "string",
          "name": "pocketId",
          "type": "string"
        }
      ],
      "name": "getTradingInfoOf",
      "outputs": [
        {
          "internalType": "address",
          "name": "",
          "type": "address"
        },
        {
          "internalType": "address",
          "name": "",
          "type": "address"
        },
        {
          "internalType": "address",
          "name": "",
          "type": "address"
        },
        {
          "internalType": "uint256",
          "name": "",
          "type": "uint256"
        },
        {
          "internalType": "uint256",
          "name": "",
          "type": "uint256"
        },
        {
          "internalType": "uint256",
          "name": "",
          "type": "uint256"
        },
        {
          "internalType": "uint256",
          "name": "",
          "type": "uint256"
        },
        {
          "components": [
            {
              "internalType": "uint256",
              "name": "value0",
              "type": "uint256"
            },
            {
              "internalType": "uint256",
              "name": "value1",
              "type": "uint256"
            },
            {
              "internalType": "enum Types.ValueComparisonOperator",
              "name": "operator",
              "type": "uint8"
            }
          ],
          "internalType": "struct Types.ValueComparison",
          "name": "",
          "type": "tuple"
        },
        {
          "components": [
            {
              "internalType": "enum Types.TradingStopConditionType",
              "name": "stopType",
              "type": "uint8"
            },
            {
              "internalType": "uint256",
              "name": "value",
              "type": "uint256"
            }
          ],
          "internalType": "struct Types.TradingStopCondition",
          "name": "",
          "type": "tuple"
        },
        {
          "components": [
            {
              "internalType": "enum Types.TradingStopConditionType",
              "name": "stopType",
              "type": "uint8"
            },
            {
              "internalType": "uint256",
              "name": "value",
              "type": "uint256"
            }
          ],
          "internalType": "struct Types.TradingStopCondition",
          "name": "",
          "type": "tuple"
        }
      ],
      "stateMutability": "view",
      "type": "function"
    },
    {
      "inputs": [
        {
          "internalType": "bytes32",
          "name": "role",
          "type": "bytes32"
        },
        {
          "internalType": "address",
          "name": "account",
          "type": "address"
        }
      ],
      "name": "grantRole",
      "outputs": [],
      "stateMutability": "nonpayable",
      "type": "function"
    },
    {
      "inputs": [
        {
          "internalType": "bytes32",
          "name": "role",
          "type": "bytes32"
        },
        {
          "internalType": "address",
          "name": "account",
          "type": "address"
        }
      ],
      "name": "hasRole",
      "outputs": [
        {
          "internalType": "bool",
          "name": "",
          "type": "bool"
        }
      ],
      "stateMutability": "view",
      "type": "function"
    },
    {
      "inputs": [],
      "name": "initialize",
      "outputs": [],
      "stateMutability": "nonpayable",
      "type": "function"
    },
    {
      "inputs": [
        {
          "components": [
            {
              "internalType": "string",
              "name": "id",
              "type": "string"
            },
            {
              "internalType": "address",
              "name": "owner",
              "type": "address"
            },
            {
              "internalType": "address",
              "name": "ammRouterAddress",
              "type": "address"
            },
            {
              "internalType": "address",
              "name": "baseTokenAddress",
              "type": "address"
            },
            {
              "internalType": "address",
              "name": "targetTokenAddress",
              "type": "address"
            },
            {
              "internalType": "uint256",
              "name": "startAt",
              "type": "uint256"
            },
            {
              "internalType": "uint256",
              "name": "batchVolume",
              "type": "uint256"
            },
            {
              "components": [
                {
                  "internalType": "uint256",
                  "name": "value",
                  "type": "uint256"
                },
                {
                  "internalType": "enum Types.StopConditionOperator",
                  "name": "operator",
                  "type": "uint8"
                }
              ],
              "internalType": "struct Types.StopCondition[]",
              "name": "stopConditions",
              "type": "tuple[]"
            },
            {
              "internalType": "uint256",
              "name": "frequency",
              "type": "uint256"
            },
            {
              "components": [
                {
                  "internalType": "uint256",
                  "name": "value0",
                  "type": "uint256"
                },
                {
                  "internalType": "uint256",
                  "name": "value1",
                  "type": "uint256"
                },
                {
                  "internalType": "enum Types.ValueComparisonOperator",
                  "name": "operator",
                  "type": "uint8"
                }
              ],
              "internalType": "struct Types.ValueComparison",
              "name": "openingPositionCondition",
              "type": "tuple"
            },
            {
              "components": [
                {
                  "internalType": "enum Types.TradingStopConditionType",
                  "name": "stopType",
                  "type": "uint8"
                },
                {
                  "internalType": "uint256",
                  "name": "value",
                  "type": "uint256"
                }
              ],
              "internalType": "struct Types.TradingStopCondition",
              "name": "takeProfitCondition",
              "type": "tuple"
            },
            {
              "components": [
                {
                  "internalType": "enum Types.TradingStopConditionType",
                  "name": "stopType",
                  "type": "uint8"
                },
                {
                  "internalType": "uint256",
                  "name": "value",
                  "type": "uint256"
                }
              ],
              "internalType": "struct Types.TradingStopCondition",
              "name": "stopLossCondition",
              "type": "tuple"
            }
          ],
          "internalType": "struct Params.CreatePocketParams",
          "name": "params",
          "type": "tuple"
        }
      ],
      "name": "initializeUserPocket",
      "outputs": [],
      "stateMutability": "nonpayable",
      "type": "function"
    },
    {
      "inputs": [
        {
          "internalType": "string",
          "name": "pocketId",
          "type": "string"
        },
        {
          "internalType": "address",
          "name": "owner",
          "type": "address"
        }
      ],
      "name": "isAbleToClose",
      "outputs": [
        {
          "internalType": "bool",
          "name": "",
          "type": "bool"
        }
      ],
      "stateMutability": "view",
      "type": "function"
    },
    {
      "inputs": [
        {
          "internalType": "string",
          "name": "pocketId",
          "type": "string"
        },
        {
          "internalType": "address",
          "name": "owner",
          "type": "address"
        }
      ],
      "name": "isAbleToDeposit",
      "outputs": [
        {
          "internalType": "bool",
          "name": "",
          "type": "bool"
        }
      ],
      "stateMutability": "view",
      "type": "function"
    },
    {
      "inputs": [
        {
          "internalType": "string",
          "name": "pocketId",
          "type": "string"
        },
        {
          "internalType": "address",
          "name": "owner",
          "type": "address"
        }
      ],
      "name": "isAbleToPause",
      "outputs": [
        {
          "internalType": "bool",
          "name": "",
          "type": "bool"
        }
      ],
      "stateMutability": "view",
      "type": "function"
    },
    {
      "inputs": [
        {
          "internalType": "string",
          "name": "pocketId",
          "type": "string"
        },
        {
          "internalType": "address",
          "name": "owner",
          "type": "address"
        }
      ],
      "name": "isAbleToRestart",
      "outputs": [
        {
          "internalType": "bool",
          "name": "",
          "type": "bool"
        }
      ],
      "stateMutability": "view",
      "type": "function"
    },
    {
      "inputs": [
        {
          "internalType": "string",
          "name": "pocketId",
          "type": "string"
        },
        {
          "internalType": "address",
          "name": "owner",
          "type": "address"
        }
      ],
      "name": "isAbleToUpdate",
      "outputs": [
        {
          "internalType": "bool",
          "name": "",
          "type": "bool"
        }
      ],
      "stateMutability": "view",
      "type": "function"
    },
    {
      "inputs": [
        {
          "internalType": "string",
          "name": "pocketId",
          "type": "string"
        },
        {
          "internalType": "address",
          "name": "owner",
          "type": "address"
        }
      ],
      "name": "isAbleToWithdraw",
      "outputs": [
        {
          "internalType": "bool",
          "name": "",
          "type": "bool"
        }
      ],
      "stateMutability": "view",
      "type": "function"
    },
    {
      "inputs": [
        {
          "internalType": "string",
          "name": "pocketId",
          "type": "string"
        },
        {
          "internalType": "address",
          "name": "target",
          "type": "address"
        }
      ],
      "name": "isOwnerOf",
      "outputs": [
        {
          "internalType": "bool",
          "name": "",
          "type": "bool"
        }
      ],
      "stateMutability": "view",
      "type": "function"
    },
    {
      "inputs": [
        {
          "internalType": "string",
          "name": "pocketId",
          "type": "string"
        }
      ],
      "name": "isReadyToClosePosition",
      "outputs": [
        {
          "internalType": "bool",
          "name": "",
          "type": "bool"
        }
      ],
      "stateMutability": "view",
      "type": "function"
    },
    {
      "inputs": [
        {
          "internalType": "string",
          "name": "pocketId",
          "type": "string"
        }
      ],
      "name": "isReadyToSwap",
      "outputs": [
        {
          "internalType": "bool",
          "name": "",
          "type": "bool"
        }
      ],
      "stateMutability": "view",
      "type": "function"
    },
    {
      "inputs": [],
      "name": "owner",
      "outputs": [
        {
          "internalType": "address",
          "name": "",
          "type": "address"
        }
      ],
      "stateMutability": "view",
      "type": "function"
    },
    {
      "inputs": [],
      "name": "pause",
      "outputs": [],
      "stateMutability": "nonpayable",
      "type": "function"
    },
    {
      "inputs": [],
      "name": "paused",
      "outputs": [
        {
          "internalType": "bool",
          "name": "",
          "type": "bool"
        }
      ],
      "stateMutability": "view",
      "type": "function"
    },
    {
      "inputs": [
        {
          "internalType": "string",
          "name": "",
          "type": "string"
        }
      ],
      "name": "pockets",
      "outputs": [
        {
          "internalType": "string",
          "name": "id",
          "type": "string"
        },
        {
          "internalType": "uint256",
          "name": "totalDepositedBaseAmount",
          "type": "uint256"
        },
        {
          "internalType": "uint256",
          "name": "totalSwappedBaseAmount",
          "type": "uint256"
        },
        {
          "internalType": "uint256",
          "name": "totalReceivedTargetAmount",
          "type": "uint256"
        },
        {
          "internalType": "uint256",
          "name": "totalClosedPositionInTargetTokenAmount",
          "type": "uint256"
        },
        {
          "internalType": "uint256",
          "name": "totalReceivedFundInBaseTokenAmount",
          "type": "uint256"
        },
        {
          "internalType": "uint256",
          "name": "baseTokenBalance",
          "type": "uint256"
        },
        {
          "internalType": "uint256",
          "name": "targetTokenBalance",
          "type": "uint256"
        },
        {
          "internalType": "uint256",
          "name": "executedBatchAmount",
          "type": "uint256"
        },
        {
          "internalType": "uint256",
          "name": "nextScheduledExecutionAt",
          "type": "uint256"
        },
        {
          "internalType": "enum Types.PocketStatus",
          "name": "status",
          "type": "uint8"
        },
        {
          "internalType": "address",
          "name": "owner",
          "type": "address"
        },
        {
          "internalType": "address",
          "name": "ammRouterAddress",
          "type": "address"
        },
        {
          "internalType": "address",
          "name": "baseTokenAddress",
          "type": "address"
        },
        {
          "internalType": "address",
          "name": "targetTokenAddress",
          "type": "address"
        },
        {
          "internalType": "uint256",
          "name": "startAt",
          "type": "uint256"
        },
        {
          "internalType": "uint256",
          "name": "batchVolume",
          "type": "uint256"
        },
        {
          "internalType": "uint256",
          "name": "frequency",
          "type": "uint256"
        },
        {
          "components": [
            {
              "internalType": "uint256",
              "name": "value0",
              "type": "uint256"
            },
            {
              "internalType": "uint256",
              "name": "value1",
              "type": "uint256"
            },
            {
              "internalType": "enum Types.ValueComparisonOperator",
              "name": "operator",
              "type": "uint8"
            }
          ],
          "internalType": "struct Types.ValueComparison",
          "name": "openingPositionCondition",
          "type": "tuple"
        },
        {
          "components": [
            {
              "internalType": "enum Types.TradingStopConditionType",
              "name": "stopType",
              "type": "uint8"
            },
            {
              "internalType": "uint256",
              "name": "value",
              "type": "uint256"
            }
          ],
          "internalType": "struct Types.TradingStopCondition",
          "name": "takeProfitCondition",
          "type": "tuple"
        },
        {
          "components": [
            {
              "internalType": "enum Types.TradingStopConditionType",
              "name": "stopType",
              "type": "uint8"
            },
            {
              "internalType": "uint256",
              "name": "value",
              "type": "uint256"
            }
          ],
          "internalType": "struct Types.TradingStopCondition",
          "name": "stopLossCondition",
          "type": "tuple"
        }
      ],
      "stateMutability": "view",
      "type": "function"
    },
    {
      "inputs": [],
      "name": "renounceOwnership",
      "outputs": [],
      "stateMutability": "nonpayable",
      "type": "function"
    },
    {
      "inputs": [
        {
          "internalType": "bytes32",
          "name": "role",
          "type": "bytes32"
        },
        {
          "internalType": "address",
          "name": "account",
          "type": "address"
        }
      ],
      "name": "renounceRole",
      "outputs": [],
      "stateMutability": "nonpayable",
      "type": "function"
    },
    {
      "inputs": [
        {
          "internalType": "bytes32",
          "name": "role",
          "type": "bytes32"
        },
        {
          "internalType": "address",
          "name": "account",
          "type": "address"
        }
      ],
      "name": "revokeRole",
      "outputs": [],
      "stateMutability": "nonpayable",
      "type": "function"
    },
    {
      "inputs": [
        {
          "internalType": "string",
          "name": "pocketId",
          "type": "string"
        }
      ],
      "name": "shouldClosePocket",
      "outputs": [
        {
          "internalType": "bool",
          "name": "",
          "type": "bool"
        }
      ],
      "stateMutability": "view",
      "type": "function"
    },
    {
      "inputs": [
        {
          "internalType": "string",
          "name": "pocketId",
          "type": "string"
        },
        {
          "internalType": "uint256",
          "name": "swappedBaseTokenAmount",
          "type": "uint256"
        },
        {
          "internalType": "uint256",
          "name": "receivedTargetTokenAmount",
          "type": "uint256"
        }
      ],
      "name": "shouldOpenPosition",
      "outputs": [
        {
          "internalType": "bool",
          "name": "",
          "type": "bool"
        }
      ],
      "stateMutability": "view",
      "type": "function"
    },
    {
      "inputs": [
        {
          "internalType": "string",
          "name": "pocketId",
          "type": "string"
        },
        {
          "internalType": "uint256",
          "name": "swappedTargetTokenAmount",
          "type": "uint256"
        },
        {
          "internalType": "uint256",
          "name": "receivedBaseTokenAmount",
          "type": "uint256"
        }
      ],
      "name": "shouldStopLoss",
      "outputs": [
        {
          "internalType": "bool",
          "name": "",
          "type": "bool"
        }
      ],
      "stateMutability": "view",
      "type": "function"
    },
    {
      "inputs": [
        {
          "internalType": "string",
          "name": "pocketId",
          "type": "string"
        },
        {
          "internalType": "uint256",
          "name": "swappedTargetTokenAmount",
          "type": "uint256"
        },
        {
          "internalType": "uint256",
          "name": "receivedBaseTokenAmount",
          "type": "uint256"
        }
      ],
      "name": "shouldTakeProfit",
      "outputs": [
        {
          "internalType": "bool",
          "name": "",
          "type": "bool"
        }
      ],
      "stateMutability": "view",
      "type": "function"
    },
    {
      "inputs": [
        {
          "internalType": "bytes4",
          "name": "interfaceId",
          "type": "bytes4"
        }
      ],
      "name": "supportsInterface",
      "outputs": [
        {
          "internalType": "bool",
          "name": "",
          "type": "bool"
        }
      ],
      "stateMutability": "view",
      "type": "function"
    },
    {
      "inputs": [
        {
          "internalType": "address",
          "name": "newOwner",
          "type": "address"
        }
      ],
      "name": "transferOwnership",
      "outputs": [],
      "stateMutability": "nonpayable",
      "type": "function"
    },
    {
      "inputs": [],
      "name": "unpause",
      "outputs": [],
      "stateMutability": "nonpayable",
      "type": "function"
    },
    {
      "inputs": [
        {
          "components": [
            {
              "internalType": "string",
              "name": "id",
              "type": "string"
            },
            {
              "internalType": "uint256",
              "name": "startAt",
              "type": "uint256"
            },
            {
              "internalType": "uint256",
              "name": "batchVolume",
              "type": "uint256"
            },
            {
              "components": [
                {
                  "internalType": "uint256",
                  "name": "value",
                  "type": "uint256"
                },
                {
                  "internalType": "enum Types.StopConditionOperator",
                  "name": "operator",
                  "type": "uint8"
                }
              ],
              "internalType": "struct Types.StopCondition[]",
              "name": "stopConditions",
              "type": "tuple[]"
            },
            {
              "internalType": "uint256",
              "name": "frequency",
              "type": "uint256"
            },
            {
              "components": [
                {
                  "internalType": "uint256",
                  "name": "value0",
                  "type": "uint256"
                },
                {
                  "internalType": "uint256",
                  "name": "value1",
                  "type": "uint256"
                },
                {
                  "internalType": "enum Types.ValueComparisonOperator",
                  "name": "operator",
                  "type": "uint8"
                }
              ],
              "internalType": "struct Types.ValueComparison",
              "name": "openingPositionCondition",
              "type": "tuple"
            },
            {
              "components": [
                {
                  "internalType": "enum Types.TradingStopConditionType",
                  "name": "stopType",
                  "type": "uint8"
                },
                {
                  "internalType": "uint256",
                  "name": "value",
                  "type": "uint256"
                }
              ],
              "internalType": "struct Types.TradingStopCondition",
              "name": "takeProfitCondition",
              "type": "tuple"
            },
            {
              "components": [
                {
                  "internalType": "enum Types.TradingStopConditionType",
                  "name": "stopType",
                  "type": "uint8"
                },
                {
                  "internalType": "uint256",
                  "name": "value",
                  "type": "uint256"
                }
              ],
              "internalType": "struct Types.TradingStopCondition",
              "name": "stopLossCondition",
              "type": "tuple"
            }
          ],
          "internalType": "struct Params.UpdatePocketParams",
          "name": "params",
          "type": "tuple"
        },
        {
          "internalType": "string",
          "name": "reason",
          "type": "string"
        }
      ],
      "name": "updatePocket",
      "outputs": [],
      "stateMutability": "nonpayable",
      "type": "function"
    },
    {
      "inputs": [
        {
          "components": [
            {
              "internalType": "string",
              "name": "id",
              "type": "string"
            },
            {
              "internalType": "address",
              "name": "actor",
              "type": "address"
            },
            {
              "internalType": "uint256",
              "name": "swappedTargetTokenAmount",
              "type": "uint256"
            },
            {
              "internalType": "uint256",
              "name": "receivedBaseTokenAmount",
              "type": "uint256"
            }
          ],
          "internalType": "struct Params.UpdatePocketClosingPositionStatsParams",
          "name": "params",
          "type": "tuple"
        },
        {
          "internalType": "string",
          "name": "reason",
          "type": "string"
        }
      ],
      "name": "updatePocketClosingPositionStats",
      "outputs": [],
      "stateMutability": "nonpayable",
      "type": "function"
    },
    {
      "inputs": [
        {
          "components": [
            {
              "internalType": "address",
              "name": "actor",
              "type": "address"
            },
            {
              "internalType": "string",
              "name": "id",
              "type": "string"
            },
            {
              "internalType": "uint256",
              "name": "amount",
              "type": "uint256"
            },
            {
              "internalType": "address",
              "name": "tokenAddress",
              "type": "address"
            }
          ],
          "internalType": "struct Params.UpdatePocketDepositParams",
          "name": "params",
          "type": "tuple"
        },
        {
          "internalType": "string",
          "name": "reason",
          "type": "string"
        }
      ],
      "name": "updatePocketDepositStats",
      "outputs": [],
      "stateMutability": "nonpayable",
      "type": "function"
    },
    {
      "inputs": [
        {
          "components": [
            {
              "internalType": "address",
              "name": "actor",
              "type": "address"
            },
            {
              "internalType": "string",
              "name": "id",
              "type": "string"
            },
            {
              "internalType": "enum Types.PocketStatus",
              "name": "status",
              "type": "uint8"
            }
          ],
          "internalType": "struct Params.UpdatePocketStatusParams",
          "name": "params",
          "type": "tuple"
        },
        {
          "internalType": "string",
          "name": "reason",
          "type": "string"
        }
      ],
      "name": "updatePocketStatus",
      "outputs": [],
      "stateMutability": "nonpayable",
      "type": "function"
    },
    {
      "inputs": [
        {
          "components": [
            {
              "internalType": "address",
              "name": "actor",
              "type": "address"
            },
            {
              "internalType": "string",
              "name": "id",
              "type": "string"
            },
            {
              "internalType": "uint256",
              "name": "swappedBaseTokenAmount",
              "type": "uint256"
            },
            {
              "internalType": "uint256",
              "name": "receivedTargetTokenAmount",
              "type": "uint256"
            }
          ],
          "internalType": "struct Params.UpdatePocketTradingStatsParams",
          "name": "params",
          "type": "tuple"
        },
        {
          "internalType": "string",
          "name": "reason",
          "type": "string"
        }
      ],
      "name": "updatePocketTradingStats",
      "outputs": [],
      "stateMutability": "nonpayable",
      "type": "function"
    },
    {
      "inputs": [
        {
          "components": [
            {
              "internalType": "address",
              "name": "actor",
              "type": "address"
            },
            {
              "internalType": "string",
              "name": "id",
              "type": "string"
            }
          ],
          "internalType": "struct Params.UpdatePocketWithdrawalParams",
          "name": "params",
          "type": "tuple"
        },
        {
          "internalType": "string",
          "name": "reason",
          "type": "string"
        }
      ],
      "name": "updatePocketWithdrawalStats",
      "outputs": [],
      "stateMutability": "nonpayable",
      "type": "function"
    },
    {
      "inputs": [
        {
          "internalType": "address",
          "name": "interactiveAddress",
          "type": "address"
        },
        {
          "internalType": "bool",
          "name": "value",
          "type": "bool"
        }
      ],
      "name": "whitelistAddress",
      "outputs": [],
      "stateMutability": "nonpayable",
      "type": "function"
    }
  ],
  "bytecode": "0x60808060405234620000c6576000549060ff8260081c1662000074575060ff8082161062000038575b6040516146909081620000cc8239f35b60ff90811916176000557f7f26b83ff96e1f2b6a682f133852f6798a09c465da95921460cefb3847402498602060405160ff8152a13862000028565b62461bcd60e51b815260206004820152602760248201527f496e697469616c697a61626c653a20636f6e747261637420697320696e697469604482015266616c697a696e6760c81b6064820152608490fd5b600080fdfe61018080604052600436101561001457600080fd5b60003560e01c90816301ffc9a714612f4657508063125167ef14612f2a5780631416642e14612f0e5780632483e71514612ed3578063248a9ca314612ea45780632f2ff15d14612e0257806336568abe14612d63578063368e0b6c14612c055780633740c1831461221d5780633f4ba83a146121795780634418eb0014610ea8578063534ca7a21461213d5780635c975abb1461211a578063715018a6146120b25780637bc039401461202b57806380b443c314611fa45780638129fc1c14611d86578063819e8a3a14611d735780638321d27814611b745780638456cb5914611acd5780638da5cb5b14611aa65780638dea81e714611a6657806391d1485414611a18578063983d2737146119dd5780639888b5ab1461196857806399ba8057146118b75780639d92d7371461182f578063a217fddf14611813578063a58b40691461171c578063a6ceadba146116dc578063b3fd1da514611619578063b48093e11461150d578063b612f86614610ea8578063b9a45aac14611489578063bcf7a12214611396578063bef48ddf14611342578063c11bc90f1461127e578063d3fc80d914611258578063d547741f1461122c578063e058d7241461103f578063e138682414610ecb578063e256888f14610ead578063e6068d0114610ea8578063e92c3598146102b95763f2fde38b1461020f57600080fd5b346102b45760203660031901126102b45761022861305f565b610230613526565b6001600160a01b0381161561024a576102489061357e565b005b608460405162461bcd60e51b815260206004820152602660248201527f4f776e61626c653a206e6577206f776e657220697320746865207a65726f206160448201527f64647265737300000000000000000000000000000000000000000000000000006064820152fd5b600080fd5b346102b4576003196020368201126102b45767ffffffffffffffff600435116102b45761020090600435360301126102b4576102f3614067565b610301600480350180613b73565b90604051908281833760ff8383019260208161012f95868152030190205416610e6457602091836040519485938437820190815203019020805460ff191660011790556103564260043560a401351015613ba6565b61036b610e1061010460043501351015613c17565b6001600160a01b03610381602460043501613c88565b1615610e20576001600160a01b0361039d604460043501613c88565b1615610dd2576001600160a01b036103b9604460043501613c88565b1660005261012d60205260ff6040600020541615610d79576001600160a01b036103e7606460043501613c88565b1615610d2b576001600160a01b03610403606460043501613c88565b1660005261012d60205260ff6040600020541615610cd2576001600160a01b03610431608460043501613c88565b1615610c68576001600160a01b0361044d608460043501613c88565b1660005261012d60205260ff6040600020541615610bfe5760005b61047c60e460043501600435600401613c9c565b90508110156104bc57806104b26104aa6104b7936104a460e460043501600435600401613c9c565b90613cd2565b351515613cf8565b613634565b610468565b6007610164600435013510156102b4576101646004350135610b92575b610184600435013560048110156102b4576104f381613402565b610b7b575b6101c4600435013560048110156102b45761051281613402565b610b64575b61059561064861052b600480350180613b73565b906001600160a01b03610542602460043501613c88565b81610551604460043501613c88565b81610560606460043501613c88565b9181610570608460043501613c88565b9561059c61058860e460043501600435600401613c9c565b9a909b6040519e8f6131c2565b3691613255565b8c52600060208d0152600060408d0152600060608d0152600060808d0152600060a08d0152600060c08d0152600060e08d015260006101008d015260006101208d015260016101408d0152166101608b015216610180890152166101a0870152166101c085015260a460043501356101e085015260c46004350135610200850152610104600435013561022085015261063b3661012460043501613db4565b6102408501523691613df0565b61026082015261065e3661018460043501613e6e565b610280820152610674366101c460043501613e6e565b6102a0820152602061068a600480350180613b73565b919082604051938492833761012e81830152810103019020815191825167ffffffffffffffff8111610a81576106c083546132fe565b601f8111610b20575b506020601f8211600114610ab85781929394600092610aad575b50508160011b916000199060031b1c19161782555b6020810151600183015560408101516002830155606081015160038301556080810151600483015560a0810151600583015560c0810151600683015560e08101516007830155610100810151600883015561012081015160098301556101408101516005811015610a9757610771600a84019182613ea0565b61016082015174ffffffffffffffffffffffffffffffffffffffff001974ffffffffffffffffffffffffffffffffffffffff0083549260081b169116179055600b82016001600160a01b03610180830151169073ffffffffffffffffffffffffffffffffffffffff199182825416179055600c83016001600160a01b036101a08401511682825416179055600d8301906001600160a01b036101c084015116908254161790556101e0810151600e830155610200810151600f830155610220810151601083015561024081015180516011840155602081015160128401556040601384019101516007811015610a975760ff80198354169116179055610260810151805190680100000000000000008211610a81576014840154826014860155808310610a01575b506020016014840160005260206000206000915b8383106109c35785601860208781601585016102808301519081516108d181613402565b6108da81613402565b60ff80198354169116179055015160168501556102a06017850191015190815161090381613402565b61090c81613402565b60ff801983541691161790550151910155610931600435600401600435600401613b73565b90610940602460043501613c88565b916020610951600480350180613b73565b9190826040519384928337810161012e81520301902091816040519283928337810160008152039020907f31b2dd515a8ffb0724ce0f020933729104acaee276277c41160d3d3eefc9d5786001600160a01b0360405194602086521693806109be33946020830190613ecb565b0390a4005b60026020826001935180518655828587019101516109e081613402565b6109e981613402565b60ff80198354169116179055019201920191906108ad565b7f7fffffffffffffffffffffffffffffffffffffffffffffffffffffffffffffff8082168203610a6b5783168303610a6b576014850160005260206000208360011b81015b8260011b82018110610a59575050610899565b60008082556001820155600201610a46565b634e487b7160e01b600052601160045260246000fd5b634e487b7160e01b600052604160045260246000fd5b634e487b7160e01b600052602160045260246000fd5b0151905084806106e3565b8360005260206000209060005b601f1984168110610b085750600193949583601f19811610610aef575b505050811b0182556106f8565b015160001960f88460031b161c19169055848080610ae2565b9091602060018192858a015181550193019101610ac5565b836000526020600020601f830160051c810160208410610b5d575b601f830160051c82018110610b515750506106c9565b60008155600101610b3b565b5080610b3b565b610b766101e460043501351515613d69565b610517565b610b8d6101a460043501351515613d69565b6104f8565b60056101646004350135148015610bed575b15610bdb57610bc461012460043501358015159081610bc9575b50613d69565b6104d9565b90506101446004350135101582610bbe565b610bc461012460043501351515613d69565b506006610164600435013514610ba4565b608460405162461bcd60e51b815260206004820152602e60248201527f416464726573733a20746172676574546f6b656e41646472657373206973206e60448201527f6f742077686974656c69737465640000000000000000000000000000000000006064820152fd5b608460405162461bcd60e51b815260206004820152602360248201527f416464726573733a20696e76616c696420746172676574546f6b656e4164647260448201527f65737300000000000000000000000000000000000000000000000000000000006064820152fd5b608460405162461bcd60e51b815260206004820152602c60248201527f416464726573733a2062617365546f6b656e41646472657373206973206e6f7460448201526b081dda1a5d195b1a5cdd195960a21b6064820152fd5b608460405162461bcd60e51b815260206004820152602160248201527f416464726573733a20696e76616c69642062617365546f6b656e4164647265736044820152607360f81b6064820152fd5b608460405162461bcd60e51b815260206004820152602c60248201527f416464726573733a20616d6d526f7574657241646472657373206973206e6f7460448201526b081dda1a5d195b1a5cdd195960a21b6064820152fd5b608460405162461bcd60e51b815260206004820152602160248201527f416464726573733a20696e76616c696420616d6d526f757465724164647265736044820152607360f81b6064820152fd5b606460405162461bcd60e51b815260206004820152601660248201527f416464726573733a20696e76616c6964206f776e6572000000000000000000006044820152fd5b606460405162461bcd60e51b815260206004820152601860248201527f49443a20746865206964206973206e6f7420756e6971756500000000000000006044820152fd5b613104565b346102b45760003660031901126102b4576020604051620f42408152f35b346102b4576003196040368201126102b45760043567ffffffffffffffff8082116102b4576060826004019383360301126102b4576024359081116102b457610f18903690600401612fe4565b92610f21614067565b610f2a81613c88565b6001600160a01b0390811660009081527fdff3dc04e5be5d758e3cbf436c1eaac83caf9b19278dbb9a033498f210d28585602052604090205460ff168015611015575b610f7690614507565b602484019160446020610f898584613b73565b9190826040519384928337810161012e81520301902095013560058110156102b457610ff1610fe97fba45d725ab265e638684c538e195eab9be37cf512eeea7680f2521070daee76e95610fe36109be94600a8b01613ea0565b84613b73565b919093613c88565b928160405192839283378101600081520390209560405193849316973396846144cd565b50610f766110386110296024870185613b73565b61103286613c88565b916135ed565b9050610f6d565b346102b4576020806003193601126102b45760043567ffffffffffffffff81116102b457611071903690600401612fe4565b919060405161107f816131fb565b6000815282810160009052604001600090528160405161109e816131df565b600081520160009052816040516110b4816131df565b60008152016000905260405192808285378084019061012e9182815285856001600160a01b0397889303019020600b015416948060405183868237868185810187815203019020600c0154169060405183868237868185810187815203019020600d01541660405183868237868185810187815203019020600e015460405184878237878186810188815203019020600f0154916040518588823788818781018981520301902060100154936040518689823789818881018a815203019020600901549589604051828b823781818481018c815203019020601101996040518382823782818581018d81520301902060150199836040519485938437820190815203019020601701976111c6906133ce565b966111d09061340c565b976111da9061340c565b986040519a8b528a015260408901526060880152608087015260a086015260c085015260e0840161120a91613475565b610140830161121891613497565b610180820161122691613497565b6101c090f35b346102b45760403660031901126102b457610248611248613049565b611250613526565b6004356134af565b346102b457602061127461126b36613012565b92919091613a2a565b6040519015158152f35b346102b45760203660031901126102b45760043567ffffffffffffffff81116102b4576112af903690600401612fe4565b604051908083833760ff600a8284019360208161012e9687815203019020015416926005841015610a97576001602094149283611320575b836112fa575b5050506040519015158152f35b6009935090849183604051948593843782019081520301902001544210158280806112ed565b9250600e604051838382378581858101878152030190200154421015926112e7565b346102b45760203660031901126102b45760043567ffffffffffffffff81116102b4576001600160a01b03600a6113886113826020943690600401612fe4565b906135d3565b015460081c16604051908152f35b346102b4576003196040368201126102b45767ffffffffffffffff906004358281116102b4576040816004019282360301126102b4576024359283116102b4577fba45d725ab265e638684c538e195eab9be37cf512eeea7680f2521070daee76e6001600160a01b0361140f6024953690600401612fe4565b95909361141a614067565b019361143a61143561142c8784613b73565b61103285613c88565b614578565b6109be610ff1610fe9602061144f8986613b73565b9190826040519384928337810161012e81520301902097600060068a0155600060078a0155600a8901600460ff1982541617905584613b73565b346102b45760403660031901126102b4576114a261305f565b602435908115158092036102b4576001600160a01b03906114c1613526565b16908160005261012d602052604060002060ff1981541660ff83161790556040519081527f8962d218b945501046dadd801583f3157c2c995f2dfa67789f7d6793a40e841d60203392a3005b346102b45761151b36613075565b9190611525614067565b7fba45d725ab265e638684c538e195eab9be37cf512eeea7680f2521070daee76e6020830161155381613c88565b6001600160a01b0390811660009081527fdff3dc04e5be5d758e3cbf436c1eaac83caf9b19278dbb9a033498f210d28585602052604090205490919060ff168015611601575b6115a290614507565b6109be610ff1610fe960206115b78980613b73565b9190826040519384928337810161012e81520301902097604081013560048a015560608101358060058b01556115f260068b01918254613a1d565b9055600060078a015580613b73565b506115a261161261142c8780613b73565b9050611599565b346102b45760203660031901126102b45760043567ffffffffffffffff81116102b45761164a903690600401612fe4565b604051908083833760ff600a8284019360208161012e9687815203019020015416926005841015610a97576004602094141592836116ba575b83611695575050506040519015158152f35b60079350908491836040519485938437820190815203019020015415158280806112ed565b9250600e60405183838237858185810187815203019020015442101592611683565b346102b457602060ff611705826116f23661329c565b81604051938285809451938492016132db565b810161012f81520301902054166040519015158152f35b346102b4576020806003193601126102b45760043567ffffffffffffffff81116102b4576117536113826014923690600401612fe4565b019081546117608161361c565b9061176e6040519283613233565b8082528282018094600052836000206000915b8383106117db5760408051878152865181890181905289928201908960005b8281106117ad5784840385f35b9091928260406001928289518051835201516117c881613402565b83820152019601910194929190946117a0565b6002866001926040516117ed816131df565b8554815260ff858701541661180181613402565b83820152815201920192019190611781565b346102b45760003660031901126102b457602060405160008152f35b346102b45761183d366130c1565b9060405191818484378183019261012e93848152600a8260206001600160a01b0394859403019020015460081c169116149182611882575b6020836040519015158152f35b600a925060ff936020918360405194859384378201908152030190200154166005811015610a97576001602091148280611875565b346102b4576118c536613075565b91906118cf614067565b7fba45d725ab265e638684c538e195eab9be37cf512eeea7680f2521070daee76e6001600160a01b03602084019361190d61143561142c8784613b73565b6109be610ff1610fe960206119228986613b73565b9190826040519384928337810161012e815203019020976001890180549061194f60408801358093613a1d565b905561196060068b01918254613a1d565b905584613b73565b346102b45760203660031901126102b45760043567ffffffffffffffff81116102b457600761199d6040923690600401612fe4565b8351929160209082818637600683860195838161012e98898152030190200154948387519485938437820190815203019020015482519182526020820152f35b346102b45760003660031901126102b45760206040517f523a704056dcd17bcf83bed8b68c59416dac1119be77755efe3bde0a64e46e0c8152f35b346102b45760403660031901126102b457611a31613049565b60043560005260c96020526001600160a01b0360406000209116600052602052602060ff604060002054166040519015158152f35b346102b45760203660031901126102b4576001600160a01b03611a8761305f565b1660005261012d602052602060ff604060002054166040519015158152f35b346102b45760003660031901126102b45760206001600160a01b0360fb5416604051908152f35b346102b45760003660031901126102b457611ae6613526565b611aee614294565b60335460ff8116611b305760019060ff1916176033557f62e78cea01bee320cd4e420270b5ea74000d11b0c9f74754ebdbfc544b05a2586020604051338152a1005b606460405162461bcd60e51b815260206004820152601060248201527f5061757361626c653a20706175736564000000000000000000000000000000006044820152fd5b346102b457611b823661329c565b6040518181809351602081930191611b99926132db565b810161012e81520360200190206040519081611bb58183613338565b03611bc09083613233565b600181015460a05260028101546101605260038101546101205260048101549160058201546006830154600784015460088501546009860154600a87015490600b8801546001600160a01b031692600c8901546001600160a01b031694600d8a01546001600160a01b031696600e8b015498600f8c01549a60108d01549c60118101611c4b906133ce565b60c052611c5a6015820161340c565b60e052601701611c699061340c565b610100526040518060805261032080915260805101611c8791613436565b9c60a05160805160200152610160516080516040015261012051608051606001526080516080015260805160a0015260805160c0015260805160e00152608051610100015260805161012001526080516101400160ff821690611ce99161345b565b60081c6001600160a01b0316608051610160015260805161018001526080516101a001526080516101c001526080516101e00152608051610200015260805161022001526080516102400160c05190611d4191613475565b6080516102a00160e05190611d5591613497565b6080516102e0016101005190611d6a91613497565b60805180910390f35b346102b4576020611274611032366130c1565b346102b45760003660031901126102b45760005460ff90818160081c161591828093611f98575b8015611f82575b15611f185760ff198281166001176000559183611f06575b50611e008160005460081c16611de1816145e9565b611dea816145e9565b8360335416603355611dfb816145e9565b6145e9565b611e093361357e565b611e268160005460081c16611e1d816145e9565b611dfb816145e9565b60016065553360009081527f81fe90a866a48a634a12852c1be675b683a22307409932a7443b8029347be75660205260409020541615611ea0575b50611e6857005b61ff0019600054166000557f7f26b83ff96e1f2b6a682f133852f6798a09c465da95921460cefb3847402498602060405160018152a1005b3360008181527f81fe90a866a48a634a12852c1be675b683a22307409932a7443b8029347be7566020526040812080549093166001179092559081907f2f8788117e7eff1d82e926ec794901d17c78024a50270940304540a733656f0d8180a481611e61565b61ffff19166101011760005583611dcc565b608460405162461bcd60e51b815260206004820152602e60248201527f496e697469616c697a61626c653a20636f6e747261637420697320616c72656160448201527f647920696e697469616c697a65640000000000000000000000000000000000006064820152fd5b50303b158015611db45750600181831614611db4565b50600181831610611dad565b346102b457611fb2366130c1565b9060405191818484378183019261012e93848152600a8260206001600160a01b0394859403019020015460081c169116149182611ff6576020836040519015158152f35b600a925060ff936020918360405194859384378201908152030190200154166005811015610a97576002602091148280611875565b346102b457612039366130c1565b9060405191818484378183019261012e93848152600a8260206001600160a01b0394859403019020015460081c16911614918261207d576020836040519015158152f35b600a925060ff936020918360405194859384378201908152030190200154166005811015610a97576003602091148280611875565b346102b45760003660031901126102b4576120cb613526565b60006001600160a01b0360fb5473ffffffffffffffffffffffffffffffffffffffff19811660fb55167f8be0079c531659141344cd1fd0a4f28419497f9722a3daafe3b4186f6b6457e08280a3005b346102b45760003660031901126102b457602060ff603354166040519015158152f35b346102b45760203660031901126102b45760043567ffffffffffffffff81116102b4576112746121736020923690600401612fe4565b90613643565b346102b45760003660031901126102b457612192613526565b61219a614294565b60335460ff8116156121d95760ff19166033557f5db9ee0a495bf2e6ff9c91a7834c1ba4fdd244a5e8aa4e537bd38aeae4b073aa6020604051338152a1005b606460405162461bcd60e51b815260206004820152601460248201527f5061757361626c653a206e6f74207061757365640000000000000000000000006044820152fd5b346102b4576003196040368201126102b45767ffffffffffffffff600435116102b45761018090600435360301126102b45760243567ffffffffffffffff81116102b45761226f903690600401612fe4565b612277614067565b612285600480350180613b73565b90600160ff6040518484823761012f85820152602081868101030190205416151503612bc157816020600a926001600160a01b03946040519384928337810161012e815203019020015460081c1615612b7d576122ea42602460043501351015613ba6565b6122fe610e10608460043501351015613c17565b60005b612315606460043501600435600401613c9c565b905081101561234257806104b26104aa61233d936104a4606460043501600435600401613c9c565b612301565b50600760e4600435013510156102b45760e46004350135612b17575b610104600435013560048110156102b45761237881613402565b612b00575b60046101448135013510156102b45761239c6101446004350135613402565b6101446004350135612ae9575b60206123b9600480350180613b73565b9190826040519384928337810161012e815203019020916123e4606460043501600435600401613c9c565b90600a850154916001600160a01b03600b870154166001600160a01b03600c880154166001600160a01b03600d89015416918860018101546003820154600283015490600484015460058501549060068601549260078701549460088801549661246c61247360098b01549a61246060405180610140526131c2565b60405192838092613338565b0382613233565b6101405152602061014051015260406101405101526060610140510152608061014051015260a061014051015260c061014051015260e0610140510152610100610140510152610120610140510152600560ff87161015610a97576001600160a01b038660ff61255c98166101408051015260081c166101606101405101526101806101405101526101a06101405101526101c0610140510152602460043501356101e0610140510152604460043501356102006101405101526084600435013561022061014051015261254c3660a460043501613db4565b6102406101405101523691613df0565b6102606101405101526125753661010460043501613e6e565b61028061014051015261258e3661014460043501613e6e565b610140516102a0015260206125a7600480350180613b73565b9190826040519384928337810161012e815203019020610140515180519067ffffffffffffffff8211610a815781906125e084546132fe565b601f8111612a99575b50602090601f8311600114612a2d57600092612a22575b50508160011b916000199060031b1c19161781555b61014080516020810151600184015560408101516002840155606081015160038401556080810151600484015560a0810151600584015560c0810151600684015560e081015160078401556101008101516008840155610120810151600984015501516005811015610a975761268f600a83019182613ea0565b610140519061016082015174ffffffffffffffffffffffffffffffffffffffff001974ffffffffffffffffffffffffffffffffffffffff0083549260081b169116179055600b82016001600160a01b03610180830151169073ffffffffffffffffffffffffffffffffffffffff199182825416179055600c83016001600160a01b036101a08401511682825416179055600d8301906001600160a01b036101c084015116908254161790556101e0810151600e830155610200810151600f8301556102208101516010830155604061024082015180516011850155602081015160128501550151906007821015610a97576102609160ff801960138601541691161760138401550151805190680100000000000000008211610a815760148301548260148501558083106129b8575b506020016014830160005260206000206000915b83831061297a57505050506020601582016102806101405101519081516127f881613402565b61280181613402565b60ff801983541691161790550151601682015560186020601783016102a061014051015190815161283181613402565b61283a81613402565b60ff8019835416911617905501519101556001600160a01b03600a84015460081c16926020612873600435600401600435600401613b73565b9190826040519384928337810161012e815203019020906040519060009080549061289d826132fe565b916001811690811561294357506001146128ee575b505090807fba45d725ab265e638684c538e195eab9be37cf512eeea7680f2521070daee76e9392039020936109be6040519283923396846144cd565b90915060005260206000206000905b82821061292f5750508101817fba45d725ab265e638684c538e195eab9be37cf512eeea7680f2521070daee76e6128b2565b6001816020925484870152019101906128fd565b60ff1916855250508015150282019050817fba45d725ab265e638684c538e195eab9be37cf512eeea7680f2521070daee76e6128b2565b600260208260019351805186558285870191015161299781613402565b6129a081613402565b60ff80198354169116179055019201920191906127d2565b7f7fffffffffffffffffffffffffffffffffffffffffffffffffffffffffffffff8082168203610a6b5783168303610a6b576014840160005260206000208360011b81015b8260011b82018110612a105750506127be565b600080825560018201556002016129fd565b015190508680612600565b9250836000526020600020906000935b601f1984168510612a7e576001945083601f19811610612a65575b505050811b018155612615565b015160001960f88460031b161c19169055868080612a58565b81810151835560209485019460019093019290910190612a3d565b909150836000526020600020601f840160051c810160208510612ae2575b90849392915b601f830160051c82018110612ad35750506125e9565b60008155859450600101612abd565b5080612ab7565b612afb61016460043501351515613d69565b6123a9565b612b1261012460043501351515613d69565b61237d565b600560e46004350135148015612b6d575b15612b5c57612b4660a460043501358015159081612b4b5750613d69565b61235e565b905060c46004350135101584610bbe565b612b4660a460043501351515613d69565b50600660e4600435013514612b28565b606460405162461bcd60e51b815260206004820152601660248201527f506f636b65743a20696e76616c696420706f636b6574000000000000000000006044820152fd5b606460405162461bcd60e51b815260206004820152601a60248201527f49443a20746865206964206d75737420626520657869737465640000000000006044820152fd5b346102b457612c1336613075565b9190612c1d614067565b612c2682613c88565b6001600160a01b0390811660009081527fdff3dc04e5be5d758e3cbf436c1eaac83caf9b19278dbb9a033498f210d28585602052604090205460ff168015612d3f575b612c7290614507565b60208301906020612c838386613b73565b9190826040519384928337810161012e81520301902093612ca8601086015442613a1d565b60098601556008850180549060018201809211610a6b575560028501805490612cd660408401358093613a1d565b90556003860190815491612cef60608501358094613a1d565b9055600687018054918203918211610a6b577fba45d725ab265e638684c538e195eab9be37cf512eeea7680f2521070daee76e956109be93610ff193610fe9935561196060078b01918254613a1d565b50612c72612d5c612d536020860186613b73565b61103287613c88565b9050612c69565b346102b45760403660031901126102b457612d7c613049565b336001600160a01b03821603612d9857610248906004356134af565b608460405162461bcd60e51b815260206004820152602f60248201527f416363657373436f6e74726f6c3a2063616e206f6e6c792072656e6f756e636560448201527f20726f6c657320666f722073656c6600000000000000000000000000000000006064820152fd5b346102b45760403660031901126102b457600435612e1e613049565b612e26613526565b8160005260c96020526001600160a01b0360406000209116908160005260205260ff6040600020541615612e5657005b8160005260c96020526040600020816000526020526040600020600160ff1982541617905533917f2f8788117e7eff1d82e926ec794901d17c78024a50270940304540a733656f0d600080a4005b346102b45760203660031901126102b45760043560005260c96020526020600160406000200154604051908152f35b346102b45760003660031901126102b45760206040517fab4f864e5201b0fde9b5ee3e4cf96384802b0ffdfcf7f9de4699ce21a30afc4f8152f35b346102b4576020611274612f2136613012565b92919091613897565b346102b4576020611274612f3d36613012565b92919091613749565b346102b45760203660031901126102b457600435907fffffffff0000000000000000000000000000000000000000000000000000000082168092036102b457817f7965db0b0000000000000000000000000000000000000000000000000000000060209314908115612fba575b5015158152f35b7f01ffc9a70000000000000000000000000000000000000000000000000000000091501483612fb3565b9181601f840112156102b45782359167ffffffffffffffff83116102b457602083818601950101116102b457565b60606003198201126102b4576004359067ffffffffffffffff82116102b45761303d91600401612fe4565b90916024359060443590565b602435906001600160a01b03821682036102b457565b600435906001600160a01b03821682036102b457565b906003196040818401126102b45760043567ffffffffffffffff918282116102b45760809082860301126102b457600401926024359182116102b4576130bd91600401612fe4565b9091565b60406003198201126102b4576004359067ffffffffffffffff82116102b4576130ec91600401612fe4565b90916024356001600160a01b03811681036102b45790565b346102b457613112366130c1565b9060405191818484378183019261012e93848152600a8260206001600160a01b0394859403019020015460081c169116149182613192575b8261315c576020836040519015158152f35b600a925060ff936020918360405194859384378201908152030190200154166005811015610a9757600460209114153880611875565b915060ff600a60405183868237602081858101878152030190200154166005811015610a9757600314159161314a565b6102c0810190811067ffffffffffffffff821117610a8157604052565b6040810190811067ffffffffffffffff821117610a8157604052565b6060810190811067ffffffffffffffff821117610a8157604052565b6080810190811067ffffffffffffffff821117610a8157604052565b90601f8019910116810190811067ffffffffffffffff821117610a8157604052565b92919267ffffffffffffffff8211610a81576040519161327f601f8201601f191660200184613233565b8294818452818301116102b4578281602093846000960137010152565b60206003198201126102b4576004359067ffffffffffffffff82116102b457806023830112156102b4578160246132d893600401359101613255565b90565b60005b8381106132ee5750506000910152565b81810151838201526020016132de565b90600182811c9216801561332e575b602083101461331857565b634e487b7160e01b600052602260045260246000fd5b91607f169161330d565b9060009291805491613349836132fe565b9182825260019384811690816000146133ab575060011461336b575b50505050565b90919394506000526020928360002092846000945b838610613397575050505001019038808080613365565b805485870183015294019385908201613380565b9294505050602093945060ff191683830152151560051b01019038808080613365565b906040516133db816131fb565b60ff600282948054845260018101546020850152015416906007821015610a975760400152565b60041115610a9757565b90604051613419816131df565b60206001829460ff81541661342d81613402565b84520154910152565b9060209161344f815180928185528580860191016132db565b601f01601f1916010190565b906005821015610a975752565b906007821015610a975752565b906040806134959380518452602081015160208501520151910190613468565b565b6020809180516134a681613402565b84520151910152565b9060009180835260c96020526001600160a01b036040842092169182845260205260ff6040842054166134e157505050565b80835260c9602052604083208284526020526040832060ff1981541690557ff6391f5c32d9c69d2a47ea670b442974b53935d1edc7fd64eb21e047a839171b339380a4565b6001600160a01b0360fb5416330361353a57565b606460405162461bcd60e51b815260206004820152602060248201527f4f776e61626c653a2063616c6c6572206973206e6f7420746865206f776e65726044820152fd5b60fb54906001600160a01b03809116918273ffffffffffffffffffffffffffffffffffffffff1982161760fb55167f8be0079c531659141344cd1fd0a4f28419497f9722a3daafe3b4186f6b6457e0600080a3565b602090826040519384928337810161012e81520301902090565b9080604051928337810161012e8152600a8260206001600160a01b0394859403019020015460081c1691161490565b67ffffffffffffffff8111610a815760051b60200190565b6000198114610a6b5760010190565b6014604051928083853780840161012e93848252856020809781940301902094836040519485938437820190815203019020019182549283156137405760005b848110613694575050505050600090565b816000528260002060019082821b019060ff8183015416906136b582613402565b8115613731576136c482613402565b8114613720576136d381613402565b600280821461370f57506136e681613402565b60038091146136ff5750506136fa90613634565b613683565b9493509450505001549054111590565b959450509450505001549054111590565b509450505050600801549054111590565b50509450505050505442101590565b50505050600090565b909291926020604051928281853782840193828161012e96878152030190209383604051948593843782019081520301902092601184019160ff601386015416936007851015610a9757841561385257600f6137a79201549061385d565b811561383c57049160038114613834576004811461382b5760018114613823576002811461381a57600581146137ff576006146137e657505050600190565b5481109182156137f557505090565b6012015410919050565b5054811015918261380f57505090565b601201541015919050565b50541115919050565b505410919050565b50541015919050565b505411919050565b634e487b7160e01b600052601260045260246000fd5b505050505050600190565b81810292918115918404141715610a6b57565b908160209103126102b4575160ff811681036102b45790565b604d8111610a6b57600a0a90565b906020604051928281853782840193828161012e9687815203019020938360405194859384378201908152030190209160ff601584015416906138d982613402565b8115613a13576138e882613402565b6001821461397957506138fa81613402565b60038114613960578061390e600292613402565b1461391b57505050600090565b6002015490818311156139585781830392808411610a6b5782620f42408086029586041491141715610a6b57811561383c57601601549104101590565b505050600090565b506002015460169091015461397491613a1d565b111590565b9293905060206001600160a01b03600d6004940154166040519384809263313ce56760e01b82525afa8015613a075760ff6139c1916139c7946000916139d9575b5016613889565b9061385d565b91811561383c57601601549104101590565b6139fa915060203d8111613a00575b6139f28183613233565b810190613870565b386139ba565b503d6139e8565b6040513d6000823e3d90fd5b5050505050600090565b91908201809211610a6b57565b906020604051928281853782840193828161012e9687815203019020938360405194859384378201908152030190209160ff60178401541690613a6c82613402565b8115613a1357613a7b82613402565b60018214613b1a5750613a8d81613402565b60038114613aea5780613aa1600292613402565b14613aae57505050600090565b60020154908183116139585782820392828411610a6b57620f4240808502948504149083141715610a6b57811561383c57601801549104101590565b506002015490818311159283613b01575b50505090565b82039250908211610a6b57601801541115388080613afb565b9293905060206001600160a01b03600d6004940154166040519384809263313ce56760e01b82525afa8015613a075760ff6139c191613b61946000916139d9575016613889565b91811561383c57601801549104111590565b903590601e19813603018212156102b4570180359067ffffffffffffffff82116102b4576020019181360383136102b457565b15613bad57565b608460405162461bcd60e51b815260206004820152603360248201527f54696d657374616d703a206d75737420626520657175616c206f72206772656160448201527f746572207468616e20626c6f636b2074696d65000000000000000000000000006064820152fd5b15613c1e57565b608460405162461bcd60e51b815260206004820152602f60248201527f4672657175656e63793a206d75737420626520657175616c206f72206772656160448201527f746572207468616e203120686f757200000000000000000000000000000000006064820152fd5b356001600160a01b03811681036102b45790565b903590601e19813603018212156102b4570180359067ffffffffffffffff82116102b457602001918160061b360383136102b457565b9190811015613ce25760061b0190565b634e487b7160e01b600052603260045260246000fd5b15613cff57565b608460405162461bcd60e51b815260206004820152602560248201527f53746f70436f6e646974696f6e3a2076616c7565206d757374206e6f7420626560448201527f207a65726f0000000000000000000000000000000000000000000000000000006064820152fd5b15613d7057565b606460405162461bcd60e51b815260206004820152601e60248201527f56616c7565436f6d70617269736f6e3a20696e76616c69642076616c756500006044820152fd5b91908260609103126102b457604051613dcc816131fb565b60408193803583526020810135602084015201359060078210156102b45760400152565b929192613dfc8261361c565b604092613e0b84519283613233565b819581835260208093019160061b8401938185116102b457915b848310613e3457505050505050565b85838303126102b457855190613e49826131df565b83358252848401359060048210156102b457828692838a950152815201920191613e25565b91908260409103126102b457604051613e86816131df565b8092803560048110156102b4578252602090810135910152565b906005811015610a975760ff80198354169116179055565b600160209160ff81541661342d81613402565b613edc610340808452830182613338565b9160018083015490602091828401526002948585015495604096878601526003860154606086015260048601546080860152600586015460a0860152600686015460c0860152600786015460e086015260088601546101008601526009860154610120860152600a86015460ff90613f5a610140880183831661345b565b6001600160a01b03809160081c1661016088015280600b8901541661018088015280600c890154166101a0880152600d880154166101c0870152600e8701546101e0870152600f870154610200870152601087015461022087015260118701546102408701526012870154610260870152613fe081601389015416610280880190613468565b60148701978684036102a088015285895494858152019860005285600020956000925b8584106140355750505050505050509060176103008361402d6102c06132d8960160158601613eb8565b019101613eb8565b9091929394958584899c84848c819d54845201541661405381613402565b81870152019b019796959401929190614003565b3360009081527fababaf7989d9b96df7f991dae98f597c453af71e297bb6242f6602d99c1a6579602090815260408083205490927fab4f864e5201b0fde9b5ee3e4cf96384802b0ffdfcf7f9de4699ce21a30afc4f9160ff16156140cb5750505050565b6140d4336143cf565b918451906140e182613217565b6042825284820192606036853782511561428057603084538251906001918210156142805790607860218501536041915b818311614212575050506141d05760486141cc9386936141b0936141a198519889937f416363657373436f6e74726f6c3a206163636f756e74200000000000000000008a86015261416c815180928c6037890191016132db565b8401917f206973206d697373696e6720726f6c65200000000000000000000000000000006037840152518093868401906132db565b01036028810187520185613233565b5192839262461bcd60e51b845260048401526024830190613436565b0390fd5b60648486519062461bcd60e51b825280600483015260248201527f537472696e67733a20686578206c656e67746820696e73756666696369656e746044820152fd5b909192600f8116601081101561426c576f181899199a1a9b1b9c1cb0b131b232b360811b901a61424285876143be565b5360041c92801561425857600019019190614112565b602482634e487b7160e01b81526011600452fd5b602483634e487b7160e01b81526032600452fd5b80634e487b7160e01b602492526032600452fd5b3360009081527f81fe90a866a48a634a12852c1be675b683a22307409932a7443b8029347be756602090815260408083205490929060ff16156142d657505050565b6142df336143cf565b90808451906142ed82613217565b6042825284820192606036853782511561428057603084538251906001918210156142805790607860218501536041915b818311614378575050506141d05760486141cc9386936141b0936141a198519889937f416363657373436f6e74726f6c3a206163636f756e74200000000000000000008a86015261416c815180928c6037890191016132db565b909192600f8116601081101561426c576f181899199a1a9b1b9c1cb0b131b232b360811b901a6143a885876143be565b5360041c9280156142585760001901919061431e565b908151811015613ce2570160200190565b604051906143dc826131fb565b602a8252602082016040368237825115613ce257603090538151600190811015613ce257607860218401536029905b80821161445f57505061441b5790565b606460405162461bcd60e51b815260206004820152602060248201527f537472696e67733a20686578206c656e67746820696e73756666696369656e746044820152fd5b9091600f811660108110156144b8576f181899199a1a9b1b9c1cb0b131b232b360811b901a61448e84866143be565b5360041c9180156144a357600019019061440b565b60246000634e487b7160e01b81526011600452fd5b60246000634e487b7160e01b81526032600452fd5b826132d8949360609360408452816040850152848401376000838284010152601f8019910116810190602083828403019101520190613ecb565b1561450e57565b608460405162461bcd60e51b815260206004820152602b60248201527f4f7065726174696f6e206572726f723a206f7065726174696f6e206973206e6f60448201527f74207065726d69747465640000000000000000000000000000000000000000006064820152fd5b1561457f57565b608460405162461bcd60e51b815260206004820152602360248201527f5065726d697373696f6e3a206e6f74207065726d6974746564206f706572617460448201527f696f6e00000000000000000000000000000000000000000000000000000000006064820152fd5b156145f057565b608460405162461bcd60e51b815260206004820152602b60248201527f496e697469616c697a61626c653a20636f6e7472616374206973206e6f74206960448201527f6e697469616c697a696e670000000000000000000000000000000000000000006064820152fdfea26469706673582212205c875739aedb99f2d15fbd98ed9f791b3363b997981618da4ac6a84003298c7a64736f6c63430008130033",
  "linkReferences": {},
  "deployedLinkReferences": {}
}