{
  "_format": "hh-sol-artifact-1",
  "contractName": "PocketChef",
  "sourceName": "contracts/PocketChef.sol",
  "abi": [
    {
      "inputs": [],
      "stateMutability": "nonpayable",
      "type": "constructor"
    },
    {
      "anonymous": false,
      "inputs": [
        {
          "indexed": false,
          "internalType": "uint8",
          "name": "version",
          "type": "uint8"
        }
      ],
      "name": "Initialized",
      "type": "event"
    },
    {
      "anonymous": false,
      "inputs": [
        {
          "indexed": true,
          "internalType": "address",
          "name": "previousOwner",
          "type": "address"
        },
        {
          "indexed": true,
          "internalType": "address",
          "name": "newOwner",
          "type": "address"
        }
      ],
      "name": "OwnershipTransferred",
      "type": "event"
    },
    {
      "anonymous": false,
      "inputs": [
        {
          "indexed": false,
          "internalType": "address",
          "name": "account",
          "type": "address"
        }
      ],
      "name": "Paused",
      "type": "event"
    },
    {
      "anonymous": false,
      "inputs": [
        {
          "indexed": true,
          "internalType": "address",
          "name": "actor",
          "type": "address"
        },
        {
          "indexed": false,
          "internalType": "address",
          "name": "updatedAddress",
          "type": "address"
        }
      ],
      "name": "RegistryUpdated",
      "type": "event"
    },
    {
      "anonymous": false,
      "inputs": [
        {
          "indexed": false,
          "internalType": "address",
          "name": "account",
          "type": "address"
        }
      ],
      "name": "Unpaused",
      "type": "event"
    },
    {
      "anonymous": false,
      "inputs": [
        {
          "indexed": true,
          "internalType": "address",
          "name": "actor",
          "type": "address"
        },
        {
          "indexed": false,
          "internalType": "address",
          "name": "updatedAddress",
          "type": "address"
        }
      ],
      "name": "VaultUpdated",
      "type": "event"
    },
    {
      "inputs": [
        {
          "internalType": "string",
          "name": "pocketId",
          "type": "string"
        }
      ],
      "name": "closePocket",
      "outputs": [],
      "stateMutability": "nonpayable",
      "type": "function"
    },
    {
      "inputs": [
        {
          "components": [
            {
              "internalType": "string",
              "name": "id",
              "type": "string"
            },
            {
              "internalType": "address",
              "name": "owner",
              "type": "address"
            },
            {
              "internalType": "address",
              "name": "ammRouterAddress",
              "type": "address"
            },
            {
              "internalType": "address",
              "name": "baseTokenAddress",
              "type": "address"
            },
            {
              "internalType": "address",
              "name": "targetTokenAddress",
              "type": "address"
            },
            {
              "internalType": "uint256",
              "name": "startAt",
              "type": "uint256"
            },
            {
              "internalType": "uint256",
              "name": "batchVolume",
              "type": "uint256"
            },
            {
              "components": [
                {
                  "internalType": "uint256",
                  "name": "value",
                  "type": "uint256"
                },
                {
                  "internalType": "enum Types.StopConditionOperator",
                  "name": "operator",
                  "type": "uint8"
                }
              ],
              "internalType": "struct Types.StopCondition[]",
              "name": "stopConditions",
              "type": "tuple[]"
            },
            {
              "internalType": "uint256",
              "name": "frequency",
              "type": "uint256"
            },
            {
              "components": [
                {
                  "internalType": "uint256",
                  "name": "value0",
                  "type": "uint256"
                },
                {
                  "internalType": "uint256",
                  "name": "value1",
                  "type": "uint256"
                },
                {
                  "internalType": "enum Types.ValueComparisonOperator",
                  "name": "operator",
                  "type": "uint8"
                }
              ],
              "internalType": "struct Types.ValueComparison",
              "name": "openingPositionCondition",
              "type": "tuple"
            },
            {
              "components": [
                {
                  "internalType": "enum Types.TradingStopConditionType",
                  "name": "stopType",
                  "type": "uint8"
                },
                {
                  "internalType": "uint256",
                  "name": "value",
                  "type": "uint256"
                }
              ],
              "internalType": "struct Types.TradingStopCondition",
              "name": "takeProfitCondition",
              "type": "tuple"
            },
            {
              "components": [
                {
                  "internalType": "enum Types.TradingStopConditionType",
                  "name": "stopType",
                  "type": "uint8"
                },
                {
                  "internalType": "uint256",
                  "name": "value",
                  "type": "uint256"
                }
              ],
              "internalType": "struct Types.TradingStopCondition",
              "name": "stopLossCondition",
              "type": "tuple"
            }
          ],
          "internalType": "struct Params.CreatePocketParams",
          "name": "params",
          "type": "tuple"
        }
      ],
      "name": "createPocket",
      "outputs": [],
      "stateMutability": "nonpayable",
      "type": "function"
    },
    {
      "inputs": [
        {
          "components": [
            {
              "internalType": "string",
              "name": "id",
              "type": "string"
            },
            {
              "internalType": "address",
              "name": "owner",
              "type": "address"
            },
            {
              "internalType": "address",
              "name": "ammRouterAddress",
              "type": "address"
            },
            {
              "internalType": "address",
              "name": "baseTokenAddress",
              "type": "address"
            },
            {
              "internalType": "address",
              "name": "targetTokenAddress",
              "type": "address"
            },
            {
              "internalType": "uint256",
              "name": "startAt",
              "type": "uint256"
            },
            {
              "internalType": "uint256",
              "name": "batchVolume",
              "type": "uint256"
            },
            {
              "components": [
                {
                  "internalType": "uint256",
                  "name": "value",
                  "type": "uint256"
                },
                {
                  "internalType": "enum Types.StopConditionOperator",
                  "name": "operator",
                  "type": "uint8"
                }
              ],
              "internalType": "struct Types.StopCondition[]",
              "name": "stopConditions",
              "type": "tuple[]"
            },
            {
              "internalType": "uint256",
              "name": "frequency",
              "type": "uint256"
            },
            {
              "components": [
                {
                  "internalType": "uint256",
                  "name": "value0",
                  "type": "uint256"
                },
                {
                  "internalType": "uint256",
                  "name": "value1",
                  "type": "uint256"
                },
                {
                  "internalType": "enum Types.ValueComparisonOperator",
                  "name": "operator",
                  "type": "uint8"
                }
              ],
              "internalType": "struct Types.ValueComparison",
              "name": "openingPositionCondition",
              "type": "tuple"
            },
            {
              "components": [
                {
                  "internalType": "enum Types.TradingStopConditionType",
                  "name": "stopType",
                  "type": "uint8"
                },
                {
                  "internalType": "uint256",
                  "name": "value",
                  "type": "uint256"
                }
              ],
              "internalType": "struct Types.TradingStopCondition",
              "name": "takeProfitCondition",
              "type": "tuple"
            },
            {
              "components": [
                {
                  "internalType": "enum Types.TradingStopConditionType",
                  "name": "stopType",
                  "type": "uint8"
                },
                {
                  "internalType": "uint256",
                  "name": "value",
                  "type": "uint256"
                }
              ],
              "internalType": "struct Types.TradingStopCondition",
              "name": "stopLossCondition",
              "type": "tuple"
            }
          ],
          "internalType": "struct Params.CreatePocketParams",
          "name": "params",
          "type": "tuple"
        }
      ],
      "name": "createPocketAndDepositEther",
      "outputs": [],
      "stateMutability": "payable",
      "type": "function"
    },
    {
      "inputs": [
        {
          "components": [
            {
              "internalType": "string",
              "name": "id",
              "type": "string"
            },
            {
              "internalType": "address",
              "name": "owner",
              "type": "address"
            },
            {
              "internalType": "address",
              "name": "ammRouterAddress",
              "type": "address"
            },
            {
              "internalType": "address",
              "name": "baseTokenAddress",
              "type": "address"
            },
            {
              "internalType": "address",
              "name": "targetTokenAddress",
              "type": "address"
            },
            {
              "internalType": "uint256",
              "name": "startAt",
              "type": "uint256"
            },
            {
              "internalType": "uint256",
              "name": "batchVolume",
              "type": "uint256"
            },
            {
              "components": [
                {
                  "internalType": "uint256",
                  "name": "value",
                  "type": "uint256"
                },
                {
                  "internalType": "enum Types.StopConditionOperator",
                  "name": "operator",
                  "type": "uint8"
                }
              ],
              "internalType": "struct Types.StopCondition[]",
              "name": "stopConditions",
              "type": "tuple[]"
            },
            {
              "internalType": "uint256",
              "name": "frequency",
              "type": "uint256"
            },
            {
              "components": [
                {
                  "internalType": "uint256",
                  "name": "value0",
                  "type": "uint256"
                },
                {
                  "internalType": "uint256",
                  "name": "value1",
                  "type": "uint256"
                },
                {
                  "internalType": "enum Types.ValueComparisonOperator",
                  "name": "operator",
                  "type": "uint8"
                }
              ],
              "internalType": "struct Types.ValueComparison",
              "name": "openingPositionCondition",
              "type": "tuple"
            },
            {
              "components": [
                {
                  "internalType": "enum Types.TradingStopConditionType",
                  "name": "stopType",
                  "type": "uint8"
                },
                {
                  "internalType": "uint256",
                  "name": "value",
                  "type": "uint256"
                }
              ],
              "internalType": "struct Types.TradingStopCondition",
              "name": "takeProfitCondition",
              "type": "tuple"
            },
            {
              "components": [
                {
                  "internalType": "enum Types.TradingStopConditionType",
                  "name": "stopType",
                  "type": "uint8"
                },
                {
                  "internalType": "uint256",
                  "name": "value",
                  "type": "uint256"
                }
              ],
              "internalType": "struct Types.TradingStopCondition",
              "name": "stopLossCondition",
              "type": "tuple"
            }
          ],
          "internalType": "struct Params.CreatePocketParams",
          "name": "params",
          "type": "tuple"
        },
        {
          "internalType": "uint256",
          "name": "depositAmount",
          "type": "uint256"
        }
      ],
      "name": "createPocketAndDepositToken",
      "outputs": [],
      "stateMutability": "nonpayable",
      "type": "function"
    },
    {
      "inputs": [
        {
          "internalType": "string",
          "name": "pocketId",
          "type": "string"
        }
      ],
      "name": "depositEther",
      "outputs": [],
      "stateMutability": "payable",
      "type": "function"
    },
    {
      "inputs": [
        {
          "internalType": "string",
          "name": "pocketId",
          "type": "string"
        },
        {
          "internalType": "uint256",
          "name": "amount",
          "type": "uint256"
        }
      ],
      "name": "depositToken",
      "outputs": [],
      "stateMutability": "nonpayable",
      "type": "function"
    },
    {
      "inputs": [],
      "name": "initialize",
      "outputs": [],
      "stateMutability": "nonpayable",
      "type": "function"
    },
    {
      "inputs": [
        {
          "internalType": "bytes[]",
          "name": "data",
          "type": "bytes[]"
        }
      ],
      "name": "multicall",
      "outputs": [
        {
          "internalType": "bytes[]",
          "name": "results",
          "type": "bytes[]"
        }
      ],
      "stateMutability": "nonpayable",
      "type": "function"
    },
    {
      "inputs": [],
      "name": "owner",
      "outputs": [
        {
          "internalType": "address",
          "name": "",
          "type": "address"
        }
      ],
      "stateMutability": "view",
      "type": "function"
    },
    {
      "inputs": [],
      "name": "pause",
      "outputs": [],
      "stateMutability": "nonpayable",
      "type": "function"
    },
    {
      "inputs": [
        {
          "internalType": "string",
          "name": "pocketId",
          "type": "string"
        }
      ],
      "name": "pausePocket",
      "outputs": [],
      "stateMutability": "nonpayable",
      "type": "function"
    },
    {
      "inputs": [],
      "name": "paused",
      "outputs": [
        {
          "internalType": "bool",
          "name": "",
          "type": "bool"
        }
      ],
      "stateMutability": "view",
      "type": "function"
    },
    {
      "inputs": [],
      "name": "registry",
      "outputs": [
        {
          "internalType": "contract PocketRegistry",
          "name": "",
          "type": "address"
        }
      ],
      "stateMutability": "view",
      "type": "function"
    },
    {
      "inputs": [],
      "name": "renounceOwnership",
      "outputs": [],
      "stateMutability": "nonpayable",
      "type": "function"
    },
    {
      "inputs": [
        {
          "internalType": "string",
          "name": "pocketId",
          "type": "string"
        }
      ],
      "name": "restartPocket",
      "outputs": [],
      "stateMutability": "nonpayable",
      "type": "function"
    },
    {
      "inputs": [
        {
          "internalType": "address",
          "name": "registryAddress",
          "type": "address"
        }
      ],
      "name": "setRegistry",
      "outputs": [],
      "stateMutability": "nonpayable",
      "type": "function"
    },
    {
      "inputs": [
        {
          "internalType": "address",
          "name": "vaultAddress",
          "type": "address"
        }
      ],
      "name": "setVault",
      "outputs": [],
      "stateMutability": "nonpayable",
      "type": "function"
    },
    {
      "inputs": [
        {
          "internalType": "address",
          "name": "newOwner",
          "type": "address"
        }
      ],
      "name": "transferOwnership",
      "outputs": [],
      "stateMutability": "nonpayable",
      "type": "function"
    },
    {
      "inputs": [
        {
          "internalType": "string",
          "name": "pocketId",
          "type": "string"
        }
      ],
      "name": "tryClosingPosition",
      "outputs": [],
      "stateMutability": "nonpayable",
      "type": "function"
    },
    {
      "inputs": [
        {
          "internalType": "string",
          "name": "pocketId",
          "type": "string"
        }
      ],
      "name": "tryMakingDCASwap",
      "outputs": [],
      "stateMutability": "nonpayable",
      "type": "function"
    },
    {
      "inputs": [],
      "name": "unpause",
      "outputs": [],
      "stateMutability": "nonpayable",
      "type": "function"
    },
    {
      "inputs": [
        {
          "components": [
            {
              "internalType": "string",
              "name": "id",
              "type": "string"
            },
            {
              "internalType": "uint256",
              "name": "startAt",
              "type": "uint256"
            },
            {
              "internalType": "uint256",
              "name": "batchVolume",
              "type": "uint256"
            },
            {
              "components": [
                {
                  "internalType": "uint256",
                  "name": "value",
                  "type": "uint256"
                },
                {
                  "internalType": "enum Types.StopConditionOperator",
                  "name": "operator",
                  "type": "uint8"
                }
              ],
              "internalType": "struct Types.StopCondition[]",
              "name": "stopConditions",
              "type": "tuple[]"
            },
            {
              "internalType": "uint256",
              "name": "frequency",
              "type": "uint256"
            },
            {
              "components": [
                {
                  "internalType": "uint256",
                  "name": "value0",
                  "type": "uint256"
                },
                {
                  "internalType": "uint256",
                  "name": "value1",
                  "type": "uint256"
                },
                {
                  "internalType": "enum Types.ValueComparisonOperator",
                  "name": "operator",
                  "type": "uint8"
                }
              ],
              "internalType": "struct Types.ValueComparison",
              "name": "openingPositionCondition",
              "type": "tuple"
            },
            {
              "components": [
                {
                  "internalType": "enum Types.TradingStopConditionType",
                  "name": "stopType",
                  "type": "uint8"
                },
                {
                  "internalType": "uint256",
                  "name": "value",
                  "type": "uint256"
                }
              ],
              "internalType": "struct Types.TradingStopCondition",
              "name": "takeProfitCondition",
              "type": "tuple"
            },
            {
              "components": [
                {
                  "internalType": "enum Types.TradingStopConditionType",
                  "name": "stopType",
                  "type": "uint8"
                },
                {
                  "internalType": "uint256",
                  "name": "value",
                  "type": "uint256"
                }
              ],
              "internalType": "struct Types.TradingStopCondition",
              "name": "stopLossCondition",
              "type": "tuple"
            }
          ],
          "internalType": "struct Params.UpdatePocketParams",
          "name": "params",
          "type": "tuple"
        }
      ],
      "name": "updatePocket",
      "outputs": [],
      "stateMutability": "nonpayable",
      "type": "function"
    },
    {
      "inputs": [],
      "name": "vault",
      "outputs": [
        {
          "internalType": "contract PocketVault",
          "name": "",
          "type": "address"
        }
      ],
      "stateMutability": "view",
      "type": "function"
    },
    {
      "inputs": [
        {
          "internalType": "string",
          "name": "pocketId",
          "type": "string"
        }
      ],
      "name": "withdraw",
      "outputs": [],
      "stateMutability": "nonpayable",
      "type": "function"
    }
  ],
  "bytecode": "0x608080604052346100c2576000549060ff8260081c16610070575060ff80821610610035575b604051612d939081620000c88239f35b60ff90811916176000557f7f26b83ff96e1f2b6a682f133852f6798a09c465da95921460cefb3847402498602060405160ff8152a138610025565b62461bcd60e51b815260206004820152602760248201527f496e697469616c697a61626c653a20636f6e747261637420697320696e697469604482015266616c697a696e6760c81b6064820152608490fd5b600080fdfe6040608081526004908136101561001557600080fd5b600091823560e01c9081631cbe264a14611e9e57816331fb67c214611c5d5783826333ad57e414611c1f575081633f4ba83a14611b805781635c975abb14611b5c5781635e54c034146119195781636817031b146118a0578163715018a61461183757816377c763211461178a5781637b103999146117625781637fa97c26146115f95781638129fc1c146114715781638456cb59146113d05781638da5cb5b146113a8578163a91ee0dc1461132f578163ac9650d8146110d0578163aea7ed3714610e88578163cac9c001146108d0578163cbfc305b1461074357838263dc6514b61461041057508163e3135f0e146103f9578163e4a479b514610206578163f2fde38b14610159575063fbfa77cf1461012f57600080fd5b346101555781600319360112610155576020906001600160a01b0360fc54169051908152f35b5080fd5b90503461020257602036600319011261020257610174612394565b9161017d612431565b6001600160a01b03831615610199578361019684612489565b80f35b906020608492519162461bcd60e51b8352820152602660248201527f4f776e61626c653a206e6577206f776e657220697320746865207a65726f206160448201527f64647265737300000000000000000000000000000000000000000000000000006064820152fd5b8280fd5b8383346101555760209060031982813601126103f557843567ffffffffffffffff81116103f15761023a9036908701612366565b9390956001600160a01b0360fb54169084517f80b443c30000000000000000000000000000000000000000000000000000000081528381806102818c8b33918885016129f4565b0381865afa9081156103e75788916103ba575b5015610352576102b587988651976102ab89612540565b33895236916125e5565b83870152600185870152813b1561034e57868581957f555345525f5245535441525445445f504f434b45540000000000000000000000829661030e84519b8c998a9863384e1a0960e21b8a528901526044880190612ac7565b868103938401602488015260158152015201925af190811561034557506103325750f35b61033b90612510565b6103425780f35b80fd5b513d84823e3d90fd5b8680fd5b6084908386519162461bcd60e51b8352820152602660248201527f4f7065726174696f6e206572726f723a2063616e6e6f7420726573746172742060448201527f706f636b657400000000000000000000000000000000000000000000000000006064820152fd5b6103da9150843d86116103e0575b6103d2818361255c565b8101906129dc565b89610294565b503d6103c8565b86513d8a823e3d90fd5b8480fd5b8380fd5b83346103425761019661040b366123fe565b6127d3565b8091843461073f5760031991818336011261073a5780359267ffffffffffffffff84116103f15761020090848301943603011261073a5761046560243593610456612987565b61045f816127d3565b80612596565b9361046e612987565b6001600160a01b03918260fb541691855192624418eb60e81b845260209384818061049d338d898d85016129f4565b0381855afa9081156106bf576104e692916104bf918c9161071d575b50612b04565b888851809263381635c960e21b8252878a83015281806101c096879560248301908b6126bc565b03915afa9182156106bf57908692918b926106e6575b5050169186517f23b872dd000000000000000000000000000000000000000000000000000000008152338782015230602482015282604482015284816064818d885af19081156106bf5790610557918b916106c95750612b04565b61059084838760fc54168a51938492839263095ea7b360e01b84528c8401602090939291936001600160a01b0360408201951681520152565b03818d885af180156106bf57906105be92916106a2575b508751986105b48a6124de565b338a5236916125e5565b838801528587015260608601528160fc541690813b1561034e57869085519283916322da9c3160e21b8352868301528183816105fd602482018c612c3e565b03925af1801561069857908691610684575b505060fb541692833b156103f1576106569385928385518097819582947f99ba80570000000000000000000000000000000000000000000000000000000084528301612c7d565b03925af19081156103455750610670575b50600160655580f35b61067990612510565b610342578082610667565b61068d90612510565b6103f157848761060f565b84513d88823e3d90fd5b6106b890863d88116103e0576103d2818361255c565b508b6105a7565b88513d8c823e3d90fd5b6106e09150863d88116103e0576103d2818361255c565b8c6104b9565b6107059250803d10610716575b6106fd818361255c565b810190612b95565b505050505050505090508b806104fc565b503d6106f3565b6107349150873d89116103e0576103d2818361255c565b8d6104b9565b505050fd5b5050fd5b8383346101555760209060031982813601126103f557843567ffffffffffffffff81116103f1576107779036908701612366565b9390956001600160a01b0360fb54169084517fe6068d010000000000000000000000000000000000000000000000000000000081528381806107be8c8b33918885016129f4565b0381865afa9081156103e75788916108b3575b5015610865576107e887988651976102ab89612540565b83870152600385870152813b1561034e57868581957f555345525f434c4f5345445f504f434b45540000000000000000000000000000829661084184519b8c998a9863384e1a0960e21b8a528901526044880190612ac7565b868103938401602488015260128152015201925af190811561034557506103325750f35b6084908386519162461bcd60e51b83528201526024808201527f4f7065726174696f6e206572726f723a2063616e6e6f7420636c6f736520706f60448201526318dad95d60e21b6064820152fd5b6108ca9150843d86116103e0576103d2818361255c565b896107d1565b82843461034257600319916020368401811361020257843567ffffffffffffffff81116103f5576109049036908701612366565b949061090e612987565b6001600160a01b03968760fb54169785519863983d273760e01b8a52858a8481845afa998a15610e4a57889a610e54575b508651632474521560e21b81528381019a8b523360208c01529986908b9081906040010381845afa998a15610e4a57899a610983918a9b9a91610e2d575b50612a1c565b85875180927fc11bc90f0000000000000000000000000000000000000000000000000000000082528286830152818060249e8f82016109c2918b6126bc565b03915afa908115610d9f578991610e10575b5015610da957978886610a218a9b60fc54168a83519d8e809481937f6afd431a0000000000000000000000000000000000000000000000000000000083528d8b840152898301908c6126bc565b03925af18015610d9f57899a8a91610d6c575b508160fb54169080888d8c610a758d5194859384937f125167ef0000000000000000000000000000000000000000000000000000000085528d8d8601612aa3565b0381865afa908115610d62578c91610d45575b5015610cde578a9b895192610a9c846124de565b338452610aaa368d8a6125e5565b928a85019384528b850192835260608501908152813b15610cda578d8c8b8d82968c9585998c86519c8d9b8c9a7f368e0b6c000000000000000000000000000000000000000000000000000000008c528b01525116604489015251606488016080905260c48801610b1a916123be565b915160848801525160a48701528581039283018c870152601e8152017f4f50455241544f525f555044415445445f54524144494e475f53544154530000905201925af180156106bf57908a91610cc2575b505060fb54169286517f534ca7a20000000000000000000000000000000000000000000000000000000081528684820152868180610bac8682018d876126bc565b0381885afa9081156106bf578a91610ca5575b50610bce575b88600160655580f35b610bde908751986105b48a612540565b85880152600386880152823b15610ca157606086947f4f505f434f4e444954494f4e5300000000000000000000000000000000000000868b98947f4f50455241544f525f434c4f5345445f504f434b45545f4455455f544f5f53548a96610c5c84519e8f9c8d9b63384e1a0960e21b8d528c015260448b0190612ac7565b92898403968701908a0152602d8352820152015201925af19081156103455750610c8d575b80808080808080610bc5565b610c9690612510565b610342578082610c81565b8780fd5b610cbc9150873d89116103e0576103d2818361255c565b8b610bbf565b610ccb90612510565b610cd657888b610b6b565b8880fd5b8d80fd5b608485602d868b8d519362461bcd60e51b85528401528201527f4f7065726174696f6e206572726f723a2062757920636f6e646974696f6e206460448201527f6f6573206e6f74207265616368000000000000000000000000000000000000006064820152fd5b610d5c9150893d8b116103e0576103d2818361255c565b8d610a88565b8a513d8e823e3d90fd5b9050610d8f919a50873d8911610d98575b610d87818361255c565b810190612a8d565b9990998b610a34565b503d610d7d565b87513d8b823e3d90fd5b60848260388b888a519362461bcd60e51b85528401528201527f4f7065726174696f6e206572726f723a2074686520706f636b6574206973206e60448201527f6f7420726561647920746f20706572666f726d207377617000000000000000006064820152fd5b610e279150863d88116103e0576103d2818361255c565b8a6109d4565b610e449150883d8a116103e0576103d2818361255c565b8c61097d565b87513d8a823e3d90fd5b9950858a813d8311610e81575b610e6b818361255c565b81010312610e7c579851988561093f565b600080fd5b503d610e61565b8383610e9e610e96366123fe565b610456612987565b919093610ea9612987565b341561108e5783946001600160a01b03908160fb541690845191624418eb60e81b8352602092838180610ee0338c888c85016129f4565b0381855afa908115610d9f5790610efd918a916110715750612b04565b8551809163381635c960e21b825284878301526101c09283918180610f278d60248301908a6126bc565b03915afa918215610d9f57908592918a9261104a575b50501690813b15610ca15785517fd0e30db00000000000000000000000000000000000000000000000000000000081528881878134875af18015610d9f57908991611036575b505060fc54865163095ea7b360e01b81529085166001600160a01b031686820190815234602082015284908290819060400103818c875af18015610d9f5790610fd99291611019575b508651976102ab896124de565b82870152348587015260608601528160fc541690813b1561034e57869085519283916322da9c3160e21b8352868301528183816105fd602482018c612c3e565b61102f90853d87116103e0576103d2818361255c565b508a610fcc565b61103f90612510565b610ca157878a610f83565b6110609250803d10610716576106fd818361255c565b505050505050505090508a80610f3d565b6110889150853d87116103e0576103d2818361255c565b8b6104b9565b6020606492519162461bcd60e51b8352820152601f60248201527f4f7065726174696f6e206572726f723a20696e76616c696420616d6f756e74006044820152fd5b83833461015557602090816003193601126102025783359167ffffffffffffffff8084116103f157366023850112156103f157838601359081116103f157602490818501966005973684848b1b89010111610ca157611132839896959861257e565b9661113f8651988961255c565b838852601f1961114e8561257e565b01875b818110611320575050865b8a8582106111bd5787518b81528a51818d018190528a9281901b82018a01908c8e01908e848d015b8287106111915785850386f35b9091929382806111ad600193603f198a820301865288516123be565b9601920196019592919092611184565b6111d487836111db939d9a9b9d1b85010185612596565b36916125e5565b303b156112b9578a80828a61127594519101305af43d156112b2573d611200816125c9565b9061120d8c51928361255c565b81523d8d8b83013e5b8a519161122283612540565b602783527f416464726573733a206c6f772d6c6576656c2064656c65676174652063616c6c8b8401527f206661696c6564000000000000000000000000000000000000000000000000008c840152612646565b61127f828b61261c565b5261128a818a61261c565b5060001981146112a0576001019896959861115c565b858a601186634e487b7160e01b835252fd5b6060611216565b6084856026898b8d519362461bcd60e51b85528401528201527f416464726573733a2064656c65676174652063616c6c20746f206e6f6e2d636f60448201527f6e747261637400000000000000000000000000000000000000000000000000006064820152fd5b60608a82018c01528a01611151565b505034610155576020366003190112610155576001600160a01b03611352612394565b61135a612431565b16908173ffffffffffffffffffffffffffffffffffffffff1960fb54161760fb55519081527f482b97c53e48ffa324a976e2738053e9aff6eee04d8aac63b10e19411d869b8260203392a280f35b5050346101555781600319360112610155576020906001600160a01b03609754169051908152f35b9050346102025782600319360112610202576113ea612431565b6033549060ff821661142e575060ff1916600117603355513381527f62e78cea01bee320cd4e420270b5ea74000d11b0c9f74754ebdbfc544b05a25890602090a180f35b606490602084519162461bcd60e51b8352820152601060248201527f5061757361626c653a20706175736564000000000000000000000000000000006044820152fd5b905034610202578260031936011261020257825460ff8160081c1615918280936115ec575b80156115d5575b1561156c575060ff1980821660011785556114e9918361155b575b5060ff855460081c16906114cb82612cec565b6114d482612cec565b603354166033556114e481612cec565b612cec565b6114f233612489565b82549061151b60ff8360081c1661150881612cec565b61151181612cec565b6001606555612cec565b611523578280f35b61ff001916825551600181527f7f26b83ff96e1f2b6a682f133852f6798a09c465da95921460cefb384740249890602090a138808280f35b61ffff1916610101178555386114b8565b608490602085519162461bcd60e51b8352820152602e60248201527f496e697469616c697a61626c653a20636f6e747261637420697320616c72656160448201527f647920696e697469616c697a65640000000000000000000000000000000000006064820152fd5b50303b15801561149d5750600160ff83161461149d565b50600160ff831610611496565b8383346101555760209060031982813601126103f557843567ffffffffffffffff81116103f15761162d9036908701612366565b9390956001600160a01b0360fb54169084517f9d92d7370000000000000000000000000000000000000000000000000000000081528381806116748c8b33918885016129f4565b0381865afa9081156103e7578891611745575b50156116f75761169e87988651976102ab89612540565b83870152600285870152813b1561034e57868581957f555345525f5041555345445f504f434b45540000000000000000000000000000829661084184519b8c998a9863384e1a0960e21b8a528901526044880190612ac7565b6084908386519162461bcd60e51b83528201526024808201527f4f7065726174696f6e206572726f723a2063616e6e6f7420706175736520706f60448201526318dad95d60e21b6064820152fd5b61175c9150843d86116103e0576103d2818361255c565b89611687565b5050346101555781600319360112610155576020906001600160a01b0360fb54169051908152f35b8391506020928360031936011261020257813567ffffffffffffffff81116103f5576117b99036908401612366565b92906117c3612987565b34156117f55784956001600160a01b03918260fb54168551624418eb60e81b8152838180610ee0338c888c85016129f4565b5084606492519162461bcd60e51b8352820152601f60248201527f4f7065726174696f6e206572726f723a20696e76616c696420616d6f756e74006044820152fd5b8334610342578060031936011261034257611850612431565b60006001600160a01b0360975473ffffffffffffffffffffffffffffffffffffffff198116609755167f8be0079c531659141344cd1fd0a4f28419497f9722a3daafe3b4186f6b6457e08280a380f35b505034610155576020366003190112610155576001600160a01b036118c3612394565b6118cb612431565b16908173ffffffffffffffffffffffffffffffffffffffff1960fc54161760fc55519081527f483bdedaaf23706a9800ac1af0d852b34927780d79f9d6ba60a80c7cad75ea3960203392a280f35b839150346101555760209260031984813601126103f55782359467ffffffffffffffff86116103f15785840195610180948584833603011261034e576001600160a01b0360fb5416916119a4846119708b80612596565b895193849283927fb612f86600000000000000000000000000000000000000000000000000000000845233918985016129f4565b0381875afa908115610d9f578991611b3f575b5015611ad7578798833b15610cd657889587958793879384519b8c998a987f3740c183000000000000000000000000000000000000000000000000000000008a52890152611a05828061268a565b909160448a01526101c4890190611a1b926126bc565b90602483013560648901526044830135608489015260648301611a3d916126dd565b8883036043190160a48a0152611a539291612732565b608482013560c488015290611a6e60e4880160a4830161278e565b610144611a8188820161010484016127b1565b611a9191610184890191016127b1565b858103928301602487015260128152017f555345525f5550444154455f504f434b45540000000000000000000000000000905201925af190811561034557506103325750f35b6084828588519162461bcd60e51b8352820152603160248201527f4f7065726174696f6e206572726f723a2074686520706f636b6574206973206e60448201527f6f742061626c6520746f207570646174650000000000000000000000000000006064820152fd5b611b569150853d87116103e0576103d2818361255c565b8a6119b7565b50503461015557816003193601126101555760209060ff6033541690519015158152f35b905034610202578260031936011261020257611b9a612431565b6033549060ff821615611bdc575060ff1916603355513381527f5db9ee0a495bf2e6ff9c91a7834c1ba4fdd244a5e8aa4e537bd38aeae4b073aa90602090a180f35b606490602084519162461bcd60e51b8352820152601460248201527f5061757361626c653a206e6f74207061757365640000000000000000000000006044820152fd5b8091843461073f578060031936011261073f57813567ffffffffffffffff811161073a57611c509036908401612366565b929060243561046e612987565b8383346101555760209060031982813601126103f557843567ffffffffffffffff81116103f157611c919036908701612366565b939095611c9c612987565b6001600160a01b03611ce383898360fb5416885180809581947f7bc039400000000000000000000000000000000000000000000000000000000083528d33918b85016129f4565b03915afa9081156103e7578891611e81575b5015611e1957611d0c87988651976102ab89612524565b838701528060fc5416803b15610ca15787865180927f61a45ae60000000000000000000000000000000000000000000000000000000082528686830152818381611d5a8d6024830190612cc6565b03925af180156103e757908891611e05575b505060fb541690813b1561034e57868581957f555345525f57495448445245575f46554e4400000000000000000000000000008296611ddb84519b8c998a987fbcf7a122000000000000000000000000000000000000000000000000000000008a528901526044880190612cc6565b868103938401602488015260128152015201925af190811561034557506106705750600160655580f35b611e0e90612510565b61034e578689611d6c565b5060849184519162461bcd60e51b8352820152602c60248201527f4f7065726174696f6e206572726f723a2063616e6e6f7420776974686472617760448201527f20706f636b65742066756e6400000000000000000000000000000000000000006064820152fd5b611e989150843d86116103e0576103d2818361255c565b89611cf5565b8383346101555760209060031982813601126103f557843567ffffffffffffffff81116103f157611ed29036908701612366565b939095611edd612987565b6001600160a01b03928360fb5416855163983d273760e01b815284818581855afa8015610d9f5785908a90612337575b8851632474521560e21b81528681019182523360208301529250829081906040015b0381855afa908115610d9f57611f8c92611f5287938d938d9161231a5750612a1c565b885180809581947fb3fd1da5000000000000000000000000000000000000000000000000000000008352868a8401528d60248401916126bc565b03915afa9081156103e75788916122fd575b501561229557611feb9085898660fc5416898b84518097819582947f9c89bb3d0000000000000000000000000000000000000000000000000000000084528c8c85015260248401916126bc565b03925af19485156103e75788928996612270575b508060fb54169483818a8d6120408b8d5195869485947fd3fc80d90000000000000000000000000000000000000000000000000000000086528d8601612aa3565b03818a5afa908115612249578b91612253575b5080156121d8575b15612170576120748a9b899a9b99519b6111d48d6124de565b8a52808a0190338252898b0194855260608b01978852863b15610cd65789978995899485519d8e9b8c9a7fb48093e1000000000000000000000000000000000000000000000000000000008c528b01525160448a016080905260c48a016120da916123be565b94511660648901525160848801525160a487015285820393840160248701526027825281017f4f50455241544f525f555044415445445f434c4f53494e475f504f534954494f9052017f4e5f5354415453000000000000000000000000000000000000000000000000009052606001925af190811561034557506121615750600160655580f35b61216a90612510565b81610667565b8460849189519162461bcd60e51b8352820152603a60248201527f4f7065726174696f6e206572726f723a20636c6f73696e6720706f736974696f60448201527f6e20636f6e646974696f6e20646f6573206e6f742072656163680000000000006064820152fd5b5083818a8d6122138b8d5195869485947f1416642e0000000000000000000000000000000000000000000000000000000086528d8601612aa3565b03818a5afa908115612249578b9161222c575b5061205b565b6122439150823d84116103e0576103d2818361255c565b8c612226565b89513d8d823e3d90fd5b61226a9150823d84116103e0576103d2818361255c565b8c612053565b90955061228b919250863d8811610d9857610d87818361255c565b919091948a611fff565b5060849184519162461bcd60e51b8352820152603a60248201527f4f7065726174696f6e206572726f723a2074686520706f636b6574206973206e60448201527f6f7420726561647920746f20636c6f736520706f736974696f6e0000000000006064820152fd5b6123149150843d86116103e0576103d2818361255c565b89611f9e565b6123319150853d87116103e0576103d2818361255c565b8e61097d565b5081813d831161235f575b61234c818361255c565b81010312610cd65784611f2f9151611f0d565b503d612342565b9181601f84011215610e7c5782359167ffffffffffffffff8311610e7c5760208381860195010111610e7c57565b600435906001600160a01b0382168203610e7c57565b35906001600160a01b0382168203610e7c57565b919082519283825260005b8481106123ea575050826000602080949584010152601f8019910116010190565b6020818301810151848301820152016123c9565b60031990602081830112610e7c576004359167ffffffffffffffff8311610e7c578261020092030112610e7c5760040190565b6001600160a01b0360975416330361244557565b606460405162461bcd60e51b815260206004820152602060248201527f4f776e61626c653a2063616c6c6572206973206e6f7420746865206f776e65726044820152fd5b609754906001600160a01b03809116918273ffffffffffffffffffffffffffffffffffffffff19821617609755167f8be0079c531659141344cd1fd0a4f28419497f9722a3daafe3b4186f6b6457e0600080a3565b6080810190811067ffffffffffffffff8211176124fa57604052565b634e487b7160e01b600052604160045260246000fd5b67ffffffffffffffff81116124fa57604052565b6040810190811067ffffffffffffffff8211176124fa57604052565b6060810190811067ffffffffffffffff8211176124fa57604052565b90601f8019910116810190811067ffffffffffffffff8211176124fa57604052565b67ffffffffffffffff81116124fa5760051b60200190565b903590601e1981360301821215610e7c570180359067ffffffffffffffff8211610e7c57602001918136038313610e7c57565b67ffffffffffffffff81116124fa57601f01601f191660200190565b9291926125f1826125c9565b916125ff604051938461255c565b829481845281830111610e7c578281602093846000960137010152565b80518210156126305760209160051b010190565b634e487b7160e01b600052603260045260246000fd5b90919015612652575090565b8151156126625750805190602001fd5b6126869060405191829162461bcd60e51b83526020600484015260248301906123be565b0390fd5b9035601e1982360301811215610e7c57016020813591019167ffffffffffffffff8211610e7c578136038313610e7c57565b908060209392818452848401376000828201840152601f01601f1916010190565b9035601e1982360301811215610e7c57016020813591019167ffffffffffffffff8211610e7c578160061b36038313610e7c57565b6004111561271c57565b634e487b7160e01b600052602160045260246000fd5b918181526020809101929160009182905b82821061275257505050505090565b90919293948535815281860135600481101561278a579081612775600193612712565b81840152604090810196019493920190612743565b8580fd5b60409080358352602081013560208401520135906007821015610e7c5760400152565b80356004811015610e7c57602091816127ca8493612712565b84520135910152565b602081019081356001600160a01b0390818116809103610e7c573303612943578060fb5416803b15610e7c5761291b9360006128db938195604051978896879586947fe92c35980000000000000000000000000000000000000000000000000000000086526020600487015280612869612863612850888061268a565b61020060248c01526102248b01916126bc565b936123aa565b1660448701528061287c604087016123aa565b1660648701528061288f606087016123aa565b1660848701526128a1608086016123aa565b1660a486015260a084013560c486015260c084013560e48601526128c860e08501856126dd565b8683036023190161010488015290612732565b916101008101356101248501526128fa6101448501610120830161278e565b61290c6101a4850161018083016127b1565b6101c06101e4850191016127b1565b03925af180156129375761292c5750565b61293590612510565b565b6040513d6000823e3d90fd5b606460405162461bcd60e51b815260206004820152602060248201527f496e76616c696420706f636b65743a206f776e6572206d69736d6174636865736044820152fd5b600260655414612998576002606555565b606460405162461bcd60e51b815260206004820152601f60248201527f5265656e7472616e637947756172643a207265656e7472616e742063616c6c006044820152fd5b90816020910312610e7c57518015158103610e7c5790565b91612a156020926001600160a01b03929695966040865260408601916126bc565b9416910152565b15612a2357565b608460405162461bcd60e51b815260206004820152603d60248201527f4f7065726174696f6e206572726f723a206f6e6c79206f70657261746f72206960448201527f73207065726d697474656420666f7220746865206f7065726174696f6e0000006064820152fd5b9190826040910312610e7c576020825192015190565b90612abd90604093969594966060845260608401916126bc565b9460208201520152565b906001600160a01b0382511681526040612af060208401516060602085015260608401906123be565b92015190600582101561271c576040015290565b15612b0b57565b606460405162461bcd60e51b815260206004820152601f60248201527f4f7065726174696f6e206572726f723a2063616e6e6f74206465706f736974006044820152fd5b51906001600160a01b0382168203610e7c57565b9190826040910312610e7c57604051612b7b81612524565b809280516004811015610e7c578252602090810151910152565b9190828103906101c08212610e7c57612bad84612b4f565b93612bba60208201612b4f565b93612bc760408301612b4f565b9360608301519360808401519360a081015193606060c08301519460df190112610e7c57604051612bf781612540565b60e083015181526101008301516020820152610120830151906007821015610e7c57612c3b91604082015293610180612c34826101408701612b63565b9401612b63565b90565b9060606001600160a01b0380845116835281612c6960208601516080602087015260808601906123be565b946040810151604086015201511691015290565b612c8f60409283835283830190612c3e565b906020818303910152601381527f555345525f4445504f53495445445f46554e440000000000000000000000000060208201520190565b9060406020612c3b936001600160a01b03815116845201519181602082015201906123be565b15612cf357565b608460405162461bcd60e51b815260206004820152602b60248201527f496e697469616c697a61626c653a20636f6e7472616374206973206e6f74206960448201527f6e697469616c697a696e670000000000000000000000000000000000000000006064820152fdfea2646970667358221220dec26e4397daf7ee44bef64d9b0e809b4a0b87922f8e99686321ba775c5bdfc364736f6c63430008130033",
  "linkReferences": {},
  "deployedLinkReferences": {}
}