{
  "_format": "hh-sol-artifact-1",
  "contractName": "PocketVault",
  "sourceName": "contracts/PocketVault.sol",
  "abi": [
    {
      "inputs": [],
      "stateMutability": "nonpayable",
      "type": "constructor"
    },
    {
      "anonymous": false,
      "inputs": [
        {
          "indexed": true,
          "internalType": "address",
          "name": "actor",
          "type": "address"
        },
        {
          "indexed": true,
          "internalType": "string",
          "name": "pocketId",
          "type": "string"
        },
        {
          "indexed": false,
          "internalType": "address",
          "name": "baseTokenAddress",
          "type": "address"
        },
        {
          "indexed": false,
          "internalType": "uint256",
          "name": "baseTokenAmount",
          "type": "uint256"
        },
        {
          "indexed": false,
          "internalType": "address",
          "name": "targetTokenAddress",
          "type": "address"
        },
        {
          "indexed": false,
          "internalType": "uint256",
          "name": "targetTokenAmount",
          "type": "uint256"
        }
      ],
      "name": "ClosedPosition",
      "type": "event"
    },
    {
      "anonymous": false,
      "inputs": [
        {
          "indexed": true,
          "internalType": "address",
          "name": "actor",
          "type": "address"
        },
        {
          "indexed": true,
          "internalType": "string",
          "name": "pocketId",
          "type": "string"
        },
        {
          "indexed": true,
          "internalType": "address",
          "name": "tokenAddress",
          "type": "address"
        },
        {
          "indexed": false,
          "internalType": "uint256",
          "name": "amount",
          "type": "uint256"
        }
      ],
      "name": "Deposited",
      "type": "event"
    },
    {
      "anonymous": false,
      "inputs": [
        {
          "indexed": false,
          "internalType": "uint8",
          "name": "version",
          "type": "uint8"
        }
      ],
      "name": "Initialized",
      "type": "event"
    },
    {
      "anonymous": false,
      "inputs": [
        {
          "indexed": true,
          "internalType": "address",
          "name": "previousOwner",
          "type": "address"
        },
        {
          "indexed": true,
          "internalType": "address",
          "name": "newOwner",
          "type": "address"
        }
      ],
      "name": "OwnershipTransferred",
      "type": "event"
    },
    {
      "anonymous": false,
      "inputs": [
        {
          "indexed": false,
          "internalType": "address",
          "name": "account",
          "type": "address"
        }
      ],
      "name": "Paused",
      "type": "event"
    },
    {
      "anonymous": false,
      "inputs": [
        {
          "indexed": true,
          "internalType": "address",
          "name": "actor",
          "type": "address"
        },
        {
          "indexed": true,
          "internalType": "address",
          "name": "permit2",
          "type": "address"
        }
      ],
      "name": "Permit2Updated",
      "type": "event"
    },
    {
      "anonymous": false,
      "inputs": [
        {
          "indexed": true,
          "internalType": "address",
          "name": "actor",
          "type": "address"
        },
        {
          "indexed": true,
          "internalType": "address",
          "name": "registry",
          "type": "address"
        }
      ],
      "name": "RegistryUpdated",
      "type": "event"
    },
    {
      "anonymous": false,
      "inputs": [
        {
          "indexed": true,
          "internalType": "address",
          "name": "actor",
          "type": "address"
        },
        {
          "indexed": true,
          "internalType": "string",
          "name": "pocketId",
          "type": "string"
        },
        {
          "indexed": false,
          "internalType": "address",
          "name": "baseTokenAddress",
          "type": "address"
        },
        {
          "indexed": false,
          "internalType": "uint256",
          "name": "baseTokenAmount",
          "type": "uint256"
        },
        {
          "indexed": false,
          "internalType": "address",
          "name": "targetTokenAddress",
          "type": "address"
        },
        {
          "indexed": false,
          "internalType": "uint256",
          "name": "targetTokenAmount",
          "type": "uint256"
        }
      ],
      "name": "Swapped",
      "type": "event"
    },
    {
      "anonymous": false,
      "inputs": [
        {
          "indexed": false,
          "internalType": "address",
          "name": "account",
          "type": "address"
        }
      ],
      "name": "Unpaused",
      "type": "event"
    },
    {
      "anonymous": false,
      "inputs": [
        {
          "indexed": true,
          "internalType": "address",
          "name": "actor",
          "type": "address"
        },
        {
          "indexed": true,
          "internalType": "string",
          "name": "pocketId",
          "type": "string"
        },
        {
          "indexed": false,
          "internalType": "address",
          "name": "baseTokenAddress",
          "type": "address"
        },
        {
          "indexed": false,
          "internalType": "uint256",
          "name": "baseTokenAmount",
          "type": "uint256"
        },
        {
          "indexed": false,
          "internalType": "address",
          "name": "targetTokenAddress",
          "type": "address"
        },
        {
          "indexed": false,
          "internalType": "uint256",
          "name": "targetTokenAmount",
          "type": "uint256"
        }
      ],
      "name": "Withdrawn",
      "type": "event"
    },
    {
      "inputs": [
        {
          "internalType": "string",
          "name": "pocketId",
          "type": "string"
        }
      ],
      "name": "closePosition",
      "outputs": [
        {
          "internalType": "uint256",
          "name": "",
          "type": "uint256"
        },
        {
          "internalType": "uint256",
          "name": "",
          "type": "uint256"
        }
      ],
      "stateMutability": "nonpayable",
      "type": "function"
    },
    {
      "inputs": [
        {
          "components": [
            {
              "internalType": "address",
              "name": "actor",
              "type": "address"
            },
            {
              "internalType": "string",
              "name": "id",
              "type": "string"
            },
            {
              "internalType": "uint256",
              "name": "amount",
              "type": "uint256"
            },
            {
              "internalType": "address",
              "name": "tokenAddress",
              "type": "address"
            }
          ],
          "internalType": "struct Params.UpdatePocketDepositParams",
          "name": "params",
          "type": "tuple"
        }
      ],
      "name": "deposit",
      "outputs": [],
      "stateMutability": "nonpayable",
      "type": "function"
    },
    {
      "inputs": [],
      "name": "initialize",
      "outputs": [],
      "stateMutability": "nonpayable",
      "type": "function"
    },
    {
      "inputs": [
        {
          "internalType": "string",
          "name": "pocketId",
          "type": "string"
        }
      ],
      "name": "makeDCASwap",
      "outputs": [
        {
          "internalType": "uint256",
          "name": "",
          "type": "uint256"
        },
        {
          "internalType": "uint256",
          "name": "",
          "type": "uint256"
        }
      ],
      "stateMutability": "nonpayable",
      "type": "function"
    },
    {
      "inputs": [],
      "name": "owner",
      "outputs": [
        {
          "internalType": "address",
          "name": "",
          "type": "address"
        }
      ],
      "stateMutability": "view",
      "type": "function"
    },
    {
      "inputs": [],
      "name": "pause",
      "outputs": [],
      "stateMutability": "nonpayable",
      "type": "function"
    },
    {
      "inputs": [],
      "name": "paused",
      "outputs": [
        {
          "internalType": "bool",
          "name": "",
          "type": "bool"
        }
      ],
      "stateMutability": "view",
      "type": "function"
    },
    {
      "inputs": [],
      "name": "permit2",
      "outputs": [
        {
          "internalType": "contract IPermit2",
          "name": "",
          "type": "address"
        }
      ],
      "stateMutability": "view",
      "type": "function"
    },
    {
      "inputs": [],
      "name": "registry",
      "outputs": [
        {
          "internalType": "contract PocketRegistry",
          "name": "",
          "type": "address"
        }
      ],
      "stateMutability": "view",
      "type": "function"
    },
    {
      "inputs": [],
      "name": "renounceOwnership",
      "outputs": [],
      "stateMutability": "nonpayable",
      "type": "function"
    },
    {
      "inputs": [
        {
          "internalType": "address",
          "name": "permit2Address",
          "type": "address"
        }
      ],
      "name": "setPermit2",
      "outputs": [],
      "stateMutability": "nonpayable",
      "type": "function"
    },
    {
      "inputs": [
        {
          "internalType": "address",
          "name": "registryAddress",
          "type": "address"
        }
      ],
      "name": "setRegistry",
      "outputs": [],
      "stateMutability": "nonpayable",
      "type": "function"
    },
    {
      "inputs": [
        {
          "internalType": "address",
          "name": "newOwner",
          "type": "address"
        }
      ],
      "name": "transferOwnership",
      "outputs": [],
      "stateMutability": "nonpayable",
      "type": "function"
    },
    {
      "inputs": [],
      "name": "unpause",
      "outputs": [],
      "stateMutability": "nonpayable",
      "type": "function"
    },
    {
      "inputs": [
        {
          "components": [
            {
              "internalType": "address",
              "name": "actor",
              "type": "address"
            },
            {
              "internalType": "string",
              "name": "id",
              "type": "string"
            }
          ],
          "internalType": "struct Params.UpdatePocketWithdrawalParams",
          "name": "params",
          "type": "tuple"
        }
      ],
      "name": "withdraw",
      "outputs": [],
      "stateMutability": "nonpayable",
      "type": "function"
    }
  ],
  "bytecode": "0x608080604052346100c1576000549060ff8260081c1661006f575060ff80821610610034575b604051611a7790816100c78239f35b60ff90811916176000557f7f26b83ff96e1f2b6a682f133852f6798a09c465da95921460cefb3847402498602060405160ff8152a138610025565b62461bcd60e51b815260206004820152602760248201527f496e697469616c697a61626c653a20636f6e747261637420697320696e697469604482015266616c697a696e6760c81b6064820152608490fd5b600080fdfe6040608081526004908136101561001557600080fd5b600091823560e01c8063101ec30a146110bd57806312261ee7146110955780633f4ba83a14610ff75780635c975abb14610fd357806361a45ae614610b9a5780636afd431a14610983578063715018a61461091b5780637b103999146108f35780638129fc1c1461077a5780638456cb59146106da5780638b6a70c4146104c15780638da5cb5b146104995780639c89bb3d146101ee578063a91ee0dc146101765763f2fde38b146100c657600080fd5b34610172576020366003190112610172578035916001600160a01b03831680840361016e576100f3611180565b156101055783610102846111d8565b80f35b906020608492519162461bcd60e51b8352820152602660248201527f4f776e61626c653a206e6577206f776e657220697320746865207a65726f206160448201527f64647265737300000000000000000000000000000000000000000000000000006064820152fd5b8480fd5b8280fd5b8382346101ea5760203660031901126101ea57356001600160a01b0381168091036101ea576101a3611180565b8073ffffffffffffffffffffffffffffffffffffffff1960c954161760c955337f482b97c53e48ffa324a976e2738053e9aff6eee04d8aac63b10e19411d869b828380a380f35b5080fd5b509134610496576101fe36611131565b936001600160a01b03918260c9541692855193632483e71560e01b855260209485818681855afa908115610420579086918891610461575b508851632474521560e21b8152868101918252336020830152928391829081906040015b03915afa908115610457579061027791879161042a575b506112ad565b61027f611457565b60c954169585519163381635c960e21b83526101c0928381806102a586868a840161142f565b03818c5afa948515610420579780996102e39989938a978b996103de575b50509084869284519c8d9485938493639888b5ab60e01b8552840161142f565b03915afa9788156103d4578798610375575b509187916103268386887f90dcac5b46d3fa6835f739f4994cca071c7a61ff5b90528185f95dbf53ba300b9761150f565b97828b519384938437820190815203902088516001600160a01b039485168152602081018890529390941660408401526060830152339180608081015b0390a360016065558351928352820152f35b849850916103267f90dcac5b46d3fa6835f739f4994cca071c7a61ff5b90528185f95dbf53ba300b94926103bf88958d803d106103cd575b6103b78183611273565b810190611928565b90509a5092945050916102f5565b503d6103ad565b89513d89823e3d90fd5b61040592995087939850869550803d10610419575b6103fd8183611273565b810190611375565b5050505050505097919490979891926102c3565b503d6103f3565b88513d89823e3d90fd5b61044a9150863d8811610450575b6104428183611273565b810190611295565b38610271565b503d610438565b87513d88823e3d90fd5b82819392503d831161048f575b6104788183611273565b8101031261048b5751859061025a610236565b8680fd5b503d61046e565b80fd5b5050346101ea57816003193601126101ea576020906001600160a01b03609754169051908152f35b50903461017257600319916020368401811361016e5781359367ffffffffffffffff85116106d65760808584019186360301126106d6576001600160a01b03908160c954168551632483e71560e01b815284818781855afa9081156106cc579085918a91610697575b508751632474521560e21b8152878101918252336020830152928391829081906040015b03915afa90811561068d579061056a91899161067657506112ad565b610572611457565b6064860190878484610583856119bc565b16606460448b0135988a5194859384927f23b872dd00000000000000000000000000000000000000000000000000000000845233908401523060248401528b60448401525af19089821561066b57859492936106107f65d1e38d527579e27b8e166f5a4c7d78449846fad0efed7191070bda0012133698979561062b94610623949161064e575b50611971565b602461061b826119bc565b9b019061193e565b9190926119bc565b91818951928392833781018b8152039020965195865216951692a4600160655580f35b6106659150893d8b11610450576104428183611273565b3861060a565b8851903d90823e3d90fd5b61044a9150853d8711610450576104428183611273565b86513d8a823e3d90fd5b82819392503d83116106c5575b6106ae8183611273565b810103126106c15751849061054e61052a565b8880fd5b503d6106a4565b87513d8b823e3d90fd5b8580fd5b50346101725782600319360112610172576106f3611180565b6033549060ff8216610737575060ff1916600117603355513381527f62e78cea01bee320cd4e420270b5ea74000d11b0c9f74754ebdbfc544b05a25890602090a180f35b606490602084519162461bcd60e51b8352820152601060248201527f5061757361626c653a20706175736564000000000000000000000000000000006044820152fd5b5034610172578260031936011261017257825460ff8160081c1615918280936108e6575b80156108cf575b15610866575060ff1980821660011785556107f19183610855575b5060ff855460081c16906107d3826119d0565b6107dc826119d0565b603354166033556107ec816119d0565b6119d0565b6107fa336111d8565b82549061081060ff8360081c166107ec816119d0565b600160655561081d578280f35b61ff001916825551600181527f7f26b83ff96e1f2b6a682f133852f6798a09c465da95921460cefb384740249890602090a138808280f35b61ffff1916610101178555386107c0565b608490602085519162461bcd60e51b8352820152602e60248201527f496e697469616c697a61626c653a20636f6e747261637420697320616c72656160448201527f647920696e697469616c697a65640000000000000000000000000000000000006064820152fd5b50303b1580156107a55750600160ff8316146107a5565b50600160ff83161061079e565b5050346101ea57816003193601126101ea576020906001600160a01b0360c954169051908152f35b8334610496578060031936011261049657610934611180565b806001600160a01b0360975473ffffffffffffffffffffffffffffffffffffffff198116609755167f8be0079c531659141344cd1fd0a4f28419497f9722a3daafe3b4186f6b6457e08280a380f35b508290346101ea5761099436611131565b9290916001600160a01b03918260c9541692865193632483e71560e01b855260209485818681855afa908115610b90579086918591610b5b575b508951632474521560e21b8152868101918252336020830152928391829081906040015b03915afa908115610b5157839291610a129188969591610b3457506112ad565b610a1a611457565b60c95416918751809363381635c960e21b82528180610a408b6101c0998a97840161142f565b03915afa958615610b285781829383958499610acb575b505090610a888886867f4130fa18069a9469da6fdc23c7ce5948bc85bacd6922b2fc6600121f91479970969561150f565b968792828b519384938437820190815203902088516001600160a01b03948516815260208101899052939094166040840152606083015233918060808101610363565b610b0f9399507f4130fa18069a9469da6fdc23c7ce5948bc85bacd6922b2fc6600121f91479970949650610a88955080919250903d10610419576103fd8183611273565b50939d959a96999698959796959450610a579350505050565b508651903d90823e3d90fd5b610b4b9150873d8911610450576104428183611273565b8a610271565b88513d85823e3d90fd5b82819392503d8311610b89575b610b728183611273565b81010312610b85575185906109f26109ce565b8380fd5b503d610b68565b89513d86823e3d90fd5b50346101725760031990602036830112610b855780359067ffffffffffffffff821161016e578382820193833603011261016e576001600160a01b03908160c954168551632483e71560e01b81526020818481855afa908115610fc9578891610f91575b508651632474521560e21b81528381019182523360208381019190915290929091839190829081906040015b03915afa8015610f8757610c44918891610f6e57506112ad565b610c4c611457565b858260c9541691610c60602486018761193e565b9688519163381635c960e21b83528280610c816101c09b8c9488840161142f565b0381885afa918215610b905784988593610f3f575b5050610cc5908980610cab60248b018461193e565b9082519586928392639888b5ab60e01b84528a840161142f565b03818a5afa948515610f3557610d249787948897610f11575b50602090610cef60248d018661193e565b91908551809c819482937fbef48ddf00000000000000000000000000000000000000000000000000000000845288840161142f565b03915afa978815610f07578b8a91899a610ebc575b5060208493928b928b9796518098819382610d918d7fa9059cbb00000000000000000000000000000000000000000000000000000000998a84528b8401602090939291936001600160a01b0360408201951681520152565b0393165af1948515610eb25788602094610db68d98610ddb948e91610e9b5750611971565b51968794859485528401602090939291936001600160a01b0360408201951681520152565b0381898c89165af1918215610e91577ff3cd76241eddc71264416c231683e08951d551766f5ae242f5eed7e54e8977d299610e25610e2c94602493610e6d9a91610e785750611971565b019061193e565b90818b51928392833781018c815203902098519586951697859060609295949360808301966001600160a01b03809316845260208401521660408201520152565b0390a3600160655580f35b610665915060203d602011610450576104428183611273565b8b513d88823e3d90fd5b6106659150883d8a11610450576104428183611273565b83513d8b823e3d90fd5b995050509190506020873d602011610eff575b81610edc60209383611273565b810103126106d6578a86928b6020610ef48c9b61131e565b9a9293949550610d39565b3d9150610ecf565b82513d89823e3d90fd5b610f2d91975060209550833d85116103cd576103b78183611273565b969094610cde565b81513d88823e3d90fd5b610cc59950610f5b929350803d10610419576103fd8183611273565b5050505050505098915097919038610c96565b61044a915060203d602011610450576104428183611273565b86513d89823e3d90fd5b90506020813d602011610fc1575b81610fac60209383611273565b81010312610fbd5751610c2a610bfe565b8780fd5b3d9150610f9f565b87513d8a823e3d90fd5b5050346101ea57816003193601126101ea5760209060ff6033541690519015158152f35b5034610172578260031936011261017257611010611180565b6033549060ff821615611052575060ff1916603355513381527f5db9ee0a495bf2e6ff9c91a7834c1ba4fdd244a5e8aa4e537bd38aeae4b073aa90602090a180f35b606490602084519162461bcd60e51b8352820152601460248201527f5061757361626c653a206e6f74207061757365640000000000000000000000006044820152fd5b5050346101ea57816003193601126101ea576020906001600160a01b0360ca54169051908152f35b8382346101ea5760203660031901126101ea57356001600160a01b0381168091036101ea576110ea611180565b8073ffffffffffffffffffffffffffffffffffffffff1960ca54161760ca55337f458609883bfc2c0eb1300d68839f0a6aa0b7a1997aba004773946caf044a06ff8380a380f35b90602060031983011261117b5760043567ffffffffffffffff9283821161117b578060238301121561117b57816004013593841161117b576024848301011161117b576024019190565b600080fd5b6001600160a01b0360975416330361119457565b606460405162461bcd60e51b815260206004820152602060248201527f4f776e61626c653a2063616c6c6572206973206e6f7420746865206f776e65726044820152fd5b609754906001600160a01b03809116918273ffffffffffffffffffffffffffffffffffffffff19821617609755167f8be0079c531659141344cd1fd0a4f28419497f9722a3daafe3b4186f6b6457e0600080a3565b67ffffffffffffffff811161124157604052565b634e487b7160e01b600052604160045260246000fd5b6040810190811067ffffffffffffffff82111761124157604052565b90601f8019910116810190811067ffffffffffffffff82111761124157604052565b9081602091031261117b5751801515810361117b5790565b156112b457565b608460405162461bcd60e51b815260206004820152602560248201527f5065726d697373696f6e3a206f6e6c792072656c61796572206973207065726d60448201527f69747465640000000000000000000000000000000000000000000000000000006064820152fd5b51906001600160a01b038216820361117b57565b919082604091031261117b576040516040810181811067ffffffffffffffff8211176112415760405280928051600481101561117b578252602090810151910152565b9190828103906101c0821261117b5761138d8461131e565b9361139a6020820161131e565b936113a76040830161131e565b9360608301519360808401519360a081015193606060c08301519460df19011261117b576040516060810181811067ffffffffffffffff8211176112415760405260e08301518152610100830151602082015261012083015190600782101561117b5761142c91604082015293610180611425826101408701611332565b9401611332565b90565b90918060409360208452816020850152848401376000828201840152601f01601f1916010190565b600260655414611468576002606555565b606460405162461bcd60e51b815260206004820152601f60248201527f5265656e7472616e637947756172643a207265656e7472616e742063616c6c006044820152fd5b919082519283825260005b8481106114d8575050826000602080949584010152601f8019910116010190565b6020818301810151848301820152016114b7565b8051156114f95760200190565b634e487b7160e01b600052603260045260246000fd5b916001600160a01b03918281169160ca54926000946040978851927f095ea7b300000000000000000000000000000000000000000000000000000000845260209384818061157a868860049d168d8401602090939291936001600160a01b0360408201951681520152565b03818c865af180156119015761190b575b508260ca541698893b156106c15783908b51927f87517c45000000000000000000000000000000000000000000000000000000008452898401521690888160249b848d83015286861660448301524265ffffffffffff16606483015281835a92608493f18015611901576118ee575b50895191888584015260019384845261161284611257565b8b519761161e89611257565b858952868b5b8181106118de5750508c51916bffffffffffffffffffffffff19809260601b16888401527e0bb80000000000000000000000000000000000000000000000000000000000603484015288169760601b166037820152602b8152606081019181831067ffffffffffffffff8411176118ca57906116dc91838e5230608083015260a08201528a60c082015260a060e08201526116c36101208201826114ac565b8661010083015203607f1981018352605f190182611273565b6116e5876114ec565b526116ef866114ec565b508951957f70a082310000000000000000000000000000000000000000000000000000000093848852308989015285888c818a5afa9788156118c0578a98611891575b50823b1561188d57918b918a9361177884519687957f24856bc30000000000000000000000000000000000000000000000000000000087528d87015260448601906114ac565b84810360031901858f01528251808252600581901b82018a01938a01929187908b8101905b8c84841061185857505050505050508383809203925af180156103d457839291889161183f575b505087895180958193825230898301525afa96871561183657508496611806575b505084039384116117f65750505090565b601190634e487b7160e01b835252fd5b9080929650813d831161182f575b61181e8183611273565b8101031261117b57519338806117e5565b503d611814565b513d86823e3d90fd5b61184b9192935061122d565b6106d657819086386117c4565b9194979950929587929598506118798291601f198682030187528a516114ac565b9801930193018e979592938997959261179d565b8980fd5b9097508581813d83116118b9575b6118a98183611273565b8101031261117b57519638611732565b503d61189f565b8c513d8c823e3d90fd5b8b60418b634e487b7160e01b600052526000fd5b606082828d010152018790611624565b6118fa9098919861122d565b96386115fa565b8b513d8b823e3d90fd5b61192190853d8711610450576104428183611273565b503861158b565b919082604091031261117b576020825192015190565b903590601e198136030182121561117b570180359067ffffffffffffffff821161117b5760200191813603831361117b57565b1561197857565b606460405162461bcd60e51b815260206004820152601c60248201527f4572726f723a2063616e6e6f74207472616e7366657220746f6b656e000000006044820152fd5b356001600160a01b038116810361117b5790565b156119d757565b608460405162461bcd60e51b815260206004820152602b60248201527f496e697469616c697a61626c653a20636f6e7472616374206973206e6f74206960448201527f6e697469616c697a696e670000000000000000000000000000000000000000006064820152fdfea26469706673582212208f94c71cb837da487820b73a54beca7dad71c36e7ffd350d85a97e622f2edadb64736f6c63430008130033",
  "linkReferences": {},
  "deployedLinkReferences": {}
}