{"contracts/PocketRegistry.sol":{"PocketRegistry":{"abi":[{"inputs":[],"stateMutability":"nonpayable","type":"constructor"},{"anonymous":false,"inputs":[{"indexed":true,"internalType":"address","name":"actor","type":"address"},{"indexed":true,"internalType":"address","name":"mintAddress","type":"address"},{"indexed":false,"internalType":"bool","name":"value","type":"bool"}],"name":"AddressWhitelisted","type":"event"},{"anonymous":false,"inputs":[{"indexed":false,"internalType":"uint8","name":"version","type":"uint8"}],"name":"Initialized","type":"event"},{"anonymous":false,"inputs":[{"indexed":true,"internalType":"address","name":"previousOwner","type":"address"},{"indexed":true,"internalType":"address","name":"newOwner","type":"address"}],"name":"OwnershipTransferred","type":"event"},{"anonymous":false,"inputs":[{"indexed":false,"internalType":"address","name":"account","type":"address"}],"name":"Paused","type":"event"},{"anonymous":false,"inputs":[{"indexed":true,"internalType":"address","name":"actor","type":"address"},{"indexed":true,"internalType":"string","name":"pocketId","type":"string"},{"indexed":true,"internalType":"address","name":"owner","type":"address"},{"components":[{"internalType":"string","name":"id","type":"string"},{"internalType":"uint256","name":"totalDepositedBaseAmount","type":"uint256"},{"internalType":"uint256","name":"totalSwappedBaseAmount","type":"uint256"},{"internalType":"uint256","name":"totalReceivedTargetAmount","type":"uint256"},{"internalType":"uint256","name":"totalClosedPositionInTargetTokenAmount","type":"uint256"},{"internalType":"uint256","name":"totalReceivedFundInBaseTokenAmount","type":"uint256"},{"internalType":"uint256","name":"baseTokenBalance","type":"uint256"},{"internalType":"uint256","name":"targetTokenBalance","type":"uint256"},{"internalType":"uint256","name":"executedBatchAmount","type":"uint256"},{"internalType":"uint256","name":"nextScheduledExecutionAt","type":"uint256"},{"internalType":"enum Types.PocketStatus","name":"status","type":"uint8"},{"internalType":"address","name":"owner","type":"address"},{"internalType":"address","name":"ammRouterAddress","type":"address"},{"internalType":"address","name":"baseTokenAddress","type":"address"},{"internalType":"address","name":"targetTokenAddress","type":"address"},{"internalType":"uint256","name":"startAt","type":"uint256"},{"internalType":"uint256","name":"batchVolume","type":"uint256"},{"internalType":"uint256","name":"frequency","type":"uint256"},{"components":[{"internalType":"uint256","name":"value0","type":"uint256"},{"internalType":"uint256","name":"value1","type":"uint256"},{"internalType":"enum Types.ValueComparisonOperator","name":"operator","type":"uint8"}],"internalType":"struct Types.ValueComparison","name":"openingPositionCondition","type":"tuple"},{"components":[{"internalType":"uint256","name":"value","type":"uint256"},{"internalType":"enum Types.StopConditionOperator","name":"operator","type":"uint8"}],"internalType":"struct Types.StopCondition[]","name":"stopConditions","type":"tuple[]"},{"components":[{"internalType":"enum Types.TradingStopConditionType","name":"stopType","type":"uint8"},{"internalType":"uint256","name":"value","type":"uint256"}],"internalType":"struct Types.TradingStopCondition","name":"takeProfitCondition","type":"tuple"},{"components":[{"internalType":"enum Types.TradingStopConditionType","name":"stopType","type":"uint8"},{"internalType":"uint256","name":"value","type":"uint256"}],"internalType":"struct Types.TradingStopCondition","name":"stopLossCondition","type":"tuple"}],"indexed":false,"internalType":"struct Types.Pocket","name":"pocketData","type":"tuple"}],"name":"PocketInitialized","type":"event"},{"anonymous":false,"inputs":[{"indexed":true,"internalType":"address","name":"actor","type":"address"},{"indexed":true,"internalType":"string","name":"pocketId","type":"string"},{"indexed":true,"internalType":"address","name":"owner","type":"address"},{"indexed":false,"internalType":"string","name":"reason","type":"string"},{"components":[{"internalType":"string","name":"id","type":"string"},{"internalType":"uint256","name":"totalDepositedBaseAmount","type":"uint256"},{"internalType":"uint256","name":"totalSwappedBaseAmount","type":"uint256"},{"internalType":"uint256","name":"totalReceivedTargetAmount","type":"uint256"},{"internalType":"uint256","name":"totalClosedPositionInTargetTokenAmount","type":"uint256"},{"internalType":"uint256","name":"totalReceivedFundInBaseTokenAmount","type":"uint256"},{"internalType":"uint256","name":"baseTokenBalance","type":"uint256"},{"internalType":"uint256","name":"targetTokenBalance","type":"uint256"},{"internalType":"uint256","name":"executedBatchAmount","type":"uint256"},{"internalType":"uint256","name":"nextScheduledExecutionAt","type":"uint256"},{"internalType":"enum Types.PocketStatus","name":"status","type":"uint8"},{"internalType":"address","name":"owner","type":"address"},{"internalType":"address","name":"ammRouterAddress","type":"address"},{"internalType":"address","name":"baseTokenAddress","type":"address"},{"internalType":"address","name":"targetTokenAddress","type":"address"},{"internalType":"uint256","name":"startAt","type":"uint256"},{"internalType":"uint256","name":"batchVolume","type":"uint256"},{"internalType":"uint256","name":"frequency","type":"uint256"},{"components":[{"internalType":"uint256","name":"value0","type":"uint256"},{"internalType":"uint256","name":"value1","type":"uint256"},{"internalType":"enum Types.ValueComparisonOperator","name":"operator","type":"uint8"}],"internalType":"struct Types.ValueComparison","name":"openingPositionCondition","type":"tuple"},{"components":[{"internalType":"uint256","name":"value","type":"uint256"},{"internalType":"enum Types.StopConditionOperator","name":"operator","type":"uint8"}],"internalType":"struct Types.StopCondition[]","name":"stopConditions","type":"tuple[]"},{"components":[{"internalType":"enum Types.TradingStopConditionType","name":"stopType","type":"uint8"},{"internalType":"uint256","name":"value","type":"uint256"}],"internalType":"struct Types.TradingStopCondition","name":"takeProfitCondition","type":"tuple"},{"components":[{"internalType":"enum Types.TradingStopConditionType","name":"stopType","type":"uint8"},{"internalType":"uint256","name":"value","type":"uint256"}],"internalType":"struct Types.TradingStopCondition","name":"stopLossCondition","type":"tuple"}],"indexed":false,"internalType":"struct Types.Pocket","name":"pocketData","type":"tuple"}],"name":"PocketUpdated","type":"event"},{"anonymous":false,"inputs":[{"indexed":true,"internalType":"bytes32","name":"role","type":"bytes32"},{"indexed":true,"internalType":"bytes32","name":"previousAdminRole","type":"bytes32"},{"indexed":true,"internalType":"bytes32","name":"newAdminRole","type":"bytes32"}],"name":"RoleAdminChanged","type":"event"},{"anonymous":false,"inputs":[{"indexed":true,"internalType":"bytes32","name":"role","type":"bytes32"},{"indexed":true,"internalType":"address","name":"account","type":"address"},{"indexed":true,"internalType":"address","name":"sender","type":"address"}],"name":"RoleGranted","type":"event"},{"anonymous":false,"inputs":[{"indexed":true,"internalType":"bytes32","name":"role","type":"bytes32"},{"indexed":true,"internalType":"address","name":"account","type":"address"},{"indexed":true,"internalType":"address","name":"sender","type":"address"}],"name":"RoleRevoked","type":"event"},{"anonymous":false,"inputs":[{"indexed":false,"internalType":"address","name":"account","type":"address"}],"name":"Unpaused","type":"event"},{"inputs":[],"name":"DEFAULT_ADMIN_ROLE","outputs":[{"internalType":"bytes32","name":"","type":"bytes32"}],"stateMutability":"view","type":"function"},{"inputs":[],"name":"OPERATOR","outputs":[{"internalType":"bytes32","name":"","type":"bytes32"}],"stateMutability":"view","type":"function"},{"inputs":[],"name":"PERCENTAGE_PRECISION","outputs":[{"internalType":"uint256","name":"","type":"uint256"}],"stateMutability":"view","type":"function"},{"inputs":[],"name":"RELAYER","outputs":[{"internalType":"bytes32","name":"","type":"bytes32"}],"stateMutability":"view","type":"function"},{"inputs":[{"internalType":"address","name":"","type":"address"}],"name":"allowedInteractiveAddresses","outputs":[{"internalType":"bool","name":"","type":"bool"}],"stateMutability":"view","type":"function"},{"inputs":[{"internalType":"string","name":"","type":"string"}],"name":"blacklistedIdMap","outputs":[{"internalType":"bool","name":"","type":"bool"}],"stateMutability":"view","type":"function"},{"inputs":[{"internalType":"string","name":"pocketId","type":"string"}],"name":"getBalanceInfoOf","outputs":[{"internalType":"uint256","name":"","type":"uint256"},{"internalType":"uint256","name":"","type":"uint256"}],"stateMutability":"view","type":"function"},{"inputs":[{"internalType":"string","name":"pocketId","type":"string"}],"name":"getOwnerOf","outputs":[{"internalType":"address","name":"","type":"address"}],"stateMutability":"view","type":"function"},{"inputs":[{"internalType":"bytes32","name":"role","type":"bytes32"}],"name":"getRoleAdmin","outputs":[{"internalType":"bytes32","name":"","type":"bytes32"}],"stateMutability":"view","type":"function"},{"inputs":[{"internalType":"string","name":"pocketId","type":"string"}],"name":"getStopConditionsOf","outputs":[{"components":[{"internalType":"uint256","name":"value","type":"uint256"},{"internalType":"enum Types.StopConditionOperator","name":"operator","type":"uint8"}],"internalType":"struct Types.StopCondition[]","name":"","type":"tuple[]"}],"stateMutability":"view","type":"function"},{"inputs":[{"internalType":"string","name":"pocketId","type":"string"}],"name":"getTradingInfoOf","outputs":[{"internalType":"address","name":"","type":"address"},{"internalType":"address","name":"","type":"address"},{"internalType":"address","name":"","type":"address"},{"internalType":"uint256","name":"","type":"uint256"},{"internalType":"uint256","name":"","type":"uint256"},{"internalType":"uint256","name":"","type":"uint256"},{"internalType":"uint256","name":"","type":"uint256"},{"components":[{"internalType":"uint256","name":"value0","type":"uint256"},{"internalType":"uint256","name":"value1","type":"uint256"},{"internalType":"enum Types.ValueComparisonOperator","name":"operator","type":"uint8"}],"internalType":"struct Types.ValueComparison","name":"","type":"tuple"},{"components":[{"internalType":"enum Types.TradingStopConditionType","name":"stopType","type":"uint8"},{"internalType":"uint256","name":"value","type":"uint256"}],"internalType":"struct Types.TradingStopCondition","name":"","type":"tuple"},{"components":[{"internalType":"enum Types.TradingStopConditionType","name":"stopType","type":"uint8"},{"internalType":"uint256","name":"value","type":"uint256"}],"internalType":"struct Types.TradingStopCondition","name":"","type":"tuple"}],"stateMutability":"view","type":"function"},{"inputs":[{"internalType":"bytes32","name":"role","type":"bytes32"},{"internalType":"address","name":"account","type":"address"}],"name":"grantRole","outputs":[],"stateMutability":"nonpayable","type":"function"},{"inputs":[{"internalType":"bytes32","name":"role","type":"bytes32"},{"internalType":"address","name":"account","type":"address"}],"name":"hasRole","outputs":[{"internalType":"bool","name":"","type":"bool"}],"stateMutability":"view","type":"function"},{"inputs":[],"name":"initialize","outputs":[],"stateMutability":"nonpayable","type":"function"},{"inputs":[{"components":[{"internalType":"string","name":"id","type":"string"},{"internalType":"address","name":"owner","type":"address"},{"internalType":"address","name":"ammRouterAddress","type":"address"},{"internalType":"address","name":"baseTokenAddress","type":"address"},{"internalType":"address","name":"targetTokenAddress","type":"address"},{"internalType":"uint256","name":"startAt","type":"uint256"},{"internalType":"uint256","name":"batchVolume","type":"uint256"},{"components":[{"internalType":"uint256","name":"value","type":"uint256"},{"internalType":"enum Types.StopConditionOperator","name":"operator","type":"uint8"}],"internalType":"struct Types.StopCondition[]","name":"stopConditions","type":"tuple[]"},{"internalType":"uint256","name":"frequency","type":"uint256"},{"components":[{"internalType":"uint256","name":"value0","type":"uint256"},{"internalType":"uint256","name":"value1","type":"uint256"},{"internalType":"enum Types.ValueComparisonOperator","name":"operator","type":"uint8"}],"internalType":"struct Types.ValueComparison","name":"openingPositionCondition","type":"tuple"},{"components":[{"internalType":"enum Types.TradingStopConditionType","name":"stopType","type":"uint8"},{"internalType":"uint256","name":"value","type":"uint256"}],"internalType":"struct Types.TradingStopCondition","name":"takeProfitCondition","type":"tuple"},{"components":[{"internalType":"enum Types.TradingStopConditionType","name":"stopType","type":"uint8"},{"internalType":"uint256","name":"value","type":"uint256"}],"internalType":"struct Types.TradingStopCondition","name":"stopLossCondition","type":"tuple"}],"internalType":"struct Params.CreatePocketParams","name":"params","type":"tuple"}],"name":"initializeUserPocket","outputs":[],"stateMutability":"nonpayable","type":"function"},{"inputs":[{"internalType":"string","name":"pocketId","type":"string"},{"internalType":"address","name":"owner","type":"address"}],"name":"isAbleToClose","outputs":[{"internalType":"bool","name":"","type":"bool"}],"stateMutability":"view","type":"function"},{"inputs":[{"internalType":"string","name":"pocketId","type":"string"},{"internalType":"address","name":"owner","type":"address"}],"name":"isAbleToDeposit","outputs":[{"internalType":"bool","name":"","type":"bool"}],"stateMutability":"view","type":"function"},{"inputs":[{"internalType":"string","name":"pocketId","type":"string"},{"internalType":"address","name":"owner","type":"address"}],"name":"isAbleToPause","outputs":[{"internalType":"bool","name":"","type":"bool"}],"stateMutability":"view","type":"function"},{"inputs":[{"internalType":"string","name":"pocketId","type":"string"},{"internalType":"address","name":"owner","type":"address"}],"name":"isAbleToRestart","outputs":[{"internalType":"bool","name":"","type":"bool"}],"stateMutability":"view","type":"function"},{"inputs":[{"internalType":"string","name":"pocketId","type":"string"},{"internalType":"address","name":"owner","type":"address"}],"name":"isAbleToUpdate","outputs":[{"internalType":"bool","name":"","type":"bool"}],"stateMutability":"view","type":"function"},{"inputs":[{"internalType":"string","name":"pocketId","type":"string"},{"internalType":"address","name":"owner","type":"address"}],"name":"isAbleToWithdraw","outputs":[{"internalType":"bool","name":"","type":"bool"}],"stateMutability":"view","type":"function"},{"inputs":[{"internalType":"string","name":"pocketId","type":"string"},{"internalType":"address","name":"target","type":"address"}],"name":"isOwnerOf","outputs":[{"internalType":"bool","name":"","type":"bool"}],"stateMutability":"view","type":"function"},{"inputs":[{"internalType":"string","name":"pocketId","type":"string"}],"name":"isReadyToClosePosition","outputs":[{"internalType":"bool","name":"","type":"bool"}],"stateMutability":"view","type":"function"},{"inputs":[{"internalType":"string","name":"pocketId","type":"string"}],"name":"isReadyToSwap","outputs":[{"internalType":"bool","name":"","type":"bool"}],"stateMutability":"view","type":"function"},{"inputs":[],"name":"owner","outputs":[{"internalType":"address","name":"","type":"address"}],"stateMutability":"view","type":"function"},{"inputs":[],"name":"pause","outputs":[],"stateMutability":"nonpayable","type":"function"},{"inputs":[],"name":"paused","outputs":[{"internalType":"bool","name":"","type":"bool"}],"stateMutability":"view","type":"function"},{"inputs":[{"internalType":"string","name":"","type":"string"}],"name":"pockets","outputs":[{"internalType":"string","name":"id","type":"string"},{"internalType":"uint256","name":"totalDepositedBaseAmount","type":"uint256"},{"internalType":"uint256","name":"totalSwappedBaseAmount","type":"uint256"},{"internalType":"uint256","name":"totalReceivedTargetAmount","type":"uint256"},{"internalType":"uint256","name":"totalClosedPositionInTargetTokenAmount","type":"uint256"},{"internalType":"uint256","name":"totalReceivedFundInBaseTokenAmount","type":"uint256"},{"internalType":"uint256","name":"baseTokenBalance","type":"uint256"},{"internalType":"uint256","name":"targetTokenBalance","type":"uint256"},{"internalType":"uint256","name":"executedBatchAmount","type":"uint256"},{"internalType":"uint256","name":"nextScheduledExecutionAt","type":"uint256"},{"internalType":"enum Types.PocketStatus","name":"status","type":"uint8"},{"internalType":"address","name":"owner","type":"address"},{"internalType":"address","name":"ammRouterAddress","type":"address"},{"internalType":"address","name":"baseTokenAddress","type":"address"},{"internalType":"address","name":"targetTokenAddress","type":"address"},{"internalType":"uint256","name":"startAt","type":"uint256"},{"internalType":"uint256","name":"batchVolume","type":"uint256"},{"internalType":"uint256","name":"frequency","type":"uint256"},{"components":[{"internalType":"uint256","name":"value0","type":"uint256"},{"internalType":"uint256","name":"value1","type":"uint256"},{"internalType":"enum Types.ValueComparisonOperator","name":"operator","type":"uint8"}],"internalType":"struct Types.ValueComparison","name":"openingPositionCondition","type":"tuple"},{"components":[{"internalType":"enum Types.TradingStopConditionType","name":"stopType","type":"uint8"},{"internalType":"uint256","name":"value","type":"uint256"}],"internalType":"struct Types.TradingStopCondition","name":"takeProfitCondition","type":"tuple"},{"components":[{"internalType":"enum Types.TradingStopConditionType","name":"stopType","type":"uint8"},{"internalType":"uint256","name":"value","type":"uint256"}],"internalType":"struct Types.TradingStopCondition","name":"stopLossCondition","type":"tuple"}],"stateMutability":"view","type":"function"},{"inputs":[],"name":"renounceOwnership","outputs":[],"stateMutability":"nonpayable","type":"function"},{"inputs":[{"internalType":"bytes32","name":"role","type":"bytes32"},{"internalType":"address","name":"account","type":"address"}],"name":"renounceRole","outputs":[],"stateMutability":"nonpayable","type":"function"},{"inputs":[{"internalType":"bytes32","name":"role","type":"bytes32"},{"internalType":"address","name":"account","type":"address"}],"name":"revokeRole","outputs":[],"stateMutability":"nonpayable","type":"function"},{"inputs":[{"internalType":"string","name":"pocketId","type":"string"}],"name":"shouldClosePocket","outputs":[{"internalType":"bool","name":"","type":"bool"}],"stateMutability":"view","type":"function"},{"inputs":[{"internalType":"string","name":"pocketId","type":"string"},{"internalType":"uint256","name":"swappedBaseTokenAmount","type":"uint256"},{"internalType":"uint256","name":"receivedTargetTokenAmount","type":"uint256"}],"name":"shouldOpenPosition","outputs":[{"internalType":"bool","name":"","type":"bool"}],"stateMutability":"view","type":"function"},{"inputs":[{"internalType":"string","name":"pocketId","type":"string"},{"internalType":"uint256","name":"swappedTargetTokenAmount","type":"uint256"},{"internalType":"uint256","name":"receivedBaseTokenAmount","type":"uint256"}],"name":"shouldStopLoss","outputs":[{"internalType":"bool","name":"","type":"bool"}],"stateMutability":"view","type":"function"},{"inputs":[{"internalType":"string","name":"pocketId","type":"string"},{"internalType":"uint256","name":"swappedTargetTokenAmount","type":"uint256"},{"internalType":"uint256","name":"receivedBaseTokenAmount","type":"uint256"}],"name":"shouldTakeProfit","outputs":[{"internalType":"bool","name":"","type":"bool"}],"stateMutability":"view","type":"function"},{"inputs":[{"internalType":"bytes4","name":"interfaceId","type":"bytes4"}],"name":"supportsInterface","outputs":[{"internalType":"bool","name":"","type":"bool"}],"stateMutability":"view","type":"function"},{"inputs":[{"internalType":"address","name":"newOwner","type":"address"}],"name":"transferOwnership","outputs":[],"stateMutability":"nonpayable","type":"function"},{"inputs":[],"name":"unpause","outputs":[],"stateMutability":"nonpayable","type":"function"},{"inputs":[{"components":[{"internalType":"string","name":"id","type":"string"},{"internalType":"uint256","name":"startAt","type":"uint256"},{"internalType":"uint256","name":"batchVolume","type":"uint256"},{"components":[{"internalType":"uint256","name":"value","type":"uint256"},{"internalType":"enum Types.StopConditionOperator","name":"operator","type":"uint8"}],"internalType":"struct Types.StopCondition[]","name":"stopConditions","type":"tuple[]"},{"internalType":"uint256","name":"frequency","type":"uint256"},{"components":[{"internalType":"uint256","name":"value0","type":"uint256"},{"internalType":"uint256","name":"value1","type":"uint256"},{"internalType":"enum Types.ValueComparisonOperator","name":"operator","type":"uint8"}],"internalType":"struct Types.ValueComparison","name":"openingPositionCondition","type":"tuple"},{"components":[{"internalType":"enum Types.TradingStopConditionType","name":"stopType","type":"uint8"},{"internalType":"uint256","name":"value","type":"uint256"}],"internalType":"struct Types.TradingStopCondition","name":"takeProfitCondition","type":"tuple"},{"components":[{"internalType":"enum Types.TradingStopConditionType","name":"stopType","type":"uint8"},{"internalType":"uint256","name":"value","type":"uint256"}],"internalType":"struct Types.TradingStopCondition","name":"stopLossCondition","type":"tuple"}],"internalType":"struct Params.UpdatePocketParams","name":"params","type":"tuple"},{"internalType":"string","name":"reason","type":"string"}],"name":"updatePocket","outputs":[],"stateMutability":"nonpayable","type":"function"},{"inputs":[{"components":[{"internalType":"string","name":"id","type":"string"},{"internalType":"address","name":"actor","type":"address"},{"internalType":"uint256","name":"swappedTargetTokenAmount","type":"uint256"},{"internalType":"uint256","name":"receivedBaseTokenAmount","type":"uint256"}],"internalType":"struct Params.UpdatePocketClosingPositionStatsParams","name":"params","type":"tuple"},{"internalType":"string","name":"reason","type":"string"}],"name":"updatePocketClosingPositionStats","outputs":[],"stateMutability":"nonpayable","type":"function"},{"inputs":[{"components":[{"internalType":"address","name":"actor","type":"address"},{"internalType":"string","name":"id","type":"string"},{"internalType":"uint256","name":"amount","type":"uint256"},{"internalType":"address","name":"tokenAddress","type":"address"}],"internalType":"struct Params.UpdatePocketDepositParams","name":"params","type":"tuple"},{"internalType":"string","name":"reason","type":"string"}],"name":"updatePocketDepositStats","outputs":[],"stateMutability":"nonpayable","type":"function"},{"inputs":[{"components":[{"internalType":"address","name":"actor","type":"address"},{"internalType":"string","name":"id","type":"string"},{"internalType":"enum Types.PocketStatus","name":"status","type":"uint8"}],"internalType":"struct Params.UpdatePocketStatusParams","name":"params","type":"tuple"},{"internalType":"string","name":"reason","type":"string"}],"name":"updatePocketStatus","outputs":[],"stateMutability":"nonpayable","type":"function"},{"inputs":[{"components":[{"internalType":"address","name":"actor","type":"address"},{"internalType":"string","name":"id","type":"string"},{"internalType":"uint256","name":"swappedBaseTokenAmount","type":"uint256"},{"internalType":"uint256","name":"receivedTargetTokenAmount","type":"uint256"}],"internalType":"struct Params.UpdatePocketTradingStatsParams","name":"params","type":"tuple"},{"internalType":"string","name":"reason","type":"string"}],"name":"updatePocketTradingStats","outputs":[],"stateMutability":"nonpayable","type":"function"},{"inputs":[{"components":[{"internalType":"address","name":"actor","type":"address"},{"internalType":"string","name":"id","type":"string"}],"internalType":"struct Params.UpdatePocketWithdrawalParams","name":"params","type":"tuple"},{"internalType":"string","name":"reason","type":"string"}],"name":"updatePocketWithdrawalStats","outputs":[],"stateMutability":"nonpayable","type":"function"},{"inputs":[{"internalType":"address","name":"interactiveAddress","type":"address"},{"internalType":"bool","name":"value","type":"bool"}],"name":"whitelistAddress","outputs":[],"stateMutability":"nonpayable","type":"function"}],"evm":{"bytecode":{"linkReferences":{},"object":"60808060405234620000c6576000549060ff8260081c1662000074575060ff8082161062000038575b6040516146909081620000cc8239f35b60ff90811916176000557f7f26b83ff96e1f2b6a682f133852f6798a09c465da95921460cefb3847402498602060405160ff8152a13862000028565b62461bcd60e51b815260206004820152602760248201527f496e697469616c697a61626c653a20636f6e747261637420697320696e697469604482015266616c697a696e6760c81b6064820152608490fd5b600080fdfe61018080604052600436101561001457600080fd5b60003560e01c90816301ffc9a714612f4657508063125167ef14612f2a5780631416642e14612f0e5780632483e71514612ed3578063248a9ca314612ea45780632f2ff15d14612e0257806336568abe14612d63578063368e0b6c14612c055780633740c1831461221d5780633f4ba83a146121795780634418eb0014610ea8578063534ca7a21461213d5780635c975abb1461211a578063715018a6146120b25780637bc039401461202b57806380b443c314611fa45780638129fc1c14611d86578063819e8a3a14611d735780638321d27814611b745780638456cb5914611acd5780638da5cb5b14611aa65780638dea81e714611a6657806391d1485414611a18578063983d2737146119dd5780639888b5ab1461196857806399ba8057146118b75780639d92d7371461182f578063a217fddf14611813578063a58b40691461171c578063a6ceadba146116dc578063b3fd1da514611619578063b48093e11461150d578063b612f86614610ea8578063b9a45aac14611489578063bcf7a12214611396578063bef48ddf14611342578063c11bc90f1461127e578063d3fc80d914611258578063d547741f1461122c578063e058d7241461103f578063e138682414610ecb578063e256888f14610ead578063e6068d0114610ea8578063e92c3598146102b95763f2fde38b1461020f57600080fd5b346102b45760203660031901126102b45761022861305f565b610230613526565b6001600160a01b0381161561024a576102489061357e565b005b608460405162461bcd60e51b815260206004820152602660248201527f4f776e61626c653a206e6577206f776e657220697320746865207a65726f206160448201527f64647265737300000000000000000000000000000000000000000000000000006064820152fd5b600080fd5b346102b4576003196020368201126102b45767ffffffffffffffff600435116102b45761020090600435360301126102b4576102f3614067565b610301600480350180613b73565b90604051908281833760ff8383019260208161012f95868152030190205416610e6457602091836040519485938437820190815203019020805460ff191660011790556103564260043560a401351015613ba6565b61036b610e1061010460043501351015613c17565b6001600160a01b03610381602460043501613c88565b1615610e20576001600160a01b0361039d604460043501613c88565b1615610dd2576001600160a01b036103b9604460043501613c88565b1660005261012d60205260ff6040600020541615610d79576001600160a01b036103e7606460043501613c88565b1615610d2b576001600160a01b03610403606460043501613c88565b1660005261012d60205260ff6040600020541615610cd2576001600160a01b03610431608460043501613c88565b1615610c68576001600160a01b0361044d608460043501613c88565b1660005261012d60205260ff6040600020541615610bfe5760005b61047c60e460043501600435600401613c9c565b90508110156104bc57806104b26104aa6104b7936104a460e460043501600435600401613c9c565b90613cd2565b351515613cf8565b613634565b610468565b6007610164600435013510156102b4576101646004350135610b92575b610184600435013560048110156102b4576104f381613402565b610b7b575b6101c4600435013560048110156102b45761051281613402565b610b64575b61059561064861052b600480350180613b73565b906001600160a01b03610542602460043501613c88565b81610551604460043501613c88565b81610560606460043501613c88565b9181610570608460043501613c88565b9561059c61058860e460043501600435600401613c9c565b9a909b6040519e8f6131c2565b3691613255565b8c52600060208d0152600060408d0152600060608d0152600060808d0152600060a08d0152600060c08d0152600060e08d015260006101008d015260006101208d015260016101408d0152166101608b015216610180890152166101a0870152166101c085015260a460043501356101e085015260c46004350135610200850152610104600435013561022085015261063b3661012460043501613db4565b6102408501523691613df0565b61026082015261065e3661018460043501613e6e565b610280820152610674366101c460043501613e6e565b6102a0820152602061068a600480350180613b73565b919082604051938492833761012e81830152810103019020815191825167ffffffffffffffff8111610a81576106c083546132fe565b601f8111610b20575b506020601f8211600114610ab85781929394600092610aad575b50508160011b916000199060031b1c19161782555b6020810151600183015560408101516002830155606081015160038301556080810151600483015560a0810151600583015560c0810151600683015560e08101516007830155610100810151600883015561012081015160098301556101408101516005811015610a9757610771600a84019182613ea0565b61016082015174ffffffffffffffffffffffffffffffffffffffff001974ffffffffffffffffffffffffffffffffffffffff0083549260081b169116179055600b82016001600160a01b03610180830151169073ffffffffffffffffffffffffffffffffffffffff199182825416179055600c83016001600160a01b036101a08401511682825416179055600d8301906001600160a01b036101c084015116908254161790556101e0810151600e830155610200810151600f830155610220810151601083015561024081015180516011840155602081015160128401556040601384019101516007811015610a975760ff80198354169116179055610260810151805190680100000000000000008211610a81576014840154826014860155808310610a01575b506020016014840160005260206000206000915b8383106109c35785601860208781601585016102808301519081516108d181613402565b6108da81613402565b60ff80198354169116179055015160168501556102a06017850191015190815161090381613402565b61090c81613402565b60ff801983541691161790550151910155610931600435600401600435600401613b73565b90610940602460043501613c88565b916020610951600480350180613b73565b9190826040519384928337810161012e81520301902091816040519283928337810160008152039020907f31b2dd515a8ffb0724ce0f020933729104acaee276277c41160d3d3eefc9d5786001600160a01b0360405194602086521693806109be33946020830190613ecb565b0390a4005b60026020826001935180518655828587019101516109e081613402565b6109e981613402565b60ff80198354169116179055019201920191906108ad565b7f7fffffffffffffffffffffffffffffffffffffffffffffffffffffffffffffff8082168203610a6b5783168303610a6b576014850160005260206000208360011b81015b8260011b82018110610a59575050610899565b60008082556001820155600201610a46565b634e487b7160e01b600052601160045260246000fd5b634e487b7160e01b600052604160045260246000fd5b634e487b7160e01b600052602160045260246000fd5b0151905084806106e3565b8360005260206000209060005b601f1984168110610b085750600193949583601f19811610610aef575b505050811b0182556106f8565b015160001960f88460031b161c19169055848080610ae2565b9091602060018192858a015181550193019101610ac5565b836000526020600020601f830160051c810160208410610b5d575b601f830160051c82018110610b515750506106c9565b60008155600101610b3b565b5080610b3b565b610b766101e460043501351515613d69565b610517565b610b8d6101a460043501351515613d69565b6104f8565b60056101646004350135148015610bed575b15610bdb57610bc461012460043501358015159081610bc9575b50613d69565b6104d9565b90506101446004350135101582610bbe565b610bc461012460043501351515613d69565b506006610164600435013514610ba4565b608460405162461bcd60e51b815260206004820152602e60248201527f416464726573733a20746172676574546f6b656e41646472657373206973206e60448201527f6f742077686974656c69737465640000000000000000000000000000000000006064820152fd5b608460405162461bcd60e51b815260206004820152602360248201527f416464726573733a20696e76616c696420746172676574546f6b656e4164647260448201527f65737300000000000000000000000000000000000000000000000000000000006064820152fd5b608460405162461bcd60e51b815260206004820152602c60248201527f416464726573733a2062617365546f6b656e41646472657373206973206e6f7460448201526b081dda1a5d195b1a5cdd195960a21b6064820152fd5b608460405162461bcd60e51b815260206004820152602160248201527f416464726573733a20696e76616c69642062617365546f6b656e4164647265736044820152607360f81b6064820152fd5b608460405162461bcd60e51b815260206004820152602c60248201527f416464726573733a20616d6d526f7574657241646472657373206973206e6f7460448201526b081dda1a5d195b1a5cdd195960a21b6064820152fd5b608460405162461bcd60e51b815260206004820152602160248201527f416464726573733a20696e76616c696420616d6d526f757465724164647265736044820152607360f81b6064820152fd5b606460405162461bcd60e51b815260206004820152601660248201527f416464726573733a20696e76616c6964206f776e6572000000000000000000006044820152fd5b606460405162461bcd60e51b815260206004820152601860248201527f49443a20746865206964206973206e6f7420756e6971756500000000000000006044820152fd5b613104565b346102b45760003660031901126102b4576020604051620f42408152f35b346102b4576003196040368201126102b45760043567ffffffffffffffff8082116102b4576060826004019383360301126102b4576024359081116102b457610f18903690600401612fe4565b92610f21614067565b610f2a81613c88565b6001600160a01b0390811660009081527fdff3dc04e5be5d758e3cbf436c1eaac83caf9b19278dbb9a033498f210d28585602052604090205460ff168015611015575b610f7690614507565b602484019160446020610f898584613b73565b9190826040519384928337810161012e81520301902095013560058110156102b457610ff1610fe97fba45d725ab265e638684c538e195eab9be37cf512eeea7680f2521070daee76e95610fe36109be94600a8b01613ea0565b84613b73565b919093613c88565b928160405192839283378101600081520390209560405193849316973396846144cd565b50610f766110386110296024870185613b73565b61103286613c88565b916135ed565b9050610f6d565b346102b4576020806003193601126102b45760043567ffffffffffffffff81116102b457611071903690600401612fe4565b919060405161107f816131fb565b6000815282810160009052604001600090528160405161109e816131df565b600081520160009052816040516110b4816131df565b60008152016000905260405192808285378084019061012e9182815285856001600160a01b0397889303019020600b015416948060405183868237868185810187815203019020600c0154169060405183868237868185810187815203019020600d01541660405183868237868185810187815203019020600e015460405184878237878186810188815203019020600f0154916040518588823788818781018981520301902060100154936040518689823789818881018a815203019020600901549589604051828b823781818481018c815203019020601101996040518382823782818581018d81520301902060150199836040519485938437820190815203019020601701976111c6906133ce565b966111d09061340c565b976111da9061340c565b986040519a8b528a015260408901526060880152608087015260a086015260c085015260e0840161120a91613475565b610140830161121891613497565b610180820161122691613497565b6101c090f35b346102b45760403660031901126102b457610248611248613049565b611250613526565b6004356134af565b346102b457602061127461126b36613012565b92919091613a2a565b6040519015158152f35b346102b45760203660031901126102b45760043567ffffffffffffffff81116102b4576112af903690600401612fe4565b604051908083833760ff600a8284019360208161012e9687815203019020015416926005841015610a97576001602094149283611320575b836112fa575b5050506040519015158152f35b6009935090849183604051948593843782019081520301902001544210158280806112ed565b9250600e604051838382378581858101878152030190200154421015926112e7565b346102b45760203660031901126102b45760043567ffffffffffffffff81116102b4576001600160a01b03600a6113886113826020943690600401612fe4565b906135d3565b015460081c16604051908152f35b346102b4576003196040368201126102b45767ffffffffffffffff906004358281116102b4576040816004019282360301126102b4576024359283116102b4577fba45d725ab265e638684c538e195eab9be37cf512eeea7680f2521070daee76e6001600160a01b0361140f6024953690600401612fe4565b95909361141a614067565b019361143a61143561142c8784613b73565b61103285613c88565b614578565b6109be610ff1610fe9602061144f8986613b73565b9190826040519384928337810161012e81520301902097600060068a0155600060078a0155600a8901600460ff1982541617905584613b73565b346102b45760403660031901126102b4576114a261305f565b602435908115158092036102b4576001600160a01b03906114c1613526565b16908160005261012d602052604060002060ff1981541660ff83161790556040519081527f8962d218b945501046dadd801583f3157c2c995f2dfa67789f7d6793a40e841d60203392a3005b346102b45761151b36613075565b9190611525614067565b7fba45d725ab265e638684c538e195eab9be37cf512eeea7680f2521070daee76e6020830161155381613c88565b6001600160a01b0390811660009081527fdff3dc04e5be5d758e3cbf436c1eaac83caf9b19278dbb9a033498f210d28585602052604090205490919060ff168015611601575b6115a290614507565b6109be610ff1610fe960206115b78980613b73565b9190826040519384928337810161012e81520301902097604081013560048a015560608101358060058b01556115f260068b01918254613a1d565b9055600060078a015580613b73565b506115a261161261142c8780613b73565b9050611599565b346102b45760203660031901126102b45760043567ffffffffffffffff81116102b45761164a903690600401612fe4565b604051908083833760ff600a8284019360208161012e9687815203019020015416926005841015610a97576004602094141592836116ba575b83611695575050506040519015158152f35b60079350908491836040519485938437820190815203019020015415158280806112ed565b9250600e60405183838237858185810187815203019020015442101592611683565b346102b457602060ff611705826116f23661329c565b81604051938285809451938492016132db565b810161012f81520301902054166040519015158152f35b346102b4576020806003193601126102b45760043567ffffffffffffffff81116102b4576117536113826014923690600401612fe4565b019081546117608161361c565b9061176e6040519283613233565b8082528282018094600052836000206000915b8383106117db5760408051878152865181890181905289928201908960005b8281106117ad5784840385f35b9091928260406001928289518051835201516117c881613402565b83820152019601910194929190946117a0565b6002866001926040516117ed816131df565b8554815260ff858701541661180181613402565b83820152815201920192019190611781565b346102b45760003660031901126102b457602060405160008152f35b346102b45761183d366130c1565b9060405191818484378183019261012e93848152600a8260206001600160a01b0394859403019020015460081c169116149182611882575b6020836040519015158152f35b600a925060ff936020918360405194859384378201908152030190200154166005811015610a97576001602091148280611875565b346102b4576118c536613075565b91906118cf614067565b7fba45d725ab265e638684c538e195eab9be37cf512eeea7680f2521070daee76e6001600160a01b03602084019361190d61143561142c8784613b73565b6109be610ff1610fe960206119228986613b73565b9190826040519384928337810161012e815203019020976001890180549061194f60408801358093613a1d565b905561196060068b01918254613a1d565b905584613b73565b346102b45760203660031901126102b45760043567ffffffffffffffff81116102b457600761199d6040923690600401612fe4565b8351929160209082818637600683860195838161012e98898152030190200154948387519485938437820190815203019020015482519182526020820152f35b346102b45760003660031901126102b45760206040517f523a704056dcd17bcf83bed8b68c59416dac1119be77755efe3bde0a64e46e0c8152f35b346102b45760403660031901126102b457611a31613049565b60043560005260c96020526001600160a01b0360406000209116600052602052602060ff604060002054166040519015158152f35b346102b45760203660031901126102b4576001600160a01b03611a8761305f565b1660005261012d602052602060ff604060002054166040519015158152f35b346102b45760003660031901126102b45760206001600160a01b0360fb5416604051908152f35b346102b45760003660031901126102b457611ae6613526565b611aee614294565b60335460ff8116611b305760019060ff1916176033557f62e78cea01bee320cd4e420270b5ea74000d11b0c9f74754ebdbfc544b05a2586020604051338152a1005b606460405162461bcd60e51b815260206004820152601060248201527f5061757361626c653a20706175736564000000000000000000000000000000006044820152fd5b346102b457611b823661329c565b6040518181809351602081930191611b99926132db565b810161012e81520360200190206040519081611bb58183613338565b03611bc09083613233565b600181015460a05260028101546101605260038101546101205260048101549160058201546006830154600784015460088501546009860154600a87015490600b8801546001600160a01b031692600c8901546001600160a01b031694600d8a01546001600160a01b031696600e8b015498600f8c01549a60108d01549c60118101611c4b906133ce565b60c052611c5a6015820161340c565b60e052601701611c699061340c565b610100526040518060805261032080915260805101611c8791613436565b9c60a05160805160200152610160516080516040015261012051608051606001526080516080015260805160a0015260805160c0015260805160e00152608051610100015260805161012001526080516101400160ff821690611ce99161345b565b60081c6001600160a01b0316608051610160015260805161018001526080516101a001526080516101c001526080516101e00152608051610200015260805161022001526080516102400160c05190611d4191613475565b6080516102a00160e05190611d5591613497565b6080516102e0016101005190611d6a91613497565b60805180910390f35b346102b4576020611274611032366130c1565b346102b45760003660031901126102b45760005460ff90818160081c161591828093611f98575b8015611f82575b15611f185760ff198281166001176000559183611f06575b50611e008160005460081c16611de1816145e9565b611dea816145e9565b8360335416603355611dfb816145e9565b6145e9565b611e093361357e565b611e268160005460081c16611e1d816145e9565b611dfb816145e9565b60016065553360009081527f81fe90a866a48a634a12852c1be675b683a22307409932a7443b8029347be75660205260409020541615611ea0575b50611e6857005b61ff0019600054166000557f7f26b83ff96e1f2b6a682f133852f6798a09c465da95921460cefb3847402498602060405160018152a1005b3360008181527f81fe90a866a48a634a12852c1be675b683a22307409932a7443b8029347be7566020526040812080549093166001179092559081907f2f8788117e7eff1d82e926ec794901d17c78024a50270940304540a733656f0d8180a481611e61565b61ffff19166101011760005583611dcc565b608460405162461bcd60e51b815260206004820152602e60248201527f496e697469616c697a61626c653a20636f6e747261637420697320616c72656160448201527f647920696e697469616c697a65640000000000000000000000000000000000006064820152fd5b50303b158015611db45750600181831614611db4565b50600181831610611dad565b346102b457611fb2366130c1565b9060405191818484378183019261012e93848152600a8260206001600160a01b0394859403019020015460081c169116149182611ff6576020836040519015158152f35b600a925060ff936020918360405194859384378201908152030190200154166005811015610a97576002602091148280611875565b346102b457612039366130c1565b9060405191818484378183019261012e93848152600a8260206001600160a01b0394859403019020015460081c16911614918261207d576020836040519015158152f35b600a925060ff936020918360405194859384378201908152030190200154166005811015610a97576003602091148280611875565b346102b45760003660031901126102b4576120cb613526565b60006001600160a01b0360fb5473ffffffffffffffffffffffffffffffffffffffff19811660fb55167f8be0079c531659141344cd1fd0a4f28419497f9722a3daafe3b4186f6b6457e08280a3005b346102b45760003660031901126102b457602060ff603354166040519015158152f35b346102b45760203660031901126102b45760043567ffffffffffffffff81116102b4576112746121736020923690600401612fe4565b90613643565b346102b45760003660031901126102b457612192613526565b61219a614294565b60335460ff8116156121d95760ff19166033557f5db9ee0a495bf2e6ff9c91a7834c1ba4fdd244a5e8aa4e537bd38aeae4b073aa6020604051338152a1005b606460405162461bcd60e51b815260206004820152601460248201527f5061757361626c653a206e6f74207061757365640000000000000000000000006044820152fd5b346102b4576003196040368201126102b45767ffffffffffffffff600435116102b45761018090600435360301126102b45760243567ffffffffffffffff81116102b45761226f903690600401612fe4565b612277614067565b612285600480350180613b73565b90600160ff6040518484823761012f85820152602081868101030190205416151503612bc157816020600a926001600160a01b03946040519384928337810161012e815203019020015460081c1615612b7d576122ea42602460043501351015613ba6565b6122fe610e10608460043501351015613c17565b60005b612315606460043501600435600401613c9c565b905081101561234257806104b26104aa61233d936104a4606460043501600435600401613c9c565b612301565b50600760e4600435013510156102b45760e46004350135612b17575b610104600435013560048110156102b45761237881613402565b612b00575b60046101448135013510156102b45761239c6101446004350135613402565b6101446004350135612ae9575b60206123b9600480350180613b73565b9190826040519384928337810161012e815203019020916123e4606460043501600435600401613c9c565b90600a850154916001600160a01b03600b870154166001600160a01b03600c880154166001600160a01b03600d89015416918860018101546003820154600283015490600484015460058501549060068601549260078701549460088801549661246c61247360098b01549a61246060405180610140526131c2565b60405192838092613338565b0382613233565b6101405152602061014051015260406101405101526060610140510152608061014051015260a061014051015260c061014051015260e0610140510152610100610140510152610120610140510152600560ff87161015610a97576001600160a01b038660ff61255c98166101408051015260081c166101606101405101526101806101405101526101a06101405101526101c0610140510152602460043501356101e0610140510152604460043501356102006101405101526084600435013561022061014051015261254c3660a460043501613db4565b6102406101405101523691613df0565b6102606101405101526125753661010460043501613e6e565b61028061014051015261258e3661014460043501613e6e565b610140516102a0015260206125a7600480350180613b73565b9190826040519384928337810161012e815203019020610140515180519067ffffffffffffffff8211610a815781906125e084546132fe565b601f8111612a99575b50602090601f8311600114612a2d57600092612a22575b50508160011b916000199060031b1c19161781555b61014080516020810151600184015560408101516002840155606081015160038401556080810151600484015560a0810151600584015560c0810151600684015560e081015160078401556101008101516008840155610120810151600984015501516005811015610a975761268f600a83019182613ea0565b610140519061016082015174ffffffffffffffffffffffffffffffffffffffff001974ffffffffffffffffffffffffffffffffffffffff0083549260081b169116179055600b82016001600160a01b03610180830151169073ffffffffffffffffffffffffffffffffffffffff199182825416179055600c83016001600160a01b036101a08401511682825416179055600d8301906001600160a01b036101c084015116908254161790556101e0810151600e830155610200810151600f8301556102208101516010830155604061024082015180516011850155602081015160128501550151906007821015610a97576102609160ff801960138601541691161760138401550151805190680100000000000000008211610a815760148301548260148501558083106129b8575b506020016014830160005260206000206000915b83831061297a57505050506020601582016102806101405101519081516127f881613402565b61280181613402565b60ff801983541691161790550151601682015560186020601783016102a061014051015190815161283181613402565b61283a81613402565b60ff8019835416911617905501519101556001600160a01b03600a84015460081c16926020612873600435600401600435600401613b73565b9190826040519384928337810161012e815203019020906040519060009080549061289d826132fe565b916001811690811561294357506001146128ee575b505090807fba45d725ab265e638684c538e195eab9be37cf512eeea7680f2521070daee76e9392039020936109be6040519283923396846144cd565b90915060005260206000206000905b82821061292f5750508101817fba45d725ab265e638684c538e195eab9be37cf512eeea7680f2521070daee76e6128b2565b6001816020925484870152019101906128fd565b60ff1916855250508015150282019050817fba45d725ab265e638684c538e195eab9be37cf512eeea7680f2521070daee76e6128b2565b600260208260019351805186558285870191015161299781613402565b6129a081613402565b60ff80198354169116179055019201920191906127d2565b7f7fffffffffffffffffffffffffffffffffffffffffffffffffffffffffffffff8082168203610a6b5783168303610a6b576014840160005260206000208360011b81015b8260011b82018110612a105750506127be565b600080825560018201556002016129fd565b015190508680612600565b9250836000526020600020906000935b601f1984168510612a7e576001945083601f19811610612a65575b505050811b018155612615565b015160001960f88460031b161c19169055868080612a58565b81810151835560209485019460019093019290910190612a3d565b909150836000526020600020601f840160051c810160208510612ae2575b90849392915b601f830160051c82018110612ad35750506125e9565b60008155859450600101612abd565b5080612ab7565b612afb61016460043501351515613d69565b6123a9565b612b1261012460043501351515613d69565b61237d565b600560e46004350135148015612b6d575b15612b5c57612b4660a460043501358015159081612b4b5750613d69565b61235e565b905060c46004350135101584610bbe565b612b4660a460043501351515613d69565b50600660e4600435013514612b28565b606460405162461bcd60e51b815260206004820152601660248201527f506f636b65743a20696e76616c696420706f636b6574000000000000000000006044820152fd5b606460405162461bcd60e51b815260206004820152601a60248201527f49443a20746865206964206d75737420626520657869737465640000000000006044820152fd5b346102b457612c1336613075565b9190612c1d614067565b612c2682613c88565b6001600160a01b0390811660009081527fdff3dc04e5be5d758e3cbf436c1eaac83caf9b19278dbb9a033498f210d28585602052604090205460ff168015612d3f575b612c7290614507565b60208301906020612c838386613b73565b9190826040519384928337810161012e81520301902093612ca8601086015442613a1d565b60098601556008850180549060018201809211610a6b575560028501805490612cd660408401358093613a1d565b90556003860190815491612cef60608501358094613a1d565b9055600687018054918203918211610a6b577fba45d725ab265e638684c538e195eab9be37cf512eeea7680f2521070daee76e956109be93610ff193610fe9935561196060078b01918254613a1d565b50612c72612d5c612d536020860186613b73565b61103287613c88565b9050612c69565b346102b45760403660031901126102b457612d7c613049565b336001600160a01b03821603612d9857610248906004356134af565b608460405162461bcd60e51b815260206004820152602f60248201527f416363657373436f6e74726f6c3a2063616e206f6e6c792072656e6f756e636560448201527f20726f6c657320666f722073656c6600000000000000000000000000000000006064820152fd5b346102b45760403660031901126102b457600435612e1e613049565b612e26613526565b8160005260c96020526001600160a01b0360406000209116908160005260205260ff6040600020541615612e5657005b8160005260c96020526040600020816000526020526040600020600160ff1982541617905533917f2f8788117e7eff1d82e926ec794901d17c78024a50270940304540a733656f0d600080a4005b346102b45760203660031901126102b45760043560005260c96020526020600160406000200154604051908152f35b346102b45760003660031901126102b45760206040517fab4f864e5201b0fde9b5ee3e4cf96384802b0ffdfcf7f9de4699ce21a30afc4f8152f35b346102b4576020611274612f2136613012565b92919091613897565b346102b4576020611274612f3d36613012565b92919091613749565b346102b45760203660031901126102b457600435907fffffffff0000000000000000000000000000000000000000000000000000000082168092036102b457817f7965db0b0000000000000000000000000000000000000000000000000000000060209314908115612fba575b5015158152f35b7f01ffc9a70000000000000000000000000000000000000000000000000000000091501483612fb3565b9181601f840112156102b45782359167ffffffffffffffff83116102b457602083818601950101116102b457565b60606003198201126102b4576004359067ffffffffffffffff82116102b45761303d91600401612fe4565b90916024359060443590565b602435906001600160a01b03821682036102b457565b600435906001600160a01b03821682036102b457565b906003196040818401126102b45760043567ffffffffffffffff918282116102b45760809082860301126102b457600401926024359182116102b4576130bd91600401612fe4565b9091565b60406003198201126102b4576004359067ffffffffffffffff82116102b4576130ec91600401612fe4565b90916024356001600160a01b03811681036102b45790565b346102b457613112366130c1565b9060405191818484378183019261012e93848152600a8260206001600160a01b0394859403019020015460081c169116149182613192575b8261315c576020836040519015158152f35b600a925060ff936020918360405194859384378201908152030190200154166005811015610a9757600460209114153880611875565b915060ff600a60405183868237602081858101878152030190200154166005811015610a9757600314159161314a565b6102c0810190811067ffffffffffffffff821117610a8157604052565b6040810190811067ffffffffffffffff821117610a8157604052565b6060810190811067ffffffffffffffff821117610a8157604052565b6080810190811067ffffffffffffffff821117610a8157604052565b90601f8019910116810190811067ffffffffffffffff821117610a8157604052565b92919267ffffffffffffffff8211610a81576040519161327f601f8201601f191660200184613233565b8294818452818301116102b4578281602093846000960137010152565b60206003198201126102b4576004359067ffffffffffffffff82116102b457806023830112156102b4578160246132d893600401359101613255565b90565b60005b8381106132ee5750506000910152565b81810151838201526020016132de565b90600182811c9216801561332e575b602083101461331857565b634e487b7160e01b600052602260045260246000fd5b91607f169161330d565b9060009291805491613349836132fe565b9182825260019384811690816000146133ab575060011461336b575b50505050565b90919394506000526020928360002092846000945b838610613397575050505001019038808080613365565b805485870183015294019385908201613380565b9294505050602093945060ff191683830152151560051b01019038808080613365565b906040516133db816131fb565b60ff600282948054845260018101546020850152015416906007821015610a975760400152565b60041115610a9757565b90604051613419816131df565b60206001829460ff81541661342d81613402565b84520154910152565b9060209161344f815180928185528580860191016132db565b601f01601f1916010190565b906005821015610a975752565b906007821015610a975752565b906040806134959380518452602081015160208501520151910190613468565b565b6020809180516134a681613402565b84520151910152565b9060009180835260c96020526001600160a01b036040842092169182845260205260ff6040842054166134e157505050565b80835260c9602052604083208284526020526040832060ff1981541690557ff6391f5c32d9c69d2a47ea670b442974b53935d1edc7fd64eb21e047a839171b339380a4565b6001600160a01b0360fb5416330361353a57565b606460405162461bcd60e51b815260206004820152602060248201527f4f776e61626c653a2063616c6c6572206973206e6f7420746865206f776e65726044820152fd5b60fb54906001600160a01b03809116918273ffffffffffffffffffffffffffffffffffffffff1982161760fb55167f8be0079c531659141344cd1fd0a4f28419497f9722a3daafe3b4186f6b6457e0600080a3565b602090826040519384928337810161012e81520301902090565b9080604051928337810161012e8152600a8260206001600160a01b0394859403019020015460081c1691161490565b67ffffffffffffffff8111610a815760051b60200190565b6000198114610a6b5760010190565b6014604051928083853780840161012e93848252856020809781940301902094836040519485938437820190815203019020019182549283156137405760005b848110613694575050505050600090565b816000528260002060019082821b019060ff8183015416906136b582613402565b8115613731576136c482613402565b8114613720576136d381613402565b600280821461370f57506136e681613402565b60038091146136ff5750506136fa90613634565b613683565b9493509450505001549054111590565b959450509450505001549054111590565b509450505050600801549054111590565b50509450505050505442101590565b50505050600090565b909291926020604051928281853782840193828161012e96878152030190209383604051948593843782019081520301902092601184019160ff601386015416936007851015610a9757841561385257600f6137a79201549061385d565b811561383c57049160038114613834576004811461382b5760018114613823576002811461381a57600581146137ff576006146137e657505050600190565b5481109182156137f557505090565b6012015410919050565b5054811015918261380f57505090565b601201541015919050565b50541115919050565b505410919050565b50541015919050565b505411919050565b634e487b7160e01b600052601260045260246000fd5b505050505050600190565b81810292918115918404141715610a6b57565b908160209103126102b4575160ff811681036102b45790565b604d8111610a6b57600a0a90565b906020604051928281853782840193828161012e9687815203019020938360405194859384378201908152030190209160ff601584015416906138d982613402565b8115613a13576138e882613402565b6001821461397957506138fa81613402565b60038114613960578061390e600292613402565b1461391b57505050600090565b6002015490818311156139585781830392808411610a6b5782620f42408086029586041491141715610a6b57811561383c57601601549104101590565b505050600090565b506002015460169091015461397491613a1d565b111590565b9293905060206001600160a01b03600d6004940154166040519384809263313ce56760e01b82525afa8015613a075760ff6139c1916139c7946000916139d9575b5016613889565b9061385d565b91811561383c57601601549104101590565b6139fa915060203d8111613a00575b6139f28183613233565b810190613870565b386139ba565b503d6139e8565b6040513d6000823e3d90fd5b5050505050600090565b91908201809211610a6b57565b906020604051928281853782840193828161012e9687815203019020938360405194859384378201908152030190209160ff60178401541690613a6c82613402565b8115613a1357613a7b82613402565b60018214613b1a5750613a8d81613402565b60038114613aea5780613aa1600292613402565b14613aae57505050600090565b60020154908183116139585782820392828411610a6b57620f4240808502948504149083141715610a6b57811561383c57601801549104101590565b506002015490818311159283613b01575b50505090565b82039250908211610a6b57601801541115388080613afb565b9293905060206001600160a01b03600d6004940154166040519384809263313ce56760e01b82525afa8015613a075760ff6139c191613b61946000916139d9575016613889565b91811561383c57601801549104111590565b903590601e19813603018212156102b4570180359067ffffffffffffffff82116102b4576020019181360383136102b457565b15613bad57565b608460405162461bcd60e51b815260206004820152603360248201527f54696d657374616d703a206d75737420626520657175616c206f72206772656160448201527f746572207468616e20626c6f636b2074696d65000000000000000000000000006064820152fd5b15613c1e57565b608460405162461bcd60e51b815260206004820152602f60248201527f4672657175656e63793a206d75737420626520657175616c206f72206772656160448201527f746572207468616e203120686f757200000000000000000000000000000000006064820152fd5b356001600160a01b03811681036102b45790565b903590601e19813603018212156102b4570180359067ffffffffffffffff82116102b457602001918160061b360383136102b457565b9190811015613ce25760061b0190565b634e487b7160e01b600052603260045260246000fd5b15613cff57565b608460405162461bcd60e51b815260206004820152602560248201527f53746f70436f6e646974696f6e3a2076616c7565206d757374206e6f7420626560448201527f207a65726f0000000000000000000000000000000000000000000000000000006064820152fd5b15613d7057565b606460405162461bcd60e51b815260206004820152601e60248201527f56616c7565436f6d70617269736f6e3a20696e76616c69642076616c756500006044820152fd5b91908260609103126102b457604051613dcc816131fb565b60408193803583526020810135602084015201359060078210156102b45760400152565b929192613dfc8261361c565b604092613e0b84519283613233565b819581835260208093019160061b8401938185116102b457915b848310613e3457505050505050565b85838303126102b457855190613e49826131df565b83358252848401359060048210156102b457828692838a950152815201920191613e25565b91908260409103126102b457604051613e86816131df565b8092803560048110156102b4578252602090810135910152565b906005811015610a975760ff80198354169116179055565b600160209160ff81541661342d81613402565b613edc610340808452830182613338565b9160018083015490602091828401526002948585015495604096878601526003860154606086015260048601546080860152600586015460a0860152600686015460c0860152600786015460e086015260088601546101008601526009860154610120860152600a86015460ff90613f5a610140880183831661345b565b6001600160a01b03809160081c1661016088015280600b8901541661018088015280600c890154166101a0880152600d880154166101c0870152600e8701546101e0870152600f870154610200870152601087015461022087015260118701546102408701526012870154610260870152613fe081601389015416610280880190613468565b60148701978684036102a088015285895494858152019860005285600020956000925b8584106140355750505050505050509060176103008361402d6102c06132d8960160158601613eb8565b019101613eb8565b9091929394958584899c84848c819d54845201541661405381613402565b81870152019b019796959401929190614003565b3360009081527fababaf7989d9b96df7f991dae98f597c453af71e297bb6242f6602d99c1a6579602090815260408083205490927fab4f864e5201b0fde9b5ee3e4cf96384802b0ffdfcf7f9de4699ce21a30afc4f9160ff16156140cb5750505050565b6140d4336143cf565b918451906140e182613217565b6042825284820192606036853782511561428057603084538251906001918210156142805790607860218501536041915b818311614212575050506141d05760486141cc9386936141b0936141a198519889937f416363657373436f6e74726f6c3a206163636f756e74200000000000000000008a86015261416c815180928c6037890191016132db565b8401917f206973206d697373696e6720726f6c65200000000000000000000000000000006037840152518093868401906132db565b01036028810187520185613233565b5192839262461bcd60e51b845260048401526024830190613436565b0390fd5b60648486519062461bcd60e51b825280600483015260248201527f537472696e67733a20686578206c656e67746820696e73756666696369656e746044820152fd5b909192600f8116601081101561426c576f181899199a1a9b1b9c1cb0b131b232b360811b901a61424285876143be565b5360041c92801561425857600019019190614112565b602482634e487b7160e01b81526011600452fd5b602483634e487b7160e01b81526032600452fd5b80634e487b7160e01b602492526032600452fd5b3360009081527f81fe90a866a48a634a12852c1be675b683a22307409932a7443b8029347be756602090815260408083205490929060ff16156142d657505050565b6142df336143cf565b90808451906142ed82613217565b6042825284820192606036853782511561428057603084538251906001918210156142805790607860218501536041915b818311614378575050506141d05760486141cc9386936141b0936141a198519889937f416363657373436f6e74726f6c3a206163636f756e74200000000000000000008a86015261416c815180928c6037890191016132db565b909192600f8116601081101561426c576f181899199a1a9b1b9c1cb0b131b232b360811b901a6143a885876143be565b5360041c9280156142585760001901919061431e565b908151811015613ce2570160200190565b604051906143dc826131fb565b602a8252602082016040368237825115613ce257603090538151600190811015613ce257607860218401536029905b80821161445f57505061441b5790565b606460405162461bcd60e51b815260206004820152602060248201527f537472696e67733a20686578206c656e67746820696e73756666696369656e746044820152fd5b9091600f811660108110156144b8576f181899199a1a9b1b9c1cb0b131b232b360811b901a61448e84866143be565b5360041c9180156144a357600019019061440b565b60246000634e487b7160e01b81526011600452fd5b60246000634e487b7160e01b81526032600452fd5b826132d8949360609360408452816040850152848401376000838284010152601f8019910116810190602083828403019101520190613ecb565b1561450e57565b608460405162461bcd60e51b815260206004820152602b60248201527f4f7065726174696f6e206572726f723a206f7065726174696f6e206973206e6f60448201527f74207065726d69747465640000000000000000000000000000000000000000006064820152fd5b1561457f57565b608460405162461bcd60e51b815260206004820152602360248201527f5065726d697373696f6e3a206e6f74207065726d6974746564206f706572617460448201527f696f6e00000000000000000000000000000000000000000000000000000000006064820152fd5b156145f057565b608460405162461bcd60e51b815260206004820152602b60248201527f496e697469616c697a61626c653a20636f6e7472616374206973206e6f74206960448201527f6e697469616c697a696e670000000000000000000000000000000000000000006064820152fdfea26469706673582212205c875739aedb99f2d15fbd98ed9f791b3363b997981618da4ac6a84003298c7a64736f6c63430008130033","opcodes":"PUSH1 0x80 DUP1 PUSH1 0x40 MSTORE CALLVALUE PUSH3 0xC6 JUMPI PUSH1 0x0 SLOAD SWAP1 PUSH1 0xFF DUP3 PUSH1 0x8 SHR AND PUSH3 0x74 JUMPI POP PUSH1 0xFF DUP1 DUP3 AND LT PUSH3 0x38 JUMPI JUMPDEST PUSH1 0x40 MLOAD PUSH2 0x4690 SWAP1 DUP2 PUSH3 0xCC DUP3 CODECOPY RETURN JUMPDEST PUSH1 0xFF SWAP1 DUP2 NOT AND OR PUSH1 0x0 SSTORE PUSH32 0x7F26B83FF96E1F2B6A682F133852F6798A09C465DA95921460CEFB3847402498 PUSH1 0x20 PUSH1 0x40 MLOAD PUSH1 0xFF DUP2 MSTORE LOG1 CODESIZE PUSH3 0x28 JUMP JUMPDEST PUSH3 0x461BCD PUSH1 0xE5 SHL DUP2 MSTORE PUSH1 0x20 PUSH1 0x4 DUP3 ADD MSTORE PUSH1 0x27 PUSH1 0x24 DUP3 ADD MSTORE PUSH32 0x496E697469616C697A61626C653A20636F6E747261637420697320696E697469 PUSH1 0x44 DUP3 ADD MSTORE PUSH7 0x616C697A696E67 PUSH1 0xC8 SHL PUSH1 0x64 DUP3 ADD MSTORE PUSH1 0x84 SWAP1 REVERT JUMPDEST PUSH1 0x0 DUP1 REVERT INVALID PUSH2 0x180 DUP1 PUSH1 0x40 MSTORE PUSH1 0x4 CALLDATASIZE LT ISZERO PUSH2 0x14 JUMPI PUSH1 0x0 DUP1 REVERT JUMPDEST PUSH1 0x0 CALLDATALOAD PUSH1 0xE0 SHR SWAP1 DUP2 PUSH4 0x1FFC9A7 EQ PUSH2 0x2F46 JUMPI POP DUP1 PUSH4 0x125167EF EQ PUSH2 0x2F2A JUMPI DUP1 PUSH4 0x1416642E EQ PUSH2 0x2F0E JUMPI DUP1 PUSH4 0x2483E715 EQ PUSH2 0x2ED3 JUMPI DUP1 PUSH4 0x248A9CA3 EQ PUSH2 0x2EA4 JUMPI DUP1 PUSH4 0x2F2FF15D EQ PUSH2 0x2E02 JUMPI DUP1 PUSH4 0x36568ABE EQ PUSH2 0x2D63 JUMPI DUP1 PUSH4 0x368E0B6C EQ PUSH2 0x2C05 JUMPI DUP1 PUSH4 0x3740C183 EQ PUSH2 0x221D JUMPI DUP1 PUSH4 0x3F4BA83A EQ PUSH2 0x2179 JUMPI DUP1 PUSH4 0x4418EB00 EQ PUSH2 0xEA8 JUMPI DUP1 PUSH4 0x534CA7A2 EQ PUSH2 0x213D JUMPI DUP1 PUSH4 0x5C975ABB EQ PUSH2 0x211A JUMPI DUP1 PUSH4 0x715018A6 EQ PUSH2 0x20B2 JUMPI DUP1 PUSH4 0x7BC03940 EQ PUSH2 0x202B JUMPI DUP1 PUSH4 0x80B443C3 EQ PUSH2 0x1FA4 JUMPI DUP1 PUSH4 0x8129FC1C EQ PUSH2 0x1D86 JUMPI DUP1 PUSH4 0x819E8A3A EQ PUSH2 0x1D73 JUMPI DUP1 PUSH4 0x8321D278 EQ PUSH2 0x1B74 JUMPI DUP1 PUSH4 0x8456CB59 EQ PUSH2 0x1ACD JUMPI DUP1 PUSH4 0x8DA5CB5B EQ PUSH2 0x1AA6 JUMPI DUP1 PUSH4 0x8DEA81E7 EQ PUSH2 0x1A66 JUMPI DUP1 PUSH4 0x91D14854 EQ PUSH2 0x1A18 JUMPI DUP1 PUSH4 0x983D2737 EQ PUSH2 0x19DD JUMPI DUP1 PUSH4 0x9888B5AB EQ PUSH2 0x1968 JUMPI DUP1 PUSH4 0x99BA8057 EQ PUSH2 0x18B7 JUMPI DUP1 PUSH4 0x9D92D737 EQ PUSH2 0x182F JUMPI DUP1 PUSH4 0xA217FDDF EQ PUSH2 0x1813 JUMPI DUP1 PUSH4 0xA58B4069 EQ PUSH2 0x171C JUMPI DUP1 PUSH4 0xA6CEADBA EQ PUSH2 0x16DC JUMPI DUP1 PUSH4 0xB3FD1DA5 EQ PUSH2 0x1619 JUMPI DUP1 PUSH4 0xB48093E1 EQ PUSH2 0x150D JUMPI DUP1 PUSH4 0xB612F866 EQ PUSH2 0xEA8 JUMPI DUP1 PUSH4 0xB9A45AAC EQ PUSH2 0x1489 JUMPI DUP1 PUSH4 0xBCF7A122 EQ PUSH2 0x1396 JUMPI DUP1 PUSH4 0xBEF48DDF EQ PUSH2 0x1342 JUMPI DUP1 PUSH4 0xC11BC90F EQ PUSH2 0x127E JUMPI DUP1 PUSH4 0xD3FC80D9 EQ PUSH2 0x1258 JUMPI DUP1 PUSH4 0xD547741F EQ PUSH2 0x122C JUMPI DUP1 PUSH4 0xE058D724 EQ PUSH2 0x103F JUMPI DUP1 PUSH4 0xE1386824 EQ PUSH2 0xECB JUMPI DUP1 PUSH4 0xE256888F EQ PUSH2 0xEAD JUMPI DUP1 PUSH4 0xE6068D01 EQ PUSH2 0xEA8 JUMPI DUP1 PUSH4 0xE92C3598 EQ PUSH2 0x2B9 JUMPI PUSH4 0xF2FDE38B EQ PUSH2 0x20F JUMPI PUSH1 0x0 DUP1 REVERT JUMPDEST CALLVALUE PUSH2 0x2B4 JUMPI PUSH1 0x20 CALLDATASIZE PUSH1 0x3 NOT ADD SLT PUSH2 0x2B4 JUMPI PUSH2 0x228 PUSH2 0x305F JUMP JUMPDEST PUSH2 0x230 PUSH2 0x3526 JUMP JUMPDEST PUSH1 0x1 PUSH1 0x1 PUSH1 0xA0 SHL SUB DUP2 AND ISZERO PUSH2 0x24A JUMPI PUSH2 0x248 SWAP1 PUSH2 0x357E JUMP JUMPDEST STOP JUMPDEST PUSH1 0x84 PUSH1 0x40 MLOAD PUSH3 0x461BCD PUSH1 0xE5 SHL DUP2 MSTORE PUSH1 0x20 PUSH1 0x4 DUP3 ADD MSTORE PUSH1 0x26 PUSH1 0x24 DUP3 ADD MSTORE PUSH32 0x4F776E61626C653A206E6577206F776E657220697320746865207A65726F2061 PUSH1 0x44 DUP3 ADD MSTORE PUSH32 0x6464726573730000000000000000000000000000000000000000000000000000 PUSH1 0x64 DUP3 ADD MSTORE REVERT JUMPDEST PUSH1 0x0 DUP1 REVERT JUMPDEST CALLVALUE PUSH2 0x2B4 JUMPI PUSH1 0x3 NOT PUSH1 0x20 CALLDATASIZE DUP3 ADD SLT PUSH2 0x2B4 JUMPI PUSH8 0xFFFFFFFFFFFFFFFF PUSH1 0x4 CALLDATALOAD GT PUSH2 0x2B4 JUMPI PUSH2 0x200 SWAP1 PUSH1 0x4 CALLDATALOAD CALLDATASIZE SUB ADD SLT PUSH2 0x2B4 JUMPI PUSH2 0x2F3 PUSH2 0x4067 JUMP JUMPDEST PUSH2 0x301 PUSH1 0x4 DUP1 CALLDATALOAD ADD DUP1 PUSH2 0x3B73 JUMP JUMPDEST SWAP1 PUSH1 0x40 MLOAD SWAP1 DUP3 DUP2 DUP4 CALLDATACOPY PUSH1 0xFF DUP4 DUP4 ADD SWAP3 PUSH1 0x20 DUP2 PUSH2 0x12F SWAP6 DUP7 DUP2 MSTORE SUB ADD SWAP1 KECCAK256 SLOAD AND PUSH2 0xE64 JUMPI PUSH1 0x20 SWAP2 DUP4 PUSH1 0x40 MLOAD SWAP5 DUP6 SWAP4 DUP5 CALLDATACOPY DUP3 ADD SWAP1 DUP2 MSTORE SUB ADD SWAP1 KECCAK256 DUP1 SLOAD PUSH1 0xFF NOT AND PUSH1 0x1 OR SWAP1 SSTORE PUSH2 0x356 TIMESTAMP PUSH1 0x4 CALLDATALOAD PUSH1 0xA4 ADD CALLDATALOAD LT ISZERO PUSH2 0x3BA6 JUMP JUMPDEST PUSH2 0x36B PUSH2 0xE10 PUSH2 0x104 PUSH1 0x4 CALLDATALOAD ADD CALLDATALOAD LT ISZERO PUSH2 0x3C17 JUMP JUMPDEST PUSH1 0x1 PUSH1 0x1 PUSH1 0xA0 SHL SUB PUSH2 0x381 PUSH1 0x24 PUSH1 0x4 CALLDATALOAD ADD PUSH2 0x3C88 JUMP JUMPDEST AND ISZERO PUSH2 0xE20 JUMPI PUSH1 0x1 PUSH1 0x1 PUSH1 0xA0 SHL SUB PUSH2 0x39D PUSH1 0x44 PUSH1 0x4 CALLDATALOAD ADD PUSH2 0x3C88 JUMP JUMPDEST AND ISZERO PUSH2 0xDD2 JUMPI PUSH1 0x1 PUSH1 0x1 PUSH1 0xA0 SHL SUB PUSH2 0x3B9 PUSH1 0x44 PUSH1 0x4 CALLDATALOAD ADD PUSH2 0x3C88 JUMP JUMPDEST AND PUSH1 0x0 MSTORE PUSH2 0x12D PUSH1 0x20 MSTORE PUSH1 0xFF PUSH1 0x40 PUSH1 0x0 KECCAK256 SLOAD AND ISZERO PUSH2 0xD79 JUMPI PUSH1 0x1 PUSH1 0x1 PUSH1 0xA0 SHL SUB PUSH2 0x3E7 PUSH1 0x64 PUSH1 0x4 CALLDATALOAD ADD PUSH2 0x3C88 JUMP JUMPDEST AND ISZERO PUSH2 0xD2B JUMPI PUSH1 0x1 PUSH1 0x1 PUSH1 0xA0 SHL SUB PUSH2 0x403 PUSH1 0x64 PUSH1 0x4 CALLDATALOAD ADD PUSH2 0x3C88 JUMP JUMPDEST AND PUSH1 0x0 MSTORE PUSH2 0x12D PUSH1 0x20 MSTORE PUSH1 0xFF PUSH1 0x40 PUSH1 0x0 KECCAK256 SLOAD AND ISZERO PUSH2 0xCD2 JUMPI PUSH1 0x1 PUSH1 0x1 PUSH1 0xA0 SHL SUB PUSH2 0x431 PUSH1 0x84 PUSH1 0x4 CALLDATALOAD ADD PUSH2 0x3C88 JUMP JUMPDEST AND ISZERO PUSH2 0xC68 JUMPI PUSH1 0x1 PUSH1 0x1 PUSH1 0xA0 SHL SUB PUSH2 0x44D PUSH1 0x84 PUSH1 0x4 CALLDATALOAD ADD PUSH2 0x3C88 JUMP JUMPDEST AND PUSH1 0x0 MSTORE PUSH2 0x12D PUSH1 0x20 MSTORE PUSH1 0xFF PUSH1 0x40 PUSH1 0x0 KECCAK256 SLOAD AND ISZERO PUSH2 0xBFE JUMPI PUSH1 0x0 JUMPDEST PUSH2 0x47C PUSH1 0xE4 PUSH1 0x4 CALLDATALOAD ADD PUSH1 0x4 CALLDATALOAD PUSH1 0x4 ADD PUSH2 0x3C9C JUMP JUMPDEST SWAP1 POP DUP2 LT ISZERO PUSH2 0x4BC JUMPI DUP1 PUSH2 0x4B2 PUSH2 0x4AA PUSH2 0x4B7 SWAP4 PUSH2 0x4A4 PUSH1 0xE4 PUSH1 0x4 CALLDATALOAD ADD PUSH1 0x4 CALLDATALOAD PUSH1 0x4 ADD PUSH2 0x3C9C JUMP JUMPDEST SWAP1 PUSH2 0x3CD2 JUMP JUMPDEST CALLDATALOAD ISZERO ISZERO PUSH2 0x3CF8 JUMP JUMPDEST PUSH2 0x3634 JUMP JUMPDEST PUSH2 0x468 JUMP JUMPDEST PUSH1 0x7 PUSH2 0x164 PUSH1 0x4 CALLDATALOAD ADD CALLDATALOAD LT ISZERO PUSH2 0x2B4 JUMPI PUSH2 0x164 PUSH1 0x4 CALLDATALOAD ADD CALLDATALOAD PUSH2 0xB92 JUMPI JUMPDEST PUSH2 0x184 PUSH1 0x4 CALLDATALOAD ADD CALLDATALOAD PUSH1 0x4 DUP2 LT ISZERO PUSH2 0x2B4 JUMPI PUSH2 0x4F3 DUP2 PUSH2 0x3402 JUMP JUMPDEST PUSH2 0xB7B JUMPI JUMPDEST PUSH2 0x1C4 PUSH1 0x4 CALLDATALOAD ADD CALLDATALOAD PUSH1 0x4 DUP2 LT ISZERO PUSH2 0x2B4 JUMPI PUSH2 0x512 DUP2 PUSH2 0x3402 JUMP JUMPDEST PUSH2 0xB64 JUMPI JUMPDEST PUSH2 0x595 PUSH2 0x648 PUSH2 0x52B PUSH1 0x4 DUP1 CALLDATALOAD ADD DUP1 PUSH2 0x3B73 JUMP JUMPDEST SWAP1 PUSH1 0x1 PUSH1 0x1 PUSH1 0xA0 SHL SUB PUSH2 0x542 PUSH1 0x24 PUSH1 0x4 CALLDATALOAD ADD PUSH2 0x3C88 JUMP JUMPDEST DUP2 PUSH2 0x551 PUSH1 0x44 PUSH1 0x4 CALLDATALOAD ADD PUSH2 0x3C88 JUMP JUMPDEST DUP2 PUSH2 0x560 PUSH1 0x64 PUSH1 0x4 CALLDATALOAD ADD PUSH2 0x3C88 JUMP JUMPDEST SWAP2 DUP2 PUSH2 0x570 PUSH1 0x84 PUSH1 0x4 CALLDATALOAD ADD PUSH2 0x3C88 JUMP JUMPDEST SWAP6 PUSH2 0x59C PUSH2 0x588 PUSH1 0xE4 PUSH1 0x4 CALLDATALOAD ADD PUSH1 0x4 CALLDATALOAD PUSH1 0x4 ADD PUSH2 0x3C9C JUMP JUMPDEST SWAP11 SWAP1 SWAP12 PUSH1 0x40 MLOAD SWAP15 DUP16 PUSH2 0x31C2 JUMP JUMPDEST CALLDATASIZE SWAP2 PUSH2 0x3255 JUMP JUMPDEST DUP13 MSTORE PUSH1 0x0 PUSH1 0x20 DUP14 ADD MSTORE PUSH1 0x0 PUSH1 0x40 DUP14 ADD MSTORE PUSH1 0x0 PUSH1 0x60 DUP14 ADD MSTORE PUSH1 0x0 PUSH1 0x80 DUP14 ADD MSTORE PUSH1 0x0 PUSH1 0xA0 DUP14 ADD MSTORE PUSH1 0x0 PUSH1 0xC0 DUP14 ADD MSTORE PUSH1 0x0 PUSH1 0xE0 DUP14 ADD MSTORE PUSH1 0x0 PUSH2 0x100 DUP14 ADD MSTORE PUSH1 0x0 PUSH2 0x120 DUP14 ADD MSTORE PUSH1 0x1 PUSH2 0x140 DUP14 ADD MSTORE AND PUSH2 0x160 DUP12 ADD MSTORE AND PUSH2 0x180 DUP10 ADD MSTORE AND PUSH2 0x1A0 DUP8 ADD MSTORE AND PUSH2 0x1C0 DUP6 ADD MSTORE PUSH1 0xA4 PUSH1 0x4 CALLDATALOAD ADD CALLDATALOAD PUSH2 0x1E0 DUP6 ADD MSTORE PUSH1 0xC4 PUSH1 0x4 CALLDATALOAD ADD CALLDATALOAD PUSH2 0x200 DUP6 ADD MSTORE PUSH2 0x104 PUSH1 0x4 CALLDATALOAD ADD CALLDATALOAD PUSH2 0x220 DUP6 ADD MSTORE PUSH2 0x63B CALLDATASIZE PUSH2 0x124 PUSH1 0x4 CALLDATALOAD ADD PUSH2 0x3DB4 JUMP JUMPDEST PUSH2 0x240 DUP6 ADD MSTORE CALLDATASIZE SWAP2 PUSH2 0x3DF0 JUMP JUMPDEST PUSH2 0x260 DUP3 ADD MSTORE PUSH2 0x65E CALLDATASIZE PUSH2 0x184 PUSH1 0x4 CALLDATALOAD ADD PUSH2 0x3E6E JUMP JUMPDEST PUSH2 0x280 DUP3 ADD MSTORE PUSH2 0x674 CALLDATASIZE PUSH2 0x1C4 PUSH1 0x4 CALLDATALOAD ADD PUSH2 0x3E6E JUMP JUMPDEST PUSH2 0x2A0 DUP3 ADD MSTORE PUSH1 0x20 PUSH2 0x68A PUSH1 0x4 DUP1 CALLDATALOAD ADD DUP1 PUSH2 0x3B73 JUMP JUMPDEST SWAP2 SWAP1 DUP3 PUSH1 0x40 MLOAD SWAP4 DUP5 SWAP3 DUP4 CALLDATACOPY PUSH2 0x12E DUP2 DUP4 ADD MSTORE DUP2 ADD SUB ADD SWAP1 KECCAK256 DUP2 MLOAD SWAP2 DUP3 MLOAD PUSH8 0xFFFFFFFFFFFFFFFF DUP2 GT PUSH2 0xA81 JUMPI PUSH2 0x6C0 DUP4 SLOAD PUSH2 0x32FE JUMP JUMPDEST PUSH1 0x1F DUP2 GT PUSH2 0xB20 JUMPI JUMPDEST POP PUSH1 0x20 PUSH1 0x1F DUP3 GT PUSH1 0x1 EQ PUSH2 0xAB8 JUMPI DUP2 SWAP3 SWAP4 SWAP5 PUSH1 0x0 SWAP3 PUSH2 0xAAD JUMPI JUMPDEST POP POP DUP2 PUSH1 0x1 SHL SWAP2 PUSH1 0x0 NOT SWAP1 PUSH1 0x3 SHL SHR NOT AND OR DUP3 SSTORE JUMPDEST PUSH1 0x20 DUP2 ADD MLOAD PUSH1 0x1 DUP4 ADD SSTORE PUSH1 0x40 DUP2 ADD MLOAD PUSH1 0x2 DUP4 ADD SSTORE PUSH1 0x60 DUP2 ADD MLOAD PUSH1 0x3 DUP4 ADD SSTORE PUSH1 0x80 DUP2 ADD MLOAD PUSH1 0x4 DUP4 ADD SSTORE PUSH1 0xA0 DUP2 ADD MLOAD PUSH1 0x5 DUP4 ADD SSTORE PUSH1 0xC0 DUP2 ADD MLOAD PUSH1 0x6 DUP4 ADD SSTORE PUSH1 0xE0 DUP2 ADD MLOAD PUSH1 0x7 DUP4 ADD SSTORE PUSH2 0x100 DUP2 ADD MLOAD PUSH1 0x8 DUP4 ADD SSTORE PUSH2 0x120 DUP2 ADD MLOAD PUSH1 0x9 DUP4 ADD SSTORE PUSH2 0x140 DUP2 ADD MLOAD PUSH1 0x5 DUP2 LT ISZERO PUSH2 0xA97 JUMPI PUSH2 0x771 PUSH1 0xA DUP5 ADD SWAP2 DUP3 PUSH2 0x3EA0 JUMP JUMPDEST PUSH2 0x160 DUP3 ADD MLOAD PUSH21 0xFFFFFFFFFFFFFFFFFFFFFFFFFFFFFFFFFFFFFFFF00 NOT PUSH21 0xFFFFFFFFFFFFFFFFFFFFFFFFFFFFFFFFFFFFFFFF00 DUP4 SLOAD SWAP3 PUSH1 0x8 SHL AND SWAP2 AND OR SWAP1 SSTORE PUSH1 0xB DUP3 ADD PUSH1 0x1 PUSH1 0x1 PUSH1 0xA0 SHL SUB PUSH2 0x180 DUP4 ADD MLOAD AND SWAP1 PUSH20 0xFFFFFFFFFFFFFFFFFFFFFFFFFFFFFFFFFFFFFFFF NOT SWAP2 DUP3 DUP3 SLOAD AND OR SWAP1 SSTORE PUSH1 0xC DUP4 ADD PUSH1 0x1 PUSH1 0x1 PUSH1 0xA0 SHL SUB PUSH2 0x1A0 DUP5 ADD MLOAD AND DUP3 DUP3 SLOAD AND OR SWAP1 SSTORE PUSH1 0xD DUP4 ADD SWAP1 PUSH1 0x1 PUSH1 0x1 PUSH1 0xA0 SHL SUB PUSH2 0x1C0 DUP5 ADD MLOAD AND SWAP1 DUP3 SLOAD AND OR SWAP1 SSTORE PUSH2 0x1E0 DUP2 ADD MLOAD PUSH1 0xE DUP4 ADD SSTORE PUSH2 0x200 DUP2 ADD MLOAD PUSH1 0xF DUP4 ADD SSTORE PUSH2 0x220 DUP2 ADD MLOAD PUSH1 0x10 DUP4 ADD SSTORE PUSH2 0x240 DUP2 ADD MLOAD DUP1 MLOAD PUSH1 0x11 DUP5 ADD SSTORE PUSH1 0x20 DUP2 ADD MLOAD PUSH1 0x12 DUP5 ADD SSTORE PUSH1 0x40 PUSH1 0x13 DUP5 ADD SWAP2 ADD MLOAD PUSH1 0x7 DUP2 LT ISZERO PUSH2 0xA97 JUMPI PUSH1 0xFF DUP1 NOT DUP4 SLOAD AND SWAP2 AND OR SWAP1 SSTORE PUSH2 0x260 DUP2 ADD MLOAD DUP1 MLOAD SWAP1 PUSH9 0x10000000000000000 DUP3 GT PUSH2 0xA81 JUMPI PUSH1 0x14 DUP5 ADD SLOAD DUP3 PUSH1 0x14 DUP7 ADD SSTORE DUP1 DUP4 LT PUSH2 0xA01 JUMPI JUMPDEST POP PUSH1 0x20 ADD PUSH1 0x14 DUP5 ADD PUSH1 0x0 MSTORE PUSH1 0x20 PUSH1 0x0 KECCAK256 PUSH1 0x0 SWAP2 JUMPDEST DUP4 DUP4 LT PUSH2 0x9C3 JUMPI DUP6 PUSH1 0x18 PUSH1 0x20 DUP8 DUP2 PUSH1 0x15 DUP6 ADD PUSH2 0x280 DUP4 ADD MLOAD SWAP1 DUP2 MLOAD PUSH2 0x8D1 DUP2 PUSH2 0x3402 JUMP JUMPDEST PUSH2 0x8DA DUP2 PUSH2 0x3402 JUMP JUMPDEST PUSH1 0xFF DUP1 NOT DUP4 SLOAD AND SWAP2 AND OR SWAP1 SSTORE ADD MLOAD PUSH1 0x16 DUP6 ADD SSTORE PUSH2 0x2A0 PUSH1 0x17 DUP6 ADD SWAP2 ADD MLOAD SWAP1 DUP2 MLOAD PUSH2 0x903 DUP2 PUSH2 0x3402 JUMP JUMPDEST PUSH2 0x90C DUP2 PUSH2 0x3402 JUMP JUMPDEST PUSH1 0xFF DUP1 NOT DUP4 SLOAD AND SWAP2 AND OR SWAP1 SSTORE ADD MLOAD SWAP2 ADD SSTORE PUSH2 0x931 PUSH1 0x4 CALLDATALOAD PUSH1 0x4 ADD PUSH1 0x4 CALLDATALOAD PUSH1 0x4 ADD PUSH2 0x3B73 JUMP JUMPDEST SWAP1 PUSH2 0x940 PUSH1 0x24 PUSH1 0x4 CALLDATALOAD ADD PUSH2 0x3C88 JUMP JUMPDEST SWAP2 PUSH1 0x20 PUSH2 0x951 PUSH1 0x4 DUP1 CALLDATALOAD ADD DUP1 PUSH2 0x3B73 JUMP JUMPDEST SWAP2 SWAP1 DUP3 PUSH1 0x40 MLOAD SWAP4 DUP5 SWAP3 DUP4 CALLDATACOPY DUP2 ADD PUSH2 0x12E DUP2 MSTORE SUB ADD SWAP1 KECCAK256 SWAP2 DUP2 PUSH1 0x40 MLOAD SWAP3 DUP4 SWAP3 DUP4 CALLDATACOPY DUP2 ADD PUSH1 0x0 DUP2 MSTORE SUB SWAP1 KECCAK256 SWAP1 PUSH32 0x31B2DD515A8FFB0724CE0F020933729104ACAEE276277C41160D3D3EEFC9D578 PUSH1 0x1 PUSH1 0x1 PUSH1 0xA0 SHL SUB PUSH1 0x40 MLOAD SWAP5 PUSH1 0x20 DUP7 MSTORE AND SWAP4 DUP1 PUSH2 0x9BE CALLER SWAP5 PUSH1 0x20 DUP4 ADD SWAP1 PUSH2 0x3ECB JUMP JUMPDEST SUB SWAP1 LOG4 STOP JUMPDEST PUSH1 0x2 PUSH1 0x20 DUP3 PUSH1 0x1 SWAP4 MLOAD DUP1 MLOAD DUP7 SSTORE DUP3 DUP6 DUP8 ADD SWAP2 ADD MLOAD PUSH2 0x9E0 DUP2 PUSH2 0x3402 JUMP JUMPDEST PUSH2 0x9E9 DUP2 PUSH2 0x3402 JUMP JUMPDEST PUSH1 0xFF DUP1 NOT DUP4 SLOAD AND SWAP2 AND OR SWAP1 SSTORE ADD SWAP3 ADD SWAP3 ADD SWAP2 SWAP1 PUSH2 0x8AD JUMP JUMPDEST PUSH32 0x7FFFFFFFFFFFFFFFFFFFFFFFFFFFFFFFFFFFFFFFFFFFFFFFFFFFFFFFFFFFFFFF DUP1 DUP3 AND DUP3 SUB PUSH2 0xA6B JUMPI DUP4 AND DUP4 SUB PUSH2 0xA6B JUMPI PUSH1 0x14 DUP6 ADD PUSH1 0x0 MSTORE PUSH1 0x20 PUSH1 0x0 KECCAK256 DUP4 PUSH1 0x1 SHL DUP2 ADD JUMPDEST DUP3 PUSH1 0x1 SHL DUP3 ADD DUP2 LT PUSH2 0xA59 JUMPI POP POP PUSH2 0x899 JUMP JUMPDEST PUSH1 0x0 DUP1 DUP3 SSTORE PUSH1 0x1 DUP3 ADD SSTORE PUSH1 0x2 ADD PUSH2 0xA46 JUMP JUMPDEST PUSH4 0x4E487B71 PUSH1 0xE0 SHL PUSH1 0x0 MSTORE PUSH1 0x11 PUSH1 0x4 MSTORE PUSH1 0x24 PUSH1 0x0 REVERT JUMPDEST PUSH4 0x4E487B71 PUSH1 0xE0 SHL PUSH1 0x0 MSTORE PUSH1 0x41 PUSH1 0x4 MSTORE PUSH1 0x24 PUSH1 0x0 REVERT JUMPDEST PUSH4 0x4E487B71 PUSH1 0xE0 SHL PUSH1 0x0 MSTORE PUSH1 0x21 PUSH1 0x4 MSTORE PUSH1 0x24 PUSH1 0x0 REVERT JUMPDEST ADD MLOAD SWAP1 POP DUP5 DUP1 PUSH2 0x6E3 JUMP JUMPDEST DUP4 PUSH1 0x0 MSTORE PUSH1 0x20 PUSH1 0x0 KECCAK256 SWAP1 PUSH1 0x0 JUMPDEST PUSH1 0x1F NOT DUP5 AND DUP2 LT PUSH2 0xB08 JUMPI POP PUSH1 0x1 SWAP4 SWAP5 SWAP6 DUP4 PUSH1 0x1F NOT DUP2 AND LT PUSH2 0xAEF JUMPI JUMPDEST POP POP POP DUP2 SHL ADD DUP3 SSTORE PUSH2 0x6F8 JUMP JUMPDEST ADD MLOAD PUSH1 0x0 NOT PUSH1 0xF8 DUP5 PUSH1 0x3 SHL AND SHR NOT AND SWAP1 SSTORE DUP5 DUP1 DUP1 PUSH2 0xAE2 JUMP JUMPDEST SWAP1 SWAP2 PUSH1 0x20 PUSH1 0x1 DUP2 SWAP3 DUP6 DUP11 ADD MLOAD DUP2 SSTORE ADD SWAP4 ADD SWAP2 ADD PUSH2 0xAC5 JUMP JUMPDEST DUP4 PUSH1 0x0 MSTORE PUSH1 0x20 PUSH1 0x0 KECCAK256 PUSH1 0x1F DUP4 ADD PUSH1 0x5 SHR DUP2 ADD PUSH1 0x20 DUP5 LT PUSH2 0xB5D JUMPI JUMPDEST PUSH1 0x1F DUP4 ADD PUSH1 0x5 SHR DUP3 ADD DUP2 LT PUSH2 0xB51 JUMPI POP POP PUSH2 0x6C9 JUMP JUMPDEST PUSH1 0x0 DUP2 SSTORE PUSH1 0x1 ADD PUSH2 0xB3B JUMP JUMPDEST POP DUP1 PUSH2 0xB3B JUMP JUMPDEST PUSH2 0xB76 PUSH2 0x1E4 PUSH1 0x4 CALLDATALOAD ADD CALLDATALOAD ISZERO ISZERO PUSH2 0x3D69 JUMP JUMPDEST PUSH2 0x517 JUMP JUMPDEST PUSH2 0xB8D PUSH2 0x1A4 PUSH1 0x4 CALLDATALOAD ADD CALLDATALOAD ISZERO ISZERO PUSH2 0x3D69 JUMP JUMPDEST PUSH2 0x4F8 JUMP JUMPDEST PUSH1 0x5 PUSH2 0x164 PUSH1 0x4 CALLDATALOAD ADD CALLDATALOAD EQ DUP1 ISZERO PUSH2 0xBED JUMPI JUMPDEST ISZERO PUSH2 0xBDB JUMPI PUSH2 0xBC4 PUSH2 0x124 PUSH1 0x4 CALLDATALOAD ADD CALLDATALOAD DUP1 ISZERO ISZERO SWAP1 DUP2 PUSH2 0xBC9 JUMPI JUMPDEST POP PUSH2 0x3D69 JUMP JUMPDEST PUSH2 0x4D9 JUMP JUMPDEST SWAP1 POP PUSH2 0x144 PUSH1 0x4 CALLDATALOAD ADD CALLDATALOAD LT ISZERO DUP3 PUSH2 0xBBE JUMP JUMPDEST PUSH2 0xBC4 PUSH2 0x124 PUSH1 0x4 CALLDATALOAD ADD CALLDATALOAD ISZERO ISZERO PUSH2 0x3D69 JUMP JUMPDEST POP PUSH1 0x6 PUSH2 0x164 PUSH1 0x4 CALLDATALOAD ADD CALLDATALOAD EQ PUSH2 0xBA4 JUMP JUMPDEST PUSH1 0x84 PUSH1 0x40 MLOAD PUSH3 0x461BCD PUSH1 0xE5 SHL DUP2 MSTORE PUSH1 0x20 PUSH1 0x4 DUP3 ADD MSTORE PUSH1 0x2E PUSH1 0x24 DUP3 ADD MSTORE PUSH32 0x416464726573733A20746172676574546F6B656E41646472657373206973206E PUSH1 0x44 DUP3 ADD MSTORE PUSH32 0x6F742077686974656C6973746564000000000000000000000000000000000000 PUSH1 0x64 DUP3 ADD MSTORE REVERT JUMPDEST PUSH1 0x84 PUSH1 0x40 MLOAD PUSH3 0x461BCD PUSH1 0xE5 SHL DUP2 MSTORE PUSH1 0x20 PUSH1 0x4 DUP3 ADD MSTORE PUSH1 0x23 PUSH1 0x24 DUP3 ADD MSTORE PUSH32 0x416464726573733A20696E76616C696420746172676574546F6B656E41646472 PUSH1 0x44 DUP3 ADD MSTORE PUSH32 0x6573730000000000000000000000000000000000000000000000000000000000 PUSH1 0x64 DUP3 ADD MSTORE REVERT JUMPDEST PUSH1 0x84 PUSH1 0x40 MLOAD PUSH3 0x461BCD PUSH1 0xE5 SHL DUP2 MSTORE PUSH1 0x20 PUSH1 0x4 DUP3 ADD MSTORE PUSH1 0x2C PUSH1 0x24 DUP3 ADD MSTORE PUSH32 0x416464726573733A2062617365546F6B656E41646472657373206973206E6F74 PUSH1 0x44 DUP3 ADD MSTORE PUSH12 0x81DDA1A5D195B1A5CDD1959 PUSH1 0xA2 SHL PUSH1 0x64 DUP3 ADD MSTORE REVERT JUMPDEST PUSH1 0x84 PUSH1 0x40 MLOAD PUSH3 0x461BCD PUSH1 0xE5 SHL DUP2 MSTORE PUSH1 0x20 PUSH1 0x4 DUP3 ADD MSTORE PUSH1 0x21 PUSH1 0x24 DUP3 ADD MSTORE PUSH32 0x416464726573733A20696E76616C69642062617365546F6B656E416464726573 PUSH1 0x44 DUP3 ADD MSTORE PUSH1 0x73 PUSH1 0xF8 SHL PUSH1 0x64 DUP3 ADD MSTORE REVERT JUMPDEST PUSH1 0x84 PUSH1 0x40 MLOAD PUSH3 0x461BCD PUSH1 0xE5 SHL DUP2 MSTORE PUSH1 0x20 PUSH1 0x4 DUP3 ADD MSTORE PUSH1 0x2C PUSH1 0x24 DUP3 ADD MSTORE PUSH32 0x416464726573733A20616D6D526F7574657241646472657373206973206E6F74 PUSH1 0x44 DUP3 ADD MSTORE PUSH12 0x81DDA1A5D195B1A5CDD1959 PUSH1 0xA2 SHL PUSH1 0x64 DUP3 ADD MSTORE REVERT JUMPDEST PUSH1 0x84 PUSH1 0x40 MLOAD PUSH3 0x461BCD PUSH1 0xE5 SHL DUP2 MSTORE PUSH1 0x20 PUSH1 0x4 DUP3 ADD MSTORE PUSH1 0x21 PUSH1 0x24 DUP3 ADD MSTORE PUSH32 0x416464726573733A20696E76616C696420616D6D526F75746572416464726573 PUSH1 0x44 DUP3 ADD MSTORE PUSH1 0x73 PUSH1 0xF8 SHL PUSH1 0x64 DUP3 ADD MSTORE REVERT JUMPDEST PUSH1 0x64 PUSH1 0x40 MLOAD PUSH3 0x461BCD PUSH1 0xE5 SHL DUP2 MSTORE PUSH1 0x20 PUSH1 0x4 DUP3 ADD MSTORE PUSH1 0x16 PUSH1 0x24 DUP3 ADD MSTORE PUSH32 0x416464726573733A20696E76616C6964206F776E657200000000000000000000 PUSH1 0x44 DUP3 ADD MSTORE REVERT JUMPDEST PUSH1 0x64 PUSH1 0x40 MLOAD PUSH3 0x461BCD PUSH1 0xE5 SHL DUP2 MSTORE PUSH1 0x20 PUSH1 0x4 DUP3 ADD MSTORE PUSH1 0x18 PUSH1 0x24 DUP3 ADD MSTORE PUSH32 0x49443A20746865206964206973206E6F7420756E697175650000000000000000 PUSH1 0x44 DUP3 ADD MSTORE REVERT JUMPDEST PUSH2 0x3104 JUMP JUMPDEST CALLVALUE PUSH2 0x2B4 JUMPI PUSH1 0x0 CALLDATASIZE PUSH1 0x3 NOT ADD SLT PUSH2 0x2B4 JUMPI PUSH1 0x20 PUSH1 0x40 MLOAD PUSH3 0xF4240 DUP2 MSTORE RETURN JUMPDEST CALLVALUE PUSH2 0x2B4 JUMPI PUSH1 0x3 NOT PUSH1 0x40 CALLDATASIZE DUP3 ADD SLT PUSH2 0x2B4 JUMPI PUSH1 0x4 CALLDATALOAD PUSH8 0xFFFFFFFFFFFFFFFF DUP1 DUP3 GT PUSH2 0x2B4 JUMPI PUSH1 0x60 DUP3 PUSH1 0x4 ADD SWAP4 DUP4 CALLDATASIZE SUB ADD SLT PUSH2 0x2B4 JUMPI PUSH1 0x24 CALLDATALOAD SWAP1 DUP2 GT PUSH2 0x2B4 JUMPI PUSH2 0xF18 SWAP1 CALLDATASIZE SWAP1 PUSH1 0x4 ADD PUSH2 0x2FE4 JUMP JUMPDEST SWAP3 PUSH2 0xF21 PUSH2 0x4067 JUMP JUMPDEST PUSH2 0xF2A DUP2 PUSH2 0x3C88 JUMP JUMPDEST PUSH1 0x1 PUSH1 0x1 PUSH1 0xA0 SHL SUB SWAP1 DUP2 AND PUSH1 0x0 SWAP1 DUP2 MSTORE PUSH32 0xDFF3DC04E5BE5D758E3CBF436C1EAAC83CAF9B19278DBB9A033498F210D28585 PUSH1 0x20 MSTORE PUSH1 0x40 SWAP1 KECCAK256 SLOAD PUSH1 0xFF AND DUP1 ISZERO PUSH2 0x1015 JUMPI JUMPDEST PUSH2 0xF76 SWAP1 PUSH2 0x4507 JUMP JUMPDEST PUSH1 0x24 DUP5 ADD SWAP2 PUSH1 0x44 PUSH1 0x20 PUSH2 0xF89 DUP6 DUP5 PUSH2 0x3B73 JUMP JUMPDEST SWAP2 SWAP1 DUP3 PUSH1 0x40 MLOAD SWAP4 DUP5 SWAP3 DUP4 CALLDATACOPY DUP2 ADD PUSH2 0x12E DUP2 MSTORE SUB ADD SWAP1 KECCAK256 SWAP6 ADD CALLDATALOAD PUSH1 0x5 DUP2 LT ISZERO PUSH2 0x2B4 JUMPI PUSH2 0xFF1 PUSH2 0xFE9 PUSH32 0xBA45D725AB265E638684C538E195EAB9BE37CF512EEEA7680F2521070DAEE76E SWAP6 PUSH2 0xFE3 PUSH2 0x9BE SWAP5 PUSH1 0xA DUP12 ADD PUSH2 0x3EA0 JUMP JUMPDEST DUP5 PUSH2 0x3B73 JUMP JUMPDEST SWAP2 SWAP1 SWAP4 PUSH2 0x3C88 JUMP JUMPDEST SWAP3 DUP2 PUSH1 0x40 MLOAD SWAP3 DUP4 SWAP3 DUP4 CALLDATACOPY DUP2 ADD PUSH1 0x0 DUP2 MSTORE SUB SWAP1 KECCAK256 SWAP6 PUSH1 0x40 MLOAD SWAP4 DUP5 SWAP4 AND SWAP8 CALLER SWAP7 DUP5 PUSH2 0x44CD JUMP JUMPDEST POP PUSH2 0xF76 PUSH2 0x1038 PUSH2 0x1029 PUSH1 0x24 DUP8 ADD DUP6 PUSH2 0x3B73 JUMP JUMPDEST PUSH2 0x1032 DUP7 PUSH2 0x3C88 JUMP JUMPDEST SWAP2 PUSH2 0x35ED JUMP JUMPDEST SWAP1 POP PUSH2 0xF6D JUMP JUMPDEST CALLVALUE PUSH2 0x2B4 JUMPI PUSH1 0x20 DUP1 PUSH1 0x3 NOT CALLDATASIZE ADD SLT PUSH2 0x2B4 JUMPI PUSH1 0x4 CALLDATALOAD PUSH8 0xFFFFFFFFFFFFFFFF DUP2 GT PUSH2 0x2B4 JUMPI PUSH2 0x1071 SWAP1 CALLDATASIZE SWAP1 PUSH1 0x4 ADD PUSH2 0x2FE4 JUMP JUMPDEST SWAP2 SWAP1 PUSH1 0x40 MLOAD PUSH2 0x107F DUP2 PUSH2 0x31FB JUMP JUMPDEST PUSH1 0x0 DUP2 MSTORE DUP3 DUP2 ADD PUSH1 0x0 SWAP1 MSTORE PUSH1 0x40 ADD PUSH1 0x0 SWAP1 MSTORE DUP2 PUSH1 0x40 MLOAD PUSH2 0x109E DUP2 PUSH2 0x31DF JUMP JUMPDEST PUSH1 0x0 DUP2 MSTORE ADD PUSH1 0x0 SWAP1 MSTORE DUP2 PUSH1 0x40 MLOAD PUSH2 0x10B4 DUP2 PUSH2 0x31DF JUMP JUMPDEST PUSH1 0x0 DUP2 MSTORE ADD PUSH1 0x0 SWAP1 MSTORE PUSH1 0x40 MLOAD SWAP3 DUP1 DUP3 DUP6 CALLDATACOPY DUP1 DUP5 ADD SWAP1 PUSH2 0x12E SWAP2 DUP3 DUP2 MSTORE DUP6 DUP6 PUSH1 0x1 PUSH1 0x1 PUSH1 0xA0 SHL SUB SWAP8 DUP9 SWAP4 SUB ADD SWAP1 KECCAK256 PUSH1 0xB ADD SLOAD AND SWAP5 DUP1 PUSH1 0x40 MLOAD DUP4 DUP7 DUP3 CALLDATACOPY DUP7 DUP2 DUP6 DUP2 ADD DUP8 DUP2 MSTORE SUB ADD SWAP1 KECCAK256 PUSH1 0xC ADD SLOAD AND SWAP1 PUSH1 0x40 MLOAD DUP4 DUP7 DUP3 CALLDATACOPY DUP7 DUP2 DUP6 DUP2 ADD DUP8 DUP2 MSTORE SUB ADD SWAP1 KECCAK256 PUSH1 0xD ADD SLOAD AND PUSH1 0x40 MLOAD DUP4 DUP7 DUP3 CALLDATACOPY DUP7 DUP2 DUP6 DUP2 ADD DUP8 DUP2 MSTORE SUB ADD SWAP1 KECCAK256 PUSH1 0xE ADD SLOAD PUSH1 0x40 MLOAD DUP5 DUP8 DUP3 CALLDATACOPY DUP8 DUP2 DUP7 DUP2 ADD DUP9 DUP2 MSTORE SUB ADD SWAP1 KECCAK256 PUSH1 0xF ADD SLOAD SWAP2 PUSH1 0x40 MLOAD DUP6 DUP9 DUP3 CALLDATACOPY DUP9 DUP2 DUP8 DUP2 ADD DUP10 DUP2 MSTORE SUB ADD SWAP1 KECCAK256 PUSH1 0x10 ADD SLOAD SWAP4 PUSH1 0x40 MLOAD DUP7 DUP10 DUP3 CALLDATACOPY DUP10 DUP2 DUP9 DUP2 ADD DUP11 DUP2 MSTORE SUB ADD SWAP1 KECCAK256 PUSH1 0x9 ADD SLOAD SWAP6 DUP10 PUSH1 0x40 MLOAD DUP3 DUP12 DUP3 CALLDATACOPY DUP2 DUP2 DUP5 DUP2 ADD DUP13 DUP2 MSTORE SUB ADD SWAP1 KECCAK256 PUSH1 0x11 ADD SWAP10 PUSH1 0x40 MLOAD DUP4 DUP3 DUP3 CALLDATACOPY DUP3 DUP2 DUP6 DUP2 ADD DUP14 DUP2 MSTORE SUB ADD SWAP1 KECCAK256 PUSH1 0x15 ADD SWAP10 DUP4 PUSH1 0x40 MLOAD SWAP5 DUP6 SWAP4 DUP5 CALLDATACOPY DUP3 ADD SWAP1 DUP2 MSTORE SUB ADD SWAP1 KECCAK256 PUSH1 0x17 ADD SWAP8 PUSH2 0x11C6 SWAP1 PUSH2 0x33CE JUMP JUMPDEST SWAP7 PUSH2 0x11D0 SWAP1 PUSH2 0x340C JUMP JUMPDEST SWAP8 PUSH2 0x11DA SWAP1 PUSH2 0x340C JUMP JUMPDEST SWAP9 PUSH1 0x40 MLOAD SWAP11 DUP12 MSTORE DUP11 ADD MSTORE PUSH1 0x40 DUP10 ADD MSTORE PUSH1 0x60 DUP9 ADD MSTORE PUSH1 0x80 DUP8 ADD MSTORE PUSH1 0xA0 DUP7 ADD MSTORE PUSH1 0xC0 DUP6 ADD MSTORE PUSH1 0xE0 DUP5 ADD PUSH2 0x120A SWAP2 PUSH2 0x3475 JUMP JUMPDEST PUSH2 0x140 DUP4 ADD PUSH2 0x1218 SWAP2 PUSH2 0x3497 JUMP JUMPDEST PUSH2 0x180 DUP3 ADD PUSH2 0x1226 SWAP2 PUSH2 0x3497 JUMP JUMPDEST PUSH2 0x1C0 SWAP1 RETURN JUMPDEST CALLVALUE PUSH2 0x2B4 JUMPI PUSH1 0x40 CALLDATASIZE PUSH1 0x3 NOT ADD SLT PUSH2 0x2B4 JUMPI PUSH2 0x248 PUSH2 0x1248 PUSH2 0x3049 JUMP JUMPDEST PUSH2 0x1250 PUSH2 0x3526 JUMP JUMPDEST PUSH1 0x4 CALLDATALOAD PUSH2 0x34AF JUMP JUMPDEST CALLVALUE PUSH2 0x2B4 JUMPI PUSH1 0x20 PUSH2 0x1274 PUSH2 0x126B CALLDATASIZE PUSH2 0x3012 JUMP JUMPDEST SWAP3 SWAP2 SWAP1 SWAP2 PUSH2 0x3A2A JUMP JUMPDEST PUSH1 0x40 MLOAD SWAP1 ISZERO ISZERO DUP2 MSTORE RETURN JUMPDEST CALLVALUE PUSH2 0x2B4 JUMPI PUSH1 0x20 CALLDATASIZE PUSH1 0x3 NOT ADD SLT PUSH2 0x2B4 JUMPI PUSH1 0x4 CALLDATALOAD PUSH8 0xFFFFFFFFFFFFFFFF DUP2 GT PUSH2 0x2B4 JUMPI PUSH2 0x12AF SWAP1 CALLDATASIZE SWAP1 PUSH1 0x4 ADD PUSH2 0x2FE4 JUMP JUMPDEST PUSH1 0x40 MLOAD SWAP1 DUP1 DUP4 DUP4 CALLDATACOPY PUSH1 0xFF PUSH1 0xA DUP3 DUP5 ADD SWAP4 PUSH1 0x20 DUP2 PUSH2 0x12E SWAP7 DUP8 DUP2 MSTORE SUB ADD SWAP1 KECCAK256 ADD SLOAD AND SWAP3 PUSH1 0x5 DUP5 LT ISZERO PUSH2 0xA97 JUMPI PUSH1 0x1 PUSH1 0x20 SWAP5 EQ SWAP3 DUP4 PUSH2 0x1320 JUMPI JUMPDEST DUP4 PUSH2 0x12FA JUMPI JUMPDEST POP POP POP PUSH1 0x40 MLOAD SWAP1 ISZERO ISZERO DUP2 MSTORE RETURN JUMPDEST PUSH1 0x9 SWAP4 POP SWAP1 DUP5 SWAP2 DUP4 PUSH1 0x40 MLOAD SWAP5 DUP6 SWAP4 DUP5 CALLDATACOPY DUP3 ADD SWAP1 DUP2 MSTORE SUB ADD SWAP1 KECCAK256 ADD SLOAD TIMESTAMP LT ISZERO DUP3 DUP1 DUP1 PUSH2 0x12ED JUMP JUMPDEST SWAP3 POP PUSH1 0xE PUSH1 0x40 MLOAD DUP4 DUP4 DUP3 CALLDATACOPY DUP6 DUP2 DUP6 DUP2 ADD DUP8 DUP2 MSTORE SUB ADD SWAP1 KECCAK256 ADD SLOAD TIMESTAMP LT ISZERO SWAP3 PUSH2 0x12E7 JUMP JUMPDEST CALLVALUE PUSH2 0x2B4 JUMPI PUSH1 0x20 CALLDATASIZE PUSH1 0x3 NOT ADD SLT PUSH2 0x2B4 JUMPI PUSH1 0x4 CALLDATALOAD PUSH8 0xFFFFFFFFFFFFFFFF DUP2 GT PUSH2 0x2B4 JUMPI PUSH1 0x1 PUSH1 0x1 PUSH1 0xA0 SHL SUB PUSH1 0xA PUSH2 0x1388 PUSH2 0x1382 PUSH1 0x20 SWAP5 CALLDATASIZE SWAP1 PUSH1 0x4 ADD PUSH2 0x2FE4 JUMP JUMPDEST SWAP1 PUSH2 0x35D3 JUMP JUMPDEST ADD SLOAD PUSH1 0x8 SHR AND PUSH1 0x40 MLOAD SWAP1 DUP2 MSTORE RETURN JUMPDEST CALLVALUE PUSH2 0x2B4 JUMPI PUSH1 0x3 NOT PUSH1 0x40 CALLDATASIZE DUP3 ADD SLT PUSH2 0x2B4 JUMPI PUSH8 0xFFFFFFFFFFFFFFFF SWAP1 PUSH1 0x4 CALLDATALOAD DUP3 DUP2 GT PUSH2 0x2B4 JUMPI PUSH1 0x40 DUP2 PUSH1 0x4 ADD SWAP3 DUP3 CALLDATASIZE SUB ADD SLT PUSH2 0x2B4 JUMPI PUSH1 0x24 CALLDATALOAD SWAP3 DUP4 GT PUSH2 0x2B4 JUMPI PUSH32 0xBA45D725AB265E638684C538E195EAB9BE37CF512EEEA7680F2521070DAEE76E PUSH1 0x1 PUSH1 0x1 PUSH1 0xA0 SHL SUB PUSH2 0x140F PUSH1 0x24 SWAP6 CALLDATASIZE SWAP1 PUSH1 0x4 ADD PUSH2 0x2FE4 JUMP JUMPDEST SWAP6 SWAP1 SWAP4 PUSH2 0x141A PUSH2 0x4067 JUMP JUMPDEST ADD SWAP4 PUSH2 0x143A PUSH2 0x1435 PUSH2 0x142C DUP8 DUP5 PUSH2 0x3B73 JUMP JUMPDEST PUSH2 0x1032 DUP6 PUSH2 0x3C88 JUMP JUMPDEST PUSH2 0x4578 JUMP JUMPDEST PUSH2 0x9BE PUSH2 0xFF1 PUSH2 0xFE9 PUSH1 0x20 PUSH2 0x144F DUP10 DUP7 PUSH2 0x3B73 JUMP JUMPDEST SWAP2 SWAP1 DUP3 PUSH1 0x40 MLOAD SWAP4 DUP5 SWAP3 DUP4 CALLDATACOPY DUP2 ADD PUSH2 0x12E DUP2 MSTORE SUB ADD SWAP1 KECCAK256 SWAP8 PUSH1 0x0 PUSH1 0x6 DUP11 ADD SSTORE PUSH1 0x0 PUSH1 0x7 DUP11 ADD SSTORE PUSH1 0xA DUP10 ADD PUSH1 0x4 PUSH1 0xFF NOT DUP3 SLOAD AND OR SWAP1 SSTORE DUP5 PUSH2 0x3B73 JUMP JUMPDEST CALLVALUE PUSH2 0x2B4 JUMPI PUSH1 0x40 CALLDATASIZE PUSH1 0x3 NOT ADD SLT PUSH2 0x2B4 JUMPI PUSH2 0x14A2 PUSH2 0x305F JUMP JUMPDEST PUSH1 0x24 CALLDATALOAD SWAP1 DUP2 ISZERO ISZERO DUP1 SWAP3 SUB PUSH2 0x2B4 JUMPI PUSH1 0x1 PUSH1 0x1 PUSH1 0xA0 SHL SUB SWAP1 PUSH2 0x14C1 PUSH2 0x3526 JUMP JUMPDEST AND SWAP1 DUP2 PUSH1 0x0 MSTORE PUSH2 0x12D PUSH1 0x20 MSTORE PUSH1 0x40 PUSH1 0x0 KECCAK256 PUSH1 0xFF NOT DUP2 SLOAD AND PUSH1 0xFF DUP4 AND OR SWAP1 SSTORE PUSH1 0x40 MLOAD SWAP1 DUP2 MSTORE PUSH32 0x8962D218B945501046DADD801583F3157C2C995F2DFA67789F7D6793A40E841D PUSH1 0x20 CALLER SWAP3 LOG3 STOP JUMPDEST CALLVALUE PUSH2 0x2B4 JUMPI PUSH2 0x151B CALLDATASIZE PUSH2 0x3075 JUMP JUMPDEST SWAP2 SWAP1 PUSH2 0x1525 PUSH2 0x4067 JUMP JUMPDEST PUSH32 0xBA45D725AB265E638684C538E195EAB9BE37CF512EEEA7680F2521070DAEE76E PUSH1 0x20 DUP4 ADD PUSH2 0x1553 DUP2 PUSH2 0x3C88 JUMP JUMPDEST PUSH1 0x1 PUSH1 0x1 PUSH1 0xA0 SHL SUB SWAP1 DUP2 AND PUSH1 0x0 SWAP1 DUP2 MSTORE PUSH32 0xDFF3DC04E5BE5D758E3CBF436C1EAAC83CAF9B19278DBB9A033498F210D28585 PUSH1 0x20 MSTORE PUSH1 0x40 SWAP1 KECCAK256 SLOAD SWAP1 SWAP2 SWAP1 PUSH1 0xFF AND DUP1 ISZERO PUSH2 0x1601 JUMPI JUMPDEST PUSH2 0x15A2 SWAP1 PUSH2 0x4507 JUMP JUMPDEST PUSH2 0x9BE PUSH2 0xFF1 PUSH2 0xFE9 PUSH1 0x20 PUSH2 0x15B7 DUP10 DUP1 PUSH2 0x3B73 JUMP JUMPDEST SWAP2 SWAP1 DUP3 PUSH1 0x40 MLOAD SWAP4 DUP5 SWAP3 DUP4 CALLDATACOPY DUP2 ADD PUSH2 0x12E DUP2 MSTORE SUB ADD SWAP1 KECCAK256 SWAP8 PUSH1 0x40 DUP2 ADD CALLDATALOAD PUSH1 0x4 DUP11 ADD SSTORE PUSH1 0x60 DUP2 ADD CALLDATALOAD DUP1 PUSH1 0x5 DUP12 ADD SSTORE PUSH2 0x15F2 PUSH1 0x6 DUP12 ADD SWAP2 DUP3 SLOAD PUSH2 0x3A1D JUMP JUMPDEST SWAP1 SSTORE PUSH1 0x0 PUSH1 0x7 DUP11 ADD SSTORE DUP1 PUSH2 0x3B73 JUMP JUMPDEST POP PUSH2 0x15A2 PUSH2 0x1612 PUSH2 0x142C DUP8 DUP1 PUSH2 0x3B73 JUMP JUMPDEST SWAP1 POP PUSH2 0x1599 JUMP JUMPDEST CALLVALUE PUSH2 0x2B4 JUMPI PUSH1 0x20 CALLDATASIZE PUSH1 0x3 NOT ADD SLT PUSH2 0x2B4 JUMPI PUSH1 0x4 CALLDATALOAD PUSH8 0xFFFFFFFFFFFFFFFF DUP2 GT PUSH2 0x2B4 JUMPI PUSH2 0x164A SWAP1 CALLDATASIZE SWAP1 PUSH1 0x4 ADD PUSH2 0x2FE4 JUMP JUMPDEST PUSH1 0x40 MLOAD SWAP1 DUP1 DUP4 DUP4 CALLDATACOPY PUSH1 0xFF PUSH1 0xA DUP3 DUP5 ADD SWAP4 PUSH1 0x20 DUP2 PUSH2 0x12E SWAP7 DUP8 DUP2 MSTORE SUB ADD SWAP1 KECCAK256 ADD SLOAD AND SWAP3 PUSH1 0x5 DUP5 LT ISZERO PUSH2 0xA97 JUMPI PUSH1 0x4 PUSH1 0x20 SWAP5 EQ ISZERO SWAP3 DUP4 PUSH2 0x16BA JUMPI JUMPDEST DUP4 PUSH2 0x1695 JUMPI POP POP POP PUSH1 0x40 MLOAD SWAP1 ISZERO ISZERO DUP2 MSTORE RETURN JUMPDEST PUSH1 0x7 SWAP4 POP SWAP1 DUP5 SWAP2 DUP4 PUSH1 0x40 MLOAD SWAP5 DUP6 SWAP4 DUP5 CALLDATACOPY DUP3 ADD SWAP1 DUP2 MSTORE SUB ADD SWAP1 KECCAK256 ADD SLOAD ISZERO ISZERO DUP3 DUP1 DUP1 PUSH2 0x12ED JUMP JUMPDEST SWAP3 POP PUSH1 0xE PUSH1 0x40 MLOAD DUP4 DUP4 DUP3 CALLDATACOPY DUP6 DUP2 DUP6 DUP2 ADD DUP8 DUP2 MSTORE SUB ADD SWAP1 KECCAK256 ADD SLOAD TIMESTAMP LT ISZERO SWAP3 PUSH2 0x1683 JUMP JUMPDEST CALLVALUE PUSH2 0x2B4 JUMPI PUSH1 0x20 PUSH1 0xFF PUSH2 0x1705 DUP3 PUSH2 0x16F2 CALLDATASIZE PUSH2 0x329C JUMP JUMPDEST DUP2 PUSH1 0x40 MLOAD SWAP4 DUP3 DUP6 DUP1 SWAP5 MLOAD SWAP4 DUP5 SWAP3 ADD PUSH2 0x32DB JUMP JUMPDEST DUP2 ADD PUSH2 0x12F DUP2 MSTORE SUB ADD SWAP1 KECCAK256 SLOAD AND PUSH1 0x40 MLOAD SWAP1 ISZERO ISZERO DUP2 MSTORE RETURN JUMPDEST CALLVALUE PUSH2 0x2B4 JUMPI PUSH1 0x20 DUP1 PUSH1 0x3 NOT CALLDATASIZE ADD SLT PUSH2 0x2B4 JUMPI PUSH1 0x4 CALLDATALOAD PUSH8 0xFFFFFFFFFFFFFFFF DUP2 GT PUSH2 0x2B4 JUMPI PUSH2 0x1753 PUSH2 0x1382 PUSH1 0x14 SWAP3 CALLDATASIZE SWAP1 PUSH1 0x4 ADD PUSH2 0x2FE4 JUMP JUMPDEST ADD SWAP1 DUP2 SLOAD PUSH2 0x1760 DUP2 PUSH2 0x361C JUMP JUMPDEST SWAP1 PUSH2 0x176E PUSH1 0x40 MLOAD SWAP3 DUP4 PUSH2 0x3233 JUMP JUMPDEST DUP1 DUP3 MSTORE DUP3 DUP3 ADD DUP1 SWAP5 PUSH1 0x0 MSTORE DUP4 PUSH1 0x0 KECCAK256 PUSH1 0x0 SWAP2 JUMPDEST DUP4 DUP4 LT PUSH2 0x17DB JUMPI PUSH1 0x40 DUP1 MLOAD DUP8 DUP2 MSTORE DUP7 MLOAD DUP2 DUP10 ADD DUP2 SWAP1 MSTORE DUP10 SWAP3 DUP3 ADD SWAP1 DUP10 PUSH1 0x0 JUMPDEST DUP3 DUP2 LT PUSH2 0x17AD JUMPI DUP5 DUP5 SUB DUP6 RETURN JUMPDEST SWAP1 SWAP2 SWAP3 DUP3 PUSH1 0x40 PUSH1 0x1 SWAP3 DUP3 DUP10 MLOAD DUP1 MLOAD DUP4 MSTORE ADD MLOAD PUSH2 0x17C8 DUP2 PUSH2 0x3402 JUMP JUMPDEST DUP4 DUP3 ADD MSTORE ADD SWAP7 ADD SWAP2 ADD SWAP5 SWAP3 SWAP2 SWAP1 SWAP5 PUSH2 0x17A0 JUMP JUMPDEST PUSH1 0x2 DUP7 PUSH1 0x1 SWAP3 PUSH1 0x40 MLOAD PUSH2 0x17ED DUP2 PUSH2 0x31DF JUMP JUMPDEST DUP6 SLOAD DUP2 MSTORE PUSH1 0xFF DUP6 DUP8 ADD SLOAD AND PUSH2 0x1801 DUP2 PUSH2 0x3402 JUMP JUMPDEST DUP4 DUP3 ADD MSTORE DUP2 MSTORE ADD SWAP3 ADD SWAP3 ADD SWAP2 SWAP1 PUSH2 0x1781 JUMP JUMPDEST CALLVALUE PUSH2 0x2B4 JUMPI PUSH1 0x0 CALLDATASIZE PUSH1 0x3 NOT ADD SLT PUSH2 0x2B4 JUMPI PUSH1 0x20 PUSH1 0x40 MLOAD PUSH1 0x0 DUP2 MSTORE RETURN JUMPDEST CALLVALUE PUSH2 0x2B4 JUMPI PUSH2 0x183D CALLDATASIZE PUSH2 0x30C1 JUMP JUMPDEST SWAP1 PUSH1 0x40 MLOAD SWAP2 DUP2 DUP5 DUP5 CALLDATACOPY DUP2 DUP4 ADD SWAP3 PUSH2 0x12E SWAP4 DUP5 DUP2 MSTORE PUSH1 0xA DUP3 PUSH1 0x20 PUSH1 0x1 PUSH1 0x1 PUSH1 0xA0 SHL SUB SWAP5 DUP6 SWAP5 SUB ADD SWAP1 KECCAK256 ADD SLOAD PUSH1 0x8 SHR AND SWAP2 AND EQ SWAP2 DUP3 PUSH2 0x1882 JUMPI JUMPDEST PUSH1 0x20 DUP4 PUSH1 0x40 MLOAD SWAP1 ISZERO ISZERO DUP2 MSTORE RETURN JUMPDEST PUSH1 0xA SWAP3 POP PUSH1 0xFF SWAP4 PUSH1 0x20 SWAP2 DUP4 PUSH1 0x40 MLOAD SWAP5 DUP6 SWAP4 DUP5 CALLDATACOPY DUP3 ADD SWAP1 DUP2 MSTORE SUB ADD SWAP1 KECCAK256 ADD SLOAD AND PUSH1 0x5 DUP2 LT ISZERO PUSH2 0xA97 JUMPI PUSH1 0x1 PUSH1 0x20 SWAP2 EQ DUP3 DUP1 PUSH2 0x1875 JUMP JUMPDEST CALLVALUE PUSH2 0x2B4 JUMPI PUSH2 0x18C5 CALLDATASIZE PUSH2 0x3075 JUMP JUMPDEST SWAP2 SWAP1 PUSH2 0x18CF PUSH2 0x4067 JUMP JUMPDEST PUSH32 0xBA45D725AB265E638684C538E195EAB9BE37CF512EEEA7680F2521070DAEE76E PUSH1 0x1 PUSH1 0x1 PUSH1 0xA0 SHL SUB PUSH1 0x20 DUP5 ADD SWAP4 PUSH2 0x190D PUSH2 0x1435 PUSH2 0x142C DUP8 DUP5 PUSH2 0x3B73 JUMP JUMPDEST PUSH2 0x9BE PUSH2 0xFF1 PUSH2 0xFE9 PUSH1 0x20 PUSH2 0x1922 DUP10 DUP7 PUSH2 0x3B73 JUMP JUMPDEST SWAP2 SWAP1 DUP3 PUSH1 0x40 MLOAD SWAP4 DUP5 SWAP3 DUP4 CALLDATACOPY DUP2 ADD PUSH2 0x12E DUP2 MSTORE SUB ADD SWAP1 KECCAK256 SWAP8 PUSH1 0x1 DUP10 ADD DUP1 SLOAD SWAP1 PUSH2 0x194F PUSH1 0x40 DUP9 ADD CALLDATALOAD DUP1 SWAP4 PUSH2 0x3A1D JUMP JUMPDEST SWAP1 SSTORE PUSH2 0x1960 PUSH1 0x6 DUP12 ADD SWAP2 DUP3 SLOAD PUSH2 0x3A1D JUMP JUMPDEST SWAP1 SSTORE DUP5 PUSH2 0x3B73 JUMP JUMPDEST CALLVALUE PUSH2 0x2B4 JUMPI PUSH1 0x20 CALLDATASIZE PUSH1 0x3 NOT ADD SLT PUSH2 0x2B4 JUMPI PUSH1 0x4 CALLDATALOAD PUSH8 0xFFFFFFFFFFFFFFFF DUP2 GT PUSH2 0x2B4 JUMPI PUSH1 0x7 PUSH2 0x199D PUSH1 0x40 SWAP3 CALLDATASIZE SWAP1 PUSH1 0x4 ADD PUSH2 0x2FE4 JUMP JUMPDEST DUP4 MLOAD SWAP3 SWAP2 PUSH1 0x20 SWAP1 DUP3 DUP2 DUP7 CALLDATACOPY PUSH1 0x6 DUP4 DUP7 ADD SWAP6 DUP4 DUP2 PUSH2 0x12E SWAP9 DUP10 DUP2 MSTORE SUB ADD SWAP1 KECCAK256 ADD SLOAD SWAP5 DUP4 DUP8 MLOAD SWAP5 DUP6 SWAP4 DUP5 CALLDATACOPY DUP3 ADD SWAP1 DUP2 MSTORE SUB ADD SWAP1 KECCAK256 ADD SLOAD DUP3 MLOAD SWAP2 DUP3 MSTORE PUSH1 0x20 DUP3 ADD MSTORE RETURN JUMPDEST CALLVALUE PUSH2 0x2B4 JUMPI PUSH1 0x0 CALLDATASIZE PUSH1 0x3 NOT ADD SLT PUSH2 0x2B4 JUMPI PUSH1 0x20 PUSH1 0x40 MLOAD PUSH32 0x523A704056DCD17BCF83BED8B68C59416DAC1119BE77755EFE3BDE0A64E46E0C DUP2 MSTORE RETURN JUMPDEST CALLVALUE PUSH2 0x2B4 JUMPI PUSH1 0x40 CALLDATASIZE PUSH1 0x3 NOT ADD SLT PUSH2 0x2B4 JUMPI PUSH2 0x1A31 PUSH2 0x3049 JUMP JUMPDEST PUSH1 0x4 CALLDATALOAD PUSH1 0x0 MSTORE PUSH1 0xC9 PUSH1 0x20 MSTORE PUSH1 0x1 PUSH1 0x1 PUSH1 0xA0 SHL SUB PUSH1 0x40 PUSH1 0x0 KECCAK256 SWAP2 AND PUSH1 0x0 MSTORE PUSH1 0x20 MSTORE PUSH1 0x20 PUSH1 0xFF PUSH1 0x40 PUSH1 0x0 KECCAK256 SLOAD AND PUSH1 0x40 MLOAD SWAP1 ISZERO ISZERO DUP2 MSTORE RETURN JUMPDEST CALLVALUE PUSH2 0x2B4 JUMPI PUSH1 0x20 CALLDATASIZE PUSH1 0x3 NOT ADD SLT PUSH2 0x2B4 JUMPI PUSH1 0x1 PUSH1 0x1 PUSH1 0xA0 SHL SUB PUSH2 0x1A87 PUSH2 0x305F JUMP JUMPDEST AND PUSH1 0x0 MSTORE PUSH2 0x12D PUSH1 0x20 MSTORE PUSH1 0x20 PUSH1 0xFF PUSH1 0x40 PUSH1 0x0 KECCAK256 SLOAD AND PUSH1 0x40 MLOAD SWAP1 ISZERO ISZERO DUP2 MSTORE RETURN JUMPDEST CALLVALUE PUSH2 0x2B4 JUMPI PUSH1 0x0 CALLDATASIZE PUSH1 0x3 NOT ADD SLT PUSH2 0x2B4 JUMPI PUSH1 0x20 PUSH1 0x1 PUSH1 0x1 PUSH1 0xA0 SHL SUB PUSH1 0xFB SLOAD AND PUSH1 0x40 MLOAD SWAP1 DUP2 MSTORE RETURN JUMPDEST CALLVALUE PUSH2 0x2B4 JUMPI PUSH1 0x0 CALLDATASIZE PUSH1 0x3 NOT ADD SLT PUSH2 0x2B4 JUMPI PUSH2 0x1AE6 PUSH2 0x3526 JUMP JUMPDEST PUSH2 0x1AEE PUSH2 0x4294 JUMP JUMPDEST PUSH1 0x33 SLOAD PUSH1 0xFF DUP2 AND PUSH2 0x1B30 JUMPI PUSH1 0x1 SWAP1 PUSH1 0xFF NOT AND OR PUSH1 0x33 SSTORE PUSH32 0x62E78CEA01BEE320CD4E420270B5EA74000D11B0C9F74754EBDBFC544B05A258 PUSH1 0x20 PUSH1 0x40 MLOAD CALLER DUP2 MSTORE LOG1 STOP JUMPDEST PUSH1 0x64 PUSH1 0x40 MLOAD PUSH3 0x461BCD PUSH1 0xE5 SHL DUP2 MSTORE PUSH1 0x20 PUSH1 0x4 DUP3 ADD MSTORE PUSH1 0x10 PUSH1 0x24 DUP3 ADD MSTORE PUSH32 0x5061757361626C653A2070617573656400000000000000000000000000000000 PUSH1 0x44 DUP3 ADD MSTORE REVERT JUMPDEST CALLVALUE PUSH2 0x2B4 JUMPI PUSH2 0x1B82 CALLDATASIZE PUSH2 0x329C JUMP JUMPDEST PUSH1 0x40 MLOAD DUP2 DUP2 DUP1 SWAP4 MLOAD PUSH1 0x20 DUP2 SWAP4 ADD SWAP2 PUSH2 0x1B99 SWAP3 PUSH2 0x32DB JUMP JUMPDEST DUP2 ADD PUSH2 0x12E DUP2 MSTORE SUB PUSH1 0x20 ADD SWAP1 KECCAK256 PUSH1 0x40 MLOAD SWAP1 DUP2 PUSH2 0x1BB5 DUP2 DUP4 PUSH2 0x3338 JUMP JUMPDEST SUB PUSH2 0x1BC0 SWAP1 DUP4 PUSH2 0x3233 JUMP JUMPDEST PUSH1 0x1 DUP2 ADD SLOAD PUSH1 0xA0 MSTORE PUSH1 0x2 DUP2 ADD SLOAD PUSH2 0x160 MSTORE PUSH1 0x3 DUP2 ADD SLOAD PUSH2 0x120 MSTORE PUSH1 0x4 DUP2 ADD SLOAD SWAP2 PUSH1 0x5 DUP3 ADD SLOAD PUSH1 0x6 DUP4 ADD SLOAD PUSH1 0x7 DUP5 ADD SLOAD PUSH1 0x8 DUP6 ADD SLOAD PUSH1 0x9 DUP7 ADD SLOAD PUSH1 0xA DUP8 ADD SLOAD SWAP1 PUSH1 0xB DUP9 ADD SLOAD PUSH1 0x1 PUSH1 0x1 PUSH1 0xA0 SHL SUB AND SWAP3 PUSH1 0xC DUP10 ADD SLOAD PUSH1 0x1 PUSH1 0x1 PUSH1 0xA0 SHL SUB AND SWAP5 PUSH1 0xD DUP11 ADD SLOAD PUSH1 0x1 PUSH1 0x1 PUSH1 0xA0 SHL SUB AND SWAP7 PUSH1 0xE DUP12 ADD SLOAD SWAP9 PUSH1 0xF DUP13 ADD SLOAD SWAP11 PUSH1 0x10 DUP14 ADD SLOAD SWAP13 PUSH1 0x11 DUP2 ADD PUSH2 0x1C4B SWAP1 PUSH2 0x33CE JUMP JUMPDEST PUSH1 0xC0 MSTORE PUSH2 0x1C5A PUSH1 0x15 DUP3 ADD PUSH2 0x340C JUMP JUMPDEST PUSH1 0xE0 MSTORE PUSH1 0x17 ADD PUSH2 0x1C69 SWAP1 PUSH2 0x340C JUMP JUMPDEST PUSH2 0x100 MSTORE PUSH1 0x40 MLOAD DUP1 PUSH1 0x80 MSTORE PUSH2 0x320 DUP1 SWAP2 MSTORE PUSH1 0x80 MLOAD ADD PUSH2 0x1C87 SWAP2 PUSH2 0x3436 JUMP JUMPDEST SWAP13 PUSH1 0xA0 MLOAD PUSH1 0x80 MLOAD PUSH1 0x20 ADD MSTORE PUSH2 0x160 MLOAD PUSH1 0x80 MLOAD PUSH1 0x40 ADD MSTORE PUSH2 0x120 MLOAD PUSH1 0x80 MLOAD PUSH1 0x60 ADD MSTORE PUSH1 0x80 MLOAD PUSH1 0x80 ADD MSTORE PUSH1 0x80 MLOAD PUSH1 0xA0 ADD MSTORE PUSH1 0x80 MLOAD PUSH1 0xC0 ADD MSTORE PUSH1 0x80 MLOAD PUSH1 0xE0 ADD MSTORE PUSH1 0x80 MLOAD PUSH2 0x100 ADD MSTORE PUSH1 0x80 MLOAD PUSH2 0x120 ADD MSTORE PUSH1 0x80 MLOAD PUSH2 0x140 ADD PUSH1 0xFF DUP3 AND SWAP1 PUSH2 0x1CE9 SWAP2 PUSH2 0x345B JUMP JUMPDEST PUSH1 0x8 SHR PUSH1 0x1 PUSH1 0x1 PUSH1 0xA0 SHL SUB AND PUSH1 0x80 MLOAD PUSH2 0x160 ADD MSTORE PUSH1 0x80 MLOAD PUSH2 0x180 ADD MSTORE PUSH1 0x80 MLOAD PUSH2 0x1A0 ADD MSTORE PUSH1 0x80 MLOAD PUSH2 0x1C0 ADD MSTORE PUSH1 0x80 MLOAD PUSH2 0x1E0 ADD MSTORE PUSH1 0x80 MLOAD PUSH2 0x200 ADD MSTORE PUSH1 0x80 MLOAD PUSH2 0x220 ADD MSTORE PUSH1 0x80 MLOAD PUSH2 0x240 ADD PUSH1 0xC0 MLOAD SWAP1 PUSH2 0x1D41 SWAP2 PUSH2 0x3475 JUMP JUMPDEST PUSH1 0x80 MLOAD PUSH2 0x2A0 ADD PUSH1 0xE0 MLOAD SWAP1 PUSH2 0x1D55 SWAP2 PUSH2 0x3497 JUMP JUMPDEST PUSH1 0x80 MLOAD PUSH2 0x2E0 ADD PUSH2 0x100 MLOAD SWAP1 PUSH2 0x1D6A SWAP2 PUSH2 0x3497 JUMP JUMPDEST PUSH1 0x80 MLOAD DUP1 SWAP2 SUB SWAP1 RETURN JUMPDEST CALLVALUE PUSH2 0x2B4 JUMPI PUSH1 0x20 PUSH2 0x1274 PUSH2 0x1032 CALLDATASIZE PUSH2 0x30C1 JUMP JUMPDEST CALLVALUE PUSH2 0x2B4 JUMPI PUSH1 0x0 CALLDATASIZE PUSH1 0x3 NOT ADD SLT PUSH2 0x2B4 JUMPI PUSH1 0x0 SLOAD PUSH1 0xFF SWAP1 DUP2 DUP2 PUSH1 0x8 SHR AND ISZERO SWAP2 DUP3 DUP1 SWAP4 PUSH2 0x1F98 JUMPI JUMPDEST DUP1 ISZERO PUSH2 0x1F82 JUMPI JUMPDEST ISZERO PUSH2 0x1F18 JUMPI PUSH1 0xFF NOT DUP3 DUP2 AND PUSH1 0x1 OR PUSH1 0x0 SSTORE SWAP2 DUP4 PUSH2 0x1F06 JUMPI JUMPDEST POP PUSH2 0x1E00 DUP2 PUSH1 0x0 SLOAD PUSH1 0x8 SHR AND PUSH2 0x1DE1 DUP2 PUSH2 0x45E9 JUMP JUMPDEST PUSH2 0x1DEA DUP2 PUSH2 0x45E9 JUMP JUMPDEST DUP4 PUSH1 0x33 SLOAD AND PUSH1 0x33 SSTORE PUSH2 0x1DFB DUP2 PUSH2 0x45E9 JUMP JUMPDEST PUSH2 0x45E9 JUMP JUMPDEST PUSH2 0x1E09 CALLER PUSH2 0x357E JUMP JUMPDEST PUSH2 0x1E26 DUP2 PUSH1 0x0 SLOAD PUSH1 0x8 SHR AND PUSH2 0x1E1D DUP2 PUSH2 0x45E9 JUMP JUMPDEST PUSH2 0x1DFB DUP2 PUSH2 0x45E9 JUMP JUMPDEST PUSH1 0x1 PUSH1 0x65 SSTORE CALLER PUSH1 0x0 SWAP1 DUP2 MSTORE PUSH32 0x81FE90A866A48A634A12852C1BE675B683A22307409932A7443B8029347BE756 PUSH1 0x20 MSTORE PUSH1 0x40 SWAP1 KECCAK256 SLOAD AND ISZERO PUSH2 0x1EA0 JUMPI JUMPDEST POP PUSH2 0x1E68 JUMPI STOP JUMPDEST PUSH2 0xFF00 NOT PUSH1 0x0 SLOAD AND PUSH1 0x0 SSTORE PUSH32 0x7F26B83FF96E1F2B6A682F133852F6798A09C465DA95921460CEFB3847402498 PUSH1 0x20 PUSH1 0x40 MLOAD PUSH1 0x1 DUP2 MSTORE LOG1 STOP JUMPDEST CALLER PUSH1 0x0 DUP2 DUP2 MSTORE PUSH32 0x81FE90A866A48A634A12852C1BE675B683A22307409932A7443B8029347BE756 PUSH1 0x20 MSTORE PUSH1 0x40 DUP2 KECCAK256 DUP1 SLOAD SWAP1 SWAP4 AND PUSH1 0x1 OR SWAP1 SWAP3 SSTORE SWAP1 DUP2 SWAP1 PUSH32 0x2F8788117E7EFF1D82E926EC794901D17C78024A50270940304540A733656F0D DUP2 DUP1 LOG4 DUP2 PUSH2 0x1E61 JUMP JUMPDEST PUSH2 0xFFFF NOT AND PUSH2 0x101 OR PUSH1 0x0 SSTORE DUP4 PUSH2 0x1DCC JUMP JUMPDEST PUSH1 0x84 PUSH1 0x40 MLOAD PUSH3 0x461BCD PUSH1 0xE5 SHL DUP2 MSTORE PUSH1 0x20 PUSH1 0x4 DUP3 ADD MSTORE PUSH1 0x2E PUSH1 0x24 DUP3 ADD MSTORE PUSH32 0x496E697469616C697A61626C653A20636F6E747261637420697320616C726561 PUSH1 0x44 DUP3 ADD MSTORE PUSH32 0x647920696E697469616C697A6564000000000000000000000000000000000000 PUSH1 0x64 DUP3 ADD MSTORE REVERT JUMPDEST POP ADDRESS EXTCODESIZE ISZERO DUP1 ISZERO PUSH2 0x1DB4 JUMPI POP PUSH1 0x1 DUP2 DUP4 AND EQ PUSH2 0x1DB4 JUMP JUMPDEST POP PUSH1 0x1 DUP2 DUP4 AND LT PUSH2 0x1DAD JUMP JUMPDEST CALLVALUE PUSH2 0x2B4 JUMPI PUSH2 0x1FB2 CALLDATASIZE PUSH2 0x30C1 JUMP JUMPDEST SWAP1 PUSH1 0x40 MLOAD SWAP2 DUP2 DUP5 DUP5 CALLDATACOPY DUP2 DUP4 ADD SWAP3 PUSH2 0x12E SWAP4 DUP5 DUP2 MSTORE PUSH1 0xA DUP3 PUSH1 0x20 PUSH1 0x1 PUSH1 0x1 PUSH1 0xA0 SHL SUB SWAP5 DUP6 SWAP5 SUB ADD SWAP1 KECCAK256 ADD SLOAD PUSH1 0x8 SHR AND SWAP2 AND EQ SWAP2 DUP3 PUSH2 0x1FF6 JUMPI PUSH1 0x20 DUP4 PUSH1 0x40 MLOAD SWAP1 ISZERO ISZERO DUP2 MSTORE RETURN JUMPDEST PUSH1 0xA SWAP3 POP PUSH1 0xFF SWAP4 PUSH1 0x20 SWAP2 DUP4 PUSH1 0x40 MLOAD SWAP5 DUP6 SWAP4 DUP5 CALLDATACOPY DUP3 ADD SWAP1 DUP2 MSTORE SUB ADD SWAP1 KECCAK256 ADD SLOAD AND PUSH1 0x5 DUP2 LT ISZERO PUSH2 0xA97 JUMPI PUSH1 0x2 PUSH1 0x20 SWAP2 EQ DUP3 DUP1 PUSH2 0x1875 JUMP JUMPDEST CALLVALUE PUSH2 0x2B4 JUMPI PUSH2 0x2039 CALLDATASIZE PUSH2 0x30C1 JUMP JUMPDEST SWAP1 PUSH1 0x40 MLOAD SWAP2 DUP2 DUP5 DUP5 CALLDATACOPY DUP2 DUP4 ADD SWAP3 PUSH2 0x12E SWAP4 DUP5 DUP2 MSTORE PUSH1 0xA DUP3 PUSH1 0x20 PUSH1 0x1 PUSH1 0x1 PUSH1 0xA0 SHL SUB SWAP5 DUP6 SWAP5 SUB ADD SWAP1 KECCAK256 ADD SLOAD PUSH1 0x8 SHR AND SWAP2 AND EQ SWAP2 DUP3 PUSH2 0x207D JUMPI PUSH1 0x20 DUP4 PUSH1 0x40 MLOAD SWAP1 ISZERO ISZERO DUP2 MSTORE RETURN JUMPDEST PUSH1 0xA SWAP3 POP PUSH1 0xFF SWAP4 PUSH1 0x20 SWAP2 DUP4 PUSH1 0x40 MLOAD SWAP5 DUP6 SWAP4 DUP5 CALLDATACOPY DUP3 ADD SWAP1 DUP2 MSTORE SUB ADD SWAP1 KECCAK256 ADD SLOAD AND PUSH1 0x5 DUP2 LT ISZERO PUSH2 0xA97 JUMPI PUSH1 0x3 PUSH1 0x20 SWAP2 EQ DUP3 DUP1 PUSH2 0x1875 JUMP JUMPDEST CALLVALUE PUSH2 0x2B4 JUMPI PUSH1 0x0 CALLDATASIZE PUSH1 0x3 NOT ADD SLT PUSH2 0x2B4 JUMPI PUSH2 0x20CB PUSH2 0x3526 JUMP JUMPDEST PUSH1 0x0 PUSH1 0x1 PUSH1 0x1 PUSH1 0xA0 SHL SUB PUSH1 0xFB SLOAD PUSH20 0xFFFFFFFFFFFFFFFFFFFFFFFFFFFFFFFFFFFFFFFF NOT DUP2 AND PUSH1 0xFB SSTORE AND PUSH32 0x8BE0079C531659141344CD1FD0A4F28419497F9722A3DAAFE3B4186F6B6457E0 DUP3 DUP1 LOG3 STOP JUMPDEST CALLVALUE PUSH2 0x2B4 JUMPI PUSH1 0x0 CALLDATASIZE PUSH1 0x3 NOT ADD SLT PUSH2 0x2B4 JUMPI PUSH1 0x20 PUSH1 0xFF PUSH1 0x33 SLOAD AND PUSH1 0x40 MLOAD SWAP1 ISZERO ISZERO DUP2 MSTORE RETURN JUMPDEST CALLVALUE PUSH2 0x2B4 JUMPI PUSH1 0x20 CALLDATASIZE PUSH1 0x3 NOT ADD SLT PUSH2 0x2B4 JUMPI PUSH1 0x4 CALLDATALOAD PUSH8 0xFFFFFFFFFFFFFFFF DUP2 GT PUSH2 0x2B4 JUMPI PUSH2 0x1274 PUSH2 0x2173 PUSH1 0x20 SWAP3 CALLDATASIZE SWAP1 PUSH1 0x4 ADD PUSH2 0x2FE4 JUMP JUMPDEST SWAP1 PUSH2 0x3643 JUMP JUMPDEST CALLVALUE PUSH2 0x2B4 JUMPI PUSH1 0x0 CALLDATASIZE PUSH1 0x3 NOT ADD SLT PUSH2 0x2B4 JUMPI PUSH2 0x2192 PUSH2 0x3526 JUMP JUMPDEST PUSH2 0x219A PUSH2 0x4294 JUMP JUMPDEST PUSH1 0x33 SLOAD PUSH1 0xFF DUP2 AND ISZERO PUSH2 0x21D9 JUMPI PUSH1 0xFF NOT AND PUSH1 0x33 SSTORE PUSH32 0x5DB9EE0A495BF2E6FF9C91A7834C1BA4FDD244A5E8AA4E537BD38AEAE4B073AA PUSH1 0x20 PUSH1 0x40 MLOAD CALLER DUP2 MSTORE LOG1 STOP JUMPDEST PUSH1 0x64 PUSH1 0x40 MLOAD PUSH3 0x461BCD PUSH1 0xE5 SHL DUP2 MSTORE PUSH1 0x20 PUSH1 0x4 DUP3 ADD MSTORE PUSH1 0x14 PUSH1 0x24 DUP3 ADD MSTORE PUSH32 0x5061757361626C653A206E6F7420706175736564000000000000000000000000 PUSH1 0x44 DUP3 ADD MSTORE REVERT JUMPDEST CALLVALUE PUSH2 0x2B4 JUMPI PUSH1 0x3 NOT PUSH1 0x40 CALLDATASIZE DUP3 ADD SLT PUSH2 0x2B4 JUMPI PUSH8 0xFFFFFFFFFFFFFFFF PUSH1 0x4 CALLDATALOAD GT PUSH2 0x2B4 JUMPI PUSH2 0x180 SWAP1 PUSH1 0x4 CALLDATALOAD CALLDATASIZE SUB ADD SLT PUSH2 0x2B4 JUMPI PUSH1 0x24 CALLDATALOAD PUSH8 0xFFFFFFFFFFFFFFFF DUP2 GT PUSH2 0x2B4 JUMPI PUSH2 0x226F SWAP1 CALLDATASIZE SWAP1 PUSH1 0x4 ADD PUSH2 0x2FE4 JUMP JUMPDEST PUSH2 0x2277 PUSH2 0x4067 JUMP JUMPDEST PUSH2 0x2285 PUSH1 0x4 DUP1 CALLDATALOAD ADD DUP1 PUSH2 0x3B73 JUMP JUMPDEST SWAP1 PUSH1 0x1 PUSH1 0xFF PUSH1 0x40 MLOAD DUP5 DUP5 DUP3 CALLDATACOPY PUSH2 0x12F DUP6 DUP3 ADD MSTORE PUSH1 0x20 DUP2 DUP7 DUP2 ADD SUB ADD SWAP1 KECCAK256 SLOAD AND ISZERO ISZERO SUB PUSH2 0x2BC1 JUMPI DUP2 PUSH1 0x20 PUSH1 0xA SWAP3 PUSH1 0x1 PUSH1 0x1 PUSH1 0xA0 SHL SUB SWAP5 PUSH1 0x40 MLOAD SWAP4 DUP5 SWAP3 DUP4 CALLDATACOPY DUP2 ADD PUSH2 0x12E DUP2 MSTORE SUB ADD SWAP1 KECCAK256 ADD SLOAD PUSH1 0x8 SHR AND ISZERO PUSH2 0x2B7D JUMPI PUSH2 0x22EA TIMESTAMP PUSH1 0x24 PUSH1 0x4 CALLDATALOAD ADD CALLDATALOAD LT ISZERO PUSH2 0x3BA6 JUMP JUMPDEST PUSH2 0x22FE PUSH2 0xE10 PUSH1 0x84 PUSH1 0x4 CALLDATALOAD ADD CALLDATALOAD LT ISZERO PUSH2 0x3C17 JUMP JUMPDEST PUSH1 0x0 JUMPDEST PUSH2 0x2315 PUSH1 0x64 PUSH1 0x4 CALLDATALOAD ADD PUSH1 0x4 CALLDATALOAD PUSH1 0x4 ADD PUSH2 0x3C9C JUMP JUMPDEST SWAP1 POP DUP2 LT ISZERO PUSH2 0x2342 JUMPI DUP1 PUSH2 0x4B2 PUSH2 0x4AA PUSH2 0x233D SWAP4 PUSH2 0x4A4 PUSH1 0x64 PUSH1 0x4 CALLDATALOAD ADD PUSH1 0x4 CALLDATALOAD PUSH1 0x4 ADD PUSH2 0x3C9C JUMP JUMPDEST PUSH2 0x2301 JUMP JUMPDEST POP PUSH1 0x7 PUSH1 0xE4 PUSH1 0x4 CALLDATALOAD ADD CALLDATALOAD LT ISZERO PUSH2 0x2B4 JUMPI PUSH1 0xE4 PUSH1 0x4 CALLDATALOAD ADD CALLDATALOAD PUSH2 0x2B17 JUMPI JUMPDEST PUSH2 0x104 PUSH1 0x4 CALLDATALOAD ADD CALLDATALOAD PUSH1 0x4 DUP2 LT ISZERO PUSH2 0x2B4 JUMPI PUSH2 0x2378 DUP2 PUSH2 0x3402 JUMP JUMPDEST PUSH2 0x2B00 JUMPI JUMPDEST PUSH1 0x4 PUSH2 0x144 DUP2 CALLDATALOAD ADD CALLDATALOAD LT ISZERO PUSH2 0x2B4 JUMPI PUSH2 0x239C PUSH2 0x144 PUSH1 0x4 CALLDATALOAD ADD CALLDATALOAD PUSH2 0x3402 JUMP JUMPDEST PUSH2 0x144 PUSH1 0x4 CALLDATALOAD ADD CALLDATALOAD PUSH2 0x2AE9 JUMPI JUMPDEST PUSH1 0x20 PUSH2 0x23B9 PUSH1 0x4 DUP1 CALLDATALOAD ADD DUP1 PUSH2 0x3B73 JUMP JUMPDEST SWAP2 SWAP1 DUP3 PUSH1 0x40 MLOAD SWAP4 DUP5 SWAP3 DUP4 CALLDATACOPY DUP2 ADD PUSH2 0x12E DUP2 MSTORE SUB ADD SWAP1 KECCAK256 SWAP2 PUSH2 0x23E4 PUSH1 0x64 PUSH1 0x4 CALLDATALOAD ADD PUSH1 0x4 CALLDATALOAD PUSH1 0x4 ADD PUSH2 0x3C9C JUMP JUMPDEST SWAP1 PUSH1 0xA DUP6 ADD SLOAD SWAP2 PUSH1 0x1 PUSH1 0x1 PUSH1 0xA0 SHL SUB PUSH1 0xB DUP8 ADD SLOAD AND PUSH1 0x1 PUSH1 0x1 PUSH1 0xA0 SHL SUB PUSH1 0xC DUP9 ADD SLOAD AND PUSH1 0x1 PUSH1 0x1 PUSH1 0xA0 SHL SUB PUSH1 0xD DUP10 ADD SLOAD AND SWAP2 DUP9 PUSH1 0x1 DUP2 ADD SLOAD PUSH1 0x3 DUP3 ADD SLOAD PUSH1 0x2 DUP4 ADD SLOAD SWAP1 PUSH1 0x4 DUP5 ADD SLOAD PUSH1 0x5 DUP6 ADD SLOAD SWAP1 PUSH1 0x6 DUP7 ADD SLOAD SWAP3 PUSH1 0x7 DUP8 ADD SLOAD SWAP5 PUSH1 0x8 DUP9 ADD SLOAD SWAP7 PUSH2 0x246C PUSH2 0x2473 PUSH1 0x9 DUP12 ADD SLOAD SWAP11 PUSH2 0x2460 PUSH1 0x40 MLOAD DUP1 PUSH2 0x140 MSTORE PUSH2 0x31C2 JUMP JUMPDEST PUSH1 0x40 MLOAD SWAP3 DUP4 DUP1 SWAP3 PUSH2 0x3338 JUMP JUMPDEST SUB DUP3 PUSH2 0x3233 JUMP JUMPDEST PUSH2 0x140 MLOAD MSTORE PUSH1 0x20 PUSH2 0x140 MLOAD ADD MSTORE PUSH1 0x40 PUSH2 0x140 MLOAD ADD MSTORE PUSH1 0x60 PUSH2 0x140 MLOAD ADD MSTORE PUSH1 0x80 PUSH2 0x140 MLOAD ADD MSTORE PUSH1 0xA0 PUSH2 0x140 MLOAD ADD MSTORE PUSH1 0xC0 PUSH2 0x140 MLOAD ADD MSTORE PUSH1 0xE0 PUSH2 0x140 MLOAD ADD MSTORE PUSH2 0x100 PUSH2 0x140 MLOAD ADD MSTORE PUSH2 0x120 PUSH2 0x140 MLOAD ADD MSTORE PUSH1 0x5 PUSH1 0xFF DUP8 AND LT ISZERO PUSH2 0xA97 JUMPI PUSH1 0x1 PUSH1 0x1 PUSH1 0xA0 SHL SUB DUP7 PUSH1 0xFF PUSH2 0x255C SWAP9 AND PUSH2 0x140 DUP1 MLOAD ADD MSTORE PUSH1 0x8 SHR AND PUSH2 0x160 PUSH2 0x140 MLOAD ADD MSTORE PUSH2 0x180 PUSH2 0x140 MLOAD ADD MSTORE PUSH2 0x1A0 PUSH2 0x140 MLOAD ADD MSTORE PUSH2 0x1C0 PUSH2 0x140 MLOAD ADD MSTORE PUSH1 0x24 PUSH1 0x4 CALLDATALOAD ADD CALLDATALOAD PUSH2 0x1E0 PUSH2 0x140 MLOAD ADD MSTORE PUSH1 0x44 PUSH1 0x4 CALLDATALOAD ADD CALLDATALOAD PUSH2 0x200 PUSH2 0x140 MLOAD ADD MSTORE PUSH1 0x84 PUSH1 0x4 CALLDATALOAD ADD CALLDATALOAD PUSH2 0x220 PUSH2 0x140 MLOAD ADD MSTORE PUSH2 0x254C CALLDATASIZE PUSH1 0xA4 PUSH1 0x4 CALLDATALOAD ADD PUSH2 0x3DB4 JUMP JUMPDEST PUSH2 0x240 PUSH2 0x140 MLOAD ADD MSTORE CALLDATASIZE SWAP2 PUSH2 0x3DF0 JUMP JUMPDEST PUSH2 0x260 PUSH2 0x140 MLOAD ADD MSTORE PUSH2 0x2575 CALLDATASIZE PUSH2 0x104 PUSH1 0x4 CALLDATALOAD ADD PUSH2 0x3E6E JUMP JUMPDEST PUSH2 0x280 PUSH2 0x140 MLOAD ADD MSTORE PUSH2 0x258E CALLDATASIZE PUSH2 0x144 PUSH1 0x4 CALLDATALOAD ADD PUSH2 0x3E6E JUMP JUMPDEST PUSH2 0x140 MLOAD PUSH2 0x2A0 ADD MSTORE PUSH1 0x20 PUSH2 0x25A7 PUSH1 0x4 DUP1 CALLDATALOAD ADD DUP1 PUSH2 0x3B73 JUMP JUMPDEST SWAP2 SWAP1 DUP3 PUSH1 0x40 MLOAD SWAP4 DUP5 SWAP3 DUP4 CALLDATACOPY DUP2 ADD PUSH2 0x12E DUP2 MSTORE SUB ADD SWAP1 KECCAK256 PUSH2 0x140 MLOAD MLOAD DUP1 MLOAD SWAP1 PUSH8 0xFFFFFFFFFFFFFFFF DUP3 GT PUSH2 0xA81 JUMPI DUP2 SWAP1 PUSH2 0x25E0 DUP5 SLOAD PUSH2 0x32FE JUMP JUMPDEST PUSH1 0x1F DUP2 GT PUSH2 0x2A99 JUMPI JUMPDEST POP PUSH1 0x20 SWAP1 PUSH1 0x1F DUP4 GT PUSH1 0x1 EQ PUSH2 0x2A2D JUMPI PUSH1 0x0 SWAP3 PUSH2 0x2A22 JUMPI JUMPDEST POP POP DUP2 PUSH1 0x1 SHL SWAP2 PUSH1 0x0 NOT SWAP1 PUSH1 0x3 SHL SHR NOT AND OR DUP2 SSTORE JUMPDEST PUSH2 0x140 DUP1 MLOAD PUSH1 0x20 DUP2 ADD MLOAD PUSH1 0x1 DUP5 ADD SSTORE PUSH1 0x40 DUP2 ADD MLOAD PUSH1 0x2 DUP5 ADD SSTORE PUSH1 0x60 DUP2 ADD MLOAD PUSH1 0x3 DUP5 ADD SSTORE PUSH1 0x80 DUP2 ADD MLOAD PUSH1 0x4 DUP5 ADD SSTORE PUSH1 0xA0 DUP2 ADD MLOAD PUSH1 0x5 DUP5 ADD SSTORE PUSH1 0xC0 DUP2 ADD MLOAD PUSH1 0x6 DUP5 ADD SSTORE PUSH1 0xE0 DUP2 ADD MLOAD PUSH1 0x7 DUP5 ADD SSTORE PUSH2 0x100 DUP2 ADD MLOAD PUSH1 0x8 DUP5 ADD SSTORE PUSH2 0x120 DUP2 ADD MLOAD PUSH1 0x9 DUP5 ADD SSTORE ADD MLOAD PUSH1 0x5 DUP2 LT ISZERO PUSH2 0xA97 JUMPI PUSH2 0x268F PUSH1 0xA DUP4 ADD SWAP2 DUP3 PUSH2 0x3EA0 JUMP JUMPDEST PUSH2 0x140 MLOAD SWAP1 PUSH2 0x160 DUP3 ADD MLOAD PUSH21 0xFFFFFFFFFFFFFFFFFFFFFFFFFFFFFFFFFFFFFFFF00 NOT PUSH21 0xFFFFFFFFFFFFFFFFFFFFFFFFFFFFFFFFFFFFFFFF00 DUP4 SLOAD SWAP3 PUSH1 0x8 SHL AND SWAP2 AND OR SWAP1 SSTORE PUSH1 0xB DUP3 ADD PUSH1 0x1 PUSH1 0x1 PUSH1 0xA0 SHL SUB PUSH2 0x180 DUP4 ADD MLOAD AND SWAP1 PUSH20 0xFFFFFFFFFFFFFFFFFFFFFFFFFFFFFFFFFFFFFFFF NOT SWAP2 DUP3 DUP3 SLOAD AND OR SWAP1 SSTORE PUSH1 0xC DUP4 ADD PUSH1 0x1 PUSH1 0x1 PUSH1 0xA0 SHL SUB PUSH2 0x1A0 DUP5 ADD MLOAD AND DUP3 DUP3 SLOAD AND OR SWAP1 SSTORE PUSH1 0xD DUP4 ADD SWAP1 PUSH1 0x1 PUSH1 0x1 PUSH1 0xA0 SHL SUB PUSH2 0x1C0 DUP5 ADD MLOAD AND SWAP1 DUP3 SLOAD AND OR SWAP1 SSTORE PUSH2 0x1E0 DUP2 ADD MLOAD PUSH1 0xE DUP4 ADD SSTORE PUSH2 0x200 DUP2 ADD MLOAD PUSH1 0xF DUP4 ADD SSTORE PUSH2 0x220 DUP2 ADD MLOAD PUSH1 0x10 DUP4 ADD SSTORE PUSH1 0x40 PUSH2 0x240 DUP3 ADD MLOAD DUP1 MLOAD PUSH1 0x11 DUP6 ADD SSTORE PUSH1 0x20 DUP2 ADD MLOAD PUSH1 0x12 DUP6 ADD SSTORE ADD MLOAD SWAP1 PUSH1 0x7 DUP3 LT ISZERO PUSH2 0xA97 JUMPI PUSH2 0x260 SWAP2 PUSH1 0xFF DUP1 NOT PUSH1 0x13 DUP7 ADD SLOAD AND SWAP2 AND OR PUSH1 0x13 DUP5 ADD SSTORE ADD MLOAD DUP1 MLOAD SWAP1 PUSH9 0x10000000000000000 DUP3 GT PUSH2 0xA81 JUMPI PUSH1 0x14 DUP4 ADD SLOAD DUP3 PUSH1 0x14 DUP6 ADD SSTORE DUP1 DUP4 LT PUSH2 0x29B8 JUMPI JUMPDEST POP PUSH1 0x20 ADD PUSH1 0x14 DUP4 ADD PUSH1 0x0 MSTORE PUSH1 0x20 PUSH1 0x0 KECCAK256 PUSH1 0x0 SWAP2 JUMPDEST DUP4 DUP4 LT PUSH2 0x297A JUMPI POP POP POP POP PUSH1 0x20 PUSH1 0x15 DUP3 ADD PUSH2 0x280 PUSH2 0x140 MLOAD ADD MLOAD SWAP1 DUP2 MLOAD PUSH2 0x27F8 DUP2 PUSH2 0x3402 JUMP JUMPDEST PUSH2 0x2801 DUP2 PUSH2 0x3402 JUMP JUMPDEST PUSH1 0xFF DUP1 NOT DUP4 SLOAD AND SWAP2 AND OR SWAP1 SSTORE ADD MLOAD PUSH1 0x16 DUP3 ADD SSTORE PUSH1 0x18 PUSH1 0x20 PUSH1 0x17 DUP4 ADD PUSH2 0x2A0 PUSH2 0x140 MLOAD ADD MLOAD SWAP1 DUP2 MLOAD PUSH2 0x2831 DUP2 PUSH2 0x3402 JUMP JUMPDEST PUSH2 0x283A DUP2 PUSH2 0x3402 JUMP JUMPDEST PUSH1 0xFF DUP1 NOT DUP4 SLOAD AND SWAP2 AND OR SWAP1 SSTORE ADD MLOAD SWAP2 ADD SSTORE PUSH1 0x1 PUSH1 0x1 PUSH1 0xA0 SHL SUB PUSH1 0xA DUP5 ADD SLOAD PUSH1 0x8 SHR AND SWAP3 PUSH1 0x20 PUSH2 0x2873 PUSH1 0x4 CALLDATALOAD PUSH1 0x4 ADD PUSH1 0x4 CALLDATALOAD PUSH1 0x4 ADD PUSH2 0x3B73 JUMP JUMPDEST SWAP2 SWAP1 DUP3 PUSH1 0x40 MLOAD SWAP4 DUP5 SWAP3 DUP4 CALLDATACOPY DUP2 ADD PUSH2 0x12E DUP2 MSTORE SUB ADD SWAP1 KECCAK256 SWAP1 PUSH1 0x40 MLOAD SWAP1 PUSH1 0x0 SWAP1 DUP1 SLOAD SWAP1 PUSH2 0x289D DUP3 PUSH2 0x32FE JUMP JUMPDEST SWAP2 PUSH1 0x1 DUP2 AND SWAP1 DUP2 ISZERO PUSH2 0x2943 JUMPI POP PUSH1 0x1 EQ PUSH2 0x28EE JUMPI JUMPDEST POP POP SWAP1 DUP1 PUSH32 0xBA45D725AB265E638684C538E195EAB9BE37CF512EEEA7680F2521070DAEE76E SWAP4 SWAP3 SUB SWAP1 KECCAK256 SWAP4 PUSH2 0x9BE PUSH1 0x40 MLOAD SWAP3 DUP4 SWAP3 CALLER SWAP7 DUP5 PUSH2 0x44CD JUMP JUMPDEST SWAP1 SWAP2 POP PUSH1 0x0 MSTORE PUSH1 0x20 PUSH1 0x0 KECCAK256 PUSH1 0x0 SWAP1 JUMPDEST DUP3 DUP3 LT PUSH2 0x292F JUMPI POP POP DUP2 ADD DUP2 PUSH32 0xBA45D725AB265E638684C538E195EAB9BE37CF512EEEA7680F2521070DAEE76E PUSH2 0x28B2 JUMP JUMPDEST PUSH1 0x1 DUP2 PUSH1 0x20 SWAP3 SLOAD DUP5 DUP8 ADD MSTORE ADD SWAP2 ADD SWAP1 PUSH2 0x28FD JUMP JUMPDEST PUSH1 0xFF NOT AND DUP6 MSTORE POP POP DUP1 ISZERO ISZERO MUL DUP3 ADD SWAP1 POP DUP2 PUSH32 0xBA45D725AB265E638684C538E195EAB9BE37CF512EEEA7680F2521070DAEE76E PUSH2 0x28B2 JUMP JUMPDEST PUSH1 0x2 PUSH1 0x20 DUP3 PUSH1 0x1 SWAP4 MLOAD DUP1 MLOAD DUP7 SSTORE DUP3 DUP6 DUP8 ADD SWAP2 ADD MLOAD PUSH2 0x2997 DUP2 PUSH2 0x3402 JUMP JUMPDEST PUSH2 0x29A0 DUP2 PUSH2 0x3402 JUMP JUMPDEST PUSH1 0xFF DUP1 NOT DUP4 SLOAD AND SWAP2 AND OR SWAP1 SSTORE ADD SWAP3 ADD SWAP3 ADD SWAP2 SWAP1 PUSH2 0x27D2 JUMP JUMPDEST PUSH32 0x7FFFFFFFFFFFFFFFFFFFFFFFFFFFFFFFFFFFFFFFFFFFFFFFFFFFFFFFFFFFFFFF DUP1 DUP3 AND DUP3 SUB PUSH2 0xA6B JUMPI DUP4 AND DUP4 SUB PUSH2 0xA6B JUMPI PUSH1 0x14 DUP5 ADD PUSH1 0x0 MSTORE PUSH1 0x20 PUSH1 0x0 KECCAK256 DUP4 PUSH1 0x1 SHL DUP2 ADD JUMPDEST DUP3 PUSH1 0x1 SHL DUP3 ADD DUP2 LT PUSH2 0x2A10 JUMPI POP POP PUSH2 0x27BE JUMP JUMPDEST PUSH1 0x0 DUP1 DUP3 SSTORE PUSH1 0x1 DUP3 ADD SSTORE PUSH1 0x2 ADD PUSH2 0x29FD JUMP JUMPDEST ADD MLOAD SWAP1 POP DUP7 DUP1 PUSH2 0x2600 JUMP JUMPDEST SWAP3 POP DUP4 PUSH1 0x0 MSTORE PUSH1 0x20 PUSH1 0x0 KECCAK256 SWAP1 PUSH1 0x0 SWAP4 JUMPDEST PUSH1 0x1F NOT DUP5 AND DUP6 LT PUSH2 0x2A7E JUMPI PUSH1 0x1 SWAP5 POP DUP4 PUSH1 0x1F NOT DUP2 AND LT PUSH2 0x2A65 JUMPI JUMPDEST POP POP POP DUP2 SHL ADD DUP2 SSTORE PUSH2 0x2615 JUMP JUMPDEST ADD MLOAD PUSH1 0x0 NOT PUSH1 0xF8 DUP5 PUSH1 0x3 SHL AND SHR NOT AND SWAP1 SSTORE DUP7 DUP1 DUP1 PUSH2 0x2A58 JUMP JUMPDEST DUP2 DUP2 ADD MLOAD DUP4 SSTORE PUSH1 0x20 SWAP5 DUP6 ADD SWAP5 PUSH1 0x1 SWAP1 SWAP4 ADD SWAP3 SWAP1 SWAP2 ADD SWAP1 PUSH2 0x2A3D JUMP JUMPDEST SWAP1 SWAP2 POP DUP4 PUSH1 0x0 MSTORE PUSH1 0x20 PUSH1 0x0 KECCAK256 PUSH1 0x1F DUP5 ADD PUSH1 0x5 SHR DUP2 ADD PUSH1 0x20 DUP6 LT PUSH2 0x2AE2 JUMPI JUMPDEST SWAP1 DUP5 SWAP4 SWAP3 SWAP2 JUMPDEST PUSH1 0x1F DUP4 ADD PUSH1 0x5 SHR DUP3 ADD DUP2 LT PUSH2 0x2AD3 JUMPI POP POP PUSH2 0x25E9 JUMP JUMPDEST PUSH1 0x0 DUP2 SSTORE DUP6 SWAP5 POP PUSH1 0x1 ADD PUSH2 0x2ABD JUMP JUMPDEST POP DUP1 PUSH2 0x2AB7 JUMP JUMPDEST PUSH2 0x2AFB PUSH2 0x164 PUSH1 0x4 CALLDATALOAD ADD CALLDATALOAD ISZERO ISZERO PUSH2 0x3D69 JUMP JUMPDEST PUSH2 0x23A9 JUMP JUMPDEST PUSH2 0x2B12 PUSH2 0x124 PUSH1 0x4 CALLDATALOAD ADD CALLDATALOAD ISZERO ISZERO PUSH2 0x3D69 JUMP JUMPDEST PUSH2 0x237D JUMP JUMPDEST PUSH1 0x5 PUSH1 0xE4 PUSH1 0x4 CALLDATALOAD ADD CALLDATALOAD EQ DUP1 ISZERO PUSH2 0x2B6D JUMPI JUMPDEST ISZERO PUSH2 0x2B5C JUMPI PUSH2 0x2B46 PUSH1 0xA4 PUSH1 0x4 CALLDATALOAD ADD CALLDATALOAD DUP1 ISZERO ISZERO SWAP1 DUP2 PUSH2 0x2B4B JUMPI POP PUSH2 0x3D69 JUMP JUMPDEST PUSH2 0x235E JUMP JUMPDEST SWAP1 POP PUSH1 0xC4 PUSH1 0x4 CALLDATALOAD ADD CALLDATALOAD LT ISZERO DUP5 PUSH2 0xBBE JUMP JUMPDEST PUSH2 0x2B46 PUSH1 0xA4 PUSH1 0x4 CALLDATALOAD ADD CALLDATALOAD ISZERO ISZERO PUSH2 0x3D69 JUMP JUMPDEST POP PUSH1 0x6 PUSH1 0xE4 PUSH1 0x4 CALLDATALOAD ADD CALLDATALOAD EQ PUSH2 0x2B28 JUMP JUMPDEST PUSH1 0x64 PUSH1 0x40 MLOAD PUSH3 0x461BCD PUSH1 0xE5 SHL DUP2 MSTORE PUSH1 0x20 PUSH1 0x4 DUP3 ADD MSTORE PUSH1 0x16 PUSH1 0x24 DUP3 ADD MSTORE PUSH32 0x506F636B65743A20696E76616C696420706F636B657400000000000000000000 PUSH1 0x44 DUP3 ADD MSTORE REVERT JUMPDEST PUSH1 0x64 PUSH1 0x40 MLOAD PUSH3 0x461BCD PUSH1 0xE5 SHL DUP2 MSTORE PUSH1 0x20 PUSH1 0x4 DUP3 ADD MSTORE PUSH1 0x1A PUSH1 0x24 DUP3 ADD MSTORE PUSH32 0x49443A20746865206964206D7573742062652065786973746564000000000000 PUSH1 0x44 DUP3 ADD MSTORE REVERT JUMPDEST CALLVALUE PUSH2 0x2B4 JUMPI PUSH2 0x2C13 CALLDATASIZE PUSH2 0x3075 JUMP JUMPDEST SWAP2 SWAP1 PUSH2 0x2C1D PUSH2 0x4067 JUMP JUMPDEST PUSH2 0x2C26 DUP3 PUSH2 0x3C88 JUMP JUMPDEST PUSH1 0x1 PUSH1 0x1 PUSH1 0xA0 SHL SUB SWAP1 DUP2 AND PUSH1 0x0 SWAP1 DUP2 MSTORE PUSH32 0xDFF3DC04E5BE5D758E3CBF436C1EAAC83CAF9B19278DBB9A033498F210D28585 PUSH1 0x20 MSTORE PUSH1 0x40 SWAP1 KECCAK256 SLOAD PUSH1 0xFF AND DUP1 ISZERO PUSH2 0x2D3F JUMPI JUMPDEST PUSH2 0x2C72 SWAP1 PUSH2 0x4507 JUMP JUMPDEST PUSH1 0x20 DUP4 ADD SWAP1 PUSH1 0x20 PUSH2 0x2C83 DUP4 DUP7 PUSH2 0x3B73 JUMP JUMPDEST SWAP2 SWAP1 DUP3 PUSH1 0x40 MLOAD SWAP4 DUP5 SWAP3 DUP4 CALLDATACOPY DUP2 ADD PUSH2 0x12E DUP2 MSTORE SUB ADD SWAP1 KECCAK256 SWAP4 PUSH2 0x2CA8 PUSH1 0x10 DUP7 ADD SLOAD TIMESTAMP PUSH2 0x3A1D JUMP JUMPDEST PUSH1 0x9 DUP7 ADD SSTORE PUSH1 0x8 DUP6 ADD DUP1 SLOAD SWAP1 PUSH1 0x1 DUP3 ADD DUP1 SWAP3 GT PUSH2 0xA6B JUMPI SSTORE PUSH1 0x2 DUP6 ADD DUP1 SLOAD SWAP1 PUSH2 0x2CD6 PUSH1 0x40 DUP5 ADD CALLDATALOAD DUP1 SWAP4 PUSH2 0x3A1D JUMP JUMPDEST SWAP1 SSTORE PUSH1 0x3 DUP7 ADD SWAP1 DUP2 SLOAD SWAP2 PUSH2 0x2CEF PUSH1 0x60 DUP6 ADD CALLDATALOAD DUP1 SWAP5 PUSH2 0x3A1D JUMP JUMPDEST SWAP1 SSTORE PUSH1 0x6 DUP8 ADD DUP1 SLOAD SWAP2 DUP3 SUB SWAP2 DUP3 GT PUSH2 0xA6B JUMPI PUSH32 0xBA45D725AB265E638684C538E195EAB9BE37CF512EEEA7680F2521070DAEE76E SWAP6 PUSH2 0x9BE SWAP4 PUSH2 0xFF1 SWAP4 PUSH2 0xFE9 SWAP4 SSTORE PUSH2 0x1960 PUSH1 0x7 DUP12 ADD SWAP2 DUP3 SLOAD PUSH2 0x3A1D JUMP JUMPDEST POP PUSH2 0x2C72 PUSH2 0x2D5C PUSH2 0x2D53 PUSH1 0x20 DUP7 ADD DUP7 PUSH2 0x3B73 JUMP JUMPDEST PUSH2 0x1032 DUP8 PUSH2 0x3C88 JUMP JUMPDEST SWAP1 POP PUSH2 0x2C69 JUMP JUMPDEST CALLVALUE PUSH2 0x2B4 JUMPI PUSH1 0x40 CALLDATASIZE PUSH1 0x3 NOT ADD SLT PUSH2 0x2B4 JUMPI PUSH2 0x2D7C PUSH2 0x3049 JUMP JUMPDEST CALLER PUSH1 0x1 PUSH1 0x1 PUSH1 0xA0 SHL SUB DUP3 AND SUB PUSH2 0x2D98 JUMPI PUSH2 0x248 SWAP1 PUSH1 0x4 CALLDATALOAD PUSH2 0x34AF JUMP JUMPDEST PUSH1 0x84 PUSH1 0x40 MLOAD PUSH3 0x461BCD PUSH1 0xE5 SHL DUP2 MSTORE PUSH1 0x20 PUSH1 0x4 DUP3 ADD MSTORE PUSH1 0x2F PUSH1 0x24 DUP3 ADD MSTORE PUSH32 0x416363657373436F6E74726F6C3A2063616E206F6E6C792072656E6F756E6365 PUSH1 0x44 DUP3 ADD MSTORE PUSH32 0x20726F6C657320666F722073656C660000000000000000000000000000000000 PUSH1 0x64 DUP3 ADD MSTORE REVERT JUMPDEST CALLVALUE PUSH2 0x2B4 JUMPI PUSH1 0x40 CALLDATASIZE PUSH1 0x3 NOT ADD SLT PUSH2 0x2B4 JUMPI PUSH1 0x4 CALLDATALOAD PUSH2 0x2E1E PUSH2 0x3049 JUMP JUMPDEST PUSH2 0x2E26 PUSH2 0x3526 JUMP JUMPDEST DUP2 PUSH1 0x0 MSTORE PUSH1 0xC9 PUSH1 0x20 MSTORE PUSH1 0x1 PUSH1 0x1 PUSH1 0xA0 SHL SUB PUSH1 0x40 PUSH1 0x0 KECCAK256 SWAP2 AND SWAP1 DUP2 PUSH1 0x0 MSTORE PUSH1 0x20 MSTORE PUSH1 0xFF PUSH1 0x40 PUSH1 0x0 KECCAK256 SLOAD AND ISZERO PUSH2 0x2E56 JUMPI STOP JUMPDEST DUP2 PUSH1 0x0 MSTORE PUSH1 0xC9 PUSH1 0x20 MSTORE PUSH1 0x40 PUSH1 0x0 KECCAK256 DUP2 PUSH1 0x0 MSTORE PUSH1 0x20 MSTORE PUSH1 0x40 PUSH1 0x0 KECCAK256 PUSH1 0x1 PUSH1 0xFF NOT DUP3 SLOAD AND OR SWAP1 SSTORE CALLER SWAP2 PUSH32 0x2F8788117E7EFF1D82E926EC794901D17C78024A50270940304540A733656F0D PUSH1 0x0 DUP1 LOG4 STOP JUMPDEST CALLVALUE PUSH2 0x2B4 JUMPI PUSH1 0x20 CALLDATASIZE PUSH1 0x3 NOT ADD SLT PUSH2 0x2B4 JUMPI PUSH1 0x4 CALLDATALOAD PUSH1 0x0 MSTORE PUSH1 0xC9 PUSH1 0x20 MSTORE PUSH1 0x20 PUSH1 0x1 PUSH1 0x40 PUSH1 0x0 KECCAK256 ADD SLOAD PUSH1 0x40 MLOAD SWAP1 DUP2 MSTORE RETURN JUMPDEST CALLVALUE PUSH2 0x2B4 JUMPI PUSH1 0x0 CALLDATASIZE PUSH1 0x3 NOT ADD SLT PUSH2 0x2B4 JUMPI PUSH1 0x20 PUSH1 0x40 MLOAD PUSH32 0xAB4F864E5201B0FDE9B5EE3E4CF96384802B0FFDFCF7F9DE4699CE21A30AFC4F DUP2 MSTORE RETURN JUMPDEST CALLVALUE PUSH2 0x2B4 JUMPI PUSH1 0x20 PUSH2 0x1274 PUSH2 0x2F21 CALLDATASIZE PUSH2 0x3012 JUMP JUMPDEST SWAP3 SWAP2 SWAP1 SWAP2 PUSH2 0x3897 JUMP JUMPDEST CALLVALUE PUSH2 0x2B4 JUMPI PUSH1 0x20 PUSH2 0x1274 PUSH2 0x2F3D CALLDATASIZE PUSH2 0x3012 JUMP JUMPDEST SWAP3 SWAP2 SWAP1 SWAP2 PUSH2 0x3749 JUMP JUMPDEST CALLVALUE PUSH2 0x2B4 JUMPI PUSH1 0x20 CALLDATASIZE PUSH1 0x3 NOT ADD SLT PUSH2 0x2B4 JUMPI PUSH1 0x4 CALLDATALOAD SWAP1 PUSH32 0xFFFFFFFF00000000000000000000000000000000000000000000000000000000 DUP3 AND DUP1 SWAP3 SUB PUSH2 0x2B4 JUMPI DUP2 PUSH32 0x7965DB0B00000000000000000000000000000000000000000000000000000000 PUSH1 0x20 SWAP4 EQ SWAP1 DUP2 ISZERO PUSH2 0x2FBA JUMPI JUMPDEST POP ISZERO ISZERO DUP2 MSTORE RETURN JUMPDEST PUSH32 0x1FFC9A700000000000000000000000000000000000000000000000000000000 SWAP2 POP EQ DUP4 PUSH2 0x2FB3 JUMP JUMPDEST SWAP2 DUP2 PUSH1 0x1F DUP5 ADD SLT ISZERO PUSH2 0x2B4 JUMPI DUP3 CALLDATALOAD SWAP2 PUSH8 0xFFFFFFFFFFFFFFFF DUP4 GT PUSH2 0x2B4 JUMPI PUSH1 0x20 DUP4 DUP2 DUP7 ADD SWAP6 ADD ADD GT PUSH2 0x2B4 JUMPI JUMP JUMPDEST PUSH1 0x60 PUSH1 0x3 NOT DUP3 ADD SLT PUSH2 0x2B4 JUMPI PUSH1 0x4 CALLDATALOAD SWAP1 PUSH8 0xFFFFFFFFFFFFFFFF DUP3 GT PUSH2 0x2B4 JUMPI PUSH2 0x303D SWAP2 PUSH1 0x4 ADD PUSH2 0x2FE4 JUMP JUMPDEST SWAP1 SWAP2 PUSH1 0x24 CALLDATALOAD SWAP1 PUSH1 0x44 CALLDATALOAD SWAP1 JUMP JUMPDEST PUSH1 0x24 CALLDATALOAD SWAP1 PUSH1 0x1 PUSH1 0x1 PUSH1 0xA0 SHL SUB DUP3 AND DUP3 SUB PUSH2 0x2B4 JUMPI JUMP JUMPDEST PUSH1 0x4 CALLDATALOAD SWAP1 PUSH1 0x1 PUSH1 0x1 PUSH1 0xA0 SHL SUB DUP3 AND DUP3 SUB PUSH2 0x2B4 JUMPI JUMP JUMPDEST SWAP1 PUSH1 0x3 NOT PUSH1 0x40 DUP2 DUP5 ADD SLT PUSH2 0x2B4 JUMPI PUSH1 0x4 CALLDATALOAD PUSH8 0xFFFFFFFFFFFFFFFF SWAP2 DUP3 DUP3 GT PUSH2 0x2B4 JUMPI PUSH1 0x80 SWAP1 DUP3 DUP7 SUB ADD SLT PUSH2 0x2B4 JUMPI PUSH1 0x4 ADD SWAP3 PUSH1 0x24 CALLDATALOAD SWAP2 DUP3 GT PUSH2 0x2B4 JUMPI PUSH2 0x30BD SWAP2 PUSH1 0x4 ADD PUSH2 0x2FE4 JUMP JUMPDEST SWAP1 SWAP2 JUMP JUMPDEST PUSH1 0x40 PUSH1 0x3 NOT DUP3 ADD SLT PUSH2 0x2B4 JUMPI PUSH1 0x4 CALLDATALOAD SWAP1 PUSH8 0xFFFFFFFFFFFFFFFF DUP3 GT PUSH2 0x2B4 JUMPI PUSH2 0x30EC SWAP2 PUSH1 0x4 ADD PUSH2 0x2FE4 JUMP JUMPDEST SWAP1 SWAP2 PUSH1 0x24 CALLDATALOAD PUSH1 0x1 PUSH1 0x1 PUSH1 0xA0 SHL SUB DUP2 AND DUP2 SUB PUSH2 0x2B4 JUMPI SWAP1 JUMP JUMPDEST CALLVALUE PUSH2 0x2B4 JUMPI PUSH2 0x3112 CALLDATASIZE PUSH2 0x30C1 JUMP JUMPDEST SWAP1 PUSH1 0x40 MLOAD SWAP2 DUP2 DUP5 DUP5 CALLDATACOPY DUP2 DUP4 ADD SWAP3 PUSH2 0x12E SWAP4 DUP5 DUP2 MSTORE PUSH1 0xA DUP3 PUSH1 0x20 PUSH1 0x1 PUSH1 0x1 PUSH1 0xA0 SHL SUB SWAP5 DUP6 SWAP5 SUB ADD SWAP1 KECCAK256 ADD SLOAD PUSH1 0x8 SHR AND SWAP2 AND EQ SWAP2 DUP3 PUSH2 0x3192 JUMPI JUMPDEST DUP3 PUSH2 0x315C JUMPI PUSH1 0x20 DUP4 PUSH1 0x40 MLOAD SWAP1 ISZERO ISZERO DUP2 MSTORE RETURN JUMPDEST PUSH1 0xA SWAP3 POP PUSH1 0xFF SWAP4 PUSH1 0x20 SWAP2 DUP4 PUSH1 0x40 MLOAD SWAP5 DUP6 SWAP4 DUP5 CALLDATACOPY DUP3 ADD SWAP1 DUP2 MSTORE SUB ADD SWAP1 KECCAK256 ADD SLOAD AND PUSH1 0x5 DUP2 LT ISZERO PUSH2 0xA97 JUMPI PUSH1 0x4 PUSH1 0x20 SWAP2 EQ ISZERO CODESIZE DUP1 PUSH2 0x1875 JUMP JUMPDEST SWAP2 POP PUSH1 0xFF PUSH1 0xA PUSH1 0x40 MLOAD DUP4 DUP7 DUP3 CALLDATACOPY PUSH1 0x20 DUP2 DUP6 DUP2 ADD DUP8 DUP2 MSTORE SUB ADD SWAP1 KECCAK256 ADD SLOAD AND PUSH1 0x5 DUP2 LT ISZERO PUSH2 0xA97 JUMPI PUSH1 0x3 EQ ISZERO SWAP2 PUSH2 0x314A JUMP JUMPDEST PUSH2 0x2C0 DUP2 ADD SWAP1 DUP2 LT PUSH8 0xFFFFFFFFFFFFFFFF DUP3 GT OR PUSH2 0xA81 JUMPI PUSH1 0x40 MSTORE JUMP JUMPDEST PUSH1 0x40 DUP2 ADD SWAP1 DUP2 LT PUSH8 0xFFFFFFFFFFFFFFFF DUP3 GT OR PUSH2 0xA81 JUMPI PUSH1 0x40 MSTORE JUMP JUMPDEST PUSH1 0x60 DUP2 ADD SWAP1 DUP2 LT PUSH8 0xFFFFFFFFFFFFFFFF DUP3 GT OR PUSH2 0xA81 JUMPI PUSH1 0x40 MSTORE JUMP JUMPDEST PUSH1 0x80 DUP2 ADD SWAP1 DUP2 LT PUSH8 0xFFFFFFFFFFFFFFFF DUP3 GT OR PUSH2 0xA81 JUMPI PUSH1 0x40 MSTORE JUMP JUMPDEST SWAP1 PUSH1 0x1F DUP1 NOT SWAP2 ADD AND DUP2 ADD SWAP1 DUP2 LT PUSH8 0xFFFFFFFFFFFFFFFF DUP3 GT OR PUSH2 0xA81 JUMPI PUSH1 0x40 MSTORE JUMP JUMPDEST SWAP3 SWAP2 SWAP3 PUSH8 0xFFFFFFFFFFFFFFFF DUP3 GT PUSH2 0xA81 JUMPI PUSH1 0x40 MLOAD SWAP2 PUSH2 0x327F PUSH1 0x1F DUP3 ADD PUSH1 0x1F NOT AND PUSH1 0x20 ADD DUP5 PUSH2 0x3233 JUMP JUMPDEST DUP3 SWAP5 DUP2 DUP5 MSTORE DUP2 DUP4 ADD GT PUSH2 0x2B4 JUMPI DUP3 DUP2 PUSH1 0x20 SWAP4 DUP5 PUSH1 0x0 SWAP7 ADD CALLDATACOPY ADD ADD MSTORE JUMP JUMPDEST PUSH1 0x20 PUSH1 0x3 NOT DUP3 ADD SLT PUSH2 0x2B4 JUMPI PUSH1 0x4 CALLDATALOAD SWAP1 PUSH8 0xFFFFFFFFFFFFFFFF DUP3 GT PUSH2 0x2B4 JUMPI DUP1 PUSH1 0x23 DUP4 ADD SLT ISZERO PUSH2 0x2B4 JUMPI DUP2 PUSH1 0x24 PUSH2 0x32D8 SWAP4 PUSH1 0x4 ADD CALLDATALOAD SWAP2 ADD PUSH2 0x3255 JUMP JUMPDEST SWAP1 JUMP JUMPDEST PUSH1 0x0 JUMPDEST DUP4 DUP2 LT PUSH2 0x32EE JUMPI POP POP PUSH1 0x0 SWAP2 ADD MSTORE JUMP JUMPDEST DUP2 DUP2 ADD MLOAD DUP4 DUP3 ADD MSTORE PUSH1 0x20 ADD PUSH2 0x32DE JUMP JUMPDEST SWAP1 PUSH1 0x1 DUP3 DUP2 SHR SWAP3 AND DUP1 ISZERO PUSH2 0x332E JUMPI JUMPDEST PUSH1 0x20 DUP4 LT EQ PUSH2 0x3318 JUMPI JUMP JUMPDEST PUSH4 0x4E487B71 PUSH1 0xE0 SHL PUSH1 0x0 MSTORE PUSH1 0x22 PUSH1 0x4 MSTORE PUSH1 0x24 PUSH1 0x0 REVERT JUMPDEST SWAP2 PUSH1 0x7F AND SWAP2 PUSH2 0x330D JUMP JUMPDEST SWAP1 PUSH1 0x0 SWAP3 SWAP2 DUP1 SLOAD SWAP2 PUSH2 0x3349 DUP4 PUSH2 0x32FE JUMP JUMPDEST SWAP2 DUP3 DUP3 MSTORE PUSH1 0x1 SWAP4 DUP5 DUP2 AND SWAP1 DUP2 PUSH1 0x0 EQ PUSH2 0x33AB JUMPI POP PUSH1 0x1 EQ PUSH2 0x336B JUMPI JUMPDEST POP POP POP POP JUMP JUMPDEST SWAP1 SWAP2 SWAP4 SWAP5 POP PUSH1 0x0 MSTORE PUSH1 0x20 SWAP3 DUP4 PUSH1 0x0 KECCAK256 SWAP3 DUP5 PUSH1 0x0 SWAP5 JUMPDEST DUP4 DUP7 LT PUSH2 0x3397 JUMPI POP POP POP POP ADD ADD SWAP1 CODESIZE DUP1 DUP1 DUP1 PUSH2 0x3365 JUMP JUMPDEST DUP1 SLOAD DUP6 DUP8 ADD DUP4 ADD MSTORE SWAP5 ADD SWAP4 DUP6 SWAP1 DUP3 ADD PUSH2 0x3380 JUMP JUMPDEST SWAP3 SWAP5 POP POP POP PUSH1 0x20 SWAP4 SWAP5 POP PUSH1 0xFF NOT AND DUP4 DUP4 ADD MSTORE ISZERO ISZERO PUSH1 0x5 SHL ADD ADD SWAP1 CODESIZE DUP1 DUP1 DUP1 PUSH2 0x3365 JUMP JUMPDEST SWAP1 PUSH1 0x40 MLOAD PUSH2 0x33DB DUP2 PUSH2 0x31FB JUMP JUMPDEST PUSH1 0xFF PUSH1 0x2 DUP3 SWAP5 DUP1 SLOAD DUP5 MSTORE PUSH1 0x1 DUP2 ADD SLOAD PUSH1 0x20 DUP6 ADD MSTORE ADD SLOAD AND SWAP1 PUSH1 0x7 DUP3 LT ISZERO PUSH2 0xA97 JUMPI PUSH1 0x40 ADD MSTORE JUMP JUMPDEST PUSH1 0x4 GT ISZERO PUSH2 0xA97 JUMPI JUMP JUMPDEST SWAP1 PUSH1 0x40 MLOAD PUSH2 0x3419 DUP2 PUSH2 0x31DF JUMP JUMPDEST PUSH1 0x20 PUSH1 0x1 DUP3 SWAP5 PUSH1 0xFF DUP2 SLOAD AND PUSH2 0x342D DUP2 PUSH2 0x3402 JUMP JUMPDEST DUP5 MSTORE ADD SLOAD SWAP2 ADD MSTORE JUMP JUMPDEST SWAP1 PUSH1 0x20 SWAP2 PUSH2 0x344F DUP2 MLOAD DUP1 SWAP3 DUP2 DUP6 MSTORE DUP6 DUP1 DUP7 ADD SWAP2 ADD PUSH2 0x32DB JUMP JUMPDEST PUSH1 0x1F ADD PUSH1 0x1F NOT AND ADD ADD SWAP1 JUMP JUMPDEST SWAP1 PUSH1 0x5 DUP3 LT ISZERO PUSH2 0xA97 JUMPI MSTORE JUMP JUMPDEST SWAP1 PUSH1 0x7 DUP3 LT ISZERO PUSH2 0xA97 JUMPI MSTORE JUMP JUMPDEST SWAP1 PUSH1 0x40 DUP1 PUSH2 0x3495 SWAP4 DUP1 MLOAD DUP5 MSTORE PUSH1 0x20 DUP2 ADD MLOAD PUSH1 0x20 DUP6 ADD MSTORE ADD MLOAD SWAP2 ADD SWAP1 PUSH2 0x3468 JUMP JUMPDEST JUMP JUMPDEST PUSH1 0x20 DUP1 SWAP2 DUP1 MLOAD PUSH2 0x34A6 DUP2 PUSH2 0x3402 JUMP JUMPDEST DUP5 MSTORE ADD MLOAD SWAP2 ADD MSTORE JUMP JUMPDEST SWAP1 PUSH1 0x0 SWAP2 DUP1 DUP4 MSTORE PUSH1 0xC9 PUSH1 0x20 MSTORE PUSH1 0x1 PUSH1 0x1 PUSH1 0xA0 SHL SUB PUSH1 0x40 DUP5 KECCAK256 SWAP3 AND SWAP2 DUP3 DUP5 MSTORE PUSH1 0x20 MSTORE PUSH1 0xFF PUSH1 0x40 DUP5 KECCAK256 SLOAD AND PUSH2 0x34E1 JUMPI POP POP POP JUMP JUMPDEST DUP1 DUP4 MSTORE PUSH1 0xC9 PUSH1 0x20 MSTORE PUSH1 0x40 DUP4 KECCAK256 DUP3 DUP5 MSTORE PUSH1 0x20 MSTORE PUSH1 0x40 DUP4 KECCAK256 PUSH1 0xFF NOT DUP2 SLOAD AND SWAP1 SSTORE PUSH32 0xF6391F5C32D9C69D2A47EA670B442974B53935D1EDC7FD64EB21E047A839171B CALLER SWAP4 DUP1 LOG4 JUMP JUMPDEST PUSH1 0x1 PUSH1 0x1 PUSH1 0xA0 SHL SUB PUSH1 0xFB SLOAD AND CALLER SUB PUSH2 0x353A JUMPI JUMP JUMPDEST PUSH1 0x64 PUSH1 0x40 MLOAD PUSH3 0x461BCD PUSH1 0xE5 SHL DUP2 MSTORE PUSH1 0x20 PUSH1 0x4 DUP3 ADD MSTORE PUSH1 0x20 PUSH1 0x24 DUP3 ADD MSTORE PUSH32 0x4F776E61626C653A2063616C6C6572206973206E6F7420746865206F776E6572 PUSH1 0x44 DUP3 ADD MSTORE REVERT JUMPDEST PUSH1 0xFB SLOAD SWAP1 PUSH1 0x1 PUSH1 0x1 PUSH1 0xA0 SHL SUB DUP1 SWAP2 AND SWAP2 DUP3 PUSH20 0xFFFFFFFFFFFFFFFFFFFFFFFFFFFFFFFFFFFFFFFF NOT DUP3 AND OR PUSH1 0xFB SSTORE AND PUSH32 0x8BE0079C531659141344CD1FD0A4F28419497F9722A3DAAFE3B4186F6B6457E0 PUSH1 0x0 DUP1 LOG3 JUMP JUMPDEST PUSH1 0x20 SWAP1 DUP3 PUSH1 0x40 MLOAD SWAP4 DUP5 SWAP3 DUP4 CALLDATACOPY DUP2 ADD PUSH2 0x12E DUP2 MSTORE SUB ADD SWAP1 KECCAK256 SWAP1 JUMP JUMPDEST SWAP1 DUP1 PUSH1 0x40 MLOAD SWAP3 DUP4 CALLDATACOPY DUP2 ADD PUSH2 0x12E DUP2 MSTORE PUSH1 0xA DUP3 PUSH1 0x20 PUSH1 0x1 PUSH1 0x1 PUSH1 0xA0 SHL SUB SWAP5 DUP6 SWAP5 SUB ADD SWAP1 KECCAK256 ADD SLOAD PUSH1 0x8 SHR AND SWAP2 AND EQ SWAP1 JUMP JUMPDEST PUSH8 0xFFFFFFFFFFFFFFFF DUP2 GT PUSH2 0xA81 JUMPI PUSH1 0x5 SHL PUSH1 0x20 ADD SWAP1 JUMP JUMPDEST PUSH1 0x0 NOT DUP2 EQ PUSH2 0xA6B JUMPI PUSH1 0x1 ADD SWAP1 JUMP JUMPDEST PUSH1 0x14 PUSH1 0x40 MLOAD SWAP3 DUP1 DUP4 DUP6 CALLDATACOPY DUP1 DUP5 ADD PUSH2 0x12E SWAP4 DUP5 DUP3 MSTORE DUP6 PUSH1 0x20 DUP1 SWAP8 DUP2 SWAP5 SUB ADD SWAP1 KECCAK256 SWAP5 DUP4 PUSH1 0x40 MLOAD SWAP5 DUP6 SWAP4 DUP5 CALLDATACOPY DUP3 ADD SWAP1 DUP2 MSTORE SUB ADD SWAP1 KECCAK256 ADD SWAP2 DUP3 SLOAD SWAP3 DUP4 ISZERO PUSH2 0x3740 JUMPI PUSH1 0x0 JUMPDEST DUP5 DUP2 LT PUSH2 0x3694 JUMPI POP POP POP POP POP PUSH1 0x0 SWAP1 JUMP JUMPDEST DUP2 PUSH1 0x0 MSTORE DUP3 PUSH1 0x0 KECCAK256 PUSH1 0x1 SWAP1 DUP3 DUP3 SHL ADD SWAP1 PUSH1 0xFF DUP2 DUP4 ADD SLOAD AND SWAP1 PUSH2 0x36B5 DUP3 PUSH2 0x3402 JUMP JUMPDEST DUP2 ISZERO PUSH2 0x3731 JUMPI PUSH2 0x36C4 DUP3 PUSH2 0x3402 JUMP JUMPDEST DUP2 EQ PUSH2 0x3720 JUMPI PUSH2 0x36D3 DUP2 PUSH2 0x3402 JUMP JUMPDEST PUSH1 0x2 DUP1 DUP3 EQ PUSH2 0x370F JUMPI POP PUSH2 0x36E6 DUP2 PUSH2 0x3402 JUMP JUMPDEST PUSH1 0x3 DUP1 SWAP2 EQ PUSH2 0x36FF JUMPI POP POP PUSH2 0x36FA SWAP1 PUSH2 0x3634 JUMP JUMPDEST PUSH2 0x3683 JUMP JUMPDEST SWAP5 SWAP4 POP SWAP5 POP POP POP ADD SLOAD SWAP1 SLOAD GT ISZERO SWAP1 JUMP JUMPDEST SWAP6 SWAP5 POP POP SWAP5 POP POP POP ADD SLOAD SWAP1 SLOAD GT ISZERO SWAP1 JUMP JUMPDEST POP SWAP5 POP POP POP POP PUSH1 0x8 ADD SLOAD SWAP1 SLOAD GT ISZERO SWAP1 JUMP JUMPDEST POP POP SWAP5 POP POP POP POP POP SLOAD TIMESTAMP LT ISZERO SWAP1 JUMP JUMPDEST POP POP POP POP PUSH1 0x0 SWAP1 JUMP JUMPDEST SWAP1 SWAP3 SWAP2 SWAP3 PUSH1 0x20 PUSH1 0x40 MLOAD SWAP3 DUP3 DUP2 DUP6 CALLDATACOPY DUP3 DUP5 ADD SWAP4 DUP3 DUP2 PUSH2 0x12E SWAP7 DUP8 DUP2 MSTORE SUB ADD SWAP1 KECCAK256 SWAP4 DUP4 PUSH1 0x40 MLOAD SWAP5 DUP6 SWAP4 DUP5 CALLDATACOPY DUP3 ADD SWAP1 DUP2 MSTORE SUB ADD SWAP1 KECCAK256 SWAP3 PUSH1 0x11 DUP5 ADD SWAP2 PUSH1 0xFF PUSH1 0x13 DUP7 ADD SLOAD AND SWAP4 PUSH1 0x7 DUP6 LT ISZERO PUSH2 0xA97 JUMPI DUP5 ISZERO PUSH2 0x3852 JUMPI PUSH1 0xF PUSH2 0x37A7 SWAP3 ADD SLOAD SWAP1 PUSH2 0x385D JUMP JUMPDEST DUP2 ISZERO PUSH2 0x383C JUMPI DIV SWAP2 PUSH1 0x3 DUP2 EQ PUSH2 0x3834 JUMPI PUSH1 0x4 DUP2 EQ PUSH2 0x382B JUMPI PUSH1 0x1 DUP2 EQ PUSH2 0x3823 JUMPI PUSH1 0x2 DUP2 EQ PUSH2 0x381A JUMPI PUSH1 0x5 DUP2 EQ PUSH2 0x37FF JUMPI PUSH1 0x6 EQ PUSH2 0x37E6 JUMPI POP POP POP PUSH1 0x1 SWAP1 JUMP JUMPDEST SLOAD DUP2 LT SWAP2 DUP3 ISZERO PUSH2 0x37F5 JUMPI POP POP SWAP1 JUMP JUMPDEST PUSH1 0x12 ADD SLOAD LT SWAP2 SWAP1 POP JUMP JUMPDEST POP SLOAD DUP2 LT ISZERO SWAP2 DUP3 PUSH2 0x380F JUMPI POP POP SWAP1 JUMP JUMPDEST PUSH1 0x12 ADD SLOAD LT ISZERO SWAP2 SWAP1 POP JUMP JUMPDEST POP SLOAD GT ISZERO SWAP2 SWAP1 POP JUMP JUMPDEST POP SLOAD LT SWAP2 SWAP1 POP JUMP JUMPDEST POP SLOAD LT ISZERO SWAP2 SWAP1 POP JUMP JUMPDEST POP SLOAD GT SWAP2 SWAP1 POP JUMP JUMPDEST PUSH4 0x4E487B71 PUSH1 0xE0 SHL PUSH1 0x0 MSTORE PUSH1 0x12 PUSH1 0x4 MSTORE PUSH1 0x24 PUSH1 0x0 REVERT JUMPDEST POP POP POP POP POP POP PUSH1 0x1 SWAP1 JUMP JUMPDEST DUP2 DUP2 MUL SWAP3 SWAP2 DUP2 ISZERO SWAP2 DUP5 DIV EQ OR ISZERO PUSH2 0xA6B JUMPI JUMP JUMPDEST SWAP1 DUP2 PUSH1 0x20 SWAP2 SUB SLT PUSH2 0x2B4 JUMPI MLOAD PUSH1 0xFF DUP2 AND DUP2 SUB PUSH2 0x2B4 JUMPI SWAP1 JUMP JUMPDEST PUSH1 0x4D DUP2 GT PUSH2 0xA6B JUMPI PUSH1 0xA EXP SWAP1 JUMP JUMPDEST SWAP1 PUSH1 0x20 PUSH1 0x40 MLOAD SWAP3 DUP3 DUP2 DUP6 CALLDATACOPY DUP3 DUP5 ADD SWAP4 DUP3 DUP2 PUSH2 0x12E SWAP7 DUP8 DUP2 MSTORE SUB ADD SWAP1 KECCAK256 SWAP4 DUP4 PUSH1 0x40 MLOAD SWAP5 DUP6 SWAP4 DUP5 CALLDATACOPY DUP3 ADD SWAP1 DUP2 MSTORE SUB ADD SWAP1 KECCAK256 SWAP2 PUSH1 0xFF PUSH1 0x15 DUP5 ADD SLOAD AND SWAP1 PUSH2 0x38D9 DUP3 PUSH2 0x3402 JUMP JUMPDEST DUP2 ISZERO PUSH2 0x3A13 JUMPI PUSH2 0x38E8 DUP3 PUSH2 0x3402 JUMP JUMPDEST PUSH1 0x1 DUP3 EQ PUSH2 0x3979 JUMPI POP PUSH2 0x38FA DUP2 PUSH2 0x3402 JUMP JUMPDEST PUSH1 0x3 DUP2 EQ PUSH2 0x3960 JUMPI DUP1 PUSH2 0x390E PUSH1 0x2 SWAP3 PUSH2 0x3402 JUMP JUMPDEST EQ PUSH2 0x391B JUMPI POP POP POP PUSH1 0x0 SWAP1 JUMP JUMPDEST PUSH1 0x2 ADD SLOAD SWAP1 DUP2 DUP4 GT ISZERO PUSH2 0x3958 JUMPI DUP2 DUP4 SUB SWAP3 DUP1 DUP5 GT PUSH2 0xA6B JUMPI DUP3 PUSH3 0xF4240 DUP1 DUP7 MUL SWAP6 DUP7 DIV EQ SWAP2 EQ OR ISZERO PUSH2 0xA6B JUMPI DUP2 ISZERO PUSH2 0x383C JUMPI PUSH1 0x16 ADD SLOAD SWAP2 DIV LT ISZERO SWAP1 JUMP JUMPDEST POP POP POP PUSH1 0x0 SWAP1 JUMP JUMPDEST POP PUSH1 0x2 ADD SLOAD PUSH1 0x16 SWAP1 SWAP2 ADD SLOAD PUSH2 0x3974 SWAP2 PUSH2 0x3A1D JUMP JUMPDEST GT ISZERO SWAP1 JUMP JUMPDEST SWAP3 SWAP4 SWAP1 POP PUSH1 0x20 PUSH1 0x1 PUSH1 0x1 PUSH1 0xA0 SHL SUB PUSH1 0xD PUSH1 0x4 SWAP5 ADD SLOAD AND PUSH1 0x40 MLOAD SWAP4 DUP5 DUP1 SWAP3 PUSH4 0x313CE567 PUSH1 0xE0 SHL DUP3 MSTORE GAS STATICCALL DUP1 ISZERO PUSH2 0x3A07 JUMPI PUSH1 0xFF PUSH2 0x39C1 SWAP2 PUSH2 0x39C7 SWAP5 PUSH1 0x0 SWAP2 PUSH2 0x39D9 JUMPI JUMPDEST POP AND PUSH2 0x3889 JUMP JUMPDEST SWAP1 PUSH2 0x385D JUMP JUMPDEST SWAP2 DUP2 ISZERO PUSH2 0x383C JUMPI PUSH1 0x16 ADD SLOAD SWAP2 DIV LT ISZERO SWAP1 JUMP JUMPDEST PUSH2 0x39FA SWAP2 POP PUSH1 0x20 RETURNDATASIZE DUP2 GT PUSH2 0x3A00 JUMPI JUMPDEST PUSH2 0x39F2 DUP2 DUP4 PUSH2 0x3233 JUMP JUMPDEST DUP2 ADD SWAP1 PUSH2 0x3870 JUMP JUMPDEST CODESIZE PUSH2 0x39BA JUMP JUMPDEST POP RETURNDATASIZE PUSH2 0x39E8 JUMP JUMPDEST PUSH1 0x40 MLOAD RETURNDATASIZE PUSH1 0x0 DUP3 RETURNDATACOPY RETURNDATASIZE SWAP1 REVERT JUMPDEST POP POP POP POP POP PUSH1 0x0 SWAP1 JUMP JUMPDEST SWAP2 SWAP1 DUP3 ADD DUP1 SWAP3 GT PUSH2 0xA6B JUMPI JUMP JUMPDEST SWAP1 PUSH1 0x20 PUSH1 0x40 MLOAD SWAP3 DUP3 DUP2 DUP6 CALLDATACOPY DUP3 DUP5 ADD SWAP4 DUP3 DUP2 PUSH2 0x12E SWAP7 DUP8 DUP2 MSTORE SUB ADD SWAP1 KECCAK256 SWAP4 DUP4 PUSH1 0x40 MLOAD SWAP5 DUP6 SWAP4 DUP5 CALLDATACOPY DUP3 ADD SWAP1 DUP2 MSTORE SUB ADD SWAP1 KECCAK256 SWAP2 PUSH1 0xFF PUSH1 0x17 DUP5 ADD SLOAD AND SWAP1 PUSH2 0x3A6C DUP3 PUSH2 0x3402 JUMP JUMPDEST DUP2 ISZERO PUSH2 0x3A13 JUMPI PUSH2 0x3A7B DUP3 PUSH2 0x3402 JUMP JUMPDEST PUSH1 0x1 DUP3 EQ PUSH2 0x3B1A JUMPI POP PUSH2 0x3A8D DUP2 PUSH2 0x3402 JUMP JUMPDEST PUSH1 0x3 DUP2 EQ PUSH2 0x3AEA JUMPI DUP1 PUSH2 0x3AA1 PUSH1 0x2 SWAP3 PUSH2 0x3402 JUMP JUMPDEST EQ PUSH2 0x3AAE JUMPI POP POP POP PUSH1 0x0 SWAP1 JUMP JUMPDEST PUSH1 0x2 ADD SLOAD SWAP1 DUP2 DUP4 GT PUSH2 0x3958 JUMPI DUP3 DUP3 SUB SWAP3 DUP3 DUP5 GT PUSH2 0xA6B JUMPI PUSH3 0xF4240 DUP1 DUP6 MUL SWAP5 DUP6 DIV EQ SWAP1 DUP4 EQ OR ISZERO PUSH2 0xA6B JUMPI DUP2 ISZERO PUSH2 0x383C JUMPI PUSH1 0x18 ADD SLOAD SWAP2 DIV LT ISZERO SWAP1 JUMP JUMPDEST POP PUSH1 0x2 ADD SLOAD SWAP1 DUP2 DUP4 GT ISZERO SWAP3 DUP4 PUSH2 0x3B01 JUMPI JUMPDEST POP POP POP SWAP1 JUMP JUMPDEST DUP3 SUB SWAP3 POP SWAP1 DUP3 GT PUSH2 0xA6B JUMPI PUSH1 0x18 ADD SLOAD GT ISZERO CODESIZE DUP1 DUP1 PUSH2 0x3AFB JUMP JUMPDEST SWAP3 SWAP4 SWAP1 POP PUSH1 0x20 PUSH1 0x1 PUSH1 0x1 PUSH1 0xA0 SHL SUB PUSH1 0xD PUSH1 0x4 SWAP5 ADD SLOAD AND PUSH1 0x40 MLOAD SWAP4 DUP5 DUP1 SWAP3 PUSH4 0x313CE567 PUSH1 0xE0 SHL DUP3 MSTORE GAS STATICCALL DUP1 ISZERO PUSH2 0x3A07 JUMPI PUSH1 0xFF PUSH2 0x39C1 SWAP2 PUSH2 0x3B61 SWAP5 PUSH1 0x0 SWAP2 PUSH2 0x39D9 JUMPI POP AND PUSH2 0x3889 JUMP JUMPDEST SWAP2 DUP2 ISZERO PUSH2 0x383C JUMPI PUSH1 0x18 ADD SLOAD SWAP2 DIV GT ISZERO SWAP1 JUMP JUMPDEST SWAP1 CALLDATALOAD SWAP1 PUSH1 0x1E NOT DUP2 CALLDATASIZE SUB ADD DUP3 SLT ISZERO PUSH2 0x2B4 JUMPI ADD DUP1 CALLDATALOAD SWAP1 PUSH8 0xFFFFFFFFFFFFFFFF DUP3 GT PUSH2 0x2B4 JUMPI PUSH1 0x20 ADD SWAP2 DUP2 CALLDATASIZE SUB DUP4 SGT PUSH2 0x2B4 JUMPI JUMP JUMPDEST ISZERO PUSH2 0x3BAD JUMPI JUMP JUMPDEST PUSH1 0x84 PUSH1 0x40 MLOAD PUSH3 0x461BCD PUSH1 0xE5 SHL DUP2 MSTORE PUSH1 0x20 PUSH1 0x4 DUP3 ADD MSTORE PUSH1 0x33 PUSH1 0x24 DUP3 ADD MSTORE PUSH32 0x54696D657374616D703A206D75737420626520657175616C206F722067726561 PUSH1 0x44 DUP3 ADD MSTORE PUSH32 0x746572207468616E20626C6F636B2074696D6500000000000000000000000000 PUSH1 0x64 DUP3 ADD MSTORE REVERT JUMPDEST ISZERO PUSH2 0x3C1E JUMPI JUMP JUMPDEST PUSH1 0x84 PUSH1 0x40 MLOAD PUSH3 0x461BCD PUSH1 0xE5 SHL DUP2 MSTORE PUSH1 0x20 PUSH1 0x4 DUP3 ADD MSTORE PUSH1 0x2F PUSH1 0x24 DUP3 ADD MSTORE PUSH32 0x4672657175656E63793A206D75737420626520657175616C206F722067726561 PUSH1 0x44 DUP3 ADD MSTORE PUSH32 0x746572207468616E203120686F75720000000000000000000000000000000000 PUSH1 0x64 DUP3 ADD MSTORE REVERT JUMPDEST CALLDATALOAD PUSH1 0x1 PUSH1 0x1 PUSH1 0xA0 SHL SUB DUP2 AND DUP2 SUB PUSH2 0x2B4 JUMPI SWAP1 JUMP JUMPDEST SWAP1 CALLDATALOAD SWAP1 PUSH1 0x1E NOT DUP2 CALLDATASIZE SUB ADD DUP3 SLT ISZERO PUSH2 0x2B4 JUMPI ADD DUP1 CALLDATALOAD SWAP1 PUSH8 0xFFFFFFFFFFFFFFFF DUP3 GT PUSH2 0x2B4 JUMPI PUSH1 0x20 ADD SWAP2 DUP2 PUSH1 0x6 SHL CALLDATASIZE SUB DUP4 SGT PUSH2 0x2B4 JUMPI JUMP JUMPDEST SWAP2 SWAP1 DUP2 LT ISZERO PUSH2 0x3CE2 JUMPI PUSH1 0x6 SHL ADD SWAP1 JUMP JUMPDEST PUSH4 0x4E487B71 PUSH1 0xE0 SHL PUSH1 0x0 MSTORE PUSH1 0x32 PUSH1 0x4 MSTORE PUSH1 0x24 PUSH1 0x0 REVERT JUMPDEST ISZERO PUSH2 0x3CFF JUMPI JUMP JUMPDEST PUSH1 0x84 PUSH1 0x40 MLOAD PUSH3 0x461BCD PUSH1 0xE5 SHL DUP2 MSTORE PUSH1 0x20 PUSH1 0x4 DUP3 ADD MSTORE PUSH1 0x25 PUSH1 0x24 DUP3 ADD MSTORE PUSH32 0x53746F70436F6E646974696F6E3A2076616C7565206D757374206E6F74206265 PUSH1 0x44 DUP3 ADD MSTORE PUSH32 0x207A65726F000000000000000000000000000000000000000000000000000000 PUSH1 0x64 DUP3 ADD MSTORE REVERT JUMPDEST ISZERO PUSH2 0x3D70 JUMPI JUMP JUMPDEST PUSH1 0x64 PUSH1 0x40 MLOAD PUSH3 0x461BCD PUSH1 0xE5 SHL DUP2 MSTORE PUSH1 0x20 PUSH1 0x4 DUP3 ADD MSTORE PUSH1 0x1E PUSH1 0x24 DUP3 ADD MSTORE PUSH32 0x56616C7565436F6D70617269736F6E3A20696E76616C69642076616C75650000 PUSH1 0x44 DUP3 ADD MSTORE REVERT JUMPDEST SWAP2 SWAP1 DUP3 PUSH1 0x60 SWAP2 SUB SLT PUSH2 0x2B4 JUMPI PUSH1 0x40 MLOAD PUSH2 0x3DCC DUP2 PUSH2 0x31FB JUMP JUMPDEST PUSH1 0x40 DUP2 SWAP4 DUP1 CALLDATALOAD DUP4 MSTORE PUSH1 0x20 DUP2 ADD CALLDATALOAD PUSH1 0x20 DUP5 ADD MSTORE ADD CALLDATALOAD SWAP1 PUSH1 0x7 DUP3 LT ISZERO PUSH2 0x2B4 JUMPI PUSH1 0x40 ADD MSTORE JUMP JUMPDEST SWAP3 SWAP2 SWAP3 PUSH2 0x3DFC DUP3 PUSH2 0x361C JUMP JUMPDEST PUSH1 0x40 SWAP3 PUSH2 0x3E0B DUP5 MLOAD SWAP3 DUP4 PUSH2 0x3233 JUMP JUMPDEST DUP2 SWAP6 DUP2 DUP4 MSTORE PUSH1 0x20 DUP1 SWAP4 ADD SWAP2 PUSH1 0x6 SHL DUP5 ADD SWAP4 DUP2 DUP6 GT PUSH2 0x2B4 JUMPI SWAP2 JUMPDEST DUP5 DUP4 LT PUSH2 0x3E34 JUMPI POP POP POP POP POP POP JUMP JUMPDEST DUP6 DUP4 DUP4 SUB SLT PUSH2 0x2B4 JUMPI DUP6 MLOAD SWAP1 PUSH2 0x3E49 DUP3 PUSH2 0x31DF JUMP JUMPDEST DUP4 CALLDATALOAD DUP3 MSTORE DUP5 DUP5 ADD CALLDATALOAD SWAP1 PUSH1 0x4 DUP3 LT ISZERO PUSH2 0x2B4 JUMPI DUP3 DUP7 SWAP3 DUP4 DUP11 SWAP6 ADD MSTORE DUP2 MSTORE ADD SWAP3 ADD SWAP2 PUSH2 0x3E25 JUMP JUMPDEST SWAP2 SWAP1 DUP3 PUSH1 0x40 SWAP2 SUB SLT PUSH2 0x2B4 JUMPI PUSH1 0x40 MLOAD PUSH2 0x3E86 DUP2 PUSH2 0x31DF JUMP JUMPDEST DUP1 SWAP3 DUP1 CALLDATALOAD PUSH1 0x4 DUP2 LT ISZERO PUSH2 0x2B4 JUMPI DUP3 MSTORE PUSH1 0x20 SWAP1 DUP2 ADD CALLDATALOAD SWAP2 ADD MSTORE JUMP JUMPDEST SWAP1 PUSH1 0x5 DUP2 LT ISZERO PUSH2 0xA97 JUMPI PUSH1 0xFF DUP1 NOT DUP4 SLOAD AND SWAP2 AND OR SWAP1 SSTORE JUMP JUMPDEST PUSH1 0x1 PUSH1 0x20 SWAP2 PUSH1 0xFF DUP2 SLOAD AND PUSH2 0x342D DUP2 PUSH2 0x3402 JUMP JUMPDEST PUSH2 0x3EDC PUSH2 0x340 DUP1 DUP5 MSTORE DUP4 ADD DUP3 PUSH2 0x3338 JUMP JUMPDEST SWAP2 PUSH1 0x1 DUP1 DUP4 ADD SLOAD SWAP1 PUSH1 0x20 SWAP2 DUP3 DUP5 ADD MSTORE PUSH1 0x2 SWAP5 DUP6 DUP6 ADD SLOAD SWAP6 PUSH1 0x40 SWAP7 DUP8 DUP7 ADD MSTORE PUSH1 0x3 DUP7 ADD SLOAD PUSH1 0x60 DUP7 ADD MSTORE PUSH1 0x4 DUP7 ADD SLOAD PUSH1 0x80 DUP7 ADD MSTORE PUSH1 0x5 DUP7 ADD SLOAD PUSH1 0xA0 DUP7 ADD MSTORE PUSH1 0x6 DUP7 ADD SLOAD PUSH1 0xC0 DUP7 ADD MSTORE PUSH1 0x7 DUP7 ADD SLOAD PUSH1 0xE0 DUP7 ADD MSTORE PUSH1 0x8 DUP7 ADD SLOAD PUSH2 0x100 DUP7 ADD MSTORE PUSH1 0x9 DUP7 ADD SLOAD PUSH2 0x120 DUP7 ADD MSTORE PUSH1 0xA DUP7 ADD SLOAD PUSH1 0xFF SWAP1 PUSH2 0x3F5A PUSH2 0x140 DUP9 ADD DUP4 DUP4 AND PUSH2 0x345B JUMP JUMPDEST PUSH1 0x1 PUSH1 0x1 PUSH1 0xA0 SHL SUB DUP1 SWAP2 PUSH1 0x8 SHR AND PUSH2 0x160 DUP9 ADD MSTORE DUP1 PUSH1 0xB DUP10 ADD SLOAD AND PUSH2 0x180 DUP9 ADD MSTORE DUP1 PUSH1 0xC DUP10 ADD SLOAD AND PUSH2 0x1A0 DUP9 ADD MSTORE PUSH1 0xD DUP9 ADD SLOAD AND PUSH2 0x1C0 DUP8 ADD MSTORE PUSH1 0xE DUP8 ADD SLOAD PUSH2 0x1E0 DUP8 ADD MSTORE PUSH1 0xF DUP8 ADD SLOAD PUSH2 0x200 DUP8 ADD MSTORE PUSH1 0x10 DUP8 ADD SLOAD PUSH2 0x220 DUP8 ADD MSTORE PUSH1 0x11 DUP8 ADD SLOAD PUSH2 0x240 DUP8 ADD MSTORE PUSH1 0x12 DUP8 ADD SLOAD PUSH2 0x260 DUP8 ADD MSTORE PUSH2 0x3FE0 DUP2 PUSH1 0x13 DUP10 ADD SLOAD AND PUSH2 0x280 DUP9 ADD SWAP1 PUSH2 0x3468 JUMP JUMPDEST PUSH1 0x14 DUP8 ADD SWAP8 DUP7 DUP5 SUB PUSH2 0x2A0 DUP9 ADD MSTORE DUP6 DUP10 SLOAD SWAP5 DUP6 DUP2 MSTORE ADD SWAP9 PUSH1 0x0 MSTORE DUP6 PUSH1 0x0 KECCAK256 SWAP6 PUSH1 0x0 SWAP3 JUMPDEST DUP6 DUP5 LT PUSH2 0x4035 JUMPI POP POP POP POP POP POP POP POP SWAP1 PUSH1 0x17 PUSH2 0x300 DUP4 PUSH2 0x402D PUSH2 0x2C0 PUSH2 0x32D8 SWAP7 ADD PUSH1 0x15 DUP7 ADD PUSH2 0x3EB8 JUMP JUMPDEST ADD SWAP2 ADD PUSH2 0x3EB8 JUMP JUMPDEST SWAP1 SWAP2 SWAP3 SWAP4 SWAP5 SWAP6 DUP6 DUP5 DUP10 SWAP13 DUP5 DUP5 DUP13 DUP2 SWAP14 SLOAD DUP5 MSTORE ADD SLOAD AND PUSH2 0x4053 DUP2 PUSH2 0x3402 JUMP JUMPDEST DUP2 DUP8 ADD MSTORE ADD SWAP12 ADD SWAP8 SWAP7 SWAP6 SWAP5 ADD SWAP3 SWAP2 SWAP1 PUSH2 0x4003 JUMP JUMPDEST CALLER PUSH1 0x0 SWAP1 DUP2 MSTORE PUSH32 0xABABAF7989D9B96DF7F991DAE98F597C453AF71E297BB6242F6602D99C1A6579 PUSH1 0x20 SWAP1 DUP2 MSTORE PUSH1 0x40 DUP1 DUP4 KECCAK256 SLOAD SWAP1 SWAP3 PUSH32 0xAB4F864E5201B0FDE9B5EE3E4CF96384802B0FFDFCF7F9DE4699CE21A30AFC4F SWAP2 PUSH1 0xFF AND ISZERO PUSH2 0x40CB JUMPI POP POP POP POP JUMP JUMPDEST PUSH2 0x40D4 CALLER PUSH2 0x43CF JUMP JUMPDEST SWAP2 DUP5 MLOAD SWAP1 PUSH2 0x40E1 DUP3 PUSH2 0x3217 JUMP JUMPDEST PUSH1 0x42 DUP3 MSTORE DUP5 DUP3 ADD SWAP3 PUSH1 0x60 CALLDATASIZE DUP6 CALLDATACOPY DUP3 MLOAD ISZERO PUSH2 0x4280 JUMPI PUSH1 0x30 DUP5 MSTORE8 DUP3 MLOAD SWAP1 PUSH1 0x1 SWAP2 DUP3 LT ISZERO PUSH2 0x4280 JUMPI SWAP1 PUSH1 0x78 PUSH1 0x21 DUP6 ADD MSTORE8 PUSH1 0x41 SWAP2 JUMPDEST DUP2 DUP4 GT PUSH2 0x4212 JUMPI POP POP POP PUSH2 0x41D0 JUMPI PUSH1 0x48 PUSH2 0x41CC SWAP4 DUP7 SWAP4 PUSH2 0x41B0 SWAP4 PUSH2 0x41A1 SWAP9 MLOAD SWAP9 DUP10 SWAP4 PUSH32 0x416363657373436F6E74726F6C3A206163636F756E7420000000000000000000 DUP11 DUP7 ADD MSTORE PUSH2 0x416C DUP2 MLOAD DUP1 SWAP3 DUP13 PUSH1 0x37 DUP10 ADD SWAP2 ADD PUSH2 0x32DB JUMP JUMPDEST DUP5 ADD SWAP2 PUSH32 0x206973206D697373696E6720726F6C6520000000000000000000000000000000 PUSH1 0x37 DUP5 ADD MSTORE MLOAD DUP1 SWAP4 DUP7 DUP5 ADD SWAP1 PUSH2 0x32DB JUMP JUMPDEST ADD SUB PUSH1 0x28 DUP2 ADD DUP8 MSTORE ADD DUP6 PUSH2 0x3233 JUMP JUMPDEST MLOAD SWAP3 DUP4 SWAP3 PUSH3 0x461BCD PUSH1 0xE5 SHL DUP5 MSTORE PUSH1 0x4 DUP5 ADD MSTORE PUSH1 0x24 DUP4 ADD SWAP1 PUSH2 0x3436 JUMP JUMPDEST SUB SWAP1 REVERT JUMPDEST PUSH1 0x64 DUP5 DUP7 MLOAD SWAP1 PUSH3 0x461BCD PUSH1 0xE5 SHL DUP3 MSTORE DUP1 PUSH1 0x4 DUP4 ADD MSTORE PUSH1 0x24 DUP3 ADD MSTORE PUSH32 0x537472696E67733A20686578206C656E67746820696E73756666696369656E74 PUSH1 0x44 DUP3 ADD MSTORE REVERT JUMPDEST SWAP1 SWAP2 SWAP3 PUSH1 0xF DUP2 AND PUSH1 0x10 DUP2 LT ISZERO PUSH2 0x426C JUMPI PUSH16 0x181899199A1A9B1B9C1CB0B131B232B3 PUSH1 0x81 SHL SWAP1 BYTE PUSH2 0x4242 DUP6 DUP8 PUSH2 0x43BE JUMP JUMPDEST MSTORE8 PUSH1 0x4 SHR SWAP3 DUP1 ISZERO PUSH2 0x4258 JUMPI PUSH1 0x0 NOT ADD SWAP2 SWAP1 PUSH2 0x4112 JUMP JUMPDEST PUSH1 0x24 DUP3 PUSH4 0x4E487B71 PUSH1 0xE0 SHL DUP2 MSTORE PUSH1 0x11 PUSH1 0x4 MSTORE REVERT JUMPDEST PUSH1 0x24 DUP4 PUSH4 0x4E487B71 PUSH1 0xE0 SHL DUP2 MSTORE PUSH1 0x32 PUSH1 0x4 MSTORE REVERT JUMPDEST DUP1 PUSH4 0x4E487B71 PUSH1 0xE0 SHL PUSH1 0x24 SWAP3 MSTORE PUSH1 0x32 PUSH1 0x4 MSTORE REVERT JUMPDEST CALLER PUSH1 0x0 SWAP1 DUP2 MSTORE PUSH32 0x81FE90A866A48A634A12852C1BE675B683A22307409932A7443B8029347BE756 PUSH1 0x20 SWAP1 DUP2 MSTORE PUSH1 0x40 DUP1 DUP4 KECCAK256 SLOAD SWAP1 SWAP3 SWAP1 PUSH1 0xFF AND ISZERO PUSH2 0x42D6 JUMPI POP POP POP JUMP JUMPDEST PUSH2 0x42DF CALLER PUSH2 0x43CF JUMP JUMPDEST SWAP1 DUP1 DUP5 MLOAD SWAP1 PUSH2 0x42ED DUP3 PUSH2 0x3217 JUMP JUMPDEST PUSH1 0x42 DUP3 MSTORE DUP5 DUP3 ADD SWAP3 PUSH1 0x60 CALLDATASIZE DUP6 CALLDATACOPY DUP3 MLOAD ISZERO PUSH2 0x4280 JUMPI PUSH1 0x30 DUP5 MSTORE8 DUP3 MLOAD SWAP1 PUSH1 0x1 SWAP2 DUP3 LT ISZERO PUSH2 0x4280 JUMPI SWAP1 PUSH1 0x78 PUSH1 0x21 DUP6 ADD MSTORE8 PUSH1 0x41 SWAP2 JUMPDEST DUP2 DUP4 GT PUSH2 0x4378 JUMPI POP POP POP PUSH2 0x41D0 JUMPI PUSH1 0x48 PUSH2 0x41CC SWAP4 DUP7 SWAP4 PUSH2 0x41B0 SWAP4 PUSH2 0x41A1 SWAP9 MLOAD SWAP9 DUP10 SWAP4 PUSH32 0x416363657373436F6E74726F6C3A206163636F756E7420000000000000000000 DUP11 DUP7 ADD MSTORE PUSH2 0x416C DUP2 MLOAD DUP1 SWAP3 DUP13 PUSH1 0x37 DUP10 ADD SWAP2 ADD PUSH2 0x32DB JUMP JUMPDEST SWAP1 SWAP2 SWAP3 PUSH1 0xF DUP2 AND PUSH1 0x10 DUP2 LT ISZERO PUSH2 0x426C JUMPI PUSH16 0x181899199A1A9B1B9C1CB0B131B232B3 PUSH1 0x81 SHL SWAP1 BYTE PUSH2 0x43A8 DUP6 DUP8 PUSH2 0x43BE JUMP JUMPDEST MSTORE8 PUSH1 0x4 SHR SWAP3 DUP1 ISZERO PUSH2 0x4258 JUMPI PUSH1 0x0 NOT ADD SWAP2 SWAP1 PUSH2 0x431E JUMP JUMPDEST SWAP1 DUP2 MLOAD DUP2 LT ISZERO PUSH2 0x3CE2 JUMPI ADD PUSH1 0x20 ADD SWAP1 JUMP JUMPDEST PUSH1 0x40 MLOAD SWAP1 PUSH2 0x43DC DUP3 PUSH2 0x31FB JUMP JUMPDEST PUSH1 0x2A DUP3 MSTORE PUSH1 0x20 DUP3 ADD PUSH1 0x40 CALLDATASIZE DUP3 CALLDATACOPY DUP3 MLOAD ISZERO PUSH2 0x3CE2 JUMPI PUSH1 0x30 SWAP1 MSTORE8 DUP2 MLOAD PUSH1 0x1 SWAP1 DUP2 LT ISZERO PUSH2 0x3CE2 JUMPI PUSH1 0x78 PUSH1 0x21 DUP5 ADD MSTORE8 PUSH1 0x29 SWAP1 JUMPDEST DUP1 DUP3 GT PUSH2 0x445F JUMPI POP POP PUSH2 0x441B JUMPI SWAP1 JUMP JUMPDEST PUSH1 0x64 PUSH1 0x40 MLOAD PUSH3 0x461BCD PUSH1 0xE5 SHL DUP2 MSTORE PUSH1 0x20 PUSH1 0x4 DUP3 ADD MSTORE PUSH1 0x20 PUSH1 0x24 DUP3 ADD MSTORE PUSH32 0x537472696E67733A20686578206C656E67746820696E73756666696369656E74 PUSH1 0x44 DUP3 ADD MSTORE REVERT JUMPDEST SWAP1 SWAP2 PUSH1 0xF DUP2 AND PUSH1 0x10 DUP2 LT ISZERO PUSH2 0x44B8 JUMPI PUSH16 0x181899199A1A9B1B9C1CB0B131B232B3 PUSH1 0x81 SHL SWAP1 BYTE PUSH2 0x448E DUP5 DUP7 PUSH2 0x43BE JUMP JUMPDEST MSTORE8 PUSH1 0x4 SHR SWAP2 DUP1 ISZERO PUSH2 0x44A3 JUMPI PUSH1 0x0 NOT ADD SWAP1 PUSH2 0x440B JUMP JUMPDEST PUSH1 0x24 PUSH1 0x0 PUSH4 0x4E487B71 PUSH1 0xE0 SHL DUP2 MSTORE PUSH1 0x11 PUSH1 0x4 MSTORE REVERT JUMPDEST PUSH1 0x24 PUSH1 0x0 PUSH4 0x4E487B71 PUSH1 0xE0 SHL DUP2 MSTORE PUSH1 0x32 PUSH1 0x4 MSTORE REVERT JUMPDEST DUP3 PUSH2 0x32D8 SWAP5 SWAP4 PUSH1 0x60 SWAP4 PUSH1 0x40 DUP5 MSTORE DUP2 PUSH1 0x40 DUP6 ADD MSTORE DUP5 DUP5 ADD CALLDATACOPY PUSH1 0x0 DUP4 DUP3 DUP5 ADD ADD MSTORE PUSH1 0x1F DUP1 NOT SWAP2 ADD AND DUP2 ADD SWAP1 PUSH1 0x20 DUP4 DUP3 DUP5 SUB ADD SWAP2 ADD MSTORE ADD SWAP1 PUSH2 0x3ECB JUMP JUMPDEST ISZERO PUSH2 0x450E JUMPI JUMP JUMPDEST PUSH1 0x84 PUSH1 0x40 MLOAD PUSH3 0x461BCD PUSH1 0xE5 SHL DUP2 MSTORE PUSH1 0x20 PUSH1 0x4 DUP3 ADD MSTORE PUSH1 0x2B PUSH1 0x24 DUP3 ADD MSTORE PUSH32 0x4F7065726174696F6E206572726F723A206F7065726174696F6E206973206E6F PUSH1 0x44 DUP3 ADD MSTORE PUSH32 0x74207065726D6974746564000000000000000000000000000000000000000000 PUSH1 0x64 DUP3 ADD MSTORE REVERT JUMPDEST ISZERO PUSH2 0x457F JUMPI JUMP JUMPDEST PUSH1 0x84 PUSH1 0x40 MLOAD PUSH3 0x461BCD PUSH1 0xE5 SHL DUP2 MSTORE PUSH1 0x20 PUSH1 0x4 DUP3 ADD MSTORE PUSH1 0x23 PUSH1 0x24 DUP3 ADD MSTORE PUSH32 0x5065726D697373696F6E3A206E6F74207065726D6974746564206F7065726174 PUSH1 0x44 DUP3 ADD MSTORE PUSH32 0x696F6E0000000000000000000000000000000000000000000000000000000000 PUSH1 0x64 DUP3 ADD MSTORE REVERT JUMPDEST ISZERO PUSH2 0x45F0 JUMPI JUMP JUMPDEST PUSH1 0x84 PUSH1 0x40 MLOAD PUSH3 0x461BCD PUSH1 0xE5 SHL DUP2 MSTORE PUSH1 0x20 PUSH1 0x4 DUP3 ADD MSTORE PUSH1 0x2B PUSH1 0x24 DUP3 ADD MSTORE PUSH32 0x496E697469616C697A61626C653A20636F6E7472616374206973206E6F742069 PUSH1 0x44 DUP3 ADD MSTORE PUSH32 0x6E697469616C697A696E67000000000000000000000000000000000000000000 PUSH1 0x64 DUP3 ADD MSTORE REVERT INVALID LOG2 PUSH5 0x6970667358 0x22 SLT KECCAK256 0x5C DUP8 JUMPI CODECOPY 0xAE 0xDB SWAP10 CALLCODE 0xD1 0x5F 0xBD SWAP9 0xED SWAP16 PUSH26 0x1B3363B997981618DA4AC6A84003298C7A64736F6C6343000813 STOP CALLER "},"methodIdentifiers":{"DEFAULT_ADMIN_ROLE()":"a217fddf","OPERATOR()":"983d2737","PERCENTAGE_PRECISION()":"e256888f","RELAYER()":"2483e715","allowedInteractiveAddresses(address)":"8dea81e7","blacklistedIdMap(string)":"a6ceadba","getBalanceInfoOf(string)":"9888b5ab","getOwnerOf(string)":"bef48ddf","getRoleAdmin(bytes32)":"248a9ca3","getStopConditionsOf(string)":"a58b4069","getTradingInfoOf(string)":"e058d724","grantRole(bytes32,address)":"2f2ff15d","hasRole(bytes32,address)":"91d14854","initialize()":"8129fc1c","initializeUserPocket((string,address,address,address,address,uint256,uint256,(uint256,uint8)[],uint256,(uint256,uint256,uint8),(uint8,uint256),(uint8,uint256)))":"e92c3598","isAbleToClose(string,address)":"e6068d01","isAbleToDeposit(string,address)":"4418eb00","isAbleToPause(string,address)":"9d92d737","isAbleToRestart(string,address)":"80b443c3","isAbleToUpdate(string,address)":"b612f866","isAbleToWithdraw(string,address)":"7bc03940","isOwnerOf(string,address)":"819e8a3a","isReadyToClosePosition(string)":"b3fd1da5","isReadyToSwap(string)":"c11bc90f","owner()":"8da5cb5b","pause()":"8456cb59","paused()":"5c975abb","pockets(string)":"8321d278","renounceOwnership()":"715018a6","renounceRole(bytes32,address)":"36568abe","revokeRole(bytes32,address)":"d547741f","shouldClosePocket(string)":"534ca7a2","shouldOpenPosition(string,uint256,uint256)":"125167ef","shouldStopLoss(string,uint256,uint256)":"d3fc80d9","shouldTakeProfit(string,uint256,uint256)":"1416642e","supportsInterface(bytes4)":"01ffc9a7","transferOwnership(address)":"f2fde38b","unpause()":"3f4ba83a","updatePocket((string,uint256,uint256,(uint256,uint8)[],uint256,(uint256,uint256,uint8),(uint8,uint256),(uint8,uint256)),string)":"3740c183","updatePocketClosingPositionStats((string,address,uint256,uint256),string)":"b48093e1","updatePocketDepositStats((address,string,uint256,address),string)":"99ba8057","updatePocketStatus((address,string,uint8),string)":"e1386824","updatePocketTradingStats((address,string,uint256,uint256),string)":"368e0b6c","updatePocketWithdrawalStats((address,string),string)":"bcf7a122","whitelistAddress(address,bool)":"b9a45aac"}},"storageLayout":{"storage":[{"astId":547,"contract":"contracts/PocketRegistry.sol:PocketRegistry","label":"_initialized","offset":0,"slot":"0","type":"t_uint8"},{"astId":550,"contract":"contracts/PocketRegistry.sol:PocketRegistry","label":"_initializing","offset":1,"slot":"0","type":"t_bool"},{"astId":1234,"contract":"contracts/PocketRegistry.sol:PocketRegistry","label":"__gap","offset":0,"slot":"1","type":"t_array(t_uint256)50_storage"},{"astId":730,"contract":"contracts/PocketRegistry.sol:PocketRegistry","label":"_paused","offset":0,"slot":"51","type":"t_bool"},{"astId":835,"contract":"contracts/PocketRegistry.sol:PocketRegistry","label":"__gap","offset":0,"slot":"52","type":"t_array(t_uint256)49_storage"},{"astId":850,"contract":"contracts/PocketRegistry.sol:PocketRegistry","label":"_status","offset":0,"slot":"101","type":"t_uint256"},{"astId":908,"contract":"contracts/PocketRegistry.sol:PocketRegistry","label":"__gap","offset":0,"slot":"102","type":"t_array(t_uint256)49_storage"},{"astId":1562,"contract":"contracts/PocketRegistry.sol:PocketRegistry","label":"__gap","offset":0,"slot":"151","type":"t_array(t_uint256)50_storage"},{"astId":39,"contract":"contracts/PocketRegistry.sol:PocketRegistry","label":"_roles","offset":0,"slot":"201","type":"t_mapping(t_bytes32,t_struct(RoleData)34_storage)"},{"astId":334,"contract":"contracts/PocketRegistry.sol:PocketRegistry","label":"__gap","offset":0,"slot":"202","type":"t_array(t_uint256)49_storage"},{"astId":419,"contract":"contracts/PocketRegistry.sol:PocketRegistry","label":"_owner","offset":0,"slot":"251","type":"t_address"},{"astId":539,"contract":"contracts/PocketRegistry.sol:PocketRegistry","label":"__gap","offset":0,"slot":"252","type":"t_array(t_uint256)49_storage"},{"astId":7647,"contract":"contracts/PocketRegistry.sol:PocketRegistry","label":"allowedInteractiveAddresses","offset":0,"slot":"301","type":"t_mapping(t_address,t_bool)"},{"astId":7653,"contract":"contracts/PocketRegistry.sol:PocketRegistry","label":"pockets","offset":0,"slot":"302","type":"t_mapping(t_string_memory_ptr,t_struct(Pocket)10371_storage)"},{"astId":7658,"contract":"contracts/PocketRegistry.sol:PocketRegistry","label":"blacklistedIdMap","offset":0,"slot":"303","type":"t_mapping(t_string_memory_ptr,t_bool)"}],"types":{"t_address":{"encoding":"inplace","label":"address","numberOfBytes":"20"},"t_array(t_struct(StopCondition)10315_storage)dyn_storage":{"base":"t_struct(StopCondition)10315_storage","encoding":"dynamic_array","label":"struct Types.StopCondition[]","numberOfBytes":"32"},"t_array(t_uint256)49_storage":{"base":"t_uint256","encoding":"inplace","label":"uint256[49]","numberOfBytes":"1568"},"t_array(t_uint256)50_storage":{"base":"t_uint256","encoding":"inplace","label":"uint256[50]","numberOfBytes":"1600"},"t_bool":{"encoding":"inplace","label":"bool","numberOfBytes":"1"},"t_bytes32":{"encoding":"inplace","label":"bytes32","numberOfBytes":"32"},"t_enum(PocketStatus)10277":{"encoding":"inplace","label":"enum Types.PocketStatus","numberOfBytes":"1"},"t_enum(StopConditionOperator)10309":{"encoding":"inplace","label":"enum Types.StopConditionOperator","numberOfBytes":"1"},"t_enum(TradingStopConditionType)10298":{"encoding":"inplace","label":"enum Types.TradingStopConditionType","numberOfBytes":"1"},"t_enum(ValueComparisonOperator)10285":{"encoding":"inplace","label":"enum Types.ValueComparisonOperator","numberOfBytes":"1"},"t_mapping(t_address,t_bool)":{"encoding":"mapping","key":"t_address","label":"mapping(address => bool)","numberOfBytes":"32","value":"t_bool"},"t_mapping(t_bytes32,t_struct(RoleData)34_storage)":{"encoding":"mapping","key":"t_bytes32","label":"mapping(bytes32 => struct AccessControlUpgradeable.RoleData)","numberOfBytes":"32","value":"t_struct(RoleData)34_storage"},"t_mapping(t_string_memory_ptr,t_bool)":{"encoding":"mapping","key":"t_string_memory_ptr","label":"mapping(string => bool)","numberOfBytes":"32","value":"t_bool"},"t_mapping(t_string_memory_ptr,t_struct(Pocket)10371_storage)":{"encoding":"mapping","key":"t_string_memory_ptr","label":"mapping(string => struct Types.Pocket)","numberOfBytes":"32","value":"t_struct(Pocket)10371_storage"},"t_string_memory_ptr":{"encoding":"bytes","label":"string","numberOfBytes":"32"},"t_string_storage":{"encoding":"bytes","label":"string","numberOfBytes":"32"},"t_struct(Pocket)10371_storage":{"encoding":"inplace","label":"struct Types.Pocket","members":[{"astId":10318,"contract":"contracts/PocketRegistry.sol:PocketRegistry","label":"id","offset":0,"slot":"0","type":"t_string_storage"},{"astId":10321,"contract":"contracts/PocketRegistry.sol:PocketRegistry","label":"totalDepositedBaseAmount","offset":0,"slot":"1","type":"t_uint256"},{"astId":10323,"contract":"contracts/PocketRegistry.sol:PocketRegistry","label":"totalSwappedBaseAmount","offset":0,"slot":"2","type":"t_uint256"},{"astId":10325,"contract":"contracts/PocketRegistry.sol:PocketRegistry","label":"totalReceivedTargetAmount","offset":0,"slot":"3","type":"t_uint256"},{"astId":10327,"contract":"contracts/PocketRegistry.sol:PocketRegistry","label":"totalClosedPositionInTargetTokenAmount","offset":0,"slot":"4","type":"t_uint256"},{"astId":10329,"contract":"contracts/PocketRegistry.sol:PocketRegistry","label":"totalReceivedFundInBaseTokenAmount","offset":0,"slot":"5","type":"t_uint256"},{"astId":10331,"contract":"contracts/PocketRegistry.sol:PocketRegistry","label":"baseTokenBalance","offset":0,"slot":"6","type":"t_uint256"},{"astId":10333,"contract":"contracts/PocketRegistry.sol:PocketRegistry","label":"targetTokenBalance","offset":0,"slot":"7","type":"t_uint256"},{"astId":10335,"contract":"contracts/PocketRegistry.sol:PocketRegistry","label":"executedBatchAmount","offset":0,"slot":"8","type":"t_uint256"},{"astId":10337,"contract":"contracts/PocketRegistry.sol:PocketRegistry","label":"nextScheduledExecutionAt","offset":0,"slot":"9","type":"t_uint256"},{"astId":10340,"contract":"contracts/PocketRegistry.sol:PocketRegistry","label":"status","offset":0,"slot":"10","type":"t_enum(PocketStatus)10277"},{"astId":10343,"contract":"contracts/PocketRegistry.sol:PocketRegistry","label":"owner","offset":1,"slot":"10","type":"t_address"},{"astId":10346,"contract":"contracts/PocketRegistry.sol:PocketRegistry","label":"ammRouterAddress","offset":0,"slot":"11","type":"t_address"},{"astId":10348,"contract":"contracts/PocketRegistry.sol:PocketRegistry","label":"baseTokenAddress","offset":0,"slot":"12","type":"t_address"},{"astId":10350,"contract":"contracts/PocketRegistry.sol:PocketRegistry","label":"targetTokenAddress","offset":0,"slot":"13","type":"t_address"},{"astId":10353,"contract":"contracts/PocketRegistry.sol:PocketRegistry","label":"startAt","offset":0,"slot":"14","type":"t_uint256"},{"astId":10355,"contract":"contracts/PocketRegistry.sol:PocketRegistry","label":"batchVolume","offset":0,"slot":"15","type":"t_uint256"},{"astId":10357,"contract":"contracts/PocketRegistry.sol:PocketRegistry","label":"frequency","offset":0,"slot":"16","type":"t_uint256"},{"astId":10360,"contract":"contracts/PocketRegistry.sol:PocketRegistry","label":"openingPositionCondition","offset":0,"slot":"17","type":"t_struct(ValueComparison)10293_storage"},{"astId":10364,"contract":"contracts/PocketRegistry.sol:PocketRegistry","label":"stopConditions","offset":0,"slot":"20","type":"t_array(t_struct(StopCondition)10315_storage)dyn_storage"},{"astId":10367,"contract":"contracts/PocketRegistry.sol:PocketRegistry","label":"takeProfitCondition","offset":0,"slot":"21","type":"t_struct(TradingStopCondition)10304_storage"},{"astId":10370,"contract":"contracts/PocketRegistry.sol:PocketRegistry","label":"stopLossCondition","offset":0,"slot":"23","type":"t_struct(TradingStopCondition)10304_storage"}],"numberOfBytes":"800"},"t_struct(RoleData)34_storage":{"encoding":"inplace","label":"struct AccessControlUpgradeable.RoleData","members":[{"astId":31,"contract":"contracts/PocketRegistry.sol:PocketRegistry","label":"members","offset":0,"slot":"0","type":"t_mapping(t_address,t_bool)"},{"astId":33,"contract":"contracts/PocketRegistry.sol:PocketRegistry","label":"adminRole","offset":0,"slot":"1","type":"t_bytes32"}],"numberOfBytes":"64"},"t_struct(StopCondition)10315_storage":{"encoding":"inplace","label":"struct Types.StopCondition","members":[{"astId":10311,"contract":"contracts/PocketRegistry.sol:PocketRegistry","label":"value","offset":0,"slot":"0","type":"t_uint256"},{"astId":10314,"contract":"contracts/PocketRegistry.sol:PocketRegistry","label":"operator","offset":0,"slot":"1","type":"t_enum(StopConditionOperator)10309"}],"numberOfBytes":"64"},"t_struct(TradingStopCondition)10304_storage":{"encoding":"inplace","label":"struct Types.TradingStopCondition","members":[{"astId":10301,"contract":"contracts/PocketRegistry.sol:PocketRegistry","label":"stopType","offset":0,"slot":"0","type":"t_enum(TradingStopConditionType)10298"},{"astId":10303,"contract":"contracts/PocketRegistry.sol:PocketRegistry","label":"value","offset":0,"slot":"1","type":"t_uint256"}],"numberOfBytes":"64"},"t_struct(ValueComparison)10293_storage":{"encoding":"inplace","label":"struct Types.ValueComparison","members":[{"astId":10287,"contract":"contracts/PocketRegistry.sol:PocketRegistry","label":"value0","offset":0,"slot":"0","type":"t_uint256"},{"astId":10289,"contract":"contracts/PocketRegistry.sol:PocketRegistry","label":"value1","offset":0,"slot":"1","type":"t_uint256"},{"astId":10292,"contract":"contracts/PocketRegistry.sol:PocketRegistry","label":"operator","offset":0,"slot":"2","type":"t_enum(ValueComparisonOperator)10285"}],"numberOfBytes":"96"},"t_uint256":{"encoding":"inplace","label":"uint256","numberOfBytes":"32"},"t_uint8":{"encoding":"inplace","label":"uint8","numberOfBytes":"1"}}}}}}