{"contracts/PocketChef.sol":{"PocketChef":{"abi":[{"inputs":[],"stateMutability":"nonpayable","type":"constructor"},{"anonymous":false,"inputs":[{"indexed":false,"internalType":"uint8","name":"version","type":"uint8"}],"name":"Initialized","type":"event"},{"anonymous":false,"inputs":[{"indexed":true,"internalType":"address","name":"previousOwner","type":"address"},{"indexed":true,"internalType":"address","name":"newOwner","type":"address"}],"name":"OwnershipTransferred","type":"event"},{"anonymous":false,"inputs":[{"indexed":false,"internalType":"address","name":"account","type":"address"}],"name":"Paused","type":"event"},{"anonymous":false,"inputs":[{"indexed":true,"internalType":"address","name":"actor","type":"address"},{"indexed":false,"internalType":"address","name":"updatedAddress","type":"address"}],"name":"RegistryUpdated","type":"event"},{"anonymous":false,"inputs":[{"indexed":false,"internalType":"address","name":"account","type":"address"}],"name":"Unpaused","type":"event"},{"anonymous":false,"inputs":[{"indexed":true,"internalType":"address","name":"actor","type":"address"},{"indexed":false,"internalType":"address","name":"updatedAddress","type":"address"}],"name":"VaultUpdated","type":"event"},{"inputs":[{"internalType":"string","name":"pocketId","type":"string"}],"name":"closePocket","outputs":[],"stateMutability":"nonpayable","type":"function"},{"inputs":[{"components":[{"internalType":"string","name":"id","type":"string"},{"internalType":"address","name":"owner","type":"address"},{"internalType":"address","name":"ammRouterAddress","type":"address"},{"internalType":"address","name":"baseTokenAddress","type":"address"},{"internalType":"address","name":"targetTokenAddress","type":"address"},{"internalType":"uint256","name":"startAt","type":"uint256"},{"internalType":"uint256","name":"batchVolume","type":"uint256"},{"components":[{"internalType":"uint256","name":"value","type":"uint256"},{"internalType":"enum Types.StopConditionOperator","name":"operator","type":"uint8"}],"internalType":"struct Types.StopCondition[]","name":"stopConditions","type":"tuple[]"},{"internalType":"uint256","name":"frequency","type":"uint256"},{"components":[{"internalType":"uint256","name":"value0","type":"uint256"},{"internalType":"uint256","name":"value1","type":"uint256"},{"internalType":"enum Types.ValueComparisonOperator","name":"operator","type":"uint8"}],"internalType":"struct Types.ValueComparison","name":"openingPositionCondition","type":"tuple"},{"components":[{"internalType":"enum Types.TradingStopConditionType","name":"stopType","type":"uint8"},{"internalType":"uint256","name":"value","type":"uint256"}],"internalType":"struct Types.TradingStopCondition","name":"takeProfitCondition","type":"tuple"},{"components":[{"internalType":"enum Types.TradingStopConditionType","name":"stopType","type":"uint8"},{"internalType":"uint256","name":"value","type":"uint256"}],"internalType":"struct Types.TradingStopCondition","name":"stopLossCondition","type":"tuple"}],"internalType":"struct Params.CreatePocketParams","name":"params","type":"tuple"}],"name":"createPocket","outputs":[],"stateMutability":"nonpayable","type":"function"},{"inputs":[{"components":[{"internalType":"string","name":"id","type":"string"},{"internalType":"address","name":"owner","type":"address"},{"internalType":"address","name":"ammRouterAddress","type":"address"},{"internalType":"address","name":"baseTokenAddress","type":"address"},{"internalType":"address","name":"targetTokenAddress","type":"address"},{"internalType":"uint256","name":"startAt","type":"uint256"},{"internalType":"uint256","name":"batchVolume","type":"uint256"},{"components":[{"internalType":"uint256","name":"value","type":"uint256"},{"internalType":"enum Types.StopConditionOperator","name":"operator","type":"uint8"}],"internalType":"struct Types.StopCondition[]","name":"stopConditions","type":"tuple[]"},{"internalType":"uint256","name":"frequency","type":"uint256"},{"components":[{"internalType":"uint256","name":"value0","type":"uint256"},{"internalType":"uint256","name":"value1","type":"uint256"},{"internalType":"enum Types.ValueComparisonOperator","name":"operator","type":"uint8"}],"internalType":"struct Types.ValueComparison","name":"openingPositionCondition","type":"tuple"},{"components":[{"internalType":"enum Types.TradingStopConditionType","name":"stopType","type":"uint8"},{"internalType":"uint256","name":"value","type":"uint256"}],"internalType":"struct Types.TradingStopCondition","name":"takeProfitCondition","type":"tuple"},{"components":[{"internalType":"enum Types.TradingStopConditionType","name":"stopType","type":"uint8"},{"internalType":"uint256","name":"value","type":"uint256"}],"internalType":"struct Types.TradingStopCondition","name":"stopLossCondition","type":"tuple"}],"internalType":"struct Params.CreatePocketParams","name":"params","type":"tuple"}],"name":"createPocketAndDepositEther","outputs":[],"stateMutability":"payable","type":"function"},{"inputs":[{"components":[{"internalType":"string","name":"id","type":"string"},{"internalType":"address","name":"owner","type":"address"},{"internalType":"address","name":"ammRouterAddress","type":"address"},{"internalType":"address","name":"baseTokenAddress","type":"address"},{"internalType":"address","name":"targetTokenAddress","type":"address"},{"internalType":"uint256","name":"startAt","type":"uint256"},{"internalType":"uint256","name":"batchVolume","type":"uint256"},{"components":[{"internalType":"uint256","name":"value","type":"uint256"},{"internalType":"enum Types.StopConditionOperator","name":"operator","type":"uint8"}],"internalType":"struct Types.StopCondition[]","name":"stopConditions","type":"tuple[]"},{"internalType":"uint256","name":"frequency","type":"uint256"},{"components":[{"internalType":"uint256","name":"value0","type":"uint256"},{"internalType":"uint256","name":"value1","type":"uint256"},{"internalType":"enum Types.ValueComparisonOperator","name":"operator","type":"uint8"}],"internalType":"struct Types.ValueComparison","name":"openingPositionCondition","type":"tuple"},{"components":[{"internalType":"enum Types.TradingStopConditionType","name":"stopType","type":"uint8"},{"internalType":"uint256","name":"value","type":"uint256"}],"internalType":"struct Types.TradingStopCondition","name":"takeProfitCondition","type":"tuple"},{"components":[{"internalType":"enum Types.TradingStopConditionType","name":"stopType","type":"uint8"},{"internalType":"uint256","name":"value","type":"uint256"}],"internalType":"struct Types.TradingStopCondition","name":"stopLossCondition","type":"tuple"}],"internalType":"struct Params.CreatePocketParams","name":"params","type":"tuple"},{"internalType":"uint256","name":"depositAmount","type":"uint256"}],"name":"createPocketAndDepositToken","outputs":[],"stateMutability":"nonpayable","type":"function"},{"inputs":[{"internalType":"string","name":"pocketId","type":"string"}],"name":"depositEther","outputs":[],"stateMutability":"payable","type":"function"},{"inputs":[{"internalType":"string","name":"pocketId","type":"string"},{"internalType":"uint256","name":"amount","type":"uint256"}],"name":"depositToken","outputs":[],"stateMutability":"nonpayable","type":"function"},{"inputs":[],"name":"initialize","outputs":[],"stateMutability":"nonpayable","type":"function"},{"inputs":[{"internalType":"bytes[]","name":"data","type":"bytes[]"}],"name":"multicall","outputs":[{"internalType":"bytes[]","name":"results","type":"bytes[]"}],"stateMutability":"nonpayable","type":"function"},{"inputs":[],"name":"owner","outputs":[{"internalType":"address","name":"","type":"address"}],"stateMutability":"view","type":"function"},{"inputs":[],"name":"pause","outputs":[],"stateMutability":"nonpayable","type":"function"},{"inputs":[{"internalType":"string","name":"pocketId","type":"string"}],"name":"pausePocket","outputs":[],"stateMutability":"nonpayable","type":"function"},{"inputs":[],"name":"paused","outputs":[{"internalType":"bool","name":"","type":"bool"}],"stateMutability":"view","type":"function"},{"inputs":[],"name":"registry","outputs":[{"internalType":"contract PocketRegistry","name":"","type":"address"}],"stateMutability":"view","type":"function"},{"inputs":[],"name":"renounceOwnership","outputs":[],"stateMutability":"nonpayable","type":"function"},{"inputs":[{"internalType":"string","name":"pocketId","type":"string"}],"name":"restartPocket","outputs":[],"stateMutability":"nonpayable","type":"function"},{"inputs":[{"internalType":"address","name":"registryAddress","type":"address"}],"name":"setRegistry","outputs":[],"stateMutability":"nonpayable","type":"function"},{"inputs":[{"internalType":"address","name":"vaultAddress","type":"address"}],"name":"setVault","outputs":[],"stateMutability":"nonpayable","type":"function"},{"inputs":[{"internalType":"address","name":"newOwner","type":"address"}],"name":"transferOwnership","outputs":[],"stateMutability":"nonpayable","type":"function"},{"inputs":[{"internalType":"string","name":"pocketId","type":"string"}],"name":"tryClosingPosition","outputs":[],"stateMutability":"nonpayable","type":"function"},{"inputs":[{"internalType":"string","name":"pocketId","type":"string"}],"name":"tryMakingDCASwap","outputs":[],"stateMutability":"nonpayable","type":"function"},{"inputs":[],"name":"unpause","outputs":[],"stateMutability":"nonpayable","type":"function"},{"inputs":[{"components":[{"internalType":"string","name":"id","type":"string"},{"internalType":"uint256","name":"startAt","type":"uint256"},{"internalType":"uint256","name":"batchVolume","type":"uint256"},{"components":[{"internalType":"uint256","name":"value","type":"uint256"},{"internalType":"enum Types.StopConditionOperator","name":"operator","type":"uint8"}],"internalType":"struct Types.StopCondition[]","name":"stopConditions","type":"tuple[]"},{"internalType":"uint256","name":"frequency","type":"uint256"},{"components":[{"internalType":"uint256","name":"value0","type":"uint256"},{"internalType":"uint256","name":"value1","type":"uint256"},{"internalType":"enum Types.ValueComparisonOperator","name":"operator","type":"uint8"}],"internalType":"struct Types.ValueComparison","name":"openingPositionCondition","type":"tuple"},{"components":[{"internalType":"enum Types.TradingStopConditionType","name":"stopType","type":"uint8"},{"internalType":"uint256","name":"value","type":"uint256"}],"internalType":"struct Types.TradingStopCondition","name":"takeProfitCondition","type":"tuple"},{"components":[{"internalType":"enum Types.TradingStopConditionType","name":"stopType","type":"uint8"},{"internalType":"uint256","name":"value","type":"uint256"}],"internalType":"struct Types.TradingStopCondition","name":"stopLossCondition","type":"tuple"}],"internalType":"struct Params.UpdatePocketParams","name":"params","type":"tuple"}],"name":"updatePocket","outputs":[],"stateMutability":"nonpayable","type":"function"},{"inputs":[],"name":"vault","outputs":[{"internalType":"contract PocketVault","name":"","type":"address"}],"stateMutability":"view","type":"function"},{"inputs":[{"internalType":"string","name":"pocketId","type":"string"}],"name":"withdraw","outputs":[],"stateMutability":"nonpayable","type":"function"}],"evm":{"bytecode":{"linkReferences":{},"object":"608080604052346100c2576000549060ff8260081c16610070575060ff80821610610035575b604051612d939081620000c88239f35b60ff90811916176000557f7f26b83ff96e1f2b6a682f133852f6798a09c465da95921460cefb3847402498602060405160ff8152a138610025565b62461bcd60e51b815260206004820152602760248201527f496e697469616c697a61626c653a20636f6e747261637420697320696e697469604482015266616c697a696e6760c81b6064820152608490fd5b600080fdfe6040608081526004908136101561001557600080fd5b600091823560e01c9081631cbe264a14611e9e57816331fb67c214611c5d5783826333ad57e414611c1f575081633f4ba83a14611b805781635c975abb14611b5c5781635e54c034146119195781636817031b146118a0578163715018a61461183757816377c763211461178a5781637b103999146117625781637fa97c26146115f95781638129fc1c146114715781638456cb59146113d05781638da5cb5b146113a8578163a91ee0dc1461132f578163ac9650d8146110d0578163aea7ed3714610e88578163cac9c001146108d0578163cbfc305b1461074357838263dc6514b61461041057508163e3135f0e146103f9578163e4a479b514610206578163f2fde38b14610159575063fbfa77cf1461012f57600080fd5b346101555781600319360112610155576020906001600160a01b0360fc54169051908152f35b5080fd5b90503461020257602036600319011261020257610174612394565b9161017d612431565b6001600160a01b03831615610199578361019684612489565b80f35b906020608492519162461bcd60e51b8352820152602660248201527f4f776e61626c653a206e6577206f776e657220697320746865207a65726f206160448201527f64647265737300000000000000000000000000000000000000000000000000006064820152fd5b8280fd5b8383346101555760209060031982813601126103f557843567ffffffffffffffff81116103f15761023a9036908701612366565b9390956001600160a01b0360fb54169084517f80b443c30000000000000000000000000000000000000000000000000000000081528381806102818c8b33918885016129f4565b0381865afa9081156103e75788916103ba575b5015610352576102b587988651976102ab89612540565b33895236916125e5565b83870152600185870152813b1561034e57868581957f555345525f5245535441525445445f504f434b45540000000000000000000000829661030e84519b8c998a9863384e1a0960e21b8a528901526044880190612ac7565b868103938401602488015260158152015201925af190811561034557506103325750f35b61033b90612510565b6103425780f35b80fd5b513d84823e3d90fd5b8680fd5b6084908386519162461bcd60e51b8352820152602660248201527f4f7065726174696f6e206572726f723a2063616e6e6f7420726573746172742060448201527f706f636b657400000000000000000000000000000000000000000000000000006064820152fd5b6103da9150843d86116103e0575b6103d2818361255c565b8101906129dc565b89610294565b503d6103c8565b86513d8a823e3d90fd5b8480fd5b8380fd5b83346103425761019661040b366123fe565b6127d3565b8091843461073f5760031991818336011261073a5780359267ffffffffffffffff84116103f15761020090848301943603011261073a5761046560243593610456612987565b61045f816127d3565b80612596565b9361046e612987565b6001600160a01b03918260fb541691855192624418eb60e81b845260209384818061049d338d898d85016129f4565b0381855afa9081156106bf576104e692916104bf918c9161071d575b50612b04565b888851809263381635c960e21b8252878a83015281806101c096879560248301908b6126bc565b03915afa9182156106bf57908692918b926106e6575b5050169186517f23b872dd000000000000000000000000000000000000000000000000000000008152338782015230602482015282604482015284816064818d885af19081156106bf5790610557918b916106c95750612b04565b61059084838760fc54168a51938492839263095ea7b360e01b84528c8401602090939291936001600160a01b0360408201951681520152565b03818d885af180156106bf57906105be92916106a2575b508751986105b48a6124de565b338a5236916125e5565b838801528587015260608601528160fc541690813b1561034e57869085519283916322da9c3160e21b8352868301528183816105fd602482018c612c3e565b03925af1801561069857908691610684575b505060fb541692833b156103f1576106569385928385518097819582947f99ba80570000000000000000000000000000000000000000000000000000000084528301612c7d565b03925af19081156103455750610670575b50600160655580f35b61067990612510565b610342578082610667565b61068d90612510565b6103f157848761060f565b84513d88823e3d90fd5b6106b890863d88116103e0576103d2818361255c565b508b6105a7565b88513d8c823e3d90fd5b6106e09150863d88116103e0576103d2818361255c565b8c6104b9565b6107059250803d10610716575b6106fd818361255c565b810190612b95565b505050505050505090508b806104fc565b503d6106f3565b6107349150873d89116103e0576103d2818361255c565b8d6104b9565b505050fd5b5050fd5b8383346101555760209060031982813601126103f557843567ffffffffffffffff81116103f1576107779036908701612366565b9390956001600160a01b0360fb54169084517fe6068d010000000000000000000000000000000000000000000000000000000081528381806107be8c8b33918885016129f4565b0381865afa9081156103e75788916108b3575b5015610865576107e887988651976102ab89612540565b83870152600385870152813b1561034e57868581957f555345525f434c4f5345445f504f434b45540000000000000000000000000000829661084184519b8c998a9863384e1a0960e21b8a528901526044880190612ac7565b868103938401602488015260128152015201925af190811561034557506103325750f35b6084908386519162461bcd60e51b83528201526024808201527f4f7065726174696f6e206572726f723a2063616e6e6f7420636c6f736520706f60448201526318dad95d60e21b6064820152fd5b6108ca9150843d86116103e0576103d2818361255c565b896107d1565b82843461034257600319916020368401811361020257843567ffffffffffffffff81116103f5576109049036908701612366565b949061090e612987565b6001600160a01b03968760fb54169785519863983d273760e01b8a52858a8481845afa998a15610e4a57889a610e54575b508651632474521560e21b81528381019a8b523360208c01529986908b9081906040010381845afa998a15610e4a57899a610983918a9b9a91610e2d575b50612a1c565b85875180927fc11bc90f0000000000000000000000000000000000000000000000000000000082528286830152818060249e8f82016109c2918b6126bc565b03915afa908115610d9f578991610e10575b5015610da957978886610a218a9b60fc54168a83519d8e809481937f6afd431a0000000000000000000000000000000000000000000000000000000083528d8b840152898301908c6126bc565b03925af18015610d9f57899a8a91610d6c575b508160fb54169080888d8c610a758d5194859384937f125167ef0000000000000000000000000000000000000000000000000000000085528d8d8601612aa3565b0381865afa908115610d62578c91610d45575b5015610cde578a9b895192610a9c846124de565b338452610aaa368d8a6125e5565b928a85019384528b850192835260608501908152813b15610cda578d8c8b8d82968c9585998c86519c8d9b8c9a7f368e0b6c000000000000000000000000000000000000000000000000000000008c528b01525116604489015251606488016080905260c48801610b1a916123be565b915160848801525160a48701528581039283018c870152601e8152017f4f50455241544f525f555044415445445f54524144494e475f53544154530000905201925af180156106bf57908a91610cc2575b505060fb54169286517f534ca7a20000000000000000000000000000000000000000000000000000000081528684820152868180610bac8682018d876126bc565b0381885afa9081156106bf578a91610ca5575b50610bce575b88600160655580f35b610bde908751986105b48a612540565b85880152600386880152823b15610ca157606086947f4f505f434f4e444954494f4e5300000000000000000000000000000000000000868b98947f4f50455241544f525f434c4f5345445f504f434b45545f4455455f544f5f53548a96610c5c84519e8f9c8d9b63384e1a0960e21b8d528c015260448b0190612ac7565b92898403968701908a0152602d8352820152015201925af19081156103455750610c8d575b80808080808080610bc5565b610c9690612510565b610342578082610c81565b8780fd5b610cbc9150873d89116103e0576103d2818361255c565b8b610bbf565b610ccb90612510565b610cd657888b610b6b565b8880fd5b8d80fd5b608485602d868b8d519362461bcd60e51b85528401528201527f4f7065726174696f6e206572726f723a2062757920636f6e646974696f6e206460448201527f6f6573206e6f74207265616368000000000000000000000000000000000000006064820152fd5b610d5c9150893d8b116103e0576103d2818361255c565b8d610a88565b8a513d8e823e3d90fd5b9050610d8f919a50873d8911610d98575b610d87818361255c565b810190612a8d565b9990998b610a34565b503d610d7d565b87513d8b823e3d90fd5b60848260388b888a519362461bcd60e51b85528401528201527f4f7065726174696f6e206572726f723a2074686520706f636b6574206973206e60448201527f6f7420726561647920746f20706572666f726d207377617000000000000000006064820152fd5b610e279150863d88116103e0576103d2818361255c565b8a6109d4565b610e449150883d8a116103e0576103d2818361255c565b8c61097d565b87513d8a823e3d90fd5b9950858a813d8311610e81575b610e6b818361255c565b81010312610e7c579851988561093f565b600080fd5b503d610e61565b8383610e9e610e96366123fe565b610456612987565b919093610ea9612987565b341561108e5783946001600160a01b03908160fb541690845191624418eb60e81b8352602092838180610ee0338c888c85016129f4565b0381855afa908115610d9f5790610efd918a916110715750612b04565b8551809163381635c960e21b825284878301526101c09283918180610f278d60248301908a6126bc565b03915afa918215610d9f57908592918a9261104a575b50501690813b15610ca15785517fd0e30db00000000000000000000000000000000000000000000000000000000081528881878134875af18015610d9f57908991611036575b505060fc54865163095ea7b360e01b81529085166001600160a01b031686820190815234602082015284908290819060400103818c875af18015610d9f5790610fd99291611019575b508651976102ab896124de565b82870152348587015260608601528160fc541690813b1561034e57869085519283916322da9c3160e21b8352868301528183816105fd602482018c612c3e565b61102f90853d87116103e0576103d2818361255c565b508a610fcc565b61103f90612510565b610ca157878a610f83565b6110609250803d10610716576106fd818361255c565b505050505050505090508a80610f3d565b6110889150853d87116103e0576103d2818361255c565b8b6104b9565b6020606492519162461bcd60e51b8352820152601f60248201527f4f7065726174696f6e206572726f723a20696e76616c696420616d6f756e74006044820152fd5b83833461015557602090816003193601126102025783359167ffffffffffffffff8084116103f157366023850112156103f157838601359081116103f157602490818501966005973684848b1b89010111610ca157611132839896959861257e565b9661113f8651988961255c565b838852601f1961114e8561257e565b01875b818110611320575050865b8a8582106111bd5787518b81528a51818d018190528a9281901b82018a01908c8e01908e848d015b8287106111915785850386f35b9091929382806111ad600193603f198a820301865288516123be565b9601920196019592919092611184565b6111d487836111db939d9a9b9d1b85010185612596565b36916125e5565b303b156112b9578a80828a61127594519101305af43d156112b2573d611200816125c9565b9061120d8c51928361255c565b81523d8d8b83013e5b8a519161122283612540565b602783527f416464726573733a206c6f772d6c6576656c2064656c65676174652063616c6c8b8401527f206661696c6564000000000000000000000000000000000000000000000000008c840152612646565b61127f828b61261c565b5261128a818a61261c565b5060001981146112a0576001019896959861115c565b858a601186634e487b7160e01b835252fd5b6060611216565b6084856026898b8d519362461bcd60e51b85528401528201527f416464726573733a2064656c65676174652063616c6c20746f206e6f6e2d636f60448201527f6e747261637400000000000000000000000000000000000000000000000000006064820152fd5b60608a82018c01528a01611151565b505034610155576020366003190112610155576001600160a01b03611352612394565b61135a612431565b16908173ffffffffffffffffffffffffffffffffffffffff1960fb54161760fb55519081527f482b97c53e48ffa324a976e2738053e9aff6eee04d8aac63b10e19411d869b8260203392a280f35b5050346101555781600319360112610155576020906001600160a01b03609754169051908152f35b9050346102025782600319360112610202576113ea612431565b6033549060ff821661142e575060ff1916600117603355513381527f62e78cea01bee320cd4e420270b5ea74000d11b0c9f74754ebdbfc544b05a25890602090a180f35b606490602084519162461bcd60e51b8352820152601060248201527f5061757361626c653a20706175736564000000000000000000000000000000006044820152fd5b905034610202578260031936011261020257825460ff8160081c1615918280936115ec575b80156115d5575b1561156c575060ff1980821660011785556114e9918361155b575b5060ff855460081c16906114cb82612cec565b6114d482612cec565b603354166033556114e481612cec565b612cec565b6114f233612489565b82549061151b60ff8360081c1661150881612cec565b61151181612cec565b6001606555612cec565b611523578280f35b61ff001916825551600181527f7f26b83ff96e1f2b6a682f133852f6798a09c465da95921460cefb384740249890602090a138808280f35b61ffff1916610101178555386114b8565b608490602085519162461bcd60e51b8352820152602e60248201527f496e697469616c697a61626c653a20636f6e747261637420697320616c72656160448201527f647920696e697469616c697a65640000000000000000000000000000000000006064820152fd5b50303b15801561149d5750600160ff83161461149d565b50600160ff831610611496565b8383346101555760209060031982813601126103f557843567ffffffffffffffff81116103f15761162d9036908701612366565b9390956001600160a01b0360fb54169084517f9d92d7370000000000000000000000000000000000000000000000000000000081528381806116748c8b33918885016129f4565b0381865afa9081156103e7578891611745575b50156116f75761169e87988651976102ab89612540565b83870152600285870152813b1561034e57868581957f555345525f5041555345445f504f434b45540000000000000000000000000000829661084184519b8c998a9863384e1a0960e21b8a528901526044880190612ac7565b6084908386519162461bcd60e51b83528201526024808201527f4f7065726174696f6e206572726f723a2063616e6e6f7420706175736520706f60448201526318dad95d60e21b6064820152fd5b61175c9150843d86116103e0576103d2818361255c565b89611687565b5050346101555781600319360112610155576020906001600160a01b0360fb54169051908152f35b8391506020928360031936011261020257813567ffffffffffffffff81116103f5576117b99036908401612366565b92906117c3612987565b34156117f55784956001600160a01b03918260fb54168551624418eb60e81b8152838180610ee0338c888c85016129f4565b5084606492519162461bcd60e51b8352820152601f60248201527f4f7065726174696f6e206572726f723a20696e76616c696420616d6f756e74006044820152fd5b8334610342578060031936011261034257611850612431565b60006001600160a01b0360975473ffffffffffffffffffffffffffffffffffffffff198116609755167f8be0079c531659141344cd1fd0a4f28419497f9722a3daafe3b4186f6b6457e08280a380f35b505034610155576020366003190112610155576001600160a01b036118c3612394565b6118cb612431565b16908173ffffffffffffffffffffffffffffffffffffffff1960fc54161760fc55519081527f483bdedaaf23706a9800ac1af0d852b34927780d79f9d6ba60a80c7cad75ea3960203392a280f35b839150346101555760209260031984813601126103f55782359467ffffffffffffffff86116103f15785840195610180948584833603011261034e576001600160a01b0360fb5416916119a4846119708b80612596565b895193849283927fb612f86600000000000000000000000000000000000000000000000000000000845233918985016129f4565b0381875afa908115610d9f578991611b3f575b5015611ad7578798833b15610cd657889587958793879384519b8c998a987f3740c183000000000000000000000000000000000000000000000000000000008a52890152611a05828061268a565b909160448a01526101c4890190611a1b926126bc565b90602483013560648901526044830135608489015260648301611a3d916126dd565b8883036043190160a48a0152611a539291612732565b608482013560c488015290611a6e60e4880160a4830161278e565b610144611a8188820161010484016127b1565b611a9191610184890191016127b1565b858103928301602487015260128152017f555345525f5550444154455f504f434b45540000000000000000000000000000905201925af190811561034557506103325750f35b6084828588519162461bcd60e51b8352820152603160248201527f4f7065726174696f6e206572726f723a2074686520706f636b6574206973206e60448201527f6f742061626c6520746f207570646174650000000000000000000000000000006064820152fd5b611b569150853d87116103e0576103d2818361255c565b8a6119b7565b50503461015557816003193601126101555760209060ff6033541690519015158152f35b905034610202578260031936011261020257611b9a612431565b6033549060ff821615611bdc575060ff1916603355513381527f5db9ee0a495bf2e6ff9c91a7834c1ba4fdd244a5e8aa4e537bd38aeae4b073aa90602090a180f35b606490602084519162461bcd60e51b8352820152601460248201527f5061757361626c653a206e6f74207061757365640000000000000000000000006044820152fd5b8091843461073f578060031936011261073f57813567ffffffffffffffff811161073a57611c509036908401612366565b929060243561046e612987565b8383346101555760209060031982813601126103f557843567ffffffffffffffff81116103f157611c919036908701612366565b939095611c9c612987565b6001600160a01b03611ce383898360fb5416885180809581947f7bc039400000000000000000000000000000000000000000000000000000000083528d33918b85016129f4565b03915afa9081156103e7578891611e81575b5015611e1957611d0c87988651976102ab89612524565b838701528060fc5416803b15610ca15787865180927f61a45ae60000000000000000000000000000000000000000000000000000000082528686830152818381611d5a8d6024830190612cc6565b03925af180156103e757908891611e05575b505060fb541690813b1561034e57868581957f555345525f57495448445245575f46554e4400000000000000000000000000008296611ddb84519b8c998a987fbcf7a122000000000000000000000000000000000000000000000000000000008a528901526044880190612cc6565b868103938401602488015260128152015201925af190811561034557506106705750600160655580f35b611e0e90612510565b61034e578689611d6c565b5060849184519162461bcd60e51b8352820152602c60248201527f4f7065726174696f6e206572726f723a2063616e6e6f7420776974686472617760448201527f20706f636b65742066756e6400000000000000000000000000000000000000006064820152fd5b611e989150843d86116103e0576103d2818361255c565b89611cf5565b8383346101555760209060031982813601126103f557843567ffffffffffffffff81116103f157611ed29036908701612366565b939095611edd612987565b6001600160a01b03928360fb5416855163983d273760e01b815284818581855afa8015610d9f5785908a90612337575b8851632474521560e21b81528681019182523360208301529250829081906040015b0381855afa908115610d9f57611f8c92611f5287938d938d9161231a5750612a1c565b885180809581947fb3fd1da5000000000000000000000000000000000000000000000000000000008352868a8401528d60248401916126bc565b03915afa9081156103e75788916122fd575b501561229557611feb9085898660fc5416898b84518097819582947f9c89bb3d0000000000000000000000000000000000000000000000000000000084528c8c85015260248401916126bc565b03925af19485156103e75788928996612270575b508060fb54169483818a8d6120408b8d5195869485947fd3fc80d90000000000000000000000000000000000000000000000000000000086528d8601612aa3565b03818a5afa908115612249578b91612253575b5080156121d8575b15612170576120748a9b899a9b99519b6111d48d6124de565b8a52808a0190338252898b0194855260608b01978852863b15610cd65789978995899485519d8e9b8c9a7fb48093e1000000000000000000000000000000000000000000000000000000008c528b01525160448a016080905260c48a016120da916123be565b94511660648901525160848801525160a487015285820393840160248701526027825281017f4f50455241544f525f555044415445445f434c4f53494e475f504f534954494f9052017f4e5f5354415453000000000000000000000000000000000000000000000000009052606001925af190811561034557506121615750600160655580f35b61216a90612510565b81610667565b8460849189519162461bcd60e51b8352820152603a60248201527f4f7065726174696f6e206572726f723a20636c6f73696e6720706f736974696f60448201527f6e20636f6e646974696f6e20646f6573206e6f742072656163680000000000006064820152fd5b5083818a8d6122138b8d5195869485947f1416642e0000000000000000000000000000000000000000000000000000000086528d8601612aa3565b03818a5afa908115612249578b9161222c575b5061205b565b6122439150823d84116103e0576103d2818361255c565b8c612226565b89513d8d823e3d90fd5b61226a9150823d84116103e0576103d2818361255c565b8c612053565b90955061228b919250863d8811610d9857610d87818361255c565b919091948a611fff565b5060849184519162461bcd60e51b8352820152603a60248201527f4f7065726174696f6e206572726f723a2074686520706f636b6574206973206e60448201527f6f7420726561647920746f20636c6f736520706f736974696f6e0000000000006064820152fd5b6123149150843d86116103e0576103d2818361255c565b89611f9e565b6123319150853d87116103e0576103d2818361255c565b8e61097d565b5081813d831161235f575b61234c818361255c565b81010312610cd65784611f2f9151611f0d565b503d612342565b9181601f84011215610e7c5782359167ffffffffffffffff8311610e7c5760208381860195010111610e7c57565b600435906001600160a01b0382168203610e7c57565b35906001600160a01b0382168203610e7c57565b919082519283825260005b8481106123ea575050826000602080949584010152601f8019910116010190565b6020818301810151848301820152016123c9565b60031990602081830112610e7c576004359167ffffffffffffffff8311610e7c578261020092030112610e7c5760040190565b6001600160a01b0360975416330361244557565b606460405162461bcd60e51b815260206004820152602060248201527f4f776e61626c653a2063616c6c6572206973206e6f7420746865206f776e65726044820152fd5b609754906001600160a01b03809116918273ffffffffffffffffffffffffffffffffffffffff19821617609755167f8be0079c531659141344cd1fd0a4f28419497f9722a3daafe3b4186f6b6457e0600080a3565b6080810190811067ffffffffffffffff8211176124fa57604052565b634e487b7160e01b600052604160045260246000fd5b67ffffffffffffffff81116124fa57604052565b6040810190811067ffffffffffffffff8211176124fa57604052565b6060810190811067ffffffffffffffff8211176124fa57604052565b90601f8019910116810190811067ffffffffffffffff8211176124fa57604052565b67ffffffffffffffff81116124fa5760051b60200190565b903590601e1981360301821215610e7c570180359067ffffffffffffffff8211610e7c57602001918136038313610e7c57565b67ffffffffffffffff81116124fa57601f01601f191660200190565b9291926125f1826125c9565b916125ff604051938461255c565b829481845281830111610e7c578281602093846000960137010152565b80518210156126305760209160051b010190565b634e487b7160e01b600052603260045260246000fd5b90919015612652575090565b8151156126625750805190602001fd5b6126869060405191829162461bcd60e51b83526020600484015260248301906123be565b0390fd5b9035601e1982360301811215610e7c57016020813591019167ffffffffffffffff8211610e7c578136038313610e7c57565b908060209392818452848401376000828201840152601f01601f1916010190565b9035601e1982360301811215610e7c57016020813591019167ffffffffffffffff8211610e7c578160061b36038313610e7c57565b6004111561271c57565b634e487b7160e01b600052602160045260246000fd5b918181526020809101929160009182905b82821061275257505050505090565b90919293948535815281860135600481101561278a579081612775600193612712565b81840152604090810196019493920190612743565b8580fd5b60409080358352602081013560208401520135906007821015610e7c5760400152565b80356004811015610e7c57602091816127ca8493612712565b84520135910152565b602081019081356001600160a01b0390818116809103610e7c573303612943578060fb5416803b15610e7c5761291b9360006128db938195604051978896879586947fe92c35980000000000000000000000000000000000000000000000000000000086526020600487015280612869612863612850888061268a565b61020060248c01526102248b01916126bc565b936123aa565b1660448701528061287c604087016123aa565b1660648701528061288f606087016123aa565b1660848701526128a1608086016123aa565b1660a486015260a084013560c486015260c084013560e48601526128c860e08501856126dd565b8683036023190161010488015290612732565b916101008101356101248501526128fa6101448501610120830161278e565b61290c6101a4850161018083016127b1565b6101c06101e4850191016127b1565b03925af180156129375761292c5750565b61293590612510565b565b6040513d6000823e3d90fd5b606460405162461bcd60e51b815260206004820152602060248201527f496e76616c696420706f636b65743a206f776e6572206d69736d6174636865736044820152fd5b600260655414612998576002606555565b606460405162461bcd60e51b815260206004820152601f60248201527f5265656e7472616e637947756172643a207265656e7472616e742063616c6c006044820152fd5b90816020910312610e7c57518015158103610e7c5790565b91612a156020926001600160a01b03929695966040865260408601916126bc565b9416910152565b15612a2357565b608460405162461bcd60e51b815260206004820152603d60248201527f4f7065726174696f6e206572726f723a206f6e6c79206f70657261746f72206960448201527f73207065726d697474656420666f7220746865206f7065726174696f6e0000006064820152fd5b9190826040910312610e7c576020825192015190565b90612abd90604093969594966060845260608401916126bc565b9460208201520152565b906001600160a01b0382511681526040612af060208401516060602085015260608401906123be565b92015190600582101561271c576040015290565b15612b0b57565b606460405162461bcd60e51b815260206004820152601f60248201527f4f7065726174696f6e206572726f723a2063616e6e6f74206465706f736974006044820152fd5b51906001600160a01b0382168203610e7c57565b9190826040910312610e7c57604051612b7b81612524565b809280516004811015610e7c578252602090810151910152565b9190828103906101c08212610e7c57612bad84612b4f565b93612bba60208201612b4f565b93612bc760408301612b4f565b9360608301519360808401519360a081015193606060c08301519460df190112610e7c57604051612bf781612540565b60e083015181526101008301516020820152610120830151906007821015610e7c57612c3b91604082015293610180612c34826101408701612b63565b9401612b63565b90565b9060606001600160a01b0380845116835281612c6960208601516080602087015260808601906123be565b946040810151604086015201511691015290565b612c8f60409283835283830190612c3e565b906020818303910152601381527f555345525f4445504f53495445445f46554e440000000000000000000000000060208201520190565b9060406020612c3b936001600160a01b03815116845201519181602082015201906123be565b15612cf357565b608460405162461bcd60e51b815260206004820152602b60248201527f496e697469616c697a61626c653a20636f6e7472616374206973206e6f74206960448201527f6e697469616c697a696e670000000000000000000000000000000000000000006064820152fdfea2646970667358221220dec26e4397daf7ee44bef64d9b0e809b4a0b87922f8e99686321ba775c5bdfc364736f6c63430008130033","opcodes":"PUSH1 0x80 DUP1 PUSH1 0x40 MSTORE CALLVALUE PUSH2 0xC2 JUMPI PUSH1 0x0 SLOAD SWAP1 PUSH1 0xFF DUP3 PUSH1 0x8 SHR AND PUSH2 0x70 JUMPI POP PUSH1 0xFF DUP1 DUP3 AND LT PUSH2 0x35 JUMPI JUMPDEST PUSH1 0x40 MLOAD PUSH2 0x2D93 SWAP1 DUP2 PUSH3 0xC8 DUP3 CODECOPY RETURN JUMPDEST PUSH1 0xFF SWAP1 DUP2 NOT AND OR PUSH1 0x0 SSTORE PUSH32 0x7F26B83FF96E1F2B6A682F133852F6798A09C465DA95921460CEFB3847402498 PUSH1 0x20 PUSH1 0x40 MLOAD PUSH1 0xFF DUP2 MSTORE LOG1 CODESIZE PUSH2 0x25 JUMP JUMPDEST PUSH3 0x461BCD PUSH1 0xE5 SHL DUP2 MSTORE PUSH1 0x20 PUSH1 0x4 DUP3 ADD MSTORE PUSH1 0x27 PUSH1 0x24 DUP3 ADD MSTORE PUSH32 0x496E697469616C697A61626C653A20636F6E747261637420697320696E697469 PUSH1 0x44 DUP3 ADD MSTORE PUSH7 0x616C697A696E67 PUSH1 0xC8 SHL PUSH1 0x64 DUP3 ADD MSTORE PUSH1 0x84 SWAP1 REVERT JUMPDEST PUSH1 0x0 DUP1 REVERT INVALID PUSH1 0x40 PUSH1 0x80 DUP2 MSTORE PUSH1 0x4 SWAP1 DUP2 CALLDATASIZE LT ISZERO PUSH2 0x15 JUMPI PUSH1 0x0 DUP1 REVERT JUMPDEST PUSH1 0x0 SWAP2 DUP3 CALLDATALOAD PUSH1 0xE0 SHR SWAP1 DUP2 PUSH4 0x1CBE264A EQ PUSH2 0x1E9E JUMPI DUP2 PUSH4 0x31FB67C2 EQ PUSH2 0x1C5D JUMPI DUP4 DUP3 PUSH4 0x33AD57E4 EQ PUSH2 0x1C1F JUMPI POP DUP2 PUSH4 0x3F4BA83A EQ PUSH2 0x1B80 JUMPI DUP2 PUSH4 0x5C975ABB EQ PUSH2 0x1B5C JUMPI DUP2 PUSH4 0x5E54C034 EQ PUSH2 0x1919 JUMPI DUP2 PUSH4 0x6817031B EQ PUSH2 0x18A0 JUMPI DUP2 PUSH4 0x715018A6 EQ PUSH2 0x1837 JUMPI DUP2 PUSH4 0x77C76321 EQ PUSH2 0x178A JUMPI DUP2 PUSH4 0x7B103999 EQ PUSH2 0x1762 JUMPI DUP2 PUSH4 0x7FA97C26 EQ PUSH2 0x15F9 JUMPI DUP2 PUSH4 0x8129FC1C EQ PUSH2 0x1471 JUMPI DUP2 PUSH4 0x8456CB59 EQ PUSH2 0x13D0 JUMPI DUP2 PUSH4 0x8DA5CB5B EQ PUSH2 0x13A8 JUMPI DUP2 PUSH4 0xA91EE0DC EQ PUSH2 0x132F JUMPI DUP2 PUSH4 0xAC9650D8 EQ PUSH2 0x10D0 JUMPI DUP2 PUSH4 0xAEA7ED37 EQ PUSH2 0xE88 JUMPI DUP2 PUSH4 0xCAC9C001 EQ PUSH2 0x8D0 JUMPI DUP2 PUSH4 0xCBFC305B EQ PUSH2 0x743 JUMPI DUP4 DUP3 PUSH4 0xDC6514B6 EQ PUSH2 0x410 JUMPI POP DUP2 PUSH4 0xE3135F0E EQ PUSH2 0x3F9 JUMPI DUP2 PUSH4 0xE4A479B5 EQ PUSH2 0x206 JUMPI DUP2 PUSH4 0xF2FDE38B EQ PUSH2 0x159 JUMPI POP PUSH4 0xFBFA77CF EQ PUSH2 0x12F JUMPI PUSH1 0x0 DUP1 REVERT JUMPDEST CALLVALUE PUSH2 0x155 JUMPI DUP2 PUSH1 0x3 NOT CALLDATASIZE ADD SLT PUSH2 0x155 JUMPI PUSH1 0x20 SWAP1 PUSH1 0x1 PUSH1 0x1 PUSH1 0xA0 SHL SUB PUSH1 0xFC SLOAD AND SWAP1 MLOAD SWAP1 DUP2 MSTORE RETURN JUMPDEST POP DUP1 REVERT JUMPDEST SWAP1 POP CALLVALUE PUSH2 0x202 JUMPI PUSH1 0x20 CALLDATASIZE PUSH1 0x3 NOT ADD SLT PUSH2 0x202 JUMPI PUSH2 0x174 PUSH2 0x2394 JUMP JUMPDEST SWAP2 PUSH2 0x17D PUSH2 0x2431 JUMP JUMPDEST PUSH1 0x1 PUSH1 0x1 PUSH1 0xA0 SHL SUB DUP4 AND ISZERO PUSH2 0x199 JUMPI DUP4 PUSH2 0x196 DUP5 PUSH2 0x2489 JUMP JUMPDEST DUP1 RETURN JUMPDEST SWAP1 PUSH1 0x20 PUSH1 0x84 SWAP3 MLOAD SWAP2 PUSH3 0x461BCD PUSH1 0xE5 SHL DUP4 MSTORE DUP3 ADD MSTORE PUSH1 0x26 PUSH1 0x24 DUP3 ADD MSTORE PUSH32 0x4F776E61626C653A206E6577206F776E657220697320746865207A65726F2061 PUSH1 0x44 DUP3 ADD MSTORE PUSH32 0x6464726573730000000000000000000000000000000000000000000000000000 PUSH1 0x64 DUP3 ADD MSTORE REVERT JUMPDEST DUP3 DUP1 REVERT JUMPDEST DUP4 DUP4 CALLVALUE PUSH2 0x155 JUMPI PUSH1 0x20 SWAP1 PUSH1 0x3 NOT DUP3 DUP2 CALLDATASIZE ADD SLT PUSH2 0x3F5 JUMPI DUP5 CALLDATALOAD PUSH8 0xFFFFFFFFFFFFFFFF DUP2 GT PUSH2 0x3F1 JUMPI PUSH2 0x23A SWAP1 CALLDATASIZE SWAP1 DUP8 ADD PUSH2 0x2366 JUMP JUMPDEST SWAP4 SWAP1 SWAP6 PUSH1 0x1 PUSH1 0x1 PUSH1 0xA0 SHL SUB PUSH1 0xFB SLOAD AND SWAP1 DUP5 MLOAD PUSH32 0x80B443C300000000000000000000000000000000000000000000000000000000 DUP2 MSTORE DUP4 DUP2 DUP1 PUSH2 0x281 DUP13 DUP12 CALLER SWAP2 DUP9 DUP6 ADD PUSH2 0x29F4 JUMP JUMPDEST SUB DUP2 DUP7 GAS STATICCALL SWAP1 DUP2 ISZERO PUSH2 0x3E7 JUMPI DUP9 SWAP2 PUSH2 0x3BA JUMPI JUMPDEST POP ISZERO PUSH2 0x352 JUMPI PUSH2 0x2B5 DUP8 SWAP9 DUP7 MLOAD SWAP8 PUSH2 0x2AB DUP10 PUSH2 0x2540 JUMP JUMPDEST CALLER DUP10 MSTORE CALLDATASIZE SWAP2 PUSH2 0x25E5 JUMP JUMPDEST DUP4 DUP8 ADD MSTORE PUSH1 0x1 DUP6 DUP8 ADD MSTORE DUP2 EXTCODESIZE ISZERO PUSH2 0x34E JUMPI DUP7 DUP6 DUP2 SWAP6 PUSH32 0x555345525F5245535441525445445F504F434B45540000000000000000000000 DUP3 SWAP7 PUSH2 0x30E DUP5 MLOAD SWAP12 DUP13 SWAP10 DUP11 SWAP9 PUSH4 0x384E1A09 PUSH1 0xE2 SHL DUP11 MSTORE DUP10 ADD MSTORE PUSH1 0x44 DUP9 ADD SWAP1 PUSH2 0x2AC7 JUMP JUMPDEST DUP7 DUP2 SUB SWAP4 DUP5 ADD PUSH1 0x24 DUP9 ADD MSTORE PUSH1 0x15 DUP2 MSTORE ADD MSTORE ADD SWAP3 GAS CALL SWAP1 DUP2 ISZERO PUSH2 0x345 JUMPI POP PUSH2 0x332 JUMPI POP RETURN JUMPDEST PUSH2 0x33B SWAP1 PUSH2 0x2510 JUMP JUMPDEST PUSH2 0x342 JUMPI DUP1 RETURN JUMPDEST DUP1 REVERT JUMPDEST MLOAD RETURNDATASIZE DUP5 DUP3 RETURNDATACOPY RETURNDATASIZE SWAP1 REVERT JUMPDEST DUP7 DUP1 REVERT JUMPDEST PUSH1 0x84 SWAP1 DUP4 DUP7 MLOAD SWAP2 PUSH3 0x461BCD PUSH1 0xE5 SHL DUP4 MSTORE DUP3 ADD MSTORE PUSH1 0x26 PUSH1 0x24 DUP3 ADD MSTORE PUSH32 0x4F7065726174696F6E206572726F723A2063616E6E6F74207265737461727420 PUSH1 0x44 DUP3 ADD MSTORE PUSH32 0x706F636B65740000000000000000000000000000000000000000000000000000 PUSH1 0x64 DUP3 ADD MSTORE REVERT JUMPDEST PUSH2 0x3DA SWAP2 POP DUP5 RETURNDATASIZE DUP7 GT PUSH2 0x3E0 JUMPI JUMPDEST PUSH2 0x3D2 DUP2 DUP4 PUSH2 0x255C JUMP JUMPDEST DUP2 ADD SWAP1 PUSH2 0x29DC JUMP JUMPDEST DUP10 PUSH2 0x294 JUMP JUMPDEST POP RETURNDATASIZE PUSH2 0x3C8 JUMP JUMPDEST DUP7 MLOAD RETURNDATASIZE DUP11 DUP3 RETURNDATACOPY RETURNDATASIZE SWAP1 REVERT JUMPDEST DUP5 DUP1 REVERT JUMPDEST DUP4 DUP1 REVERT JUMPDEST DUP4 CALLVALUE PUSH2 0x342 JUMPI PUSH2 0x196 PUSH2 0x40B CALLDATASIZE PUSH2 0x23FE JUMP JUMPDEST PUSH2 0x27D3 JUMP JUMPDEST DUP1 SWAP2 DUP5 CALLVALUE PUSH2 0x73F JUMPI PUSH1 0x3 NOT SWAP2 DUP2 DUP4 CALLDATASIZE ADD SLT PUSH2 0x73A JUMPI DUP1 CALLDATALOAD SWAP3 PUSH8 0xFFFFFFFFFFFFFFFF DUP5 GT PUSH2 0x3F1 JUMPI PUSH2 0x200 SWAP1 DUP5 DUP4 ADD SWAP5 CALLDATASIZE SUB ADD SLT PUSH2 0x73A JUMPI PUSH2 0x465 PUSH1 0x24 CALLDATALOAD SWAP4 PUSH2 0x456 PUSH2 0x2987 JUMP JUMPDEST PUSH2 0x45F DUP2 PUSH2 0x27D3 JUMP JUMPDEST DUP1 PUSH2 0x2596 JUMP JUMPDEST SWAP4 PUSH2 0x46E PUSH2 0x2987 JUMP JUMPDEST PUSH1 0x1 PUSH1 0x1 PUSH1 0xA0 SHL SUB SWAP2 DUP3 PUSH1 0xFB SLOAD AND SWAP2 DUP6 MLOAD SWAP3 PUSH3 0x4418EB PUSH1 0xE8 SHL DUP5 MSTORE PUSH1 0x20 SWAP4 DUP5 DUP2 DUP1 PUSH2 0x49D CALLER DUP14 DUP10 DUP14 DUP6 ADD PUSH2 0x29F4 JUMP JUMPDEST SUB DUP2 DUP6 GAS STATICCALL SWAP1 DUP2 ISZERO PUSH2 0x6BF JUMPI PUSH2 0x4E6 SWAP3 SWAP2 PUSH2 0x4BF SWAP2 DUP13 SWAP2 PUSH2 0x71D JUMPI JUMPDEST POP PUSH2 0x2B04 JUMP JUMPDEST DUP9 DUP9 MLOAD DUP1 SWAP3 PUSH4 0x381635C9 PUSH1 0xE2 SHL DUP3 MSTORE DUP8 DUP11 DUP4 ADD MSTORE DUP2 DUP1 PUSH2 0x1C0 SWAP7 DUP8 SWAP6 PUSH1 0x24 DUP4 ADD SWAP1 DUP12 PUSH2 0x26BC JUMP JUMPDEST SUB SWAP2 GAS STATICCALL SWAP2 DUP3 ISZERO PUSH2 0x6BF JUMPI SWAP1 DUP7 SWAP3 SWAP2 DUP12 SWAP3 PUSH2 0x6E6 JUMPI JUMPDEST POP POP AND SWAP2 DUP7 MLOAD PUSH32 0x23B872DD00000000000000000000000000000000000000000000000000000000 DUP2 MSTORE CALLER DUP8 DUP3 ADD MSTORE ADDRESS PUSH1 0x24 DUP3 ADD MSTORE DUP3 PUSH1 0x44 DUP3 ADD MSTORE DUP5 DUP2 PUSH1 0x64 DUP2 DUP14 DUP9 GAS CALL SWAP1 DUP2 ISZERO PUSH2 0x6BF JUMPI SWAP1 PUSH2 0x557 SWAP2 DUP12 SWAP2 PUSH2 0x6C9 JUMPI POP PUSH2 0x2B04 JUMP JUMPDEST PUSH2 0x590 DUP5 DUP4 DUP8 PUSH1 0xFC SLOAD AND DUP11 MLOAD SWAP4 DUP5 SWAP3 DUP4 SWAP3 PUSH4 0x95EA7B3 PUSH1 0xE0 SHL DUP5 MSTORE DUP13 DUP5 ADD PUSH1 0x20 SWAP1 SWAP4 SWAP3 SWAP2 SWAP4 PUSH1 0x1 PUSH1 0x1 PUSH1 0xA0 SHL SUB PUSH1 0x40 DUP3 ADD SWAP6 AND DUP2 MSTORE ADD MSTORE JUMP JUMPDEST SUB DUP2 DUP14 DUP9 GAS CALL DUP1 ISZERO PUSH2 0x6BF JUMPI SWAP1 PUSH2 0x5BE SWAP3 SWAP2 PUSH2 0x6A2 JUMPI JUMPDEST POP DUP8 MLOAD SWAP9 PUSH2 0x5B4 DUP11 PUSH2 0x24DE JUMP JUMPDEST CALLER DUP11 MSTORE CALLDATASIZE SWAP2 PUSH2 0x25E5 JUMP JUMPDEST DUP4 DUP9 ADD MSTORE DUP6 DUP8 ADD MSTORE PUSH1 0x60 DUP7 ADD MSTORE DUP2 PUSH1 0xFC SLOAD AND SWAP1 DUP2 EXTCODESIZE ISZERO PUSH2 0x34E JUMPI DUP7 SWAP1 DUP6 MLOAD SWAP3 DUP4 SWAP2 PUSH4 0x22DA9C31 PUSH1 0xE2 SHL DUP4 MSTORE DUP7 DUP4 ADD MSTORE DUP2 DUP4 DUP2 PUSH2 0x5FD PUSH1 0x24 DUP3 ADD DUP13 PUSH2 0x2C3E JUMP JUMPDEST SUB SWAP3 GAS CALL DUP1 ISZERO PUSH2 0x698 JUMPI SWAP1 DUP7 SWAP2 PUSH2 0x684 JUMPI JUMPDEST POP POP PUSH1 0xFB SLOAD AND SWAP3 DUP4 EXTCODESIZE ISZERO PUSH2 0x3F1 JUMPI PUSH2 0x656 SWAP4 DUP6 SWAP3 DUP4 DUP6 MLOAD DUP1 SWAP8 DUP2 SWAP6 DUP3 SWAP5 PUSH32 0x99BA805700000000000000000000000000000000000000000000000000000000 DUP5 MSTORE DUP4 ADD PUSH2 0x2C7D JUMP JUMPDEST SUB SWAP3 GAS CALL SWAP1 DUP2 ISZERO PUSH2 0x345 JUMPI POP PUSH2 0x670 JUMPI JUMPDEST POP PUSH1 0x1 PUSH1 0x65 SSTORE DUP1 RETURN JUMPDEST PUSH2 0x679 SWAP1 PUSH2 0x2510 JUMP JUMPDEST PUSH2 0x342 JUMPI DUP1 DUP3 PUSH2 0x667 JUMP JUMPDEST PUSH2 0x68D SWAP1 PUSH2 0x2510 JUMP JUMPDEST PUSH2 0x3F1 JUMPI DUP5 DUP8 PUSH2 0x60F JUMP JUMPDEST DUP5 MLOAD RETURNDATASIZE DUP9 DUP3 RETURNDATACOPY RETURNDATASIZE SWAP1 REVERT JUMPDEST PUSH2 0x6B8 SWAP1 DUP7 RETURNDATASIZE DUP9 GT PUSH2 0x3E0 JUMPI PUSH2 0x3D2 DUP2 DUP4 PUSH2 0x255C JUMP JUMPDEST POP DUP12 PUSH2 0x5A7 JUMP JUMPDEST DUP9 MLOAD RETURNDATASIZE DUP13 DUP3 RETURNDATACOPY RETURNDATASIZE SWAP1 REVERT JUMPDEST PUSH2 0x6E0 SWAP2 POP DUP7 RETURNDATASIZE DUP9 GT PUSH2 0x3E0 JUMPI PUSH2 0x3D2 DUP2 DUP4 PUSH2 0x255C JUMP JUMPDEST DUP13 PUSH2 0x4B9 JUMP JUMPDEST PUSH2 0x705 SWAP3 POP DUP1 RETURNDATASIZE LT PUSH2 0x716 JUMPI JUMPDEST PUSH2 0x6FD DUP2 DUP4 PUSH2 0x255C JUMP JUMPDEST DUP2 ADD SWAP1 PUSH2 0x2B95 JUMP JUMPDEST POP POP POP POP POP POP POP POP SWAP1 POP DUP12 DUP1 PUSH2 0x4FC JUMP JUMPDEST POP RETURNDATASIZE PUSH2 0x6F3 JUMP JUMPDEST PUSH2 0x734 SWAP2 POP DUP8 RETURNDATASIZE DUP10 GT PUSH2 0x3E0 JUMPI PUSH2 0x3D2 DUP2 DUP4 PUSH2 0x255C JUMP JUMPDEST DUP14 PUSH2 0x4B9 JUMP JUMPDEST POP POP POP REVERT JUMPDEST POP POP REVERT JUMPDEST DUP4 DUP4 CALLVALUE PUSH2 0x155 JUMPI PUSH1 0x20 SWAP1 PUSH1 0x3 NOT DUP3 DUP2 CALLDATASIZE ADD SLT PUSH2 0x3F5 JUMPI DUP5 CALLDATALOAD PUSH8 0xFFFFFFFFFFFFFFFF DUP2 GT PUSH2 0x3F1 JUMPI PUSH2 0x777 SWAP1 CALLDATASIZE SWAP1 DUP8 ADD PUSH2 0x2366 JUMP JUMPDEST SWAP4 SWAP1 SWAP6 PUSH1 0x1 PUSH1 0x1 PUSH1 0xA0 SHL SUB PUSH1 0xFB SLOAD AND SWAP1 DUP5 MLOAD PUSH32 0xE6068D0100000000000000000000000000000000000000000000000000000000 DUP2 MSTORE DUP4 DUP2 DUP1 PUSH2 0x7BE DUP13 DUP12 CALLER SWAP2 DUP9 DUP6 ADD PUSH2 0x29F4 JUMP JUMPDEST SUB DUP2 DUP7 GAS STATICCALL SWAP1 DUP2 ISZERO PUSH2 0x3E7 JUMPI DUP9 SWAP2 PUSH2 0x8B3 JUMPI JUMPDEST POP ISZERO PUSH2 0x865 JUMPI PUSH2 0x7E8 DUP8 SWAP9 DUP7 MLOAD SWAP8 PUSH2 0x2AB DUP10 PUSH2 0x2540 JUMP JUMPDEST DUP4 DUP8 ADD MSTORE PUSH1 0x3 DUP6 DUP8 ADD MSTORE DUP2 EXTCODESIZE ISZERO PUSH2 0x34E JUMPI DUP7 DUP6 DUP2 SWAP6 PUSH32 0x555345525F434C4F5345445F504F434B45540000000000000000000000000000 DUP3 SWAP7 PUSH2 0x841 DUP5 MLOAD SWAP12 DUP13 SWAP10 DUP11 SWAP9 PUSH4 0x384E1A09 PUSH1 0xE2 SHL DUP11 MSTORE DUP10 ADD MSTORE PUSH1 0x44 DUP9 ADD SWAP1 PUSH2 0x2AC7 JUMP JUMPDEST DUP7 DUP2 SUB SWAP4 DUP5 ADD PUSH1 0x24 DUP9 ADD MSTORE PUSH1 0x12 DUP2 MSTORE ADD MSTORE ADD SWAP3 GAS CALL SWAP1 DUP2 ISZERO PUSH2 0x345 JUMPI POP PUSH2 0x332 JUMPI POP RETURN JUMPDEST PUSH1 0x84 SWAP1 DUP4 DUP7 MLOAD SWAP2 PUSH3 0x461BCD PUSH1 0xE5 SHL DUP4 MSTORE DUP3 ADD MSTORE PUSH1 0x24 DUP1 DUP3 ADD MSTORE PUSH32 0x4F7065726174696F6E206572726F723A2063616E6E6F7420636C6F736520706F PUSH1 0x44 DUP3 ADD MSTORE PUSH4 0x18DAD95D PUSH1 0xE2 SHL PUSH1 0x64 DUP3 ADD MSTORE REVERT JUMPDEST PUSH2 0x8CA SWAP2 POP DUP5 RETURNDATASIZE DUP7 GT PUSH2 0x3E0 JUMPI PUSH2 0x3D2 DUP2 DUP4 PUSH2 0x255C JUMP JUMPDEST DUP10 PUSH2 0x7D1 JUMP JUMPDEST DUP3 DUP5 CALLVALUE PUSH2 0x342 JUMPI PUSH1 0x3 NOT SWAP2 PUSH1 0x20 CALLDATASIZE DUP5 ADD DUP2 SGT PUSH2 0x202 JUMPI DUP5 CALLDATALOAD PUSH8 0xFFFFFFFFFFFFFFFF DUP2 GT PUSH2 0x3F5 JUMPI PUSH2 0x904 SWAP1 CALLDATASIZE SWAP1 DUP8 ADD PUSH2 0x2366 JUMP JUMPDEST SWAP5 SWAP1 PUSH2 0x90E PUSH2 0x2987 JUMP JUMPDEST PUSH1 0x1 PUSH1 0x1 PUSH1 0xA0 SHL SUB SWAP7 DUP8 PUSH1 0xFB SLOAD AND SWAP8 DUP6 MLOAD SWAP9 PUSH4 0x983D2737 PUSH1 0xE0 SHL DUP11 MSTORE DUP6 DUP11 DUP5 DUP2 DUP5 GAS STATICCALL SWAP10 DUP11 ISZERO PUSH2 0xE4A JUMPI DUP9 SWAP11 PUSH2 0xE54 JUMPI JUMPDEST POP DUP7 MLOAD PUSH4 0x24745215 PUSH1 0xE2 SHL DUP2 MSTORE DUP4 DUP2 ADD SWAP11 DUP12 MSTORE CALLER PUSH1 0x20 DUP13 ADD MSTORE SWAP10 DUP7 SWAP1 DUP12 SWAP1 DUP2 SWAP1 PUSH1 0x40 ADD SUB DUP2 DUP5 GAS STATICCALL SWAP10 DUP11 ISZERO PUSH2 0xE4A JUMPI DUP10 SWAP11 PUSH2 0x983 SWAP2 DUP11 SWAP12 SWAP11 SWAP2 PUSH2 0xE2D JUMPI JUMPDEST POP PUSH2 0x2A1C JUMP JUMPDEST DUP6 DUP8 MLOAD DUP1 SWAP3 PUSH32 0xC11BC90F00000000000000000000000000000000000000000000000000000000 DUP3 MSTORE DUP3 DUP7 DUP4 ADD MSTORE DUP2 DUP1 PUSH1 0x24 SWAP15 DUP16 DUP3 ADD PUSH2 0x9C2 SWAP2 DUP12 PUSH2 0x26BC JUMP JUMPDEST SUB SWAP2 GAS STATICCALL SWAP1 DUP2 ISZERO PUSH2 0xD9F JUMPI DUP10 SWAP2 PUSH2 0xE10 JUMPI JUMPDEST POP ISZERO PUSH2 0xDA9 JUMPI SWAP8 DUP9 DUP7 PUSH2 0xA21 DUP11 SWAP12 PUSH1 0xFC SLOAD AND DUP11 DUP4 MLOAD SWAP14 DUP15 DUP1 SWAP5 DUP2 SWAP4 PUSH32 0x6AFD431A00000000000000000000000000000000000000000000000000000000 DUP4 MSTORE DUP14 DUP12 DUP5 ADD MSTORE DUP10 DUP4 ADD SWAP1 DUP13 PUSH2 0x26BC JUMP JUMPDEST SUB SWAP3 GAS CALL DUP1 ISZERO PUSH2 0xD9F JUMPI DUP10 SWAP11 DUP11 SWAP2 PUSH2 0xD6C JUMPI JUMPDEST POP DUP2 PUSH1 0xFB SLOAD AND SWAP1 DUP1 DUP9 DUP14 DUP13 PUSH2 0xA75 DUP14 MLOAD SWAP5 DUP6 SWAP4 DUP5 SWAP4 PUSH32 0x125167EF00000000000000000000000000000000000000000000000000000000 DUP6 MSTORE DUP14 DUP14 DUP7 ADD PUSH2 0x2AA3 JUMP JUMPDEST SUB DUP2 DUP7 GAS STATICCALL SWAP1 DUP2 ISZERO PUSH2 0xD62 JUMPI DUP13 SWAP2 PUSH2 0xD45 JUMPI JUMPDEST POP ISZERO PUSH2 0xCDE JUMPI DUP11 SWAP12 DUP10 MLOAD SWAP3 PUSH2 0xA9C DUP5 PUSH2 0x24DE JUMP JUMPDEST CALLER DUP5 MSTORE PUSH2 0xAAA CALLDATASIZE DUP14 DUP11 PUSH2 0x25E5 JUMP JUMPDEST SWAP3 DUP11 DUP6 ADD SWAP4 DUP5 MSTORE DUP12 DUP6 ADD SWAP3 DUP4 MSTORE PUSH1 0x60 DUP6 ADD SWAP1 DUP2 MSTORE DUP2 EXTCODESIZE ISZERO PUSH2 0xCDA JUMPI DUP14 DUP13 DUP12 DUP14 DUP3 SWAP7 DUP13 SWAP6 DUP6 SWAP10 DUP13 DUP7 MLOAD SWAP13 DUP14 SWAP12 DUP13 SWAP11 PUSH32 0x368E0B6C00000000000000000000000000000000000000000000000000000000 DUP13 MSTORE DUP12 ADD MSTORE MLOAD AND PUSH1 0x44 DUP10 ADD MSTORE MLOAD PUSH1 0x64 DUP9 ADD PUSH1 0x80 SWAP1 MSTORE PUSH1 0xC4 DUP9 ADD PUSH2 0xB1A SWAP2 PUSH2 0x23BE JUMP JUMPDEST SWAP2 MLOAD PUSH1 0x84 DUP9 ADD MSTORE MLOAD PUSH1 0xA4 DUP8 ADD MSTORE DUP6 DUP2 SUB SWAP3 DUP4 ADD DUP13 DUP8 ADD MSTORE PUSH1 0x1E DUP2 MSTORE ADD PUSH32 0x4F50455241544F525F555044415445445F54524144494E475F53544154530000 SWAP1 MSTORE ADD SWAP3 GAS CALL DUP1 ISZERO PUSH2 0x6BF JUMPI SWAP1 DUP11 SWAP2 PUSH2 0xCC2 JUMPI JUMPDEST POP POP PUSH1 0xFB SLOAD AND SWAP3 DUP7 MLOAD PUSH32 0x534CA7A200000000000000000000000000000000000000000000000000000000 DUP2 MSTORE DUP7 DUP5 DUP3 ADD MSTORE DUP7 DUP2 DUP1 PUSH2 0xBAC DUP7 DUP3 ADD DUP14 DUP8 PUSH2 0x26BC JUMP JUMPDEST SUB DUP2 DUP9 GAS STATICCALL SWAP1 DUP2 ISZERO PUSH2 0x6BF JUMPI DUP11 SWAP2 PUSH2 0xCA5 JUMPI JUMPDEST POP PUSH2 0xBCE JUMPI JUMPDEST DUP9 PUSH1 0x1 PUSH1 0x65 SSTORE DUP1 RETURN JUMPDEST PUSH2 0xBDE SWAP1 DUP8 MLOAD SWAP9 PUSH2 0x5B4 DUP11 PUSH2 0x2540 JUMP JUMPDEST DUP6 DUP9 ADD MSTORE PUSH1 0x3 DUP7 DUP9 ADD MSTORE DUP3 EXTCODESIZE ISZERO PUSH2 0xCA1 JUMPI PUSH1 0x60 DUP7 SWAP5 PUSH32 0x4F505F434F4E444954494F4E5300000000000000000000000000000000000000 DUP7 DUP12 SWAP9 SWAP5 PUSH32 0x4F50455241544F525F434C4F5345445F504F434B45545F4455455F544F5F5354 DUP11 SWAP7 PUSH2 0xC5C DUP5 MLOAD SWAP15 DUP16 SWAP13 DUP14 SWAP12 PUSH4 0x384E1A09 PUSH1 0xE2 SHL DUP14 MSTORE DUP13 ADD MSTORE PUSH1 0x44 DUP12 ADD SWAP1 PUSH2 0x2AC7 JUMP JUMPDEST SWAP3 DUP10 DUP5 SUB SWAP7 DUP8 ADD SWAP1 DUP11 ADD MSTORE PUSH1 0x2D DUP4 MSTORE DUP3 ADD MSTORE ADD MSTORE ADD SWAP3 GAS CALL SWAP1 DUP2 ISZERO PUSH2 0x345 JUMPI POP PUSH2 0xC8D JUMPI JUMPDEST DUP1 DUP1 DUP1 DUP1 DUP1 DUP1 DUP1 PUSH2 0xBC5 JUMP JUMPDEST PUSH2 0xC96 SWAP1 PUSH2 0x2510 JUMP JUMPDEST PUSH2 0x342 JUMPI DUP1 DUP3 PUSH2 0xC81 JUMP JUMPDEST DUP8 DUP1 REVERT JUMPDEST PUSH2 0xCBC SWAP2 POP DUP8 RETURNDATASIZE DUP10 GT PUSH2 0x3E0 JUMPI PUSH2 0x3D2 DUP2 DUP4 PUSH2 0x255C JUMP JUMPDEST DUP12 PUSH2 0xBBF JUMP JUMPDEST PUSH2 0xCCB SWAP1 PUSH2 0x2510 JUMP JUMPDEST PUSH2 0xCD6 JUMPI DUP9 DUP12 PUSH2 0xB6B JUMP JUMPDEST DUP9 DUP1 REVERT JUMPDEST DUP14 DUP1 REVERT JUMPDEST PUSH1 0x84 DUP6 PUSH1 0x2D DUP7 DUP12 DUP14 MLOAD SWAP4 PUSH3 0x461BCD PUSH1 0xE5 SHL DUP6 MSTORE DUP5 ADD MSTORE DUP3 ADD MSTORE PUSH32 0x4F7065726174696F6E206572726F723A2062757920636F6E646974696F6E2064 PUSH1 0x44 DUP3 ADD MSTORE PUSH32 0x6F6573206E6F7420726561636800000000000000000000000000000000000000 PUSH1 0x64 DUP3 ADD MSTORE REVERT JUMPDEST PUSH2 0xD5C SWAP2 POP DUP10 RETURNDATASIZE DUP12 GT PUSH2 0x3E0 JUMPI PUSH2 0x3D2 DUP2 DUP4 PUSH2 0x255C JUMP JUMPDEST DUP14 PUSH2 0xA88 JUMP JUMPDEST DUP11 MLOAD RETURNDATASIZE DUP15 DUP3 RETURNDATACOPY RETURNDATASIZE SWAP1 REVERT JUMPDEST SWAP1 POP PUSH2 0xD8F SWAP2 SWAP11 POP DUP8 RETURNDATASIZE DUP10 GT PUSH2 0xD98 JUMPI JUMPDEST PUSH2 0xD87 DUP2 DUP4 PUSH2 0x255C JUMP JUMPDEST DUP2 ADD SWAP1 PUSH2 0x2A8D JUMP JUMPDEST SWAP10 SWAP1 SWAP10 DUP12 PUSH2 0xA34 JUMP JUMPDEST POP RETURNDATASIZE PUSH2 0xD7D JUMP JUMPDEST DUP8 MLOAD RETURNDATASIZE DUP12 DUP3 RETURNDATACOPY RETURNDATASIZE SWAP1 REVERT JUMPDEST PUSH1 0x84 DUP3 PUSH1 0x38 DUP12 DUP9 DUP11 MLOAD SWAP4 PUSH3 0x461BCD PUSH1 0xE5 SHL DUP6 MSTORE DUP5 ADD MSTORE DUP3 ADD MSTORE PUSH32 0x4F7065726174696F6E206572726F723A2074686520706F636B6574206973206E PUSH1 0x44 DUP3 ADD MSTORE PUSH32 0x6F7420726561647920746F20706572666F726D20737761700000000000000000 PUSH1 0x64 DUP3 ADD MSTORE REVERT JUMPDEST PUSH2 0xE27 SWAP2 POP DUP7 RETURNDATASIZE DUP9 GT PUSH2 0x3E0 JUMPI PUSH2 0x3D2 DUP2 DUP4 PUSH2 0x255C JUMP JUMPDEST DUP11 PUSH2 0x9D4 JUMP JUMPDEST PUSH2 0xE44 SWAP2 POP DUP9 RETURNDATASIZE DUP11 GT PUSH2 0x3E0 JUMPI PUSH2 0x3D2 DUP2 DUP4 PUSH2 0x255C JUMP JUMPDEST DUP13 PUSH2 0x97D JUMP JUMPDEST DUP8 MLOAD RETURNDATASIZE DUP11 DUP3 RETURNDATACOPY RETURNDATASIZE SWAP1 REVERT JUMPDEST SWAP10 POP DUP6 DUP11 DUP2 RETURNDATASIZE DUP4 GT PUSH2 0xE81 JUMPI JUMPDEST PUSH2 0xE6B DUP2 DUP4 PUSH2 0x255C JUMP JUMPDEST DUP2 ADD SUB SLT PUSH2 0xE7C JUMPI SWAP9 MLOAD SWAP9 DUP6 PUSH2 0x93F JUMP JUMPDEST PUSH1 0x0 DUP1 REVERT JUMPDEST POP RETURNDATASIZE PUSH2 0xE61 JUMP JUMPDEST DUP4 DUP4 PUSH2 0xE9E PUSH2 0xE96 CALLDATASIZE PUSH2 0x23FE JUMP JUMPDEST PUSH2 0x456 PUSH2 0x2987 JUMP JUMPDEST SWAP2 SWAP1 SWAP4 PUSH2 0xEA9 PUSH2 0x2987 JUMP JUMPDEST CALLVALUE ISZERO PUSH2 0x108E JUMPI DUP4 SWAP5 PUSH1 0x1 PUSH1 0x1 PUSH1 0xA0 SHL SUB SWAP1 DUP2 PUSH1 0xFB SLOAD AND SWAP1 DUP5 MLOAD SWAP2 PUSH3 0x4418EB PUSH1 0xE8 SHL DUP4 MSTORE PUSH1 0x20 SWAP3 DUP4 DUP2 DUP1 PUSH2 0xEE0 CALLER DUP13 DUP9 DUP13 DUP6 ADD PUSH2 0x29F4 JUMP JUMPDEST SUB DUP2 DUP6 GAS STATICCALL SWAP1 DUP2 ISZERO PUSH2 0xD9F JUMPI SWAP1 PUSH2 0xEFD SWAP2 DUP11 SWAP2 PUSH2 0x1071 JUMPI POP PUSH2 0x2B04 JUMP JUMPDEST DUP6 MLOAD DUP1 SWAP2 PUSH4 0x381635C9 PUSH1 0xE2 SHL DUP3 MSTORE DUP5 DUP8 DUP4 ADD MSTORE PUSH2 0x1C0 SWAP3 DUP4 SWAP2 DUP2 DUP1 PUSH2 0xF27 DUP14 PUSH1 0x24 DUP4 ADD SWAP1 DUP11 PUSH2 0x26BC JUMP JUMPDEST SUB SWAP2 GAS STATICCALL SWAP2 DUP3 ISZERO PUSH2 0xD9F JUMPI SWAP1 DUP6 SWAP3 SWAP2 DUP11 SWAP3 PUSH2 0x104A JUMPI JUMPDEST POP POP AND SWAP1 DUP2 EXTCODESIZE ISZERO PUSH2 0xCA1 JUMPI DUP6 MLOAD PUSH32 0xD0E30DB000000000000000000000000000000000000000000000000000000000 DUP2 MSTORE DUP9 DUP2 DUP8 DUP2 CALLVALUE DUP8 GAS CALL DUP1 ISZERO PUSH2 0xD9F JUMPI SWAP1 DUP10 SWAP2 PUSH2 0x1036 JUMPI JUMPDEST POP POP PUSH1 0xFC SLOAD DUP7 MLOAD PUSH4 0x95EA7B3 PUSH1 0xE0 SHL DUP2 MSTORE SWAP1 DUP6 AND PUSH1 0x1 PUSH1 0x1 PUSH1 0xA0 SHL SUB AND DUP7 DUP3 ADD SWAP1 DUP2 MSTORE CALLVALUE PUSH1 0x20 DUP3 ADD MSTORE DUP5 SWAP1 DUP3 SWAP1 DUP2 SWAP1 PUSH1 0x40 ADD SUB DUP2 DUP13 DUP8 GAS CALL DUP1 ISZERO PUSH2 0xD9F JUMPI SWAP1 PUSH2 0xFD9 SWAP3 SWAP2 PUSH2 0x1019 JUMPI JUMPDEST POP DUP7 MLOAD SWAP8 PUSH2 0x2AB DUP10 PUSH2 0x24DE JUMP JUMPDEST DUP3 DUP8 ADD MSTORE CALLVALUE DUP6 DUP8 ADD MSTORE PUSH1 0x60 DUP7 ADD MSTORE DUP2 PUSH1 0xFC SLOAD AND SWAP1 DUP2 EXTCODESIZE ISZERO PUSH2 0x34E JUMPI DUP7 SWAP1 DUP6 MLOAD SWAP3 DUP4 SWAP2 PUSH4 0x22DA9C31 PUSH1 0xE2 SHL DUP4 MSTORE DUP7 DUP4 ADD MSTORE DUP2 DUP4 DUP2 PUSH2 0x5FD PUSH1 0x24 DUP3 ADD DUP13 PUSH2 0x2C3E JUMP JUMPDEST PUSH2 0x102F SWAP1 DUP6 RETURNDATASIZE DUP8 GT PUSH2 0x3E0 JUMPI PUSH2 0x3D2 DUP2 DUP4 PUSH2 0x255C JUMP JUMPDEST POP DUP11 PUSH2 0xFCC JUMP JUMPDEST PUSH2 0x103F SWAP1 PUSH2 0x2510 JUMP JUMPDEST PUSH2 0xCA1 JUMPI DUP8 DUP11 PUSH2 0xF83 JUMP JUMPDEST PUSH2 0x1060 SWAP3 POP DUP1 RETURNDATASIZE LT PUSH2 0x716 JUMPI PUSH2 0x6FD DUP2 DUP4 PUSH2 0x255C JUMP JUMPDEST POP POP POP POP POP POP POP POP SWAP1 POP DUP11 DUP1 PUSH2 0xF3D JUMP JUMPDEST PUSH2 0x1088 SWAP2 POP DUP6 RETURNDATASIZE DUP8 GT PUSH2 0x3E0 JUMPI PUSH2 0x3D2 DUP2 DUP4 PUSH2 0x255C JUMP JUMPDEST DUP12 PUSH2 0x4B9 JUMP JUMPDEST PUSH1 0x20 PUSH1 0x64 SWAP3 MLOAD SWAP2 PUSH3 0x461BCD PUSH1 0xE5 SHL DUP4 MSTORE DUP3 ADD MSTORE PUSH1 0x1F PUSH1 0x24 DUP3 ADD MSTORE PUSH32 0x4F7065726174696F6E206572726F723A20696E76616C696420616D6F756E7400 PUSH1 0x44 DUP3 ADD MSTORE REVERT JUMPDEST DUP4 DUP4 CALLVALUE PUSH2 0x155 JUMPI PUSH1 0x20 SWAP1 DUP2 PUSH1 0x3 NOT CALLDATASIZE ADD SLT PUSH2 0x202 JUMPI DUP4 CALLDATALOAD SWAP2 PUSH8 0xFFFFFFFFFFFFFFFF DUP1 DUP5 GT PUSH2 0x3F1 JUMPI CALLDATASIZE PUSH1 0x23 DUP6 ADD SLT ISZERO PUSH2 0x3F1 JUMPI DUP4 DUP7 ADD CALLDATALOAD SWAP1 DUP2 GT PUSH2 0x3F1 JUMPI PUSH1 0x24 SWAP1 DUP2 DUP6 ADD SWAP7 PUSH1 0x5 SWAP8 CALLDATASIZE DUP5 DUP5 DUP12 SHL DUP10 ADD ADD GT PUSH2 0xCA1 JUMPI PUSH2 0x1132 DUP4 SWAP9 SWAP7 SWAP6 SWAP9 PUSH2 0x257E JUMP JUMPDEST SWAP7 PUSH2 0x113F DUP7 MLOAD SWAP9 DUP10 PUSH2 0x255C JUMP JUMPDEST DUP4 DUP9 MSTORE PUSH1 0x1F NOT PUSH2 0x114E DUP6 PUSH2 0x257E JUMP JUMPDEST ADD DUP8 JUMPDEST DUP2 DUP2 LT PUSH2 0x1320 JUMPI POP POP DUP7 JUMPDEST DUP11 DUP6 DUP3 LT PUSH2 0x11BD JUMPI DUP8 MLOAD DUP12 DUP2 MSTORE DUP11 MLOAD DUP2 DUP14 ADD DUP2 SWAP1 MSTORE DUP11 SWAP3 DUP2 SWAP1 SHL DUP3 ADD DUP11 ADD SWAP1 DUP13 DUP15 ADD SWAP1 DUP15 DUP5 DUP14 ADD JUMPDEST DUP3 DUP8 LT PUSH2 0x1191 JUMPI DUP6 DUP6 SUB DUP7 RETURN JUMPDEST SWAP1 SWAP2 SWAP3 SWAP4 DUP3 DUP1 PUSH2 0x11AD PUSH1 0x1 SWAP4 PUSH1 0x3F NOT DUP11 DUP3 SUB ADD DUP7 MSTORE DUP9 MLOAD PUSH2 0x23BE JUMP JUMPDEST SWAP7 ADD SWAP3 ADD SWAP7 ADD SWAP6 SWAP3 SWAP2 SWAP1 SWAP3 PUSH2 0x1184 JUMP JUMPDEST PUSH2 0x11D4 DUP8 DUP4 PUSH2 0x11DB SWAP4 SWAP14 SWAP11 SWAP12 SWAP14 SHL DUP6 ADD ADD DUP6 PUSH2 0x2596 JUMP JUMPDEST CALLDATASIZE SWAP2 PUSH2 0x25E5 JUMP JUMPDEST ADDRESS EXTCODESIZE ISZERO PUSH2 0x12B9 JUMPI DUP11 DUP1 DUP3 DUP11 PUSH2 0x1275 SWAP5 MLOAD SWAP2 ADD ADDRESS GAS DELEGATECALL RETURNDATASIZE ISZERO PUSH2 0x12B2 JUMPI RETURNDATASIZE PUSH2 0x1200 DUP2 PUSH2 0x25C9 JUMP JUMPDEST SWAP1 PUSH2 0x120D DUP13 MLOAD SWAP3 DUP4 PUSH2 0x255C JUMP JUMPDEST DUP2 MSTORE RETURNDATASIZE DUP14 DUP12 DUP4 ADD RETURNDATACOPY JUMPDEST DUP11 MLOAD SWAP2 PUSH2 0x1222 DUP4 PUSH2 0x2540 JUMP JUMPDEST PUSH1 0x27 DUP4 MSTORE PUSH32 0x416464726573733A206C6F772D6C6576656C2064656C65676174652063616C6C DUP12 DUP5 ADD MSTORE PUSH32 0x206661696C656400000000000000000000000000000000000000000000000000 DUP13 DUP5 ADD MSTORE PUSH2 0x2646 JUMP JUMPDEST PUSH2 0x127F DUP3 DUP12 PUSH2 0x261C JUMP JUMPDEST MSTORE PUSH2 0x128A DUP2 DUP11 PUSH2 0x261C JUMP JUMPDEST POP PUSH1 0x0 NOT DUP2 EQ PUSH2 0x12A0 JUMPI PUSH1 0x1 ADD SWAP9 SWAP7 SWAP6 SWAP9 PUSH2 0x115C JUMP JUMPDEST DUP6 DUP11 PUSH1 0x11 DUP7 PUSH4 0x4E487B71 PUSH1 0xE0 SHL DUP4 MSTORE MSTORE REVERT JUMPDEST PUSH1 0x60 PUSH2 0x1216 JUMP JUMPDEST PUSH1 0x84 DUP6 PUSH1 0x26 DUP10 DUP12 DUP14 MLOAD SWAP4 PUSH3 0x461BCD PUSH1 0xE5 SHL DUP6 MSTORE DUP5 ADD MSTORE DUP3 ADD MSTORE PUSH32 0x416464726573733A2064656C65676174652063616C6C20746F206E6F6E2D636F PUSH1 0x44 DUP3 ADD MSTORE PUSH32 0x6E74726163740000000000000000000000000000000000000000000000000000 PUSH1 0x64 DUP3 ADD MSTORE REVERT JUMPDEST PUSH1 0x60 DUP11 DUP3 ADD DUP13 ADD MSTORE DUP11 ADD PUSH2 0x1151 JUMP JUMPDEST POP POP CALLVALUE PUSH2 0x155 JUMPI PUSH1 0x20 CALLDATASIZE PUSH1 0x3 NOT ADD SLT PUSH2 0x155 JUMPI PUSH1 0x1 PUSH1 0x1 PUSH1 0xA0 SHL SUB PUSH2 0x1352 PUSH2 0x2394 JUMP JUMPDEST PUSH2 0x135A PUSH2 0x2431 JUMP JUMPDEST AND SWAP1 DUP2 PUSH20 0xFFFFFFFFFFFFFFFFFFFFFFFFFFFFFFFFFFFFFFFF NOT PUSH1 0xFB SLOAD AND OR PUSH1 0xFB SSTORE MLOAD SWAP1 DUP2 MSTORE PUSH32 0x482B97C53E48FFA324A976E2738053E9AFF6EEE04D8AAC63B10E19411D869B82 PUSH1 0x20 CALLER SWAP3 LOG2 DUP1 RETURN JUMPDEST POP POP CALLVALUE PUSH2 0x155 JUMPI DUP2 PUSH1 0x3 NOT CALLDATASIZE ADD SLT PUSH2 0x155 JUMPI PUSH1 0x20 SWAP1 PUSH1 0x1 PUSH1 0x1 PUSH1 0xA0 SHL SUB PUSH1 0x97 SLOAD AND SWAP1 MLOAD SWAP1 DUP2 MSTORE RETURN JUMPDEST SWAP1 POP CALLVALUE PUSH2 0x202 JUMPI DUP3 PUSH1 0x3 NOT CALLDATASIZE ADD SLT PUSH2 0x202 JUMPI PUSH2 0x13EA PUSH2 0x2431 JUMP JUMPDEST PUSH1 0x33 SLOAD SWAP1 PUSH1 0xFF DUP3 AND PUSH2 0x142E JUMPI POP PUSH1 0xFF NOT AND PUSH1 0x1 OR PUSH1 0x33 SSTORE MLOAD CALLER DUP2 MSTORE PUSH32 0x62E78CEA01BEE320CD4E420270B5EA74000D11B0C9F74754EBDBFC544B05A258 SWAP1 PUSH1 0x20 SWAP1 LOG1 DUP1 RETURN JUMPDEST PUSH1 0x64 SWAP1 PUSH1 0x20 DUP5 MLOAD SWAP2 PUSH3 0x461BCD PUSH1 0xE5 SHL DUP4 MSTORE DUP3 ADD MSTORE PUSH1 0x10 PUSH1 0x24 DUP3 ADD MSTORE PUSH32 0x5061757361626C653A2070617573656400000000000000000000000000000000 PUSH1 0x44 DUP3 ADD MSTORE REVERT JUMPDEST SWAP1 POP CALLVALUE PUSH2 0x202 JUMPI DUP3 PUSH1 0x3 NOT CALLDATASIZE ADD SLT PUSH2 0x202 JUMPI DUP3 SLOAD PUSH1 0xFF DUP2 PUSH1 0x8 SHR AND ISZERO SWAP2 DUP3 DUP1 SWAP4 PUSH2 0x15EC JUMPI JUMPDEST DUP1 ISZERO PUSH2 0x15D5 JUMPI JUMPDEST ISZERO PUSH2 0x156C JUMPI POP PUSH1 0xFF NOT DUP1 DUP3 AND PUSH1 0x1 OR DUP6 SSTORE PUSH2 0x14E9 SWAP2 DUP4 PUSH2 0x155B JUMPI JUMPDEST POP PUSH1 0xFF DUP6 SLOAD PUSH1 0x8 SHR AND SWAP1 PUSH2 0x14CB DUP3 PUSH2 0x2CEC JUMP JUMPDEST PUSH2 0x14D4 DUP3 PUSH2 0x2CEC JUMP JUMPDEST PUSH1 0x33 SLOAD AND PUSH1 0x33 SSTORE PUSH2 0x14E4 DUP2 PUSH2 0x2CEC JUMP JUMPDEST PUSH2 0x2CEC JUMP JUMPDEST PUSH2 0x14F2 CALLER PUSH2 0x2489 JUMP JUMPDEST DUP3 SLOAD SWAP1 PUSH2 0x151B PUSH1 0xFF DUP4 PUSH1 0x8 SHR AND PUSH2 0x1508 DUP2 PUSH2 0x2CEC JUMP JUMPDEST PUSH2 0x1511 DUP2 PUSH2 0x2CEC JUMP JUMPDEST PUSH1 0x1 PUSH1 0x65 SSTORE PUSH2 0x2CEC JUMP JUMPDEST PUSH2 0x1523 JUMPI DUP3 DUP1 RETURN JUMPDEST PUSH2 0xFF00 NOT AND DUP3 SSTORE MLOAD PUSH1 0x1 DUP2 MSTORE PUSH32 0x7F26B83FF96E1F2B6A682F133852F6798A09C465DA95921460CEFB3847402498 SWAP1 PUSH1 0x20 SWAP1 LOG1 CODESIZE DUP1 DUP3 DUP1 RETURN JUMPDEST PUSH2 0xFFFF NOT AND PUSH2 0x101 OR DUP6 SSTORE CODESIZE PUSH2 0x14B8 JUMP JUMPDEST PUSH1 0x84 SWAP1 PUSH1 0x20 DUP6 MLOAD SWAP2 PUSH3 0x461BCD PUSH1 0xE5 SHL DUP4 MSTORE DUP3 ADD MSTORE PUSH1 0x2E PUSH1 0x24 DUP3 ADD MSTORE PUSH32 0x496E697469616C697A61626C653A20636F6E747261637420697320616C726561 PUSH1 0x44 DUP3 ADD MSTORE PUSH32 0x647920696E697469616C697A6564000000000000000000000000000000000000 PUSH1 0x64 DUP3 ADD MSTORE REVERT JUMPDEST POP ADDRESS EXTCODESIZE ISZERO DUP1 ISZERO PUSH2 0x149D JUMPI POP PUSH1 0x1 PUSH1 0xFF DUP4 AND EQ PUSH2 0x149D JUMP JUMPDEST POP PUSH1 0x1 PUSH1 0xFF DUP4 AND LT PUSH2 0x1496 JUMP JUMPDEST DUP4 DUP4 CALLVALUE PUSH2 0x155 JUMPI PUSH1 0x20 SWAP1 PUSH1 0x3 NOT DUP3 DUP2 CALLDATASIZE ADD SLT PUSH2 0x3F5 JUMPI DUP5 CALLDATALOAD PUSH8 0xFFFFFFFFFFFFFFFF DUP2 GT PUSH2 0x3F1 JUMPI PUSH2 0x162D SWAP1 CALLDATASIZE SWAP1 DUP8 ADD PUSH2 0x2366 JUMP JUMPDEST SWAP4 SWAP1 SWAP6 PUSH1 0x1 PUSH1 0x1 PUSH1 0xA0 SHL SUB PUSH1 0xFB SLOAD AND SWAP1 DUP5 MLOAD PUSH32 0x9D92D73700000000000000000000000000000000000000000000000000000000 DUP2 MSTORE DUP4 DUP2 DUP1 PUSH2 0x1674 DUP13 DUP12 CALLER SWAP2 DUP9 DUP6 ADD PUSH2 0x29F4 JUMP JUMPDEST SUB DUP2 DUP7 GAS STATICCALL SWAP1 DUP2 ISZERO PUSH2 0x3E7 JUMPI DUP9 SWAP2 PUSH2 0x1745 JUMPI JUMPDEST POP ISZERO PUSH2 0x16F7 JUMPI PUSH2 0x169E DUP8 SWAP9 DUP7 MLOAD SWAP8 PUSH2 0x2AB DUP10 PUSH2 0x2540 JUMP JUMPDEST DUP4 DUP8 ADD MSTORE PUSH1 0x2 DUP6 DUP8 ADD MSTORE DUP2 EXTCODESIZE ISZERO PUSH2 0x34E JUMPI DUP7 DUP6 DUP2 SWAP6 PUSH32 0x555345525F5041555345445F504F434B45540000000000000000000000000000 DUP3 SWAP7 PUSH2 0x841 DUP5 MLOAD SWAP12 DUP13 SWAP10 DUP11 SWAP9 PUSH4 0x384E1A09 PUSH1 0xE2 SHL DUP11 MSTORE DUP10 ADD MSTORE PUSH1 0x44 DUP9 ADD SWAP1 PUSH2 0x2AC7 JUMP JUMPDEST PUSH1 0x84 SWAP1 DUP4 DUP7 MLOAD SWAP2 PUSH3 0x461BCD PUSH1 0xE5 SHL DUP4 MSTORE DUP3 ADD MSTORE PUSH1 0x24 DUP1 DUP3 ADD MSTORE PUSH32 0x4F7065726174696F6E206572726F723A2063616E6E6F7420706175736520706F PUSH1 0x44 DUP3 ADD MSTORE PUSH4 0x18DAD95D PUSH1 0xE2 SHL PUSH1 0x64 DUP3 ADD MSTORE REVERT JUMPDEST PUSH2 0x175C SWAP2 POP DUP5 RETURNDATASIZE DUP7 GT PUSH2 0x3E0 JUMPI PUSH2 0x3D2 DUP2 DUP4 PUSH2 0x255C JUMP JUMPDEST DUP10 PUSH2 0x1687 JUMP JUMPDEST POP POP CALLVALUE PUSH2 0x155 JUMPI DUP2 PUSH1 0x3 NOT CALLDATASIZE ADD SLT PUSH2 0x155 JUMPI PUSH1 0x20 SWAP1 PUSH1 0x1 PUSH1 0x1 PUSH1 0xA0 SHL SUB PUSH1 0xFB SLOAD AND SWAP1 MLOAD SWAP1 DUP2 MSTORE RETURN JUMPDEST DUP4 SWAP2 POP PUSH1 0x20 SWAP3 DUP4 PUSH1 0x3 NOT CALLDATASIZE ADD SLT PUSH2 0x202 JUMPI DUP2 CALLDATALOAD PUSH8 0xFFFFFFFFFFFFFFFF DUP2 GT PUSH2 0x3F5 JUMPI PUSH2 0x17B9 SWAP1 CALLDATASIZE SWAP1 DUP5 ADD PUSH2 0x2366 JUMP JUMPDEST SWAP3 SWAP1 PUSH2 0x17C3 PUSH2 0x2987 JUMP JUMPDEST CALLVALUE ISZERO PUSH2 0x17F5 JUMPI DUP5 SWAP6 PUSH1 0x1 PUSH1 0x1 PUSH1 0xA0 SHL SUB SWAP2 DUP3 PUSH1 0xFB SLOAD AND DUP6 MLOAD PUSH3 0x4418EB PUSH1 0xE8 SHL DUP2 MSTORE DUP4 DUP2 DUP1 PUSH2 0xEE0 CALLER DUP13 DUP9 DUP13 DUP6 ADD PUSH2 0x29F4 JUMP JUMPDEST POP DUP5 PUSH1 0x64 SWAP3 MLOAD SWAP2 PUSH3 0x461BCD PUSH1 0xE5 SHL DUP4 MSTORE DUP3 ADD MSTORE PUSH1 0x1F PUSH1 0x24 DUP3 ADD MSTORE PUSH32 0x4F7065726174696F6E206572726F723A20696E76616C696420616D6F756E7400 PUSH1 0x44 DUP3 ADD MSTORE REVERT JUMPDEST DUP4 CALLVALUE PUSH2 0x342 JUMPI DUP1 PUSH1 0x3 NOT CALLDATASIZE ADD SLT PUSH2 0x342 JUMPI PUSH2 0x1850 PUSH2 0x2431 JUMP JUMPDEST PUSH1 0x0 PUSH1 0x1 PUSH1 0x1 PUSH1 0xA0 SHL SUB PUSH1 0x97 SLOAD PUSH20 0xFFFFFFFFFFFFFFFFFFFFFFFFFFFFFFFFFFFFFFFF NOT DUP2 AND PUSH1 0x97 SSTORE AND PUSH32 0x8BE0079C531659141344CD1FD0A4F28419497F9722A3DAAFE3B4186F6B6457E0 DUP3 DUP1 LOG3 DUP1 RETURN JUMPDEST POP POP CALLVALUE PUSH2 0x155 JUMPI PUSH1 0x20 CALLDATASIZE PUSH1 0x3 NOT ADD SLT PUSH2 0x155 JUMPI PUSH1 0x1 PUSH1 0x1 PUSH1 0xA0 SHL SUB PUSH2 0x18C3 PUSH2 0x2394 JUMP JUMPDEST PUSH2 0x18CB PUSH2 0x2431 JUMP JUMPDEST AND SWAP1 DUP2 PUSH20 0xFFFFFFFFFFFFFFFFFFFFFFFFFFFFFFFFFFFFFFFF NOT PUSH1 0xFC SLOAD AND OR PUSH1 0xFC SSTORE MLOAD SWAP1 DUP2 MSTORE PUSH32 0x483BDEDAAF23706A9800AC1AF0D852B34927780D79F9D6BA60A80C7CAD75EA39 PUSH1 0x20 CALLER SWAP3 LOG2 DUP1 RETURN JUMPDEST DUP4 SWAP2 POP CALLVALUE PUSH2 0x155 JUMPI PUSH1 0x20 SWAP3 PUSH1 0x3 NOT DUP5 DUP2 CALLDATASIZE ADD SLT PUSH2 0x3F5 JUMPI DUP3 CALLDATALOAD SWAP5 PUSH8 0xFFFFFFFFFFFFFFFF DUP7 GT PUSH2 0x3F1 JUMPI DUP6 DUP5 ADD SWAP6 PUSH2 0x180 SWAP5 DUP6 DUP5 DUP4 CALLDATASIZE SUB ADD SLT PUSH2 0x34E JUMPI PUSH1 0x1 PUSH1 0x1 PUSH1 0xA0 SHL SUB PUSH1 0xFB SLOAD AND SWAP2 PUSH2 0x19A4 DUP5 PUSH2 0x1970 DUP12 DUP1 PUSH2 0x2596 JUMP JUMPDEST DUP10 MLOAD SWAP4 DUP5 SWAP3 DUP4 SWAP3 PUSH32 0xB612F86600000000000000000000000000000000000000000000000000000000 DUP5 MSTORE CALLER SWAP2 DUP10 DUP6 ADD PUSH2 0x29F4 JUMP JUMPDEST SUB DUP2 DUP8 GAS STATICCALL SWAP1 DUP2 ISZERO PUSH2 0xD9F JUMPI DUP10 SWAP2 PUSH2 0x1B3F JUMPI JUMPDEST POP ISZERO PUSH2 0x1AD7 JUMPI DUP8 SWAP9 DUP4 EXTCODESIZE ISZERO PUSH2 0xCD6 JUMPI DUP9 SWAP6 DUP8 SWAP6 DUP8 SWAP4 DUP8 SWAP4 DUP5 MLOAD SWAP12 DUP13 SWAP10 DUP11 SWAP9 PUSH32 0x3740C18300000000000000000000000000000000000000000000000000000000 DUP11 MSTORE DUP10 ADD MSTORE PUSH2 0x1A05 DUP3 DUP1 PUSH2 0x268A JUMP JUMPDEST SWAP1 SWAP2 PUSH1 0x44 DUP11 ADD MSTORE PUSH2 0x1C4 DUP10 ADD SWAP1 PUSH2 0x1A1B SWAP3 PUSH2 0x26BC JUMP JUMPDEST SWAP1 PUSH1 0x24 DUP4 ADD CALLDATALOAD PUSH1 0x64 DUP10 ADD MSTORE PUSH1 0x44 DUP4 ADD CALLDATALOAD PUSH1 0x84 DUP10 ADD MSTORE PUSH1 0x64 DUP4 ADD PUSH2 0x1A3D SWAP2 PUSH2 0x26DD JUMP JUMPDEST DUP9 DUP4 SUB PUSH1 0x43 NOT ADD PUSH1 0xA4 DUP11 ADD MSTORE PUSH2 0x1A53 SWAP3 SWAP2 PUSH2 0x2732 JUMP JUMPDEST PUSH1 0x84 DUP3 ADD CALLDATALOAD PUSH1 0xC4 DUP9 ADD MSTORE SWAP1 PUSH2 0x1A6E PUSH1 0xE4 DUP9 ADD PUSH1 0xA4 DUP4 ADD PUSH2 0x278E JUMP JUMPDEST PUSH2 0x144 PUSH2 0x1A81 DUP9 DUP3 ADD PUSH2 0x104 DUP5 ADD PUSH2 0x27B1 JUMP JUMPDEST PUSH2 0x1A91 SWAP2 PUSH2 0x184 DUP10 ADD SWAP2 ADD PUSH2 0x27B1 JUMP JUMPDEST DUP6 DUP2 SUB SWAP3 DUP4 ADD PUSH1 0x24 DUP8 ADD MSTORE PUSH1 0x12 DUP2 MSTORE ADD PUSH32 0x555345525F5550444154455F504F434B45540000000000000000000000000000 SWAP1 MSTORE ADD SWAP3 GAS CALL SWAP1 DUP2 ISZERO PUSH2 0x345 JUMPI POP PUSH2 0x332 JUMPI POP RETURN JUMPDEST PUSH1 0x84 DUP3 DUP6 DUP9 MLOAD SWAP2 PUSH3 0x461BCD PUSH1 0xE5 SHL DUP4 MSTORE DUP3 ADD MSTORE PUSH1 0x31 PUSH1 0x24 DUP3 ADD MSTORE PUSH32 0x4F7065726174696F6E206572726F723A2074686520706F636B6574206973206E PUSH1 0x44 DUP3 ADD MSTORE PUSH32 0x6F742061626C6520746F20757064617465000000000000000000000000000000 PUSH1 0x64 DUP3 ADD MSTORE REVERT JUMPDEST PUSH2 0x1B56 SWAP2 POP DUP6 RETURNDATASIZE DUP8 GT PUSH2 0x3E0 JUMPI PUSH2 0x3D2 DUP2 DUP4 PUSH2 0x255C JUMP JUMPDEST DUP11 PUSH2 0x19B7 JUMP JUMPDEST POP POP CALLVALUE PUSH2 0x155 JUMPI DUP2 PUSH1 0x3 NOT CALLDATASIZE ADD SLT PUSH2 0x155 JUMPI PUSH1 0x20 SWAP1 PUSH1 0xFF PUSH1 0x33 SLOAD AND SWAP1 MLOAD SWAP1 ISZERO ISZERO DUP2 MSTORE RETURN JUMPDEST SWAP1 POP CALLVALUE PUSH2 0x202 JUMPI DUP3 PUSH1 0x3 NOT CALLDATASIZE ADD SLT PUSH2 0x202 JUMPI PUSH2 0x1B9A PUSH2 0x2431 JUMP JUMPDEST PUSH1 0x33 SLOAD SWAP1 PUSH1 0xFF DUP3 AND ISZERO PUSH2 0x1BDC JUMPI POP PUSH1 0xFF NOT AND PUSH1 0x33 SSTORE MLOAD CALLER DUP2 MSTORE PUSH32 0x5DB9EE0A495BF2E6FF9C91A7834C1BA4FDD244A5E8AA4E537BD38AEAE4B073AA SWAP1 PUSH1 0x20 SWAP1 LOG1 DUP1 RETURN JUMPDEST PUSH1 0x64 SWAP1 PUSH1 0x20 DUP5 MLOAD SWAP2 PUSH3 0x461BCD PUSH1 0xE5 SHL DUP4 MSTORE DUP3 ADD MSTORE PUSH1 0x14 PUSH1 0x24 DUP3 ADD MSTORE PUSH32 0x5061757361626C653A206E6F7420706175736564000000000000000000000000 PUSH1 0x44 DUP3 ADD MSTORE REVERT JUMPDEST DUP1 SWAP2 DUP5 CALLVALUE PUSH2 0x73F JUMPI DUP1 PUSH1 0x3 NOT CALLDATASIZE ADD SLT PUSH2 0x73F JUMPI DUP2 CALLDATALOAD PUSH8 0xFFFFFFFFFFFFFFFF DUP2 GT PUSH2 0x73A JUMPI PUSH2 0x1C50 SWAP1 CALLDATASIZE SWAP1 DUP5 ADD PUSH2 0x2366 JUMP JUMPDEST SWAP3 SWAP1 PUSH1 0x24 CALLDATALOAD PUSH2 0x46E PUSH2 0x2987 JUMP JUMPDEST DUP4 DUP4 CALLVALUE PUSH2 0x155 JUMPI PUSH1 0x20 SWAP1 PUSH1 0x3 NOT DUP3 DUP2 CALLDATASIZE ADD SLT PUSH2 0x3F5 JUMPI DUP5 CALLDATALOAD PUSH8 0xFFFFFFFFFFFFFFFF DUP2 GT PUSH2 0x3F1 JUMPI PUSH2 0x1C91 SWAP1 CALLDATASIZE SWAP1 DUP8 ADD PUSH2 0x2366 JUMP JUMPDEST SWAP4 SWAP1 SWAP6 PUSH2 0x1C9C PUSH2 0x2987 JUMP JUMPDEST PUSH1 0x1 PUSH1 0x1 PUSH1 0xA0 SHL SUB PUSH2 0x1CE3 DUP4 DUP10 DUP4 PUSH1 0xFB SLOAD AND DUP9 MLOAD DUP1 DUP1 SWAP6 DUP2 SWAP5 PUSH32 0x7BC0394000000000000000000000000000000000000000000000000000000000 DUP4 MSTORE DUP14 CALLER SWAP2 DUP12 DUP6 ADD PUSH2 0x29F4 JUMP JUMPDEST SUB SWAP2 GAS STATICCALL SWAP1 DUP2 ISZERO PUSH2 0x3E7 JUMPI DUP9 SWAP2 PUSH2 0x1E81 JUMPI JUMPDEST POP ISZERO PUSH2 0x1E19 JUMPI PUSH2 0x1D0C DUP8 SWAP9 DUP7 MLOAD SWAP8 PUSH2 0x2AB DUP10 PUSH2 0x2524 JUMP JUMPDEST DUP4 DUP8 ADD MSTORE DUP1 PUSH1 0xFC SLOAD AND DUP1 EXTCODESIZE ISZERO PUSH2 0xCA1 JUMPI DUP8 DUP7 MLOAD DUP1 SWAP3 PUSH32 0x61A45AE600000000000000000000000000000000000000000000000000000000 DUP3 MSTORE DUP7 DUP7 DUP4 ADD MSTORE DUP2 DUP4 DUP2 PUSH2 0x1D5A DUP14 PUSH1 0x24 DUP4 ADD SWAP1 PUSH2 0x2CC6 JUMP JUMPDEST SUB SWAP3 GAS CALL DUP1 ISZERO PUSH2 0x3E7 JUMPI SWAP1 DUP9 SWAP2 PUSH2 0x1E05 JUMPI JUMPDEST POP POP PUSH1 0xFB SLOAD AND SWAP1 DUP2 EXTCODESIZE ISZERO PUSH2 0x34E JUMPI DUP7 DUP6 DUP2 SWAP6 PUSH32 0x555345525F57495448445245575F46554E440000000000000000000000000000 DUP3 SWAP7 PUSH2 0x1DDB DUP5 MLOAD SWAP12 DUP13 SWAP10 DUP11 SWAP9 PUSH32 0xBCF7A12200000000000000000000000000000000000000000000000000000000 DUP11 MSTORE DUP10 ADD MSTORE PUSH1 0x44 DUP9 ADD SWAP1 PUSH2 0x2CC6 JUMP JUMPDEST DUP7 DUP2 SUB SWAP4 DUP5 ADD PUSH1 0x24 DUP9 ADD MSTORE PUSH1 0x12 DUP2 MSTORE ADD MSTORE ADD SWAP3 GAS CALL SWAP1 DUP2 ISZERO PUSH2 0x345 JUMPI POP PUSH2 0x670 JUMPI POP PUSH1 0x1 PUSH1 0x65 SSTORE DUP1 RETURN JUMPDEST PUSH2 0x1E0E SWAP1 PUSH2 0x2510 JUMP JUMPDEST PUSH2 0x34E JUMPI DUP7 DUP10 PUSH2 0x1D6C JUMP JUMPDEST POP PUSH1 0x84 SWAP2 DUP5 MLOAD SWAP2 PUSH3 0x461BCD PUSH1 0xE5 SHL DUP4 MSTORE DUP3 ADD MSTORE PUSH1 0x2C PUSH1 0x24 DUP3 ADD MSTORE PUSH32 0x4F7065726174696F6E206572726F723A2063616E6E6F74207769746864726177 PUSH1 0x44 DUP3 ADD MSTORE PUSH32 0x20706F636B65742066756E640000000000000000000000000000000000000000 PUSH1 0x64 DUP3 ADD MSTORE REVERT JUMPDEST PUSH2 0x1E98 SWAP2 POP DUP5 RETURNDATASIZE DUP7 GT PUSH2 0x3E0 JUMPI PUSH2 0x3D2 DUP2 DUP4 PUSH2 0x255C JUMP JUMPDEST DUP10 PUSH2 0x1CF5 JUMP JUMPDEST DUP4 DUP4 CALLVALUE PUSH2 0x155 JUMPI PUSH1 0x20 SWAP1 PUSH1 0x3 NOT DUP3 DUP2 CALLDATASIZE ADD SLT PUSH2 0x3F5 JUMPI DUP5 CALLDATALOAD PUSH8 0xFFFFFFFFFFFFFFFF DUP2 GT PUSH2 0x3F1 JUMPI PUSH2 0x1ED2 SWAP1 CALLDATASIZE SWAP1 DUP8 ADD PUSH2 0x2366 JUMP JUMPDEST SWAP4 SWAP1 SWAP6 PUSH2 0x1EDD PUSH2 0x2987 JUMP JUMPDEST PUSH1 0x1 PUSH1 0x1 PUSH1 0xA0 SHL SUB SWAP3 DUP4 PUSH1 0xFB SLOAD AND DUP6 MLOAD PUSH4 0x983D2737 PUSH1 0xE0 SHL DUP2 MSTORE DUP5 DUP2 DUP6 DUP2 DUP6 GAS STATICCALL DUP1 ISZERO PUSH2 0xD9F JUMPI DUP6 SWAP1 DUP11 SWAP1 PUSH2 0x2337 JUMPI JUMPDEST DUP9 MLOAD PUSH4 0x24745215 PUSH1 0xE2 SHL DUP2 MSTORE DUP7 DUP2 ADD SWAP2 DUP3 MSTORE CALLER PUSH1 0x20 DUP4 ADD MSTORE SWAP3 POP DUP3 SWAP1 DUP2 SWAP1 PUSH1 0x40 ADD JUMPDEST SUB DUP2 DUP6 GAS STATICCALL SWAP1 DUP2 ISZERO PUSH2 0xD9F JUMPI PUSH2 0x1F8C SWAP3 PUSH2 0x1F52 DUP8 SWAP4 DUP14 SWAP4 DUP14 SWAP2 PUSH2 0x231A JUMPI POP PUSH2 0x2A1C JUMP JUMPDEST DUP9 MLOAD DUP1 DUP1 SWAP6 DUP2 SWAP5 PUSH32 0xB3FD1DA500000000000000000000000000000000000000000000000000000000 DUP4 MSTORE DUP7 DUP11 DUP5 ADD MSTORE DUP14 PUSH1 0x24 DUP5 ADD SWAP2 PUSH2 0x26BC JUMP JUMPDEST SUB SWAP2 GAS STATICCALL SWAP1 DUP2 ISZERO PUSH2 0x3E7 JUMPI DUP9 SWAP2 PUSH2 0x22FD JUMPI JUMPDEST POP ISZERO PUSH2 0x2295 JUMPI PUSH2 0x1FEB SWAP1 DUP6 DUP10 DUP7 PUSH1 0xFC SLOAD AND DUP10 DUP12 DUP5 MLOAD DUP1 SWAP8 DUP2 SWAP6 DUP3 SWAP5 PUSH32 0x9C89BB3D00000000000000000000000000000000000000000000000000000000 DUP5 MSTORE DUP13 DUP13 DUP6 ADD MSTORE PUSH1 0x24 DUP5 ADD SWAP2 PUSH2 0x26BC JUMP JUMPDEST SUB SWAP3 GAS CALL SWAP5 DUP6 ISZERO PUSH2 0x3E7 JUMPI DUP9 SWAP3 DUP10 SWAP7 PUSH2 0x2270 JUMPI JUMPDEST POP DUP1 PUSH1 0xFB SLOAD AND SWAP5 DUP4 DUP2 DUP11 DUP14 PUSH2 0x2040 DUP12 DUP14 MLOAD SWAP6 DUP7 SWAP5 DUP6 SWAP5 PUSH32 0xD3FC80D900000000000000000000000000000000000000000000000000000000 DUP7 MSTORE DUP14 DUP7 ADD PUSH2 0x2AA3 JUMP JUMPDEST SUB DUP2 DUP11 GAS STATICCALL SWAP1 DUP2 ISZERO PUSH2 0x2249 JUMPI DUP12 SWAP2 PUSH2 0x2253 JUMPI JUMPDEST POP DUP1 ISZERO PUSH2 0x21D8 JUMPI JUMPDEST ISZERO PUSH2 0x2170 JUMPI PUSH2 0x2074 DUP11 SWAP12 DUP10 SWAP11 SWAP12 SWAP10 MLOAD SWAP12 PUSH2 0x11D4 DUP14 PUSH2 0x24DE JUMP JUMPDEST DUP11 MSTORE DUP1 DUP11 ADD SWAP1 CALLER DUP3 MSTORE DUP10 DUP12 ADD SWAP5 DUP6 MSTORE PUSH1 0x60 DUP12 ADD SWAP8 DUP9 MSTORE DUP7 EXTCODESIZE ISZERO PUSH2 0xCD6 JUMPI DUP10 SWAP8 DUP10 SWAP6 DUP10 SWAP5 DUP6 MLOAD SWAP14 DUP15 SWAP12 DUP13 SWAP11 PUSH32 0xB48093E100000000000000000000000000000000000000000000000000000000 DUP13 MSTORE DUP12 ADD MSTORE MLOAD PUSH1 0x44 DUP11 ADD PUSH1 0x80 SWAP1 MSTORE PUSH1 0xC4 DUP11 ADD PUSH2 0x20DA SWAP2 PUSH2 0x23BE JUMP JUMPDEST SWAP5 MLOAD AND PUSH1 0x64 DUP10 ADD MSTORE MLOAD PUSH1 0x84 DUP9 ADD MSTORE MLOAD PUSH1 0xA4 DUP8 ADD MSTORE DUP6 DUP3 SUB SWAP4 DUP5 ADD PUSH1 0x24 DUP8 ADD MSTORE PUSH1 0x27 DUP3 MSTORE DUP2 ADD PUSH32 0x4F50455241544F525F555044415445445F434C4F53494E475F504F534954494F SWAP1 MSTORE ADD PUSH32 0x4E5F535441545300000000000000000000000000000000000000000000000000 SWAP1 MSTORE PUSH1 0x60 ADD SWAP3 GAS CALL SWAP1 DUP2 ISZERO PUSH2 0x345 JUMPI POP PUSH2 0x2161 JUMPI POP PUSH1 0x1 PUSH1 0x65 SSTORE DUP1 RETURN JUMPDEST PUSH2 0x216A SWAP1 PUSH2 0x2510 JUMP JUMPDEST DUP2 PUSH2 0x667 JUMP JUMPDEST DUP5 PUSH1 0x84 SWAP2 DUP10 MLOAD SWAP2 PUSH3 0x461BCD PUSH1 0xE5 SHL DUP4 MSTORE DUP3 ADD MSTORE PUSH1 0x3A PUSH1 0x24 DUP3 ADD MSTORE PUSH32 0x4F7065726174696F6E206572726F723A20636C6F73696E6720706F736974696F PUSH1 0x44 DUP3 ADD MSTORE PUSH32 0x6E20636F6E646974696F6E20646F6573206E6F74207265616368000000000000 PUSH1 0x64 DUP3 ADD MSTORE REVERT JUMPDEST POP DUP4 DUP2 DUP11 DUP14 PUSH2 0x2213 DUP12 DUP14 MLOAD SWAP6 DUP7 SWAP5 DUP6 SWAP5 PUSH32 0x1416642E00000000000000000000000000000000000000000000000000000000 DUP7 MSTORE DUP14 DUP7 ADD PUSH2 0x2AA3 JUMP JUMPDEST SUB DUP2 DUP11 GAS STATICCALL SWAP1 DUP2 ISZERO PUSH2 0x2249 JUMPI DUP12 SWAP2 PUSH2 0x222C JUMPI JUMPDEST POP PUSH2 0x205B JUMP JUMPDEST PUSH2 0x2243 SWAP2 POP DUP3 RETURNDATASIZE DUP5 GT PUSH2 0x3E0 JUMPI PUSH2 0x3D2 DUP2 DUP4 PUSH2 0x255C JUMP JUMPDEST DUP13 PUSH2 0x2226 JUMP JUMPDEST DUP10 MLOAD RETURNDATASIZE DUP14 DUP3 RETURNDATACOPY RETURNDATASIZE SWAP1 REVERT JUMPDEST PUSH2 0x226A SWAP2 POP DUP3 RETURNDATASIZE DUP5 GT PUSH2 0x3E0 JUMPI PUSH2 0x3D2 DUP2 DUP4 PUSH2 0x255C JUMP JUMPDEST DUP13 PUSH2 0x2053 JUMP JUMPDEST SWAP1 SWAP6 POP PUSH2 0x228B SWAP2 SWAP3 POP DUP7 RETURNDATASIZE DUP9 GT PUSH2 0xD98 JUMPI PUSH2 0xD87 DUP2 DUP4 PUSH2 0x255C JUMP JUMPDEST SWAP2 SWAP1 SWAP2 SWAP5 DUP11 PUSH2 0x1FFF JUMP JUMPDEST POP PUSH1 0x84 SWAP2 DUP5 MLOAD SWAP2 PUSH3 0x461BCD PUSH1 0xE5 SHL DUP4 MSTORE DUP3 ADD MSTORE PUSH1 0x3A PUSH1 0x24 DUP3 ADD MSTORE PUSH32 0x4F7065726174696F6E206572726F723A2074686520706F636B6574206973206E PUSH1 0x44 DUP3 ADD MSTORE PUSH32 0x6F7420726561647920746F20636C6F736520706F736974696F6E000000000000 PUSH1 0x64 DUP3 ADD MSTORE REVERT JUMPDEST PUSH2 0x2314 SWAP2 POP DUP5 RETURNDATASIZE DUP7 GT PUSH2 0x3E0 JUMPI PUSH2 0x3D2 DUP2 DUP4 PUSH2 0x255C JUMP JUMPDEST DUP10 PUSH2 0x1F9E JUMP JUMPDEST PUSH2 0x2331 SWAP2 POP DUP6 RETURNDATASIZE DUP8 GT PUSH2 0x3E0 JUMPI PUSH2 0x3D2 DUP2 DUP4 PUSH2 0x255C JUMP JUMPDEST DUP15 PUSH2 0x97D JUMP JUMPDEST POP DUP2 DUP2 RETURNDATASIZE DUP4 GT PUSH2 0x235F JUMPI JUMPDEST PUSH2 0x234C DUP2 DUP4 PUSH2 0x255C JUMP JUMPDEST DUP2 ADD SUB SLT PUSH2 0xCD6 JUMPI DUP5 PUSH2 0x1F2F SWAP2 MLOAD PUSH2 0x1F0D JUMP JUMPDEST POP RETURNDATASIZE PUSH2 0x2342 JUMP JUMPDEST SWAP2 DUP2 PUSH1 0x1F DUP5 ADD SLT ISZERO PUSH2 0xE7C JUMPI DUP3 CALLDATALOAD SWAP2 PUSH8 0xFFFFFFFFFFFFFFFF DUP4 GT PUSH2 0xE7C JUMPI PUSH1 0x20 DUP4 DUP2 DUP7 ADD SWAP6 ADD ADD GT PUSH2 0xE7C JUMPI JUMP JUMPDEST PUSH1 0x4 CALLDATALOAD SWAP1 PUSH1 0x1 PUSH1 0x1 PUSH1 0xA0 SHL SUB DUP3 AND DUP3 SUB PUSH2 0xE7C JUMPI JUMP JUMPDEST CALLDATALOAD SWAP1 PUSH1 0x1 PUSH1 0x1 PUSH1 0xA0 SHL SUB DUP3 AND DUP3 SUB PUSH2 0xE7C JUMPI JUMP JUMPDEST SWAP2 SWAP1 DUP3 MLOAD SWAP3 DUP4 DUP3 MSTORE PUSH1 0x0 JUMPDEST DUP5 DUP2 LT PUSH2 0x23EA JUMPI POP POP DUP3 PUSH1 0x0 PUSH1 0x20 DUP1 SWAP5 SWAP6 DUP5 ADD ADD MSTORE PUSH1 0x1F DUP1 NOT SWAP2 ADD AND ADD ADD SWAP1 JUMP JUMPDEST PUSH1 0x20 DUP2 DUP4 ADD DUP2 ADD MLOAD DUP5 DUP4 ADD DUP3 ADD MSTORE ADD PUSH2 0x23C9 JUMP JUMPDEST PUSH1 0x3 NOT SWAP1 PUSH1 0x20 DUP2 DUP4 ADD SLT PUSH2 0xE7C JUMPI PUSH1 0x4 CALLDATALOAD SWAP2 PUSH8 0xFFFFFFFFFFFFFFFF DUP4 GT PUSH2 0xE7C JUMPI DUP3 PUSH2 0x200 SWAP3 SUB ADD SLT PUSH2 0xE7C JUMPI PUSH1 0x4 ADD SWAP1 JUMP JUMPDEST PUSH1 0x1 PUSH1 0x1 PUSH1 0xA0 SHL SUB PUSH1 0x97 SLOAD AND CALLER SUB PUSH2 0x2445 JUMPI JUMP JUMPDEST PUSH1 0x64 PUSH1 0x40 MLOAD PUSH3 0x461BCD PUSH1 0xE5 SHL DUP2 MSTORE PUSH1 0x20 PUSH1 0x4 DUP3 ADD MSTORE PUSH1 0x20 PUSH1 0x24 DUP3 ADD MSTORE PUSH32 0x4F776E61626C653A2063616C6C6572206973206E6F7420746865206F776E6572 PUSH1 0x44 DUP3 ADD MSTORE REVERT JUMPDEST PUSH1 0x97 SLOAD SWAP1 PUSH1 0x1 PUSH1 0x1 PUSH1 0xA0 SHL SUB DUP1 SWAP2 AND SWAP2 DUP3 PUSH20 0xFFFFFFFFFFFFFFFFFFFFFFFFFFFFFFFFFFFFFFFF NOT DUP3 AND OR PUSH1 0x97 SSTORE AND PUSH32 0x8BE0079C531659141344CD1FD0A4F28419497F9722A3DAAFE3B4186F6B6457E0 PUSH1 0x0 DUP1 LOG3 JUMP JUMPDEST PUSH1 0x80 DUP2 ADD SWAP1 DUP2 LT PUSH8 0xFFFFFFFFFFFFFFFF DUP3 GT OR PUSH2 0x24FA JUMPI PUSH1 0x40 MSTORE JUMP JUMPDEST PUSH4 0x4E487B71 PUSH1 0xE0 SHL PUSH1 0x0 MSTORE PUSH1 0x41 PUSH1 0x4 MSTORE PUSH1 0x24 PUSH1 0x0 REVERT JUMPDEST PUSH8 0xFFFFFFFFFFFFFFFF DUP2 GT PUSH2 0x24FA JUMPI PUSH1 0x40 MSTORE JUMP JUMPDEST PUSH1 0x40 DUP2 ADD SWAP1 DUP2 LT PUSH8 0xFFFFFFFFFFFFFFFF DUP3 GT OR PUSH2 0x24FA JUMPI PUSH1 0x40 MSTORE JUMP JUMPDEST PUSH1 0x60 DUP2 ADD SWAP1 DUP2 LT PUSH8 0xFFFFFFFFFFFFFFFF DUP3 GT OR PUSH2 0x24FA JUMPI PUSH1 0x40 MSTORE JUMP JUMPDEST SWAP1 PUSH1 0x1F DUP1 NOT SWAP2 ADD AND DUP2 ADD SWAP1 DUP2 LT PUSH8 0xFFFFFFFFFFFFFFFF DUP3 GT OR PUSH2 0x24FA JUMPI PUSH1 0x40 MSTORE JUMP JUMPDEST PUSH8 0xFFFFFFFFFFFFFFFF DUP2 GT PUSH2 0x24FA JUMPI PUSH1 0x5 SHL PUSH1 0x20 ADD SWAP1 JUMP JUMPDEST SWAP1 CALLDATALOAD SWAP1 PUSH1 0x1E NOT DUP2 CALLDATASIZE SUB ADD DUP3 SLT ISZERO PUSH2 0xE7C JUMPI ADD DUP1 CALLDATALOAD SWAP1 PUSH8 0xFFFFFFFFFFFFFFFF DUP3 GT PUSH2 0xE7C JUMPI PUSH1 0x20 ADD SWAP2 DUP2 CALLDATASIZE SUB DUP4 SGT PUSH2 0xE7C JUMPI JUMP JUMPDEST PUSH8 0xFFFFFFFFFFFFFFFF DUP2 GT PUSH2 0x24FA JUMPI PUSH1 0x1F ADD PUSH1 0x1F NOT AND PUSH1 0x20 ADD SWAP1 JUMP JUMPDEST SWAP3 SWAP2 SWAP3 PUSH2 0x25F1 DUP3 PUSH2 0x25C9 JUMP JUMPDEST SWAP2 PUSH2 0x25FF PUSH1 0x40 MLOAD SWAP4 DUP5 PUSH2 0x255C JUMP JUMPDEST DUP3 SWAP5 DUP2 DUP5 MSTORE DUP2 DUP4 ADD GT PUSH2 0xE7C JUMPI DUP3 DUP2 PUSH1 0x20 SWAP4 DUP5 PUSH1 0x0 SWAP7 ADD CALLDATACOPY ADD ADD MSTORE JUMP JUMPDEST DUP1 MLOAD DUP3 LT ISZERO PUSH2 0x2630 JUMPI PUSH1 0x20 SWAP2 PUSH1 0x5 SHL ADD ADD SWAP1 JUMP JUMPDEST PUSH4 0x4E487B71 PUSH1 0xE0 SHL PUSH1 0x0 MSTORE PUSH1 0x32 PUSH1 0x4 MSTORE PUSH1 0x24 PUSH1 0x0 REVERT JUMPDEST SWAP1 SWAP2 SWAP1 ISZERO PUSH2 0x2652 JUMPI POP SWAP1 JUMP JUMPDEST DUP2 MLOAD ISZERO PUSH2 0x2662 JUMPI POP DUP1 MLOAD SWAP1 PUSH1 0x20 ADD REVERT JUMPDEST PUSH2 0x2686 SWAP1 PUSH1 0x40 MLOAD SWAP2 DUP3 SWAP2 PUSH3 0x461BCD PUSH1 0xE5 SHL DUP4 MSTORE PUSH1 0x20 PUSH1 0x4 DUP5 ADD MSTORE PUSH1 0x24 DUP4 ADD SWAP1 PUSH2 0x23BE JUMP JUMPDEST SUB SWAP1 REVERT JUMPDEST SWAP1 CALLDATALOAD PUSH1 0x1E NOT DUP3 CALLDATASIZE SUB ADD DUP2 SLT ISZERO PUSH2 0xE7C JUMPI ADD PUSH1 0x20 DUP2 CALLDATALOAD SWAP2 ADD SWAP2 PUSH8 0xFFFFFFFFFFFFFFFF DUP3 GT PUSH2 0xE7C JUMPI DUP2 CALLDATASIZE SUB DUP4 SGT PUSH2 0xE7C JUMPI JUMP JUMPDEST SWAP1 DUP1 PUSH1 0x20 SWAP4 SWAP3 DUP2 DUP5 MSTORE DUP5 DUP5 ADD CALLDATACOPY PUSH1 0x0 DUP3 DUP3 ADD DUP5 ADD MSTORE PUSH1 0x1F ADD PUSH1 0x1F NOT AND ADD ADD SWAP1 JUMP JUMPDEST SWAP1 CALLDATALOAD PUSH1 0x1E NOT DUP3 CALLDATASIZE SUB ADD DUP2 SLT ISZERO PUSH2 0xE7C JUMPI ADD PUSH1 0x20 DUP2 CALLDATALOAD SWAP2 ADD SWAP2 PUSH8 0xFFFFFFFFFFFFFFFF DUP3 GT PUSH2 0xE7C JUMPI DUP2 PUSH1 0x6 SHL CALLDATASIZE SUB DUP4 SGT PUSH2 0xE7C JUMPI JUMP JUMPDEST PUSH1 0x4 GT ISZERO PUSH2 0x271C JUMPI JUMP JUMPDEST PUSH4 0x4E487B71 PUSH1 0xE0 SHL PUSH1 0x0 MSTORE PUSH1 0x21 PUSH1 0x4 MSTORE PUSH1 0x24 PUSH1 0x0 REVERT JUMPDEST SWAP2 DUP2 DUP2 MSTORE PUSH1 0x20 DUP1 SWAP2 ADD SWAP3 SWAP2 PUSH1 0x0 SWAP2 DUP3 SWAP1 JUMPDEST DUP3 DUP3 LT PUSH2 0x2752 JUMPI POP POP POP POP POP SWAP1 JUMP JUMPDEST SWAP1 SWAP2 SWAP3 SWAP4 SWAP5 DUP6 CALLDATALOAD DUP2 MSTORE DUP2 DUP7 ADD CALLDATALOAD PUSH1 0x4 DUP2 LT ISZERO PUSH2 0x278A JUMPI SWAP1 DUP2 PUSH2 0x2775 PUSH1 0x1 SWAP4 PUSH2 0x2712 JUMP JUMPDEST DUP2 DUP5 ADD MSTORE PUSH1 0x40 SWAP1 DUP2 ADD SWAP7 ADD SWAP5 SWAP4 SWAP3 ADD SWAP1 PUSH2 0x2743 JUMP JUMPDEST DUP6 DUP1 REVERT JUMPDEST PUSH1 0x40 SWAP1 DUP1 CALLDATALOAD DUP4 MSTORE PUSH1 0x20 DUP2 ADD CALLDATALOAD PUSH1 0x20 DUP5 ADD MSTORE ADD CALLDATALOAD SWAP1 PUSH1 0x7 DUP3 LT ISZERO PUSH2 0xE7C JUMPI PUSH1 0x40 ADD MSTORE JUMP JUMPDEST DUP1 CALLDATALOAD PUSH1 0x4 DUP2 LT ISZERO PUSH2 0xE7C JUMPI PUSH1 0x20 SWAP2 DUP2 PUSH2 0x27CA DUP5 SWAP4 PUSH2 0x2712 JUMP JUMPDEST DUP5 MSTORE ADD CALLDATALOAD SWAP2 ADD MSTORE JUMP JUMPDEST PUSH1 0x20 DUP2 ADD SWAP1 DUP2 CALLDATALOAD PUSH1 0x1 PUSH1 0x1 PUSH1 0xA0 SHL SUB SWAP1 DUP2 DUP2 AND DUP1 SWAP2 SUB PUSH2 0xE7C JUMPI CALLER SUB PUSH2 0x2943 JUMPI DUP1 PUSH1 0xFB SLOAD AND DUP1 EXTCODESIZE ISZERO PUSH2 0xE7C JUMPI PUSH2 0x291B SWAP4 PUSH1 0x0 PUSH2 0x28DB SWAP4 DUP2 SWAP6 PUSH1 0x40 MLOAD SWAP8 DUP9 SWAP7 DUP8 SWAP6 DUP7 SWAP5 PUSH32 0xE92C359800000000000000000000000000000000000000000000000000000000 DUP7 MSTORE PUSH1 0x20 PUSH1 0x4 DUP8 ADD MSTORE DUP1 PUSH2 0x2869 PUSH2 0x2863 PUSH2 0x2850 DUP9 DUP1 PUSH2 0x268A JUMP JUMPDEST PUSH2 0x200 PUSH1 0x24 DUP13 ADD MSTORE PUSH2 0x224 DUP12 ADD SWAP2 PUSH2 0x26BC JUMP JUMPDEST SWAP4 PUSH2 0x23AA JUMP JUMPDEST AND PUSH1 0x44 DUP8 ADD MSTORE DUP1 PUSH2 0x287C PUSH1 0x40 DUP8 ADD PUSH2 0x23AA JUMP JUMPDEST AND PUSH1 0x64 DUP8 ADD MSTORE DUP1 PUSH2 0x288F PUSH1 0x60 DUP8 ADD PUSH2 0x23AA JUMP JUMPDEST AND PUSH1 0x84 DUP8 ADD MSTORE PUSH2 0x28A1 PUSH1 0x80 DUP7 ADD PUSH2 0x23AA JUMP JUMPDEST AND PUSH1 0xA4 DUP7 ADD MSTORE PUSH1 0xA0 DUP5 ADD CALLDATALOAD PUSH1 0xC4 DUP7 ADD MSTORE PUSH1 0xC0 DUP5 ADD CALLDATALOAD PUSH1 0xE4 DUP7 ADD MSTORE PUSH2 0x28C8 PUSH1 0xE0 DUP6 ADD DUP6 PUSH2 0x26DD JUMP JUMPDEST DUP7 DUP4 SUB PUSH1 0x23 NOT ADD PUSH2 0x104 DUP9 ADD MSTORE SWAP1 PUSH2 0x2732 JUMP JUMPDEST SWAP2 PUSH2 0x100 DUP2 ADD CALLDATALOAD PUSH2 0x124 DUP6 ADD MSTORE PUSH2 0x28FA PUSH2 0x144 DUP6 ADD PUSH2 0x120 DUP4 ADD PUSH2 0x278E JUMP JUMPDEST PUSH2 0x290C PUSH2 0x1A4 DUP6 ADD PUSH2 0x180 DUP4 ADD PUSH2 0x27B1 JUMP JUMPDEST PUSH2 0x1C0 PUSH2 0x1E4 DUP6 ADD SWAP2 ADD PUSH2 0x27B1 JUMP JUMPDEST SUB SWAP3 GAS CALL DUP1 ISZERO PUSH2 0x2937 JUMPI PUSH2 0x292C JUMPI POP JUMP JUMPDEST PUSH2 0x2935 SWAP1 PUSH2 0x2510 JUMP JUMPDEST JUMP JUMPDEST PUSH1 0x40 MLOAD RETURNDATASIZE PUSH1 0x0 DUP3 RETURNDATACOPY RETURNDATASIZE SWAP1 REVERT JUMPDEST PUSH1 0x64 PUSH1 0x40 MLOAD PUSH3 0x461BCD PUSH1 0xE5 SHL DUP2 MSTORE PUSH1 0x20 PUSH1 0x4 DUP3 ADD MSTORE PUSH1 0x20 PUSH1 0x24 DUP3 ADD MSTORE PUSH32 0x496E76616C696420706F636B65743A206F776E6572206D69736D617463686573 PUSH1 0x44 DUP3 ADD MSTORE REVERT JUMPDEST PUSH1 0x2 PUSH1 0x65 SLOAD EQ PUSH2 0x2998 JUMPI PUSH1 0x2 PUSH1 0x65 SSTORE JUMP JUMPDEST PUSH1 0x64 PUSH1 0x40 MLOAD PUSH3 0x461BCD PUSH1 0xE5 SHL DUP2 MSTORE PUSH1 0x20 PUSH1 0x4 DUP3 ADD MSTORE PUSH1 0x1F PUSH1 0x24 DUP3 ADD MSTORE PUSH32 0x5265656E7472616E637947756172643A207265656E7472616E742063616C6C00 PUSH1 0x44 DUP3 ADD MSTORE REVERT JUMPDEST SWAP1 DUP2 PUSH1 0x20 SWAP2 SUB SLT PUSH2 0xE7C JUMPI MLOAD DUP1 ISZERO ISZERO DUP2 SUB PUSH2 0xE7C JUMPI SWAP1 JUMP JUMPDEST SWAP2 PUSH2 0x2A15 PUSH1 0x20 SWAP3 PUSH1 0x1 PUSH1 0x1 PUSH1 0xA0 SHL SUB SWAP3 SWAP7 SWAP6 SWAP7 PUSH1 0x40 DUP7 MSTORE PUSH1 0x40 DUP7 ADD SWAP2 PUSH2 0x26BC JUMP JUMPDEST SWAP5 AND SWAP2 ADD MSTORE JUMP JUMPDEST ISZERO PUSH2 0x2A23 JUMPI JUMP JUMPDEST PUSH1 0x84 PUSH1 0x40 MLOAD PUSH3 0x461BCD PUSH1 0xE5 SHL DUP2 MSTORE PUSH1 0x20 PUSH1 0x4 DUP3 ADD MSTORE PUSH1 0x3D PUSH1 0x24 DUP3 ADD MSTORE PUSH32 0x4F7065726174696F6E206572726F723A206F6E6C79206F70657261746F722069 PUSH1 0x44 DUP3 ADD MSTORE PUSH32 0x73207065726D697474656420666F7220746865206F7065726174696F6E000000 PUSH1 0x64 DUP3 ADD MSTORE REVERT JUMPDEST SWAP2 SWAP1 DUP3 PUSH1 0x40 SWAP2 SUB SLT PUSH2 0xE7C JUMPI PUSH1 0x20 DUP3 MLOAD SWAP3 ADD MLOAD SWAP1 JUMP JUMPDEST SWAP1 PUSH2 0x2ABD SWAP1 PUSH1 0x40 SWAP4 SWAP7 SWAP6 SWAP5 SWAP7 PUSH1 0x60 DUP5 MSTORE PUSH1 0x60 DUP5 ADD SWAP2 PUSH2 0x26BC JUMP JUMPDEST SWAP5 PUSH1 0x20 DUP3 ADD MSTORE ADD MSTORE JUMP JUMPDEST SWAP1 PUSH1 0x1 PUSH1 0x1 PUSH1 0xA0 SHL SUB DUP3 MLOAD AND DUP2 MSTORE PUSH1 0x40 PUSH2 0x2AF0 PUSH1 0x20 DUP5 ADD MLOAD PUSH1 0x60 PUSH1 0x20 DUP6 ADD MSTORE PUSH1 0x60 DUP5 ADD SWAP1 PUSH2 0x23BE JUMP JUMPDEST SWAP3 ADD MLOAD SWAP1 PUSH1 0x5 DUP3 LT ISZERO PUSH2 0x271C JUMPI PUSH1 0x40 ADD MSTORE SWAP1 JUMP JUMPDEST ISZERO PUSH2 0x2B0B JUMPI JUMP JUMPDEST PUSH1 0x64 PUSH1 0x40 MLOAD PUSH3 0x461BCD PUSH1 0xE5 SHL DUP2 MSTORE PUSH1 0x20 PUSH1 0x4 DUP3 ADD MSTORE PUSH1 0x1F PUSH1 0x24 DUP3 ADD MSTORE PUSH32 0x4F7065726174696F6E206572726F723A2063616E6E6F74206465706F73697400 PUSH1 0x44 DUP3 ADD MSTORE REVERT JUMPDEST MLOAD SWAP1 PUSH1 0x1 PUSH1 0x1 PUSH1 0xA0 SHL SUB DUP3 AND DUP3 SUB PUSH2 0xE7C JUMPI JUMP JUMPDEST SWAP2 SWAP1 DUP3 PUSH1 0x40 SWAP2 SUB SLT PUSH2 0xE7C JUMPI PUSH1 0x40 MLOAD PUSH2 0x2B7B DUP2 PUSH2 0x2524 JUMP JUMPDEST DUP1 SWAP3 DUP1 MLOAD PUSH1 0x4 DUP2 LT ISZERO PUSH2 0xE7C JUMPI DUP3 MSTORE PUSH1 0x20 SWAP1 DUP2 ADD MLOAD SWAP2 ADD MSTORE JUMP JUMPDEST SWAP2 SWAP1 DUP3 DUP2 SUB SWAP1 PUSH2 0x1C0 DUP3 SLT PUSH2 0xE7C JUMPI PUSH2 0x2BAD DUP5 PUSH2 0x2B4F JUMP JUMPDEST SWAP4 PUSH2 0x2BBA PUSH1 0x20 DUP3 ADD PUSH2 0x2B4F JUMP JUMPDEST SWAP4 PUSH2 0x2BC7 PUSH1 0x40 DUP4 ADD PUSH2 0x2B4F JUMP JUMPDEST SWAP4 PUSH1 0x60 DUP4 ADD MLOAD SWAP4 PUSH1 0x80 DUP5 ADD MLOAD SWAP4 PUSH1 0xA0 DUP2 ADD MLOAD SWAP4 PUSH1 0x60 PUSH1 0xC0 DUP4 ADD MLOAD SWAP5 PUSH1 0xDF NOT ADD SLT PUSH2 0xE7C JUMPI PUSH1 0x40 MLOAD PUSH2 0x2BF7 DUP2 PUSH2 0x2540 JUMP JUMPDEST PUSH1 0xE0 DUP4 ADD MLOAD DUP2 MSTORE PUSH2 0x100 DUP4 ADD MLOAD PUSH1 0x20 DUP3 ADD MSTORE PUSH2 0x120 DUP4 ADD MLOAD SWAP1 PUSH1 0x7 DUP3 LT ISZERO PUSH2 0xE7C JUMPI PUSH2 0x2C3B SWAP2 PUSH1 0x40 DUP3 ADD MSTORE SWAP4 PUSH2 0x180 PUSH2 0x2C34 DUP3 PUSH2 0x140 DUP8 ADD PUSH2 0x2B63 JUMP JUMPDEST SWAP5 ADD PUSH2 0x2B63 JUMP JUMPDEST SWAP1 JUMP JUMPDEST SWAP1 PUSH1 0x60 PUSH1 0x1 PUSH1 0x1 PUSH1 0xA0 SHL SUB DUP1 DUP5 MLOAD AND DUP4 MSTORE DUP2 PUSH2 0x2C69 PUSH1 0x20 DUP7 ADD MLOAD PUSH1 0x80 PUSH1 0x20 DUP8 ADD MSTORE PUSH1 0x80 DUP7 ADD SWAP1 PUSH2 0x23BE JUMP JUMPDEST SWAP5 PUSH1 0x40 DUP2 ADD MLOAD PUSH1 0x40 DUP7 ADD MSTORE ADD MLOAD AND SWAP2 ADD MSTORE SWAP1 JUMP JUMPDEST PUSH2 0x2C8F PUSH1 0x40 SWAP3 DUP4 DUP4 MSTORE DUP4 DUP4 ADD SWAP1 PUSH2 0x2C3E JUMP JUMPDEST SWAP1 PUSH1 0x20 DUP2 DUP4 SUB SWAP2 ADD MSTORE PUSH1 0x13 DUP2 MSTORE PUSH32 0x555345525F4445504F53495445445F46554E4400000000000000000000000000 PUSH1 0x20 DUP3 ADD MSTORE ADD SWAP1 JUMP JUMPDEST SWAP1 PUSH1 0x40 PUSH1 0x20 PUSH2 0x2C3B SWAP4 PUSH1 0x1 PUSH1 0x1 PUSH1 0xA0 SHL SUB DUP2 MLOAD AND DUP5 MSTORE ADD MLOAD SWAP2 DUP2 PUSH1 0x20 DUP3 ADD MSTORE ADD SWAP1 PUSH2 0x23BE JUMP JUMPDEST ISZERO PUSH2 0x2CF3 JUMPI JUMP JUMPDEST PUSH1 0x84 PUSH1 0x40 MLOAD PUSH3 0x461BCD PUSH1 0xE5 SHL DUP2 MSTORE PUSH1 0x20 PUSH1 0x4 DUP3 ADD MSTORE PUSH1 0x2B PUSH1 0x24 DUP3 ADD MSTORE PUSH32 0x496E697469616C697A61626C653A20636F6E7472616374206973206E6F742069 PUSH1 0x44 DUP3 ADD MSTORE PUSH32 0x6E697469616C697A696E67000000000000000000000000000000000000000000 PUSH1 0x64 DUP3 ADD MSTORE REVERT INVALID LOG2 PUSH5 0x6970667358 0x22 SLT KECCAK256 0xDE 0xC2 PUSH15 0x4397DAF7EE44BEF64D9B0E809B4A0B DUP8 SWAP3 0x2F DUP15 SWAP10 PUSH9 0x6321BA775C5BDFC364 PUSH20 0x6F6C634300081300330000000000000000000000 "},"methodIdentifiers":{"closePocket(string)":"cbfc305b","createPocket((string,address,address,address,address,uint256,uint256,(uint256,uint8)[],uint256,(uint256,uint256,uint8),(uint8,uint256),(uint8,uint256)))":"e3135f0e","createPocketAndDepositEther((string,address,address,address,address,uint256,uint256,(uint256,uint8)[],uint256,(uint256,uint256,uint8),(uint8,uint256),(uint8,uint256)))":"aea7ed37","createPocketAndDepositToken((string,address,address,address,address,uint256,uint256,(uint256,uint8)[],uint256,(uint256,uint256,uint8),(uint8,uint256),(uint8,uint256)),uint256)":"dc6514b6","depositEther(string)":"77c76321","depositToken(string,uint256)":"33ad57e4","initialize()":"8129fc1c","multicall(bytes[])":"ac9650d8","owner()":"8da5cb5b","pause()":"8456cb59","pausePocket(string)":"7fa97c26","paused()":"5c975abb","registry()":"7b103999","renounceOwnership()":"715018a6","restartPocket(string)":"e4a479b5","setRegistry(address)":"a91ee0dc","setVault(address)":"6817031b","transferOwnership(address)":"f2fde38b","tryClosingPosition(string)":"1cbe264a","tryMakingDCASwap(string)":"cac9c001","unpause()":"3f4ba83a","updatePocket((string,uint256,uint256,(uint256,uint8)[],uint256,(uint256,uint256,uint8),(uint8,uint256),(uint8,uint256)))":"5e54c034","vault()":"fbfa77cf","withdraw(string)":"31fb67c2"}},"storageLayout":{"storage":[{"astId":547,"contract":"contracts/PocketChef.sol:PocketChef","label":"_initialized","offset":0,"slot":"0","type":"t_uint8"},{"astId":550,"contract":"contracts/PocketChef.sol:PocketChef","label":"_initializing","offset":1,"slot":"0","type":"t_bool"},{"astId":1234,"contract":"contracts/PocketChef.sol:PocketChef","label":"__gap","offset":0,"slot":"1","type":"t_array(t_uint256)50_storage"},{"astId":730,"contract":"contracts/PocketChef.sol:PocketChef","label":"_paused","offset":0,"slot":"51","type":"t_bool"},{"astId":835,"contract":"contracts/PocketChef.sol:PocketChef","label":"__gap","offset":0,"slot":"52","type":"t_array(t_uint256)49_storage"},{"astId":850,"contract":"contracts/PocketChef.sol:PocketChef","label":"_status","offset":0,"slot":"101","type":"t_uint256"},{"astId":908,"contract":"contracts/PocketChef.sol:PocketChef","label":"__gap","offset":0,"slot":"102","type":"t_array(t_uint256)49_storage"},{"astId":419,"contract":"contracts/PocketChef.sol:PocketChef","label":"_owner","offset":0,"slot":"151","type":"t_address"},{"astId":539,"contract":"contracts/PocketChef.sol:PocketChef","label":"__gap","offset":0,"slot":"152","type":"t_array(t_uint256)49_storage"},{"astId":1343,"contract":"contracts/PocketChef.sol:PocketChef","label":"__gap","offset":0,"slot":"201","type":"t_array(t_uint256)50_storage"},{"astId":6948,"contract":"contracts/PocketChef.sol:PocketChef","label":"registry","offset":0,"slot":"251","type":"t_contract(PocketRegistry)9692"},{"astId":6951,"contract":"contracts/PocketChef.sol:PocketChef","label":"vault","offset":0,"slot":"252","type":"t_contract(PocketVault)10269"}],"types":{"t_address":{"encoding":"inplace","label":"address","numberOfBytes":"20"},"t_array(t_uint256)49_storage":{"base":"t_uint256","encoding":"inplace","label":"uint256[49]","numberOfBytes":"1568"},"t_array(t_uint256)50_storage":{"base":"t_uint256","encoding":"inplace","label":"uint256[50]","numberOfBytes":"1600"},"t_bool":{"encoding":"inplace","label":"bool","numberOfBytes":"1"},"t_contract(PocketRegistry)9692":{"encoding":"inplace","label":"contract PocketRegistry","numberOfBytes":"20"},"t_contract(PocketVault)10269":{"encoding":"inplace","label":"contract PocketVault","numberOfBytes":"20"},"t_uint256":{"encoding":"inplace","label":"uint256","numberOfBytes":"32"},"t_uint8":{"encoding":"inplace","label":"uint8","numberOfBytes":"1"}}}}}}