{"contracts/Utils.sol":{"Utils":{"abi":[{"inputs":[{"internalType":"string","name":"s1","type":"string"},{"internalType":"string","name":"s2","type":"string"}],"name":"areStringsEqual","outputs":[{"internalType":"bool","name":"","type":"bool"}],"stateMutability":"pure","type":"function"}],"evm":{"bytecode":{"linkReferences":{},"object":"6080806040523461001a5761018f9081610020823930815050f35b600080fdfe608080604052600436101561001357600080fd5b6000803560e01c63b1496cd41461002957600080fd5b60403660031901126100d25767ffffffffffffffff6004358181116100ce576100569036906004016100d5565b9290916024359081116100ca576100746100be9136906004016100d5565b9490938661009b60208285829b968380980196873781018883820152038084520182610108565b519020946040519381859284840197883782019083820152038084520182610108565b51902014604051908152f35b5080fd5b8280fd5b80fd5b9181601f840112156101035782359167ffffffffffffffff8311610103576020838186019501011161010357565b600080fd5b90601f8019910116810190811067ffffffffffffffff82111761012a57604052565b7f4e487b7100000000000000000000000000000000000000000000000000000000600052604160045260246000fdfea264697066735822122044364d1ad99adb0b0adf880bf3be4d5c1bffa625926c1491c4289218657b8d8564736f6c63430008130033","opcodes":"PUSH1 0x80 DUP1 PUSH1 0x40 MSTORE CALLVALUE PUSH2 0x1A JUMPI PUSH2 0x18F SWAP1 DUP2 PUSH2 0x20 DUP3 CODECOPY ADDRESS DUP2 POP POP RETURN JUMPDEST PUSH1 0x0 DUP1 REVERT INVALID PUSH1 0x80 DUP1 PUSH1 0x40 MSTORE PUSH1 0x4 CALLDATASIZE LT ISZERO PUSH2 0x13 JUMPI PUSH1 0x0 DUP1 REVERT JUMPDEST PUSH1 0x0 DUP1 CALLDATALOAD PUSH1 0xE0 SHR PUSH4 0xB1496CD4 EQ PUSH2 0x29 JUMPI PUSH1 0x0 DUP1 REVERT JUMPDEST PUSH1 0x40 CALLDATASIZE PUSH1 0x3 NOT ADD SLT PUSH2 0xD2 JUMPI PUSH8 0xFFFFFFFFFFFFFFFF PUSH1 0x4 CALLDATALOAD DUP2 DUP2 GT PUSH2 0xCE JUMPI PUSH2 0x56 SWAP1 CALLDATASIZE SWAP1 PUSH1 0x4 ADD PUSH2 0xD5 JUMP JUMPDEST SWAP3 SWAP1 SWAP2 PUSH1 0x24 CALLDATALOAD SWAP1 DUP2 GT PUSH2 0xCA JUMPI PUSH2 0x74 PUSH2 0xBE SWAP2 CALLDATASIZE SWAP1 PUSH1 0x4 ADD PUSH2 0xD5 JUMP JUMPDEST SWAP5 SWAP1 SWAP4 DUP7 PUSH2 0x9B PUSH1 0x20 DUP3 DUP6 DUP3 SWAP12 SWAP7 DUP4 DUP1 SWAP9 ADD SWAP7 DUP8 CALLDATACOPY DUP2 ADD DUP9 DUP4 DUP3 ADD MSTORE SUB DUP1 DUP5 MSTORE ADD DUP3 PUSH2 0x108 JUMP JUMPDEST MLOAD SWAP1 KECCAK256 SWAP5 PUSH1 0x40 MLOAD SWAP4 DUP2 DUP6 SWAP3 DUP5 DUP5 ADD SWAP8 DUP9 CALLDATACOPY DUP3 ADD SWAP1 DUP4 DUP3 ADD MSTORE SUB DUP1 DUP5 MSTORE ADD DUP3 PUSH2 0x108 JUMP JUMPDEST MLOAD SWAP1 KECCAK256 EQ PUSH1 0x40 MLOAD SWAP1 DUP2 MSTORE RETURN JUMPDEST POP DUP1 REVERT JUMPDEST DUP3 DUP1 REVERT JUMPDEST DUP1 REVERT JUMPDEST SWAP2 DUP2 PUSH1 0x1F DUP5 ADD SLT ISZERO PUSH2 0x103 JUMPI DUP3 CALLDATALOAD SWAP2 PUSH8 0xFFFFFFFFFFFFFFFF DUP4 GT PUSH2 0x103 JUMPI PUSH1 0x20 DUP4 DUP2 DUP7 ADD SWAP6 ADD ADD GT PUSH2 0x103 JUMPI JUMP JUMPDEST PUSH1 0x0 DUP1 REVERT JUMPDEST SWAP1 PUSH1 0x1F DUP1 NOT SWAP2 ADD AND DUP2 ADD SWAP1 DUP2 LT PUSH8 0xFFFFFFFFFFFFFFFF DUP3 GT OR PUSH2 0x12A JUMPI PUSH1 0x40 MSTORE JUMP JUMPDEST PUSH32 0x4E487B7100000000000000000000000000000000000000000000000000000000 PUSH1 0x0 MSTORE PUSH1 0x41 PUSH1 0x4 MSTORE PUSH1 0x24 PUSH1 0x0 REVERT INVALID LOG2 PUSH5 0x6970667358 0x22 SLT KECCAK256 PREVRANDAO CALLDATASIZE 0x4D BYTE 0xD9 SWAP11 0xDB SIGNEXTEND EXP 0xDF DUP9 SIGNEXTEND RETURN 0xBE 0x4D 0x5C SHL SELFDESTRUCT 0xA6 0x25 SWAP3 PUSH13 0x1491C4289218657B8D8564736F PUSH13 0x63430008130033000000000000 "},"methodIdentifiers":{"areStringsEqual(string,string)":"b1496cd4"}},"storageLayout":{"storage":[],"types":null}}}}