{"contracts/Multicall3.sol":{"Multicall3":{"abi":[{"inputs":[{"components":[{"internalType":"address","name":"target","type":"address"},{"internalType":"bytes","name":"callData","type":"bytes"}],"internalType":"struct Multicall3.Call[]","name":"calls","type":"tuple[]"}],"name":"aggregate","outputs":[{"internalType":"uint256","name":"blockNumber","type":"uint256"},{"internalType":"bytes[]","name":"returnData","type":"bytes[]"}],"stateMutability":"payable","type":"function"},{"inputs":[{"components":[{"internalType":"address","name":"target","type":"address"},{"internalType":"bool","name":"allowFailure","type":"bool"},{"internalType":"bytes","name":"callData","type":"bytes"}],"internalType":"struct Multicall3.Call3[]","name":"calls","type":"tuple[]"}],"name":"aggregate3","outputs":[{"components":[{"internalType":"bool","name":"success","type":"bool"},{"internalType":"bytes","name":"returnData","type":"bytes"}],"internalType":"struct Multicall3.Result[]","name":"returnData","type":"tuple[]"}],"stateMutability":"payable","type":"function"},{"inputs":[{"components":[{"internalType":"address","name":"target","type":"address"},{"internalType":"bool","name":"allowFailure","type":"bool"},{"internalType":"uint256","name":"value","type":"uint256"},{"internalType":"bytes","name":"callData","type":"bytes"}],"internalType":"struct Multicall3.Call3Value[]","name":"calls","type":"tuple[]"}],"name":"aggregate3Value","outputs":[{"components":[{"internalType":"bool","name":"success","type":"bool"},{"internalType":"bytes","name":"returnData","type":"bytes"}],"internalType":"struct Multicall3.Result[]","name":"returnData","type":"tuple[]"}],"stateMutability":"payable","type":"function"},{"inputs":[{"components":[{"internalType":"address","name":"target","type":"address"},{"internalType":"bytes","name":"callData","type":"bytes"}],"internalType":"struct Multicall3.Call[]","name":"calls","type":"tuple[]"}],"name":"blockAndAggregate","outputs":[{"internalType":"uint256","name":"blockNumber","type":"uint256"},{"internalType":"bytes32","name":"blockHash","type":"bytes32"},{"components":[{"internalType":"bool","name":"success","type":"bool"},{"internalType":"bytes","name":"returnData","type":"bytes"}],"internalType":"struct Multicall3.Result[]","name":"returnData","type":"tuple[]"}],"stateMutability":"payable","type":"function"},{"inputs":[],"name":"getBasefee","outputs":[{"internalType":"uint256","name":"basefee","type":"uint256"}],"stateMutability":"view","type":"function"},{"inputs":[{"internalType":"uint256","name":"blockNumber","type":"uint256"}],"name":"getBlockHash","outputs":[{"internalType":"bytes32","name":"blockHash","type":"bytes32"}],"stateMutability":"view","type":"function"},{"inputs":[],"name":"getBlockNumber","outputs":[{"internalType":"uint256","name":"blockNumber","type":"uint256"}],"stateMutability":"view","type":"function"},{"inputs":[],"name":"getChainId","outputs":[{"internalType":"uint256","name":"chainid","type":"uint256"}],"stateMutability":"view","type":"function"},{"inputs":[],"name":"getCurrentBlockCoinbase","outputs":[{"internalType":"address","name":"coinbase","type":"address"}],"stateMutability":"view","type":"function"},{"inputs":[],"name":"getCurrentBlockDifficulty","outputs":[{"internalType":"uint256","name":"difficulty","type":"uint256"}],"stateMutability":"view","type":"function"},{"inputs":[],"name":"getCurrentBlockGasLimit","outputs":[{"internalType":"uint256","name":"gaslimit","type":"uint256"}],"stateMutability":"view","type":"function"},{"inputs":[],"name":"getCurrentBlockTimestamp","outputs":[{"internalType":"uint256","name":"timestamp","type":"uint256"}],"stateMutability":"view","type":"function"},{"inputs":[{"internalType":"address","name":"addr","type":"address"}],"name":"getEthBalance","outputs":[{"internalType":"uint256","name":"balance","type":"uint256"}],"stateMutability":"view","type":"function"},{"inputs":[],"name":"getLastBlockHash","outputs":[{"internalType":"bytes32","name":"blockHash","type":"bytes32"}],"stateMutability":"view","type":"function"},{"inputs":[{"internalType":"bool","name":"requireSuccess","type":"bool"},{"components":[{"internalType":"address","name":"target","type":"address"},{"internalType":"bytes","name":"callData","type":"bytes"}],"internalType":"struct Multicall3.Call[]","name":"calls","type":"tuple[]"}],"name":"tryAggregate","outputs":[{"components":[{"internalType":"bool","name":"success","type":"bool"},{"internalType":"bytes","name":"returnData","type":"bytes"}],"internalType":"struct Multicall3.Result[]","name":"returnData","type":"tuple[]"}],"stateMutability":"payable","type":"function"},{"inputs":[{"internalType":"bool","name":"requireSuccess","type":"bool"},{"components":[{"internalType":"address","name":"target","type":"address"},{"internalType":"bytes","name":"callData","type":"bytes"}],"internalType":"struct Multicall3.Call[]","name":"calls","type":"tuple[]"}],"name":"tryBlockAndAggregate","outputs":[{"internalType":"uint256","name":"blockNumber","type":"uint256"},{"internalType":"bytes32","name":"blockHash","type":"bytes32"},{"components":[{"internalType":"bool","name":"success","type":"bool"},{"internalType":"bytes","name":"returnData","type":"bytes"}],"internalType":"struct Multicall3.Result[]","name":"returnData","type":"tuple[]"}],"stateMutability":"payable","type":"function"}],"evm":{"bytecode":{"linkReferences":{},"object":"6080806040523461001657610ae4908161001c8239f35b600080fdfe6080604052600436101561001257600080fd5b60003560e01c80630f28c97d14610117578063174dea7114610112578063252dba421461010d57806327e86d6e146101085780633408e47014610103578063399542e9146100fe5780633e64a696146100f957806342cbb15c146100f45780634d2301cc146100ef57806372425d9d146100ea57806382ad56cb146100e557806386d516e8146100e0578063a8b0574e146100db578063bce38bd7146100d6578063c3077fa9146100d15763ee82ac5e146100cc57600080fd5b61078b565b6106f1565b6106ce565b6106b3565b610698565b6105c8565b6105ad565b610585565b61054c565b610531565b61050d565b61049d565b61047d565b6103bc565b61025b565b34610132576000366003190112610132576020604051428152f35b600080fd5b9181601f840112156101325782359167ffffffffffffffff8311610132576020808501948460051b01011161013257565b6020600319820112610132576004359067ffffffffffffffff82116101325761019391600401610137565b9091565b919082519283825260005b8481106101c3575050826000602080949584010152601f8019910116010190565b6020818301810151848301820152016101a2565b908082519081815260208091019281808460051b8301019501936000915b8483106102055750505050505090565b9091929394958480610237600193601f19868203018752828b5180511515835201519060409081858201520190610197565b98019301930191949392906101f5565b9060206102589281815201906101d7565b90565b61026436610168565b600061026f82610925565b91815b8181106102985761029484610288853414610a63565b60405191829182610247565b0390f35b6102a281856108c6565b516102ae828488610a41565b60008060406102e281850135809901986102c78661083f565b926102d56060880188610849565b939091518094819361087c565b03925af1916102ef61088a565b90610304602094859384840152829015159052565b5191013517156103175750600101610272565b62461bcd60e51b60005260045260176024527f4d756c746963616c6c333a2063616c6c206661696c656400000000000000000060445260846000fd5b90604082019082526020604081840152835180925260608301928160608460051b8301019501936000915b84831061038e5750505050505090565b90919293949584806103ac600193605f198682030187528a51610197565b980193019301919493929061037e565b6103c536610168565b906103d76103d2836107ea565b6107bf565b82815291601f196103e7826107ea565b0160005b81811061046c57505060005b81811061040d5760405180610294864383610353565b806104666000806104216001958789610818565b8161043961042e8361083f565b926020810190610849565b919061044a6040518094819361087c565b03925af161045661088a565b61046084896108c6565b526108da565b016103f7565b8060606020809388010152016103eb565b346101325760003660031901126101325760206040516000194301408152f35b34610132576000366003190112610132576020604051468152f35b90604060031983011261013257600435801515810361013257916024359067ffffffffffffffff82116101325761019391600401610137565b61025893926060928252602082015281604082015201906101d7565b61029461052261051c366104b8565b91610989565b604051918291434043846104f1565b34610132576000366003190112610132576020604051488152f35b34610132576000366003190112610132576020604051438152f35b73ffffffffffffffffffffffffffffffffffffffff81160361013257565b346101325760203660031901126101325760206004356105a481610567565b31604051908152f35b34610132576000366003190112610132576020604051448152f35b6105d136610168565b6105da81610925565b9060005b8181106105f357604051806102948582610247565b6105fd81846108c6565b51610609828487610a1f565b6000806106158361083f565b6106278260406102d581880188610849565b03925af19161063461088a565b90610649602094859384840152829015159052565b51910135171561065c57506001016105de565b62461bcd60e51b60005260045260176024527f4d756c746963616c6c333a2063616c6c206661696c656400000000000000000060445260646000fd5b34610132576000366003190112610132576020604051458152f35b34610132576000366003190112610132576020604051418152f35b6102946106dd61051c366104b8565b6040519182916020835260208301906101d7565b6106fa36610168565b61070381610925565b9160005b82811061072057604051806102948643804090846104f1565b80610785610730600193876108c6565b5161073c838787610818565b600080823561074a81610567565b8161075a60209586810190610849565b9190826040519384928337810182815203925af19061077761088a565b9083015215158091526108da565b01610707565b34610132576020366003190112610132576020604051600435408152f35b634e487b7160e01b600052604160045260246000fd5b6040519190601f01601f1916820167ffffffffffffffff8111838210176107e557604052565b6107a9565b67ffffffffffffffff81116107e55760051b60200190565b634e487b7160e01b600052603260045260246000fd5b919081101561083a5760051b81013590603e1981360301821215610132570190565b610802565b3561025881610567565b903590601e1981360301821215610132570180359067ffffffffffffffff82116101325760200191813603831361013257565b908092918237016000815290565b3d156108c1573d9067ffffffffffffffff82116107e5576108b4601f8301601f19166020016107bf565b9182523d6000602084013e565b606090565b805182101561083a5760209160051b010190565b156108e157565b606460405162461bcd60e51b815260206004820152601760248201527f4d756c746963616c6c333a2063616c6c206661696c65640000000000000000006044820152fd5b906109326103d2836107ea565b8281528092610943601f19916107ea565b016000805b8281106109555750505050565b604090815182810181811067ffffffffffffffff8211176107e5576020935283815282606081830152828701015201610948565b92919061099582610925565b9360005b8381106109a65750505050565b806109b3600192886108c6565b51836109c0838888610818565b60008082356109ce81610567565b816109de60209586810190610849565b9190826040519384928337810182815203925af1906109fb61088a565b908401521515809252610a10575b5001610999565b610a19906108da565b38610a09565b919081101561083a5760051b81013590605e1981360301821215610132570190565b919081101561083a5760051b81013590607e1981360301821215610132570190565b15610a6a57565b606460405162461bcd60e51b815260206004820152601a60248201527f4d756c746963616c6c333a2076616c7565206d69736d617463680000000000006044820152fdfea264697066735822122023e61129dafcd7072cd6fe8b1b27e078bde5e92621dc837eee83936625b6536a64736f6c63430008130033","opcodes":"PUSH1 0x80 DUP1 PUSH1 0x40 MSTORE CALLVALUE PUSH2 0x16 JUMPI PUSH2 0xAE4 SWAP1 DUP2 PUSH2 0x1C DUP3 CODECOPY RETURN JUMPDEST PUSH1 0x0 DUP1 REVERT INVALID PUSH1 0x80 PUSH1 0x40 MSTORE PUSH1 0x4 CALLDATASIZE LT ISZERO PUSH2 0x12 JUMPI PUSH1 0x0 DUP1 REVERT JUMPDEST PUSH1 0x0 CALLDATALOAD PUSH1 0xE0 SHR DUP1 PUSH4 0xF28C97D EQ PUSH2 0x117 JUMPI DUP1 PUSH4 0x174DEA71 EQ PUSH2 0x112 JUMPI DUP1 PUSH4 0x252DBA42 EQ PUSH2 0x10D JUMPI DUP1 PUSH4 0x27E86D6E EQ PUSH2 0x108 JUMPI DUP1 PUSH4 0x3408E470 EQ PUSH2 0x103 JUMPI DUP1 PUSH4 0x399542E9 EQ PUSH2 0xFE JUMPI DUP1 PUSH4 0x3E64A696 EQ PUSH2 0xF9 JUMPI DUP1 PUSH4 0x42CBB15C EQ PUSH2 0xF4 JUMPI DUP1 PUSH4 0x4D2301CC EQ PUSH2 0xEF JUMPI DUP1 PUSH4 0x72425D9D EQ PUSH2 0xEA JUMPI DUP1 PUSH4 0x82AD56CB EQ PUSH2 0xE5 JUMPI DUP1 PUSH4 0x86D516E8 EQ PUSH2 0xE0 JUMPI DUP1 PUSH4 0xA8B0574E EQ PUSH2 0xDB JUMPI DUP1 PUSH4 0xBCE38BD7 EQ PUSH2 0xD6 JUMPI DUP1 PUSH4 0xC3077FA9 EQ PUSH2 0xD1 JUMPI PUSH4 0xEE82AC5E EQ PUSH2 0xCC JUMPI PUSH1 0x0 DUP1 REVERT JUMPDEST PUSH2 0x78B JUMP JUMPDEST PUSH2 0x6F1 JUMP JUMPDEST PUSH2 0x6CE JUMP JUMPDEST PUSH2 0x6B3 JUMP JUMPDEST PUSH2 0x698 JUMP JUMPDEST PUSH2 0x5C8 JUMP JUMPDEST PUSH2 0x5AD JUMP JUMPDEST PUSH2 0x585 JUMP JUMPDEST PUSH2 0x54C JUMP JUMPDEST PUSH2 0x531 JUMP JUMPDEST PUSH2 0x50D JUMP JUMPDEST PUSH2 0x49D JUMP JUMPDEST PUSH2 0x47D JUMP JUMPDEST PUSH2 0x3BC JUMP JUMPDEST PUSH2 0x25B JUMP JUMPDEST CALLVALUE PUSH2 0x132 JUMPI PUSH1 0x0 CALLDATASIZE PUSH1 0x3 NOT ADD SLT PUSH2 0x132 JUMPI PUSH1 0x20 PUSH1 0x40 MLOAD TIMESTAMP DUP2 MSTORE RETURN JUMPDEST PUSH1 0x0 DUP1 REVERT JUMPDEST SWAP2 DUP2 PUSH1 0x1F DUP5 ADD SLT ISZERO PUSH2 0x132 JUMPI DUP3 CALLDATALOAD SWAP2 PUSH8 0xFFFFFFFFFFFFFFFF DUP4 GT PUSH2 0x132 JUMPI PUSH1 0x20 DUP1 DUP6 ADD SWAP5 DUP5 PUSH1 0x5 SHL ADD ADD GT PUSH2 0x132 JUMPI JUMP JUMPDEST PUSH1 0x20 PUSH1 0x3 NOT DUP3 ADD SLT PUSH2 0x132 JUMPI PUSH1 0x4 CALLDATALOAD SWAP1 PUSH8 0xFFFFFFFFFFFFFFFF DUP3 GT PUSH2 0x132 JUMPI PUSH2 0x193 SWAP2 PUSH1 0x4 ADD PUSH2 0x137 JUMP JUMPDEST SWAP1 SWAP2 JUMP JUMPDEST SWAP2 SWAP1 DUP3 MLOAD SWAP3 DUP4 DUP3 MSTORE PUSH1 0x0 JUMPDEST DUP5 DUP2 LT PUSH2 0x1C3 JUMPI POP POP DUP3 PUSH1 0x0 PUSH1 0x20 DUP1 SWAP5 SWAP6 DUP5 ADD ADD MSTORE PUSH1 0x1F DUP1 NOT SWAP2 ADD AND ADD ADD SWAP1 JUMP JUMPDEST PUSH1 0x20 DUP2 DUP4 ADD DUP2 ADD MLOAD DUP5 DUP4 ADD DUP3 ADD MSTORE ADD PUSH2 0x1A2 JUMP JUMPDEST SWAP1 DUP1 DUP3 MLOAD SWAP1 DUP2 DUP2 MSTORE PUSH1 0x20 DUP1 SWAP2 ADD SWAP3 DUP2 DUP1 DUP5 PUSH1 0x5 SHL DUP4 ADD ADD SWAP6 ADD SWAP4 PUSH1 0x0 SWAP2 JUMPDEST DUP5 DUP4 LT PUSH2 0x205 JUMPI POP POP POP POP POP POP SWAP1 JUMP JUMPDEST SWAP1 SWAP2 SWAP3 SWAP4 SWAP5 SWAP6 DUP5 DUP1 PUSH2 0x237 PUSH1 0x1 SWAP4 PUSH1 0x1F NOT DUP7 DUP3 SUB ADD DUP8 MSTORE DUP3 DUP12 MLOAD DUP1 MLOAD ISZERO ISZERO DUP4 MSTORE ADD MLOAD SWAP1 PUSH1 0x40 SWAP1 DUP2 DUP6 DUP3 ADD MSTORE ADD SWAP1 PUSH2 0x197 JUMP JUMPDEST SWAP9 ADD SWAP4 ADD SWAP4 ADD SWAP2 SWAP5 SWAP4 SWAP3 SWAP1 PUSH2 0x1F5 JUMP JUMPDEST SWAP1 PUSH1 0x20 PUSH2 0x258 SWAP3 DUP2 DUP2 MSTORE ADD SWAP1 PUSH2 0x1D7 JUMP JUMPDEST SWAP1 JUMP JUMPDEST PUSH2 0x264 CALLDATASIZE PUSH2 0x168 JUMP JUMPDEST PUSH1 0x0 PUSH2 0x26F DUP3 PUSH2 0x925 JUMP JUMPDEST SWAP2 DUP2 JUMPDEST DUP2 DUP2 LT PUSH2 0x298 JUMPI PUSH2 0x294 DUP5 PUSH2 0x288 DUP6 CALLVALUE EQ PUSH2 0xA63 JUMP JUMPDEST PUSH1 0x40 MLOAD SWAP2 DUP3 SWAP2 DUP3 PUSH2 0x247 JUMP JUMPDEST SUB SWAP1 RETURN JUMPDEST PUSH2 0x2A2 DUP2 DUP6 PUSH2 0x8C6 JUMP JUMPDEST MLOAD PUSH2 0x2AE DUP3 DUP5 DUP9 PUSH2 0xA41 JUMP JUMPDEST PUSH1 0x0 DUP1 PUSH1 0x40 PUSH2 0x2E2 DUP2 DUP6 ADD CALLDATALOAD DUP1 SWAP10 ADD SWAP9 PUSH2 0x2C7 DUP7 PUSH2 0x83F JUMP JUMPDEST SWAP3 PUSH2 0x2D5 PUSH1 0x60 DUP9 ADD DUP9 PUSH2 0x849 JUMP JUMPDEST SWAP4 SWAP1 SWAP2 MLOAD DUP1 SWAP5 DUP2 SWAP4 PUSH2 0x87C JUMP JUMPDEST SUB SWAP3 GAS CALL SWAP2 PUSH2 0x2EF PUSH2 0x88A JUMP JUMPDEST SWAP1 PUSH2 0x304 PUSH1 0x20 SWAP5 DUP6 SWAP4 DUP5 DUP5 ADD MSTORE DUP3 SWAP1 ISZERO ISZERO SWAP1 MSTORE JUMP JUMPDEST MLOAD SWAP2 ADD CALLDATALOAD OR ISZERO PUSH2 0x317 JUMPI POP PUSH1 0x1 ADD PUSH2 0x272 JUMP JUMPDEST PUSH3 0x461BCD PUSH1 0xE5 SHL PUSH1 0x0 MSTORE PUSH1 0x4 MSTORE PUSH1 0x17 PUSH1 0x24 MSTORE PUSH32 0x4D756C746963616C6C333A2063616C6C206661696C6564000000000000000000 PUSH1 0x44 MSTORE PUSH1 0x84 PUSH1 0x0 REVERT JUMPDEST SWAP1 PUSH1 0x40 DUP3 ADD SWAP1 DUP3 MSTORE PUSH1 0x20 PUSH1 0x40 DUP2 DUP5 ADD MSTORE DUP4 MLOAD DUP1 SWAP3 MSTORE PUSH1 0x60 DUP4 ADD SWAP3 DUP2 PUSH1 0x60 DUP5 PUSH1 0x5 SHL DUP4 ADD ADD SWAP6 ADD SWAP4 PUSH1 0x0 SWAP2 JUMPDEST DUP5 DUP4 LT PUSH2 0x38E JUMPI POP POP POP POP POP POP SWAP1 JUMP JUMPDEST SWAP1 SWAP2 SWAP3 SWAP4 SWAP5 SWAP6 DUP5 DUP1 PUSH2 0x3AC PUSH1 0x1 SWAP4 PUSH1 0x5F NOT DUP7 DUP3 SUB ADD DUP8 MSTORE DUP11 MLOAD PUSH2 0x197 JUMP JUMPDEST SWAP9 ADD SWAP4 ADD SWAP4 ADD SWAP2 SWAP5 SWAP4 SWAP3 SWAP1 PUSH2 0x37E JUMP JUMPDEST PUSH2 0x3C5 CALLDATASIZE PUSH2 0x168 JUMP JUMPDEST SWAP1 PUSH2 0x3D7 PUSH2 0x3D2 DUP4 PUSH2 0x7EA JUMP JUMPDEST PUSH2 0x7BF JUMP JUMPDEST DUP3 DUP2 MSTORE SWAP2 PUSH1 0x1F NOT PUSH2 0x3E7 DUP3 PUSH2 0x7EA JUMP JUMPDEST ADD PUSH1 0x0 JUMPDEST DUP2 DUP2 LT PUSH2 0x46C JUMPI POP POP PUSH1 0x0 JUMPDEST DUP2 DUP2 LT PUSH2 0x40D JUMPI PUSH1 0x40 MLOAD DUP1 PUSH2 0x294 DUP7 NUMBER DUP4 PUSH2 0x353 JUMP JUMPDEST DUP1 PUSH2 0x466 PUSH1 0x0 DUP1 PUSH2 0x421 PUSH1 0x1 SWAP6 DUP8 DUP10 PUSH2 0x818 JUMP JUMPDEST DUP2 PUSH2 0x439 PUSH2 0x42E DUP4 PUSH2 0x83F JUMP JUMPDEST SWAP3 PUSH1 0x20 DUP2 ADD SWAP1 PUSH2 0x849 JUMP JUMPDEST SWAP2 SWAP1 PUSH2 0x44A PUSH1 0x40 MLOAD DUP1 SWAP5 DUP2 SWAP4 PUSH2 0x87C JUMP JUMPDEST SUB SWAP3 GAS CALL PUSH2 0x456 PUSH2 0x88A JUMP JUMPDEST PUSH2 0x460 DUP5 DUP10 PUSH2 0x8C6 JUMP JUMPDEST MSTORE PUSH2 0x8DA JUMP JUMPDEST ADD PUSH2 0x3F7 JUMP JUMPDEST DUP1 PUSH1 0x60 PUSH1 0x20 DUP1 SWAP4 DUP9 ADD ADD MSTORE ADD PUSH2 0x3EB JUMP JUMPDEST CALLVALUE PUSH2 0x132 JUMPI PUSH1 0x0 CALLDATASIZE PUSH1 0x3 NOT ADD SLT PUSH2 0x132 JUMPI PUSH1 0x20 PUSH1 0x40 MLOAD PUSH1 0x0 NOT NUMBER ADD BLOCKHASH DUP2 MSTORE RETURN JUMPDEST CALLVALUE PUSH2 0x132 JUMPI PUSH1 0x0 CALLDATASIZE PUSH1 0x3 NOT ADD SLT PUSH2 0x132 JUMPI PUSH1 0x20 PUSH1 0x40 MLOAD CHAINID DUP2 MSTORE RETURN JUMPDEST SWAP1 PUSH1 0x40 PUSH1 0x3 NOT DUP4 ADD SLT PUSH2 0x132 JUMPI PUSH1 0x4 CALLDATALOAD DUP1 ISZERO ISZERO DUP2 SUB PUSH2 0x132 JUMPI SWAP2 PUSH1 0x24 CALLDATALOAD SWAP1 PUSH8 0xFFFFFFFFFFFFFFFF DUP3 GT PUSH2 0x132 JUMPI PUSH2 0x193 SWAP2 PUSH1 0x4 ADD PUSH2 0x137 JUMP JUMPDEST PUSH2 0x258 SWAP4 SWAP3 PUSH1 0x60 SWAP3 DUP3 MSTORE PUSH1 0x20 DUP3 ADD MSTORE DUP2 PUSH1 0x40 DUP3 ADD MSTORE ADD SWAP1 PUSH2 0x1D7 JUMP JUMPDEST PUSH2 0x294 PUSH2 0x522 PUSH2 0x51C CALLDATASIZE PUSH2 0x4B8 JUMP JUMPDEST SWAP2 PUSH2 0x989 JUMP JUMPDEST PUSH1 0x40 MLOAD SWAP2 DUP3 SWAP2 NUMBER BLOCKHASH NUMBER DUP5 PUSH2 0x4F1 JUMP JUMPDEST CALLVALUE PUSH2 0x132 JUMPI PUSH1 0x0 CALLDATASIZE PUSH1 0x3 NOT ADD SLT PUSH2 0x132 JUMPI PUSH1 0x20 PUSH1 0x40 MLOAD BASEFEE DUP2 MSTORE RETURN JUMPDEST CALLVALUE PUSH2 0x132 JUMPI PUSH1 0x0 CALLDATASIZE PUSH1 0x3 NOT ADD SLT PUSH2 0x132 JUMPI PUSH1 0x20 PUSH1 0x40 MLOAD NUMBER DUP2 MSTORE RETURN JUMPDEST PUSH20 0xFFFFFFFFFFFFFFFFFFFFFFFFFFFFFFFFFFFFFFFF DUP2 AND SUB PUSH2 0x132 JUMPI JUMP JUMPDEST CALLVALUE PUSH2 0x132 JUMPI PUSH1 0x20 CALLDATASIZE PUSH1 0x3 NOT ADD SLT PUSH2 0x132 JUMPI PUSH1 0x20 PUSH1 0x4 CALLDATALOAD PUSH2 0x5A4 DUP2 PUSH2 0x567 JUMP JUMPDEST BALANCE PUSH1 0x40 MLOAD SWAP1 DUP2 MSTORE RETURN JUMPDEST CALLVALUE PUSH2 0x132 JUMPI PUSH1 0x0 CALLDATASIZE PUSH1 0x3 NOT ADD SLT PUSH2 0x132 JUMPI PUSH1 0x20 PUSH1 0x40 MLOAD PREVRANDAO DUP2 MSTORE RETURN JUMPDEST PUSH2 0x5D1 CALLDATASIZE PUSH2 0x168 JUMP JUMPDEST PUSH2 0x5DA DUP2 PUSH2 0x925 JUMP JUMPDEST SWAP1 PUSH1 0x0 JUMPDEST DUP2 DUP2 LT PUSH2 0x5F3 JUMPI PUSH1 0x40 MLOAD DUP1 PUSH2 0x294 DUP6 DUP3 PUSH2 0x247 JUMP JUMPDEST PUSH2 0x5FD DUP2 DUP5 PUSH2 0x8C6 JUMP JUMPDEST MLOAD PUSH2 0x609 DUP3 DUP5 DUP8 PUSH2 0xA1F JUMP JUMPDEST PUSH1 0x0 DUP1 PUSH2 0x615 DUP4 PUSH2 0x83F JUMP JUMPDEST PUSH2 0x627 DUP3 PUSH1 0x40 PUSH2 0x2D5 DUP2 DUP9 ADD DUP9 PUSH2 0x849 JUMP JUMPDEST SUB SWAP3 GAS CALL SWAP2 PUSH2 0x634 PUSH2 0x88A JUMP JUMPDEST SWAP1 PUSH2 0x649 PUSH1 0x20 SWAP5 DUP6 SWAP4 DUP5 DUP5 ADD MSTORE DUP3 SWAP1 ISZERO ISZERO SWAP1 MSTORE JUMP JUMPDEST MLOAD SWAP2 ADD CALLDATALOAD OR ISZERO PUSH2 0x65C JUMPI POP PUSH1 0x1 ADD PUSH2 0x5DE JUMP JUMPDEST PUSH3 0x461BCD PUSH1 0xE5 SHL PUSH1 0x0 MSTORE PUSH1 0x4 MSTORE PUSH1 0x17 PUSH1 0x24 MSTORE PUSH32 0x4D756C746963616C6C333A2063616C6C206661696C6564000000000000000000 PUSH1 0x44 MSTORE PUSH1 0x64 PUSH1 0x0 REVERT JUMPDEST CALLVALUE PUSH2 0x132 JUMPI PUSH1 0x0 CALLDATASIZE PUSH1 0x3 NOT ADD SLT PUSH2 0x132 JUMPI PUSH1 0x20 PUSH1 0x40 MLOAD GASLIMIT DUP2 MSTORE RETURN JUMPDEST CALLVALUE PUSH2 0x132 JUMPI PUSH1 0x0 CALLDATASIZE PUSH1 0x3 NOT ADD SLT PUSH2 0x132 JUMPI PUSH1 0x20 PUSH1 0x40 MLOAD COINBASE DUP2 MSTORE RETURN JUMPDEST PUSH2 0x294 PUSH2 0x6DD PUSH2 0x51C CALLDATASIZE PUSH2 0x4B8 JUMP JUMPDEST PUSH1 0x40 MLOAD SWAP2 DUP3 SWAP2 PUSH1 0x20 DUP4 MSTORE PUSH1 0x20 DUP4 ADD SWAP1 PUSH2 0x1D7 JUMP JUMPDEST PUSH2 0x6FA CALLDATASIZE PUSH2 0x168 JUMP JUMPDEST PUSH2 0x703 DUP2 PUSH2 0x925 JUMP JUMPDEST SWAP2 PUSH1 0x0 JUMPDEST DUP3 DUP2 LT PUSH2 0x720 JUMPI PUSH1 0x40 MLOAD DUP1 PUSH2 0x294 DUP7 NUMBER DUP1 BLOCKHASH SWAP1 DUP5 PUSH2 0x4F1 JUMP JUMPDEST DUP1 PUSH2 0x785 PUSH2 0x730 PUSH1 0x1 SWAP4 DUP8 PUSH2 0x8C6 JUMP JUMPDEST MLOAD PUSH2 0x73C DUP4 DUP8 DUP8 PUSH2 0x818 JUMP JUMPDEST PUSH1 0x0 DUP1 DUP3 CALLDATALOAD PUSH2 0x74A DUP2 PUSH2 0x567 JUMP JUMPDEST DUP2 PUSH2 0x75A PUSH1 0x20 SWAP6 DUP7 DUP2 ADD SWAP1 PUSH2 0x849 JUMP JUMPDEST SWAP2 SWAP1 DUP3 PUSH1 0x40 MLOAD SWAP4 DUP5 SWAP3 DUP4 CALLDATACOPY DUP2 ADD DUP3 DUP2 MSTORE SUB SWAP3 GAS CALL SWAP1 PUSH2 0x777 PUSH2 0x88A JUMP JUMPDEST SWAP1 DUP4 ADD MSTORE ISZERO ISZERO DUP1 SWAP2 MSTORE PUSH2 0x8DA JUMP JUMPDEST ADD PUSH2 0x707 JUMP JUMPDEST CALLVALUE PUSH2 0x132 JUMPI PUSH1 0x20 CALLDATASIZE PUSH1 0x3 NOT ADD SLT PUSH2 0x132 JUMPI PUSH1 0x20 PUSH1 0x40 MLOAD PUSH1 0x4 CALLDATALOAD BLOCKHASH DUP2 MSTORE RETURN JUMPDEST PUSH4 0x4E487B71 PUSH1 0xE0 SHL PUSH1 0x0 MSTORE PUSH1 0x41 PUSH1 0x4 MSTORE PUSH1 0x24 PUSH1 0x0 REVERT JUMPDEST PUSH1 0x40 MLOAD SWAP2 SWAP1 PUSH1 0x1F ADD PUSH1 0x1F NOT AND DUP3 ADD PUSH8 0xFFFFFFFFFFFFFFFF DUP2 GT DUP4 DUP3 LT OR PUSH2 0x7E5 JUMPI PUSH1 0x40 MSTORE JUMP JUMPDEST PUSH2 0x7A9 JUMP JUMPDEST PUSH8 0xFFFFFFFFFFFFFFFF DUP2 GT PUSH2 0x7E5 JUMPI PUSH1 0x5 SHL PUSH1 0x20 ADD SWAP1 JUMP JUMPDEST PUSH4 0x4E487B71 PUSH1 0xE0 SHL PUSH1 0x0 MSTORE PUSH1 0x32 PUSH1 0x4 MSTORE PUSH1 0x24 PUSH1 0x0 REVERT JUMPDEST SWAP2 SWAP1 DUP2 LT ISZERO PUSH2 0x83A JUMPI PUSH1 0x5 SHL DUP2 ADD CALLDATALOAD SWAP1 PUSH1 0x3E NOT DUP2 CALLDATASIZE SUB ADD DUP3 SLT ISZERO PUSH2 0x132 JUMPI ADD SWAP1 JUMP JUMPDEST PUSH2 0x802 JUMP JUMPDEST CALLDATALOAD PUSH2 0x258 DUP2 PUSH2 0x567 JUMP JUMPDEST SWAP1 CALLDATALOAD SWAP1 PUSH1 0x1E NOT DUP2 CALLDATASIZE SUB ADD DUP3 SLT ISZERO PUSH2 0x132 JUMPI ADD DUP1 CALLDATALOAD SWAP1 PUSH8 0xFFFFFFFFFFFFFFFF DUP3 GT PUSH2 0x132 JUMPI PUSH1 0x20 ADD SWAP2 DUP2 CALLDATASIZE SUB DUP4 SGT PUSH2 0x132 JUMPI JUMP JUMPDEST SWAP1 DUP1 SWAP3 SWAP2 DUP3 CALLDATACOPY ADD PUSH1 0x0 DUP2 MSTORE SWAP1 JUMP JUMPDEST RETURNDATASIZE ISZERO PUSH2 0x8C1 JUMPI RETURNDATASIZE SWAP1 PUSH8 0xFFFFFFFFFFFFFFFF DUP3 GT PUSH2 0x7E5 JUMPI PUSH2 0x8B4 PUSH1 0x1F DUP4 ADD PUSH1 0x1F NOT AND PUSH1 0x20 ADD PUSH2 0x7BF JUMP JUMPDEST SWAP2 DUP3 MSTORE RETURNDATASIZE PUSH1 0x0 PUSH1 0x20 DUP5 ADD RETURNDATACOPY JUMP JUMPDEST PUSH1 0x60 SWAP1 JUMP JUMPDEST DUP1 MLOAD DUP3 LT ISZERO PUSH2 0x83A JUMPI PUSH1 0x20 SWAP2 PUSH1 0x5 SHL ADD ADD SWAP1 JUMP JUMPDEST ISZERO PUSH2 0x8E1 JUMPI JUMP JUMPDEST PUSH1 0x64 PUSH1 0x40 MLOAD PUSH3 0x461BCD PUSH1 0xE5 SHL DUP2 MSTORE PUSH1 0x20 PUSH1 0x4 DUP3 ADD MSTORE PUSH1 0x17 PUSH1 0x24 DUP3 ADD MSTORE PUSH32 0x4D756C746963616C6C333A2063616C6C206661696C6564000000000000000000 PUSH1 0x44 DUP3 ADD MSTORE REVERT JUMPDEST SWAP1 PUSH2 0x932 PUSH2 0x3D2 DUP4 PUSH2 0x7EA JUMP JUMPDEST DUP3 DUP2 MSTORE DUP1 SWAP3 PUSH2 0x943 PUSH1 0x1F NOT SWAP2 PUSH2 0x7EA JUMP JUMPDEST ADD PUSH1 0x0 DUP1 JUMPDEST DUP3 DUP2 LT PUSH2 0x955 JUMPI POP POP POP POP JUMP JUMPDEST PUSH1 0x40 SWAP1 DUP2 MLOAD DUP3 DUP2 ADD DUP2 DUP2 LT PUSH8 0xFFFFFFFFFFFFFFFF DUP3 GT OR PUSH2 0x7E5 JUMPI PUSH1 0x20 SWAP4 MSTORE DUP4 DUP2 MSTORE DUP3 PUSH1 0x60 DUP2 DUP4 ADD MSTORE DUP3 DUP8 ADD ADD MSTORE ADD PUSH2 0x948 JUMP JUMPDEST SWAP3 SWAP2 SWAP1 PUSH2 0x995 DUP3 PUSH2 0x925 JUMP JUMPDEST SWAP4 PUSH1 0x0 JUMPDEST DUP4 DUP2 LT PUSH2 0x9A6 JUMPI POP POP POP POP JUMP JUMPDEST DUP1 PUSH2 0x9B3 PUSH1 0x1 SWAP3 DUP9 PUSH2 0x8C6 JUMP JUMPDEST MLOAD DUP4 PUSH2 0x9C0 DUP4 DUP9 DUP9 PUSH2 0x818 JUMP JUMPDEST PUSH1 0x0 DUP1 DUP3 CALLDATALOAD PUSH2 0x9CE DUP2 PUSH2 0x567 JUMP JUMPDEST DUP2 PUSH2 0x9DE PUSH1 0x20 SWAP6 DUP7 DUP2 ADD SWAP1 PUSH2 0x849 JUMP JUMPDEST SWAP2 SWAP1 DUP3 PUSH1 0x40 MLOAD SWAP4 DUP5 SWAP3 DUP4 CALLDATACOPY DUP2 ADD DUP3 DUP2 MSTORE SUB SWAP3 GAS CALL SWAP1 PUSH2 0x9FB PUSH2 0x88A JUMP JUMPDEST SWAP1 DUP5 ADD MSTORE ISZERO ISZERO DUP1 SWAP3 MSTORE PUSH2 0xA10 JUMPI JUMPDEST POP ADD PUSH2 0x999 JUMP JUMPDEST PUSH2 0xA19 SWAP1 PUSH2 0x8DA JUMP JUMPDEST CODESIZE PUSH2 0xA09 JUMP JUMPDEST SWAP2 SWAP1 DUP2 LT ISZERO PUSH2 0x83A JUMPI PUSH1 0x5 SHL DUP2 ADD CALLDATALOAD SWAP1 PUSH1 0x5E NOT DUP2 CALLDATASIZE SUB ADD DUP3 SLT ISZERO PUSH2 0x132 JUMPI ADD SWAP1 JUMP JUMPDEST SWAP2 SWAP1 DUP2 LT ISZERO PUSH2 0x83A JUMPI PUSH1 0x5 SHL DUP2 ADD CALLDATALOAD SWAP1 PUSH1 0x7E NOT DUP2 CALLDATASIZE SUB ADD DUP3 SLT ISZERO PUSH2 0x132 JUMPI ADD SWAP1 JUMP JUMPDEST ISZERO PUSH2 0xA6A JUMPI JUMP JUMPDEST PUSH1 0x64 PUSH1 0x40 MLOAD PUSH3 0x461BCD PUSH1 0xE5 SHL DUP2 MSTORE PUSH1 0x20 PUSH1 0x4 DUP3 ADD MSTORE PUSH1 0x1A PUSH1 0x24 DUP3 ADD MSTORE PUSH32 0x4D756C746963616C6C333A2076616C7565206D69736D61746368000000000000 PUSH1 0x44 DUP3 ADD MSTORE REVERT INVALID LOG2 PUSH5 0x6970667358 0x22 SLT KECCAK256 0x23 0xE6 GT 0x29 0xDA 0xFC 0xD7 SMOD 0x2C 0xD6 INVALID DUP12 SHL 0x27 0xE0 PUSH25 0xBDE5E92621DC837EEE83936625B6536A64736F6C6343000813 STOP CALLER "},"methodIdentifiers":{"aggregate((address,bytes)[])":"252dba42","aggregate3((address,bool,bytes)[])":"82ad56cb","aggregate3Value((address,bool,uint256,bytes)[])":"174dea71","blockAndAggregate((address,bytes)[])":"c3077fa9","getBasefee()":"3e64a696","getBlockHash(uint256)":"ee82ac5e","getBlockNumber()":"42cbb15c","getChainId()":"3408e470","getCurrentBlockCoinbase()":"a8b0574e","getCurrentBlockDifficulty()":"72425d9d","getCurrentBlockGasLimit()":"86d516e8","getCurrentBlockTimestamp()":"0f28c97d","getEthBalance(address)":"4d2301cc","getLastBlockHash()":"27e86d6e","tryAggregate(bool,(address,bytes)[])":"bce38bd7","tryBlockAndAggregate(bool,(address,bytes)[])":"399542e9"}},"storageLayout":{"storage":[],"types":null}}}}