{"contracts/PocketVault.sol":{"PocketVault":{"abi":[{"inputs":[],"stateMutability":"nonpayable","type":"constructor"},{"anonymous":false,"inputs":[{"indexed":true,"internalType":"address","name":"actor","type":"address"},{"indexed":true,"internalType":"string","name":"pocketId","type":"string"},{"indexed":false,"internalType":"address","name":"baseTokenAddress","type":"address"},{"indexed":false,"internalType":"uint256","name":"baseTokenAmount","type":"uint256"},{"indexed":false,"internalType":"address","name":"targetTokenAddress","type":"address"},{"indexed":false,"internalType":"uint256","name":"targetTokenAmount","type":"uint256"}],"name":"ClosedPosition","type":"event"},{"anonymous":false,"inputs":[{"indexed":true,"internalType":"address","name":"actor","type":"address"},{"indexed":true,"internalType":"string","name":"pocketId","type":"string"},{"indexed":true,"internalType":"address","name":"tokenAddress","type":"address"},{"indexed":false,"internalType":"uint256","name":"amount","type":"uint256"}],"name":"Deposited","type":"event"},{"anonymous":false,"inputs":[{"indexed":false,"internalType":"uint8","name":"version","type":"uint8"}],"name":"Initialized","type":"event"},{"anonymous":false,"inputs":[{"indexed":true,"internalType":"address","name":"previousOwner","type":"address"},{"indexed":true,"internalType":"address","name":"newOwner","type":"address"}],"name":"OwnershipTransferred","type":"event"},{"anonymous":false,"inputs":[{"indexed":false,"internalType":"address","name":"account","type":"address"}],"name":"Paused","type":"event"},{"anonymous":false,"inputs":[{"indexed":true,"internalType":"address","name":"actor","type":"address"},{"indexed":true,"internalType":"address","name":"permit2","type":"address"}],"name":"Permit2Updated","type":"event"},{"anonymous":false,"inputs":[{"indexed":true,"internalType":"address","name":"actor","type":"address"},{"indexed":true,"internalType":"address","name":"registry","type":"address"}],"name":"RegistryUpdated","type":"event"},{"anonymous":false,"inputs":[{"indexed":true,"internalType":"address","name":"actor","type":"address"},{"indexed":true,"internalType":"string","name":"pocketId","type":"string"},{"indexed":false,"internalType":"address","name":"baseTokenAddress","type":"address"},{"indexed":false,"internalType":"uint256","name":"baseTokenAmount","type":"uint256"},{"indexed":false,"internalType":"address","name":"targetTokenAddress","type":"address"},{"indexed":false,"internalType":"uint256","name":"targetTokenAmount","type":"uint256"}],"name":"Swapped","type":"event"},{"anonymous":false,"inputs":[{"indexed":false,"internalType":"address","name":"account","type":"address"}],"name":"Unpaused","type":"event"},{"anonymous":false,"inputs":[{"indexed":true,"internalType":"address","name":"actor","type":"address"},{"indexed":true,"internalType":"string","name":"pocketId","type":"string"},{"indexed":false,"internalType":"address","name":"baseTokenAddress","type":"address"},{"indexed":false,"internalType":"uint256","name":"baseTokenAmount","type":"uint256"},{"indexed":false,"internalType":"address","name":"targetTokenAddress","type":"address"},{"indexed":false,"internalType":"uint256","name":"targetTokenAmount","type":"uint256"}],"name":"Withdrawn","type":"event"},{"inputs":[{"internalType":"string","name":"pocketId","type":"string"}],"name":"closePosition","outputs":[{"internalType":"uint256","name":"","type":"uint256"},{"internalType":"uint256","name":"","type":"uint256"}],"stateMutability":"nonpayable","type":"function"},{"inputs":[{"components":[{"internalType":"address","name":"actor","type":"address"},{"internalType":"string","name":"id","type":"string"},{"internalType":"uint256","name":"amount","type":"uint256"},{"internalType":"address","name":"tokenAddress","type":"address"}],"internalType":"struct Params.UpdatePocketDepositParams","name":"params","type":"tuple"}],"name":"deposit","outputs":[],"stateMutability":"nonpayable","type":"function"},{"inputs":[],"name":"initialize","outputs":[],"stateMutability":"nonpayable","type":"function"},{"inputs":[{"internalType":"string","name":"pocketId","type":"string"}],"name":"makeDCASwap","outputs":[{"internalType":"uint256","name":"","type":"uint256"},{"internalType":"uint256","name":"","type":"uint256"}],"stateMutability":"nonpayable","type":"function"},{"inputs":[],"name":"owner","outputs":[{"internalType":"address","name":"","type":"address"}],"stateMutability":"view","type":"function"},{"inputs":[],"name":"pause","outputs":[],"stateMutability":"nonpayable","type":"function"},{"inputs":[],"name":"paused","outputs":[{"internalType":"bool","name":"","type":"bool"}],"stateMutability":"view","type":"function"},{"inputs":[],"name":"permit2","outputs":[{"internalType":"contract IPermit2","name":"","type":"address"}],"stateMutability":"view","type":"function"},{"inputs":[],"name":"registry","outputs":[{"internalType":"contract PocketRegistry","name":"","type":"address"}],"stateMutability":"view","type":"function"},{"inputs":[],"name":"renounceOwnership","outputs":[],"stateMutability":"nonpayable","type":"function"},{"inputs":[{"internalType":"address","name":"permit2Address","type":"address"}],"name":"setPermit2","outputs":[],"stateMutability":"nonpayable","type":"function"},{"inputs":[{"internalType":"address","name":"registryAddress","type":"address"}],"name":"setRegistry","outputs":[],"stateMutability":"nonpayable","type":"function"},{"inputs":[{"internalType":"address","name":"newOwner","type":"address"}],"name":"transferOwnership","outputs":[],"stateMutability":"nonpayable","type":"function"},{"inputs":[],"name":"unpause","outputs":[],"stateMutability":"nonpayable","type":"function"},{"inputs":[{"components":[{"internalType":"address","name":"actor","type":"address"},{"internalType":"string","name":"id","type":"string"}],"internalType":"struct Params.UpdatePocketWithdrawalParams","name":"params","type":"tuple"}],"name":"withdraw","outputs":[],"stateMutability":"nonpayable","type":"function"}],"evm":{"bytecode":{"linkReferences":{},"object":"608080604052346100c1576000549060ff8260081c1661006f575060ff80821610610034575b604051611a7790816100c78239f35b60ff90811916176000557f7f26b83ff96e1f2b6a682f133852f6798a09c465da95921460cefb3847402498602060405160ff8152a138610025565b62461bcd60e51b815260206004820152602760248201527f496e697469616c697a61626c653a20636f6e747261637420697320696e697469604482015266616c697a696e6760c81b6064820152608490fd5b600080fdfe6040608081526004908136101561001557600080fd5b600091823560e01c8063101ec30a146110bd57806312261ee7146110955780633f4ba83a14610ff75780635c975abb14610fd357806361a45ae614610b9a5780636afd431a14610983578063715018a61461091b5780637b103999146108f35780638129fc1c1461077a5780638456cb59146106da5780638b6a70c4146104c15780638da5cb5b146104995780639c89bb3d146101ee578063a91ee0dc146101765763f2fde38b146100c657600080fd5b34610172576020366003190112610172578035916001600160a01b03831680840361016e576100f3611180565b156101055783610102846111d8565b80f35b906020608492519162461bcd60e51b8352820152602660248201527f4f776e61626c653a206e6577206f776e657220697320746865207a65726f206160448201527f64647265737300000000000000000000000000000000000000000000000000006064820152fd5b8480fd5b8280fd5b8382346101ea5760203660031901126101ea57356001600160a01b0381168091036101ea576101a3611180565b8073ffffffffffffffffffffffffffffffffffffffff1960c954161760c955337f482b97c53e48ffa324a976e2738053e9aff6eee04d8aac63b10e19411d869b828380a380f35b5080fd5b509134610496576101fe36611131565b936001600160a01b03918260c9541692855193632483e71560e01b855260209485818681855afa908115610420579086918891610461575b508851632474521560e21b8152868101918252336020830152928391829081906040015b03915afa908115610457579061027791879161042a575b506112ad565b61027f611457565b60c954169585519163381635c960e21b83526101c0928381806102a586868a840161142f565b03818c5afa948515610420579780996102e39989938a978b996103de575b50509084869284519c8d9485938493639888b5ab60e01b8552840161142f565b03915afa9788156103d4578798610375575b509187916103268386887f90dcac5b46d3fa6835f739f4994cca071c7a61ff5b90528185f95dbf53ba300b9761150f565b97828b519384938437820190815203902088516001600160a01b039485168152602081018890529390941660408401526060830152339180608081015b0390a360016065558351928352820152f35b849850916103267f90dcac5b46d3fa6835f739f4994cca071c7a61ff5b90528185f95dbf53ba300b94926103bf88958d803d106103cd575b6103b78183611273565b810190611928565b90509a5092945050916102f5565b503d6103ad565b89513d89823e3d90fd5b61040592995087939850869550803d10610419575b6103fd8183611273565b810190611375565b5050505050505097919490979891926102c3565b503d6103f3565b88513d89823e3d90fd5b61044a9150863d8811610450575b6104428183611273565b810190611295565b38610271565b503d610438565b87513d88823e3d90fd5b82819392503d831161048f575b6104788183611273565b8101031261048b5751859061025a610236565b8680fd5b503d61046e565b80fd5b5050346101ea57816003193601126101ea576020906001600160a01b03609754169051908152f35b50903461017257600319916020368401811361016e5781359367ffffffffffffffff85116106d65760808584019186360301126106d6576001600160a01b03908160c954168551632483e71560e01b815284818781855afa9081156106cc579085918a91610697575b508751632474521560e21b8152878101918252336020830152928391829081906040015b03915afa90811561068d579061056a91899161067657506112ad565b610572611457565b6064860190878484610583856119bc565b16606460448b0135988a5194859384927f23b872dd00000000000000000000000000000000000000000000000000000000845233908401523060248401528b60448401525af19089821561066b57859492936106107f65d1e38d527579e27b8e166f5a4c7d78449846fad0efed7191070bda0012133698979561062b94610623949161064e575b50611971565b602461061b826119bc565b9b019061193e565b9190926119bc565b91818951928392833781018b8152039020965195865216951692a4600160655580f35b6106659150893d8b11610450576104428183611273565b3861060a565b8851903d90823e3d90fd5b61044a9150853d8711610450576104428183611273565b86513d8a823e3d90fd5b82819392503d83116106c5575b6106ae8183611273565b810103126106c15751849061054e61052a565b8880fd5b503d6106a4565b87513d8b823e3d90fd5b8580fd5b50346101725782600319360112610172576106f3611180565b6033549060ff8216610737575060ff1916600117603355513381527f62e78cea01bee320cd4e420270b5ea74000d11b0c9f74754ebdbfc544b05a25890602090a180f35b606490602084519162461bcd60e51b8352820152601060248201527f5061757361626c653a20706175736564000000000000000000000000000000006044820152fd5b5034610172578260031936011261017257825460ff8160081c1615918280936108e6575b80156108cf575b15610866575060ff1980821660011785556107f19183610855575b5060ff855460081c16906107d3826119d0565b6107dc826119d0565b603354166033556107ec816119d0565b6119d0565b6107fa336111d8565b82549061081060ff8360081c166107ec816119d0565b600160655561081d578280f35b61ff001916825551600181527f7f26b83ff96e1f2b6a682f133852f6798a09c465da95921460cefb384740249890602090a138808280f35b61ffff1916610101178555386107c0565b608490602085519162461bcd60e51b8352820152602e60248201527f496e697469616c697a61626c653a20636f6e747261637420697320616c72656160448201527f647920696e697469616c697a65640000000000000000000000000000000000006064820152fd5b50303b1580156107a55750600160ff8316146107a5565b50600160ff83161061079e565b5050346101ea57816003193601126101ea576020906001600160a01b0360c954169051908152f35b8334610496578060031936011261049657610934611180565b806001600160a01b0360975473ffffffffffffffffffffffffffffffffffffffff198116609755167f8be0079c531659141344cd1fd0a4f28419497f9722a3daafe3b4186f6b6457e08280a380f35b508290346101ea5761099436611131565b9290916001600160a01b03918260c9541692865193632483e71560e01b855260209485818681855afa908115610b90579086918591610b5b575b508951632474521560e21b8152868101918252336020830152928391829081906040015b03915afa908115610b5157839291610a129188969591610b3457506112ad565b610a1a611457565b60c95416918751809363381635c960e21b82528180610a408b6101c0998a97840161142f565b03915afa958615610b285781829383958499610acb575b505090610a888886867f4130fa18069a9469da6fdc23c7ce5948bc85bacd6922b2fc6600121f91479970969561150f565b968792828b519384938437820190815203902088516001600160a01b03948516815260208101899052939094166040840152606083015233918060808101610363565b610b0f9399507f4130fa18069a9469da6fdc23c7ce5948bc85bacd6922b2fc6600121f91479970949650610a88955080919250903d10610419576103fd8183611273565b50939d959a96999698959796959450610a579350505050565b508651903d90823e3d90fd5b610b4b9150873d8911610450576104428183611273565b8a610271565b88513d85823e3d90fd5b82819392503d8311610b89575b610b728183611273565b81010312610b85575185906109f26109ce565b8380fd5b503d610b68565b89513d86823e3d90fd5b50346101725760031990602036830112610b855780359067ffffffffffffffff821161016e578382820193833603011261016e576001600160a01b03908160c954168551632483e71560e01b81526020818481855afa908115610fc9578891610f91575b508651632474521560e21b81528381019182523360208381019190915290929091839190829081906040015b03915afa8015610f8757610c44918891610f6e57506112ad565b610c4c611457565b858260c9541691610c60602486018761193e565b9688519163381635c960e21b83528280610c816101c09b8c9488840161142f565b0381885afa918215610b905784988593610f3f575b5050610cc5908980610cab60248b018461193e565b9082519586928392639888b5ab60e01b84528a840161142f565b03818a5afa948515610f3557610d249787948897610f11575b50602090610cef60248d018661193e565b91908551809c819482937fbef48ddf00000000000000000000000000000000000000000000000000000000845288840161142f565b03915afa978815610f07578b8a91899a610ebc575b5060208493928b928b9796518098819382610d918d7fa9059cbb00000000000000000000000000000000000000000000000000000000998a84528b8401602090939291936001600160a01b0360408201951681520152565b0393165af1948515610eb25788602094610db68d98610ddb948e91610e9b5750611971565b51968794859485528401602090939291936001600160a01b0360408201951681520152565b0381898c89165af1918215610e91577ff3cd76241eddc71264416c231683e08951d551766f5ae242f5eed7e54e8977d299610e25610e2c94602493610e6d9a91610e785750611971565b019061193e565b90818b51928392833781018c815203902098519586951697859060609295949360808301966001600160a01b03809316845260208401521660408201520152565b0390a3600160655580f35b610665915060203d602011610450576104428183611273565b8b513d88823e3d90fd5b6106659150883d8a11610450576104428183611273565b83513d8b823e3d90fd5b995050509190506020873d602011610eff575b81610edc60209383611273565b810103126106d6578a86928b6020610ef48c9b61131e565b9a9293949550610d39565b3d9150610ecf565b82513d89823e3d90fd5b610f2d91975060209550833d85116103cd576103b78183611273565b969094610cde565b81513d88823e3d90fd5b610cc59950610f5b929350803d10610419576103fd8183611273565b5050505050505098915097919038610c96565b61044a915060203d602011610450576104428183611273565b86513d89823e3d90fd5b90506020813d602011610fc1575b81610fac60209383611273565b81010312610fbd5751610c2a610bfe565b8780fd5b3d9150610f9f565b87513d8a823e3d90fd5b5050346101ea57816003193601126101ea5760209060ff6033541690519015158152f35b5034610172578260031936011261017257611010611180565b6033549060ff821615611052575060ff1916603355513381527f5db9ee0a495bf2e6ff9c91a7834c1ba4fdd244a5e8aa4e537bd38aeae4b073aa90602090a180f35b606490602084519162461bcd60e51b8352820152601460248201527f5061757361626c653a206e6f74207061757365640000000000000000000000006044820152fd5b5050346101ea57816003193601126101ea576020906001600160a01b0360ca54169051908152f35b8382346101ea5760203660031901126101ea57356001600160a01b0381168091036101ea576110ea611180565b8073ffffffffffffffffffffffffffffffffffffffff1960ca54161760ca55337f458609883bfc2c0eb1300d68839f0a6aa0b7a1997aba004773946caf044a06ff8380a380f35b90602060031983011261117b5760043567ffffffffffffffff9283821161117b578060238301121561117b57816004013593841161117b576024848301011161117b576024019190565b600080fd5b6001600160a01b0360975416330361119457565b606460405162461bcd60e51b815260206004820152602060248201527f4f776e61626c653a2063616c6c6572206973206e6f7420746865206f776e65726044820152fd5b609754906001600160a01b03809116918273ffffffffffffffffffffffffffffffffffffffff19821617609755167f8be0079c531659141344cd1fd0a4f28419497f9722a3daafe3b4186f6b6457e0600080a3565b67ffffffffffffffff811161124157604052565b634e487b7160e01b600052604160045260246000fd5b6040810190811067ffffffffffffffff82111761124157604052565b90601f8019910116810190811067ffffffffffffffff82111761124157604052565b9081602091031261117b5751801515810361117b5790565b156112b457565b608460405162461bcd60e51b815260206004820152602560248201527f5065726d697373696f6e3a206f6e6c792072656c61796572206973207065726d60448201527f69747465640000000000000000000000000000000000000000000000000000006064820152fd5b51906001600160a01b038216820361117b57565b919082604091031261117b576040516040810181811067ffffffffffffffff8211176112415760405280928051600481101561117b578252602090810151910152565b9190828103906101c0821261117b5761138d8461131e565b9361139a6020820161131e565b936113a76040830161131e565b9360608301519360808401519360a081015193606060c08301519460df19011261117b576040516060810181811067ffffffffffffffff8211176112415760405260e08301518152610100830151602082015261012083015190600782101561117b5761142c91604082015293610180611425826101408701611332565b9401611332565b90565b90918060409360208452816020850152848401376000828201840152601f01601f1916010190565b600260655414611468576002606555565b606460405162461bcd60e51b815260206004820152601f60248201527f5265656e7472616e637947756172643a207265656e7472616e742063616c6c006044820152fd5b919082519283825260005b8481106114d8575050826000602080949584010152601f8019910116010190565b6020818301810151848301820152016114b7565b8051156114f95760200190565b634e487b7160e01b600052603260045260246000fd5b916001600160a01b03918281169160ca54926000946040978851927f095ea7b300000000000000000000000000000000000000000000000000000000845260209384818061157a868860049d168d8401602090939291936001600160a01b0360408201951681520152565b03818c865af180156119015761190b575b508260ca541698893b156106c15783908b51927f87517c45000000000000000000000000000000000000000000000000000000008452898401521690888160249b848d83015286861660448301524265ffffffffffff16606483015281835a92608493f18015611901576118ee575b50895191888584015260019384845261161284611257565b8b519761161e89611257565b858952868b5b8181106118de5750508c51916bffffffffffffffffffffffff19809260601b16888401527e0bb80000000000000000000000000000000000000000000000000000000000603484015288169760601b166037820152602b8152606081019181831067ffffffffffffffff8411176118ca57906116dc91838e5230608083015260a08201528a60c082015260a060e08201526116c36101208201826114ac565b8661010083015203607f1981018352605f190182611273565b6116e5876114ec565b526116ef866114ec565b508951957f70a082310000000000000000000000000000000000000000000000000000000093848852308989015285888c818a5afa9788156118c0578a98611891575b50823b1561188d57918b918a9361177884519687957f24856bc30000000000000000000000000000000000000000000000000000000087528d87015260448601906114ac565b84810360031901858f01528251808252600581901b82018a01938a01929187908b8101905b8c84841061185857505050505050508383809203925af180156103d457839291889161183f575b505087895180958193825230898301525afa96871561183657508496611806575b505084039384116117f65750505090565b601190634e487b7160e01b835252fd5b9080929650813d831161182f575b61181e8183611273565b8101031261117b57519338806117e5565b503d611814565b513d86823e3d90fd5b61184b9192935061122d565b6106d657819086386117c4565b9194979950929587929598506118798291601f198682030187528a516114ac565b9801930193018e979592938997959261179d565b8980fd5b9097508581813d83116118b9575b6118a98183611273565b8101031261117b57519638611732565b503d61189f565b8c513d8c823e3d90fd5b8b60418b634e487b7160e01b600052526000fd5b606082828d010152018790611624565b6118fa9098919861122d565b96386115fa565b8b513d8b823e3d90fd5b61192190853d8711610450576104428183611273565b503861158b565b919082604091031261117b576020825192015190565b903590601e198136030182121561117b570180359067ffffffffffffffff821161117b5760200191813603831361117b57565b1561197857565b606460405162461bcd60e51b815260206004820152601c60248201527f4572726f723a2063616e6e6f74207472616e7366657220746f6b656e000000006044820152fd5b356001600160a01b038116810361117b5790565b156119d757565b608460405162461bcd60e51b815260206004820152602b60248201527f496e697469616c697a61626c653a20636f6e7472616374206973206e6f74206960448201527f6e697469616c697a696e670000000000000000000000000000000000000000006064820152fdfea26469706673582212208f94c71cb837da487820b73a54beca7dad71c36e7ffd350d85a97e622f2edadb64736f6c63430008130033","opcodes":"PUSH1 0x80 DUP1 PUSH1 0x40 MSTORE CALLVALUE PUSH2 0xC1 JUMPI PUSH1 0x0 SLOAD SWAP1 PUSH1 0xFF DUP3 PUSH1 0x8 SHR AND PUSH2 0x6F JUMPI POP PUSH1 0xFF DUP1 DUP3 AND LT PUSH2 0x34 JUMPI JUMPDEST PUSH1 0x40 MLOAD PUSH2 0x1A77 SWAP1 DUP2 PUSH2 0xC7 DUP3 CODECOPY RETURN JUMPDEST PUSH1 0xFF SWAP1 DUP2 NOT AND OR PUSH1 0x0 SSTORE PUSH32 0x7F26B83FF96E1F2B6A682F133852F6798A09C465DA95921460CEFB3847402498 PUSH1 0x20 PUSH1 0x40 MLOAD PUSH1 0xFF DUP2 MSTORE LOG1 CODESIZE PUSH2 0x25 JUMP JUMPDEST PUSH3 0x461BCD PUSH1 0xE5 SHL DUP2 MSTORE PUSH1 0x20 PUSH1 0x4 DUP3 ADD MSTORE PUSH1 0x27 PUSH1 0x24 DUP3 ADD MSTORE PUSH32 0x496E697469616C697A61626C653A20636F6E747261637420697320696E697469 PUSH1 0x44 DUP3 ADD MSTORE PUSH7 0x616C697A696E67 PUSH1 0xC8 SHL PUSH1 0x64 DUP3 ADD MSTORE PUSH1 0x84 SWAP1 REVERT JUMPDEST PUSH1 0x0 DUP1 REVERT INVALID PUSH1 0x40 PUSH1 0x80 DUP2 MSTORE PUSH1 0x4 SWAP1 DUP2 CALLDATASIZE LT ISZERO PUSH2 0x15 JUMPI PUSH1 0x0 DUP1 REVERT JUMPDEST PUSH1 0x0 SWAP2 DUP3 CALLDATALOAD PUSH1 0xE0 SHR DUP1 PUSH4 0x101EC30A EQ PUSH2 0x10BD JUMPI DUP1 PUSH4 0x12261EE7 EQ PUSH2 0x1095 JUMPI DUP1 PUSH4 0x3F4BA83A EQ PUSH2 0xFF7 JUMPI DUP1 PUSH4 0x5C975ABB EQ PUSH2 0xFD3 JUMPI DUP1 PUSH4 0x61A45AE6 EQ PUSH2 0xB9A JUMPI DUP1 PUSH4 0x6AFD431A EQ PUSH2 0x983 JUMPI DUP1 PUSH4 0x715018A6 EQ PUSH2 0x91B JUMPI DUP1 PUSH4 0x7B103999 EQ PUSH2 0x8F3 JUMPI DUP1 PUSH4 0x8129FC1C EQ PUSH2 0x77A JUMPI DUP1 PUSH4 0x8456CB59 EQ PUSH2 0x6DA JUMPI DUP1 PUSH4 0x8B6A70C4 EQ PUSH2 0x4C1 JUMPI DUP1 PUSH4 0x8DA5CB5B EQ PUSH2 0x499 JUMPI DUP1 PUSH4 0x9C89BB3D EQ PUSH2 0x1EE JUMPI DUP1 PUSH4 0xA91EE0DC EQ PUSH2 0x176 JUMPI PUSH4 0xF2FDE38B EQ PUSH2 0xC6 JUMPI PUSH1 0x0 DUP1 REVERT JUMPDEST CALLVALUE PUSH2 0x172 JUMPI PUSH1 0x20 CALLDATASIZE PUSH1 0x3 NOT ADD SLT PUSH2 0x172 JUMPI DUP1 CALLDATALOAD SWAP2 PUSH1 0x1 PUSH1 0x1 PUSH1 0xA0 SHL SUB DUP4 AND DUP1 DUP5 SUB PUSH2 0x16E JUMPI PUSH2 0xF3 PUSH2 0x1180 JUMP JUMPDEST ISZERO PUSH2 0x105 JUMPI DUP4 PUSH2 0x102 DUP5 PUSH2 0x11D8 JUMP JUMPDEST DUP1 RETURN JUMPDEST SWAP1 PUSH1 0x20 PUSH1 0x84 SWAP3 MLOAD SWAP2 PUSH3 0x461BCD PUSH1 0xE5 SHL DUP4 MSTORE DUP3 ADD MSTORE PUSH1 0x26 PUSH1 0x24 DUP3 ADD MSTORE PUSH32 0x4F776E61626C653A206E6577206F776E657220697320746865207A65726F2061 PUSH1 0x44 DUP3 ADD MSTORE PUSH32 0x6464726573730000000000000000000000000000000000000000000000000000 PUSH1 0x64 DUP3 ADD MSTORE REVERT JUMPDEST DUP5 DUP1 REVERT JUMPDEST DUP3 DUP1 REVERT JUMPDEST DUP4 DUP3 CALLVALUE PUSH2 0x1EA JUMPI PUSH1 0x20 CALLDATASIZE PUSH1 0x3 NOT ADD SLT PUSH2 0x1EA JUMPI CALLDATALOAD PUSH1 0x1 PUSH1 0x1 PUSH1 0xA0 SHL SUB DUP2 AND DUP1 SWAP2 SUB PUSH2 0x1EA JUMPI PUSH2 0x1A3 PUSH2 0x1180 JUMP JUMPDEST DUP1 PUSH20 0xFFFFFFFFFFFFFFFFFFFFFFFFFFFFFFFFFFFFFFFF NOT PUSH1 0xC9 SLOAD AND OR PUSH1 0xC9 SSTORE CALLER PUSH32 0x482B97C53E48FFA324A976E2738053E9AFF6EEE04D8AAC63B10E19411D869B82 DUP4 DUP1 LOG3 DUP1 RETURN JUMPDEST POP DUP1 REVERT JUMPDEST POP SWAP2 CALLVALUE PUSH2 0x496 JUMPI PUSH2 0x1FE CALLDATASIZE PUSH2 0x1131 JUMP JUMPDEST SWAP4 PUSH1 0x1 PUSH1 0x1 PUSH1 0xA0 SHL SUB SWAP2 DUP3 PUSH1 0xC9 SLOAD AND SWAP3 DUP6 MLOAD SWAP4 PUSH4 0x2483E715 PUSH1 0xE0 SHL DUP6 MSTORE PUSH1 0x20 SWAP5 DUP6 DUP2 DUP7 DUP2 DUP6 GAS STATICCALL SWAP1 DUP2 ISZERO PUSH2 0x420 JUMPI SWAP1 DUP7 SWAP2 DUP9 SWAP2 PUSH2 0x461 JUMPI JUMPDEST POP DUP9 MLOAD PUSH4 0x24745215 PUSH1 0xE2 SHL DUP2 MSTORE DUP7 DUP2 ADD SWAP2 DUP3 MSTORE CALLER PUSH1 0x20 DUP4 ADD MSTORE SWAP3 DUP4 SWAP2 DUP3 SWAP1 DUP2 SWAP1 PUSH1 0x40 ADD JUMPDEST SUB SWAP2 GAS STATICCALL SWAP1 DUP2 ISZERO PUSH2 0x457 JUMPI SWAP1 PUSH2 0x277 SWAP2 DUP8 SWAP2 PUSH2 0x42A JUMPI JUMPDEST POP PUSH2 0x12AD JUMP JUMPDEST PUSH2 0x27F PUSH2 0x1457 JUMP JUMPDEST PUSH1 0xC9 SLOAD AND SWAP6 DUP6 MLOAD SWAP2 PUSH4 0x381635C9 PUSH1 0xE2 SHL DUP4 MSTORE PUSH2 0x1C0 SWAP3 DUP4 DUP2 DUP1 PUSH2 0x2A5 DUP7 DUP7 DUP11 DUP5 ADD PUSH2 0x142F JUMP JUMPDEST SUB DUP2 DUP13 GAS STATICCALL SWAP5 DUP6 ISZERO PUSH2 0x420 JUMPI SWAP8 DUP1 SWAP10 PUSH2 0x2E3 SWAP10 DUP10 SWAP4 DUP11 SWAP8 DUP12 SWAP10 PUSH2 0x3DE JUMPI JUMPDEST POP POP SWAP1 DUP5 DUP7 SWAP3 DUP5 MLOAD SWAP13 DUP14 SWAP5 DUP6 SWAP4 DUP5 SWAP4 PUSH4 0x9888B5AB PUSH1 0xE0 SHL DUP6 MSTORE DUP5 ADD PUSH2 0x142F JUMP JUMPDEST SUB SWAP2 GAS STATICCALL SWAP8 DUP9 ISZERO PUSH2 0x3D4 JUMPI DUP8 SWAP9 PUSH2 0x375 JUMPI JUMPDEST POP SWAP2 DUP8 SWAP2 PUSH2 0x326 DUP4 DUP7 DUP9 PUSH32 0x90DCAC5B46D3FA6835F739F4994CCA071C7A61FF5B90528185F95DBF53BA300B SWAP8 PUSH2 0x150F JUMP JUMPDEST SWAP8 DUP3 DUP12 MLOAD SWAP4 DUP5 SWAP4 DUP5 CALLDATACOPY DUP3 ADD SWAP1 DUP2 MSTORE SUB SWAP1 KECCAK256 DUP9 MLOAD PUSH1 0x1 PUSH1 0x1 PUSH1 0xA0 SHL SUB SWAP5 DUP6 AND DUP2 MSTORE PUSH1 0x20 DUP2 ADD DUP9 SWAP1 MSTORE SWAP4 SWAP1 SWAP5 AND PUSH1 0x40 DUP5 ADD MSTORE PUSH1 0x60 DUP4 ADD MSTORE CALLER SWAP2 DUP1 PUSH1 0x80 DUP2 ADD JUMPDEST SUB SWAP1 LOG3 PUSH1 0x1 PUSH1 0x65 SSTORE DUP4 MLOAD SWAP3 DUP4 MSTORE DUP3 ADD MSTORE RETURN JUMPDEST DUP5 SWAP9 POP SWAP2 PUSH2 0x326 PUSH32 0x90DCAC5B46D3FA6835F739F4994CCA071C7A61FF5B90528185F95DBF53BA300B SWAP5 SWAP3 PUSH2 0x3BF DUP9 SWAP6 DUP14 DUP1 RETURNDATASIZE LT PUSH2 0x3CD JUMPI JUMPDEST PUSH2 0x3B7 DUP2 DUP4 PUSH2 0x1273 JUMP JUMPDEST DUP2 ADD SWAP1 PUSH2 0x1928 JUMP JUMPDEST SWAP1 POP SWAP11 POP SWAP3 SWAP5 POP POP SWAP2 PUSH2 0x2F5 JUMP JUMPDEST POP RETURNDATASIZE PUSH2 0x3AD JUMP JUMPDEST DUP10 MLOAD RETURNDATASIZE DUP10 DUP3 RETURNDATACOPY RETURNDATASIZE SWAP1 REVERT JUMPDEST PUSH2 0x405 SWAP3 SWAP10 POP DUP8 SWAP4 SWAP9 POP DUP7 SWAP6 POP DUP1 RETURNDATASIZE LT PUSH2 0x419 JUMPI JUMPDEST PUSH2 0x3FD DUP2 DUP4 PUSH2 0x1273 JUMP JUMPDEST DUP2 ADD SWAP1 PUSH2 0x1375 JUMP JUMPDEST POP POP POP POP POP POP POP SWAP8 SWAP2 SWAP5 SWAP1 SWAP8 SWAP9 SWAP2 SWAP3 PUSH2 0x2C3 JUMP JUMPDEST POP RETURNDATASIZE PUSH2 0x3F3 JUMP JUMPDEST DUP9 MLOAD RETURNDATASIZE DUP10 DUP3 RETURNDATACOPY RETURNDATASIZE SWAP1 REVERT JUMPDEST PUSH2 0x44A SWAP2 POP DUP7 RETURNDATASIZE DUP9 GT PUSH2 0x450 JUMPI JUMPDEST PUSH2 0x442 DUP2 DUP4 PUSH2 0x1273 JUMP JUMPDEST DUP2 ADD SWAP1 PUSH2 0x1295 JUMP JUMPDEST CODESIZE PUSH2 0x271 JUMP JUMPDEST POP RETURNDATASIZE PUSH2 0x438 JUMP JUMPDEST DUP8 MLOAD RETURNDATASIZE DUP9 DUP3 RETURNDATACOPY RETURNDATASIZE SWAP1 REVERT JUMPDEST DUP3 DUP2 SWAP4 SWAP3 POP RETURNDATASIZE DUP4 GT PUSH2 0x48F JUMPI JUMPDEST PUSH2 0x478 DUP2 DUP4 PUSH2 0x1273 JUMP JUMPDEST DUP2 ADD SUB SLT PUSH2 0x48B JUMPI MLOAD DUP6 SWAP1 PUSH2 0x25A PUSH2 0x236 JUMP JUMPDEST DUP7 DUP1 REVERT JUMPDEST POP RETURNDATASIZE PUSH2 0x46E JUMP JUMPDEST DUP1 REVERT JUMPDEST POP POP CALLVALUE PUSH2 0x1EA JUMPI DUP2 PUSH1 0x3 NOT CALLDATASIZE ADD SLT PUSH2 0x1EA JUMPI PUSH1 0x20 SWAP1 PUSH1 0x1 PUSH1 0x1 PUSH1 0xA0 SHL SUB PUSH1 0x97 SLOAD AND SWAP1 MLOAD SWAP1 DUP2 MSTORE RETURN JUMPDEST POP SWAP1 CALLVALUE PUSH2 0x172 JUMPI PUSH1 0x3 NOT SWAP2 PUSH1 0x20 CALLDATASIZE DUP5 ADD DUP2 SGT PUSH2 0x16E JUMPI DUP2 CALLDATALOAD SWAP4 PUSH8 0xFFFFFFFFFFFFFFFF DUP6 GT PUSH2 0x6D6 JUMPI PUSH1 0x80 DUP6 DUP5 ADD SWAP2 DUP7 CALLDATASIZE SUB ADD SLT PUSH2 0x6D6 JUMPI PUSH1 0x1 PUSH1 0x1 PUSH1 0xA0 SHL SUB SWAP1 DUP2 PUSH1 0xC9 SLOAD AND DUP6 MLOAD PUSH4 0x2483E715 PUSH1 0xE0 SHL DUP2 MSTORE DUP5 DUP2 DUP8 DUP2 DUP6 GAS STATICCALL SWAP1 DUP2 ISZERO PUSH2 0x6CC JUMPI SWAP1 DUP6 SWAP2 DUP11 SWAP2 PUSH2 0x697 JUMPI JUMPDEST POP DUP8 MLOAD PUSH4 0x24745215 PUSH1 0xE2 SHL DUP2 MSTORE DUP8 DUP2 ADD SWAP2 DUP3 MSTORE CALLER PUSH1 0x20 DUP4 ADD MSTORE SWAP3 DUP4 SWAP2 DUP3 SWAP1 DUP2 SWAP1 PUSH1 0x40 ADD JUMPDEST SUB SWAP2 GAS STATICCALL SWAP1 DUP2 ISZERO PUSH2 0x68D JUMPI SWAP1 PUSH2 0x56A SWAP2 DUP10 SWAP2 PUSH2 0x676 JUMPI POP PUSH2 0x12AD JUMP JUMPDEST PUSH2 0x572 PUSH2 0x1457 JUMP JUMPDEST PUSH1 0x64 DUP7 ADD SWAP1 DUP8 DUP5 DUP5 PUSH2 0x583 DUP6 PUSH2 0x19BC JUMP JUMPDEST AND PUSH1 0x64 PUSH1 0x44 DUP12 ADD CALLDATALOAD SWAP9 DUP11 MLOAD SWAP5 DUP6 SWAP4 DUP5 SWAP3 PUSH32 0x23B872DD00000000000000000000000000000000000000000000000000000000 DUP5 MSTORE CALLER SWAP1 DUP5 ADD MSTORE ADDRESS PUSH1 0x24 DUP5 ADD MSTORE DUP12 PUSH1 0x44 DUP5 ADD MSTORE GAS CALL SWAP1 DUP10 DUP3 ISZERO PUSH2 0x66B JUMPI DUP6 SWAP5 SWAP3 SWAP4 PUSH2 0x610 PUSH32 0x65D1E38D527579E27B8E166F5A4C7D78449846FAD0EFED7191070BDA00121336 SWAP9 SWAP8 SWAP6 PUSH2 0x62B SWAP5 PUSH2 0x623 SWAP5 SWAP2 PUSH2 0x64E JUMPI JUMPDEST POP PUSH2 0x1971 JUMP JUMPDEST PUSH1 0x24 PUSH2 0x61B DUP3 PUSH2 0x19BC JUMP JUMPDEST SWAP12 ADD SWAP1 PUSH2 0x193E JUMP JUMPDEST SWAP2 SWAP1 SWAP3 PUSH2 0x19BC JUMP JUMPDEST SWAP2 DUP2 DUP10 MLOAD SWAP3 DUP4 SWAP3 DUP4 CALLDATACOPY DUP2 ADD DUP12 DUP2 MSTORE SUB SWAP1 KECCAK256 SWAP7 MLOAD SWAP6 DUP7 MSTORE AND SWAP6 AND SWAP3 LOG4 PUSH1 0x1 PUSH1 0x65 SSTORE DUP1 RETURN JUMPDEST PUSH2 0x665 SWAP2 POP DUP10 RETURNDATASIZE DUP12 GT PUSH2 0x450 JUMPI PUSH2 0x442 DUP2 DUP4 PUSH2 0x1273 JUMP JUMPDEST CODESIZE PUSH2 0x60A JUMP JUMPDEST DUP9 MLOAD SWAP1 RETURNDATASIZE SWAP1 DUP3 RETURNDATACOPY RETURNDATASIZE SWAP1 REVERT JUMPDEST PUSH2 0x44A SWAP2 POP DUP6 RETURNDATASIZE DUP8 GT PUSH2 0x450 JUMPI PUSH2 0x442 DUP2 DUP4 PUSH2 0x1273 JUMP JUMPDEST DUP7 MLOAD RETURNDATASIZE DUP11 DUP3 RETURNDATACOPY RETURNDATASIZE SWAP1 REVERT JUMPDEST DUP3 DUP2 SWAP4 SWAP3 POP RETURNDATASIZE DUP4 GT PUSH2 0x6C5 JUMPI JUMPDEST PUSH2 0x6AE DUP2 DUP4 PUSH2 0x1273 JUMP JUMPDEST DUP2 ADD SUB SLT PUSH2 0x6C1 JUMPI MLOAD DUP5 SWAP1 PUSH2 0x54E PUSH2 0x52A JUMP JUMPDEST DUP9 DUP1 REVERT JUMPDEST POP RETURNDATASIZE PUSH2 0x6A4 JUMP JUMPDEST DUP8 MLOAD RETURNDATASIZE DUP12 DUP3 RETURNDATACOPY RETURNDATASIZE SWAP1 REVERT JUMPDEST DUP6 DUP1 REVERT JUMPDEST POP CALLVALUE PUSH2 0x172 JUMPI DUP3 PUSH1 0x3 NOT CALLDATASIZE ADD SLT PUSH2 0x172 JUMPI PUSH2 0x6F3 PUSH2 0x1180 JUMP JUMPDEST PUSH1 0x33 SLOAD SWAP1 PUSH1 0xFF DUP3 AND PUSH2 0x737 JUMPI POP PUSH1 0xFF NOT AND PUSH1 0x1 OR PUSH1 0x33 SSTORE MLOAD CALLER DUP2 MSTORE PUSH32 0x62E78CEA01BEE320CD4E420270B5EA74000D11B0C9F74754EBDBFC544B05A258 SWAP1 PUSH1 0x20 SWAP1 LOG1 DUP1 RETURN JUMPDEST PUSH1 0x64 SWAP1 PUSH1 0x20 DUP5 MLOAD SWAP2 PUSH3 0x461BCD PUSH1 0xE5 SHL DUP4 MSTORE DUP3 ADD MSTORE PUSH1 0x10 PUSH1 0x24 DUP3 ADD MSTORE PUSH32 0x5061757361626C653A2070617573656400000000000000000000000000000000 PUSH1 0x44 DUP3 ADD MSTORE REVERT JUMPDEST POP CALLVALUE PUSH2 0x172 JUMPI DUP3 PUSH1 0x3 NOT CALLDATASIZE ADD SLT PUSH2 0x172 JUMPI DUP3 SLOAD PUSH1 0xFF DUP2 PUSH1 0x8 SHR AND ISZERO SWAP2 DUP3 DUP1 SWAP4 PUSH2 0x8E6 JUMPI JUMPDEST DUP1 ISZERO PUSH2 0x8CF JUMPI JUMPDEST ISZERO PUSH2 0x866 JUMPI POP PUSH1 0xFF NOT DUP1 DUP3 AND PUSH1 0x1 OR DUP6 SSTORE PUSH2 0x7F1 SWAP2 DUP4 PUSH2 0x855 JUMPI JUMPDEST POP PUSH1 0xFF DUP6 SLOAD PUSH1 0x8 SHR AND SWAP1 PUSH2 0x7D3 DUP3 PUSH2 0x19D0 JUMP JUMPDEST PUSH2 0x7DC DUP3 PUSH2 0x19D0 JUMP JUMPDEST PUSH1 0x33 SLOAD AND PUSH1 0x33 SSTORE PUSH2 0x7EC DUP2 PUSH2 0x19D0 JUMP JUMPDEST PUSH2 0x19D0 JUMP JUMPDEST PUSH2 0x7FA CALLER PUSH2 0x11D8 JUMP JUMPDEST DUP3 SLOAD SWAP1 PUSH2 0x810 PUSH1 0xFF DUP4 PUSH1 0x8 SHR AND PUSH2 0x7EC DUP2 PUSH2 0x19D0 JUMP JUMPDEST PUSH1 0x1 PUSH1 0x65 SSTORE PUSH2 0x81D JUMPI DUP3 DUP1 RETURN JUMPDEST PUSH2 0xFF00 NOT AND DUP3 SSTORE MLOAD PUSH1 0x1 DUP2 MSTORE PUSH32 0x7F26B83FF96E1F2B6A682F133852F6798A09C465DA95921460CEFB3847402498 SWAP1 PUSH1 0x20 SWAP1 LOG1 CODESIZE DUP1 DUP3 DUP1 RETURN JUMPDEST PUSH2 0xFFFF NOT AND PUSH2 0x101 OR DUP6 SSTORE CODESIZE PUSH2 0x7C0 JUMP JUMPDEST PUSH1 0x84 SWAP1 PUSH1 0x20 DUP6 MLOAD SWAP2 PUSH3 0x461BCD PUSH1 0xE5 SHL DUP4 MSTORE DUP3 ADD MSTORE PUSH1 0x2E PUSH1 0x24 DUP3 ADD MSTORE PUSH32 0x496E697469616C697A61626C653A20636F6E747261637420697320616C726561 PUSH1 0x44 DUP3 ADD MSTORE PUSH32 0x647920696E697469616C697A6564000000000000000000000000000000000000 PUSH1 0x64 DUP3 ADD MSTORE REVERT JUMPDEST POP ADDRESS EXTCODESIZE ISZERO DUP1 ISZERO PUSH2 0x7A5 JUMPI POP PUSH1 0x1 PUSH1 0xFF DUP4 AND EQ PUSH2 0x7A5 JUMP JUMPDEST POP PUSH1 0x1 PUSH1 0xFF DUP4 AND LT PUSH2 0x79E JUMP JUMPDEST POP POP CALLVALUE PUSH2 0x1EA JUMPI DUP2 PUSH1 0x3 NOT CALLDATASIZE ADD SLT PUSH2 0x1EA JUMPI PUSH1 0x20 SWAP1 PUSH1 0x1 PUSH1 0x1 PUSH1 0xA0 SHL SUB PUSH1 0xC9 SLOAD AND SWAP1 MLOAD SWAP1 DUP2 MSTORE RETURN JUMPDEST DUP4 CALLVALUE PUSH2 0x496 JUMPI DUP1 PUSH1 0x3 NOT CALLDATASIZE ADD SLT PUSH2 0x496 JUMPI PUSH2 0x934 PUSH2 0x1180 JUMP JUMPDEST DUP1 PUSH1 0x1 PUSH1 0x1 PUSH1 0xA0 SHL SUB PUSH1 0x97 SLOAD PUSH20 0xFFFFFFFFFFFFFFFFFFFFFFFFFFFFFFFFFFFFFFFF NOT DUP2 AND PUSH1 0x97 SSTORE AND PUSH32 0x8BE0079C531659141344CD1FD0A4F28419497F9722A3DAAFE3B4186F6B6457E0 DUP3 DUP1 LOG3 DUP1 RETURN JUMPDEST POP DUP3 SWAP1 CALLVALUE PUSH2 0x1EA JUMPI PUSH2 0x994 CALLDATASIZE PUSH2 0x1131 JUMP JUMPDEST SWAP3 SWAP1 SWAP2 PUSH1 0x1 PUSH1 0x1 PUSH1 0xA0 SHL SUB SWAP2 DUP3 PUSH1 0xC9 SLOAD AND SWAP3 DUP7 MLOAD SWAP4 PUSH4 0x2483E715 PUSH1 0xE0 SHL DUP6 MSTORE PUSH1 0x20 SWAP5 DUP6 DUP2 DUP7 DUP2 DUP6 GAS STATICCALL SWAP1 DUP2 ISZERO PUSH2 0xB90 JUMPI SWAP1 DUP7 SWAP2 DUP6 SWAP2 PUSH2 0xB5B JUMPI JUMPDEST POP DUP10 MLOAD PUSH4 0x24745215 PUSH1 0xE2 SHL DUP2 MSTORE DUP7 DUP2 ADD SWAP2 DUP3 MSTORE CALLER PUSH1 0x20 DUP4 ADD MSTORE SWAP3 DUP4 SWAP2 DUP3 SWAP1 DUP2 SWAP1 PUSH1 0x40 ADD JUMPDEST SUB SWAP2 GAS STATICCALL SWAP1 DUP2 ISZERO PUSH2 0xB51 JUMPI DUP4 SWAP3 SWAP2 PUSH2 0xA12 SWAP2 DUP9 SWAP7 SWAP6 SWAP2 PUSH2 0xB34 JUMPI POP PUSH2 0x12AD JUMP JUMPDEST PUSH2 0xA1A PUSH2 0x1457 JUMP JUMPDEST PUSH1 0xC9 SLOAD AND SWAP2 DUP8 MLOAD DUP1 SWAP4 PUSH4 0x381635C9 PUSH1 0xE2 SHL DUP3 MSTORE DUP2 DUP1 PUSH2 0xA40 DUP12 PUSH2 0x1C0 SWAP10 DUP11 SWAP8 DUP5 ADD PUSH2 0x142F JUMP JUMPDEST SUB SWAP2 GAS STATICCALL SWAP6 DUP7 ISZERO PUSH2 0xB28 JUMPI DUP2 DUP3 SWAP4 DUP4 SWAP6 DUP5 SWAP10 PUSH2 0xACB JUMPI JUMPDEST POP POP SWAP1 PUSH2 0xA88 DUP9 DUP7 DUP7 PUSH32 0x4130FA18069A9469DA6FDC23C7CE5948BC85BACD6922B2FC6600121F91479970 SWAP7 SWAP6 PUSH2 0x150F JUMP JUMPDEST SWAP7 DUP8 SWAP3 DUP3 DUP12 MLOAD SWAP4 DUP5 SWAP4 DUP5 CALLDATACOPY DUP3 ADD SWAP1 DUP2 MSTORE SUB SWAP1 KECCAK256 DUP9 MLOAD PUSH1 0x1 PUSH1 0x1 PUSH1 0xA0 SHL SUB SWAP5 DUP6 AND DUP2 MSTORE PUSH1 0x20 DUP2 ADD DUP10 SWAP1 MSTORE SWAP4 SWAP1 SWAP5 AND PUSH1 0x40 DUP5 ADD MSTORE PUSH1 0x60 DUP4 ADD MSTORE CALLER SWAP2 DUP1 PUSH1 0x80 DUP2 ADD PUSH2 0x363 JUMP JUMPDEST PUSH2 0xB0F SWAP4 SWAP10 POP PUSH32 0x4130FA18069A9469DA6FDC23C7CE5948BC85BACD6922B2FC6600121F91479970 SWAP5 SWAP7 POP PUSH2 0xA88 SWAP6 POP DUP1 SWAP2 SWAP3 POP SWAP1 RETURNDATASIZE LT PUSH2 0x419 JUMPI PUSH2 0x3FD DUP2 DUP4 PUSH2 0x1273 JUMP JUMPDEST POP SWAP4 SWAP14 SWAP6 SWAP11 SWAP7 SWAP10 SWAP7 SWAP9 SWAP6 SWAP8 SWAP7 SWAP6 SWAP5 POP PUSH2 0xA57 SWAP4 POP POP POP POP JUMP JUMPDEST POP DUP7 MLOAD SWAP1 RETURNDATASIZE SWAP1 DUP3 RETURNDATACOPY RETURNDATASIZE SWAP1 REVERT JUMPDEST PUSH2 0xB4B SWAP2 POP DUP8 RETURNDATASIZE DUP10 GT PUSH2 0x450 JUMPI PUSH2 0x442 DUP2 DUP4 PUSH2 0x1273 JUMP JUMPDEST DUP11 PUSH2 0x271 JUMP JUMPDEST DUP9 MLOAD RETURNDATASIZE DUP6 DUP3 RETURNDATACOPY RETURNDATASIZE SWAP1 REVERT JUMPDEST DUP3 DUP2 SWAP4 SWAP3 POP RETURNDATASIZE DUP4 GT PUSH2 0xB89 JUMPI JUMPDEST PUSH2 0xB72 DUP2 DUP4 PUSH2 0x1273 JUMP JUMPDEST DUP2 ADD SUB SLT PUSH2 0xB85 JUMPI MLOAD DUP6 SWAP1 PUSH2 0x9F2 PUSH2 0x9CE JUMP JUMPDEST DUP4 DUP1 REVERT JUMPDEST POP RETURNDATASIZE PUSH2 0xB68 JUMP JUMPDEST DUP10 MLOAD RETURNDATASIZE DUP7 DUP3 RETURNDATACOPY RETURNDATASIZE SWAP1 REVERT JUMPDEST POP CALLVALUE PUSH2 0x172 JUMPI PUSH1 0x3 NOT SWAP1 PUSH1 0x20 CALLDATASIZE DUP4 ADD SLT PUSH2 0xB85 JUMPI DUP1 CALLDATALOAD SWAP1 PUSH8 0xFFFFFFFFFFFFFFFF DUP3 GT PUSH2 0x16E JUMPI DUP4 DUP3 DUP3 ADD SWAP4 DUP4 CALLDATASIZE SUB ADD SLT PUSH2 0x16E JUMPI PUSH1 0x1 PUSH1 0x1 PUSH1 0xA0 SHL SUB SWAP1 DUP2 PUSH1 0xC9 SLOAD AND DUP6 MLOAD PUSH4 0x2483E715 PUSH1 0xE0 SHL DUP2 MSTORE PUSH1 0x20 DUP2 DUP5 DUP2 DUP6 GAS STATICCALL SWAP1 DUP2 ISZERO PUSH2 0xFC9 JUMPI DUP9 SWAP2 PUSH2 0xF91 JUMPI JUMPDEST POP DUP7 MLOAD PUSH4 0x24745215 PUSH1 0xE2 SHL DUP2 MSTORE DUP4 DUP2 ADD SWAP2 DUP3 MSTORE CALLER PUSH1 0x20 DUP4 DUP2 ADD SWAP2 SWAP1 SWAP2 MSTORE SWAP1 SWAP3 SWAP1 SWAP2 DUP4 SWAP2 SWAP1 DUP3 SWAP1 DUP2 SWAP1 PUSH1 0x40 ADD JUMPDEST SUB SWAP2 GAS STATICCALL DUP1 ISZERO PUSH2 0xF87 JUMPI PUSH2 0xC44 SWAP2 DUP9 SWAP2 PUSH2 0xF6E JUMPI POP PUSH2 0x12AD JUMP JUMPDEST PUSH2 0xC4C PUSH2 0x1457 JUMP JUMPDEST DUP6 DUP3 PUSH1 0xC9 SLOAD AND SWAP2 PUSH2 0xC60 PUSH1 0x24 DUP7 ADD DUP8 PUSH2 0x193E JUMP JUMPDEST SWAP7 DUP9 MLOAD SWAP2 PUSH4 0x381635C9 PUSH1 0xE2 SHL DUP4 MSTORE DUP3 DUP1 PUSH2 0xC81 PUSH2 0x1C0 SWAP12 DUP13 SWAP5 DUP9 DUP5 ADD PUSH2 0x142F JUMP JUMPDEST SUB DUP2 DUP9 GAS STATICCALL SWAP2 DUP3 ISZERO PUSH2 0xB90 JUMPI DUP5 SWAP9 DUP6 SWAP4 PUSH2 0xF3F JUMPI JUMPDEST POP POP PUSH2 0xCC5 SWAP1 DUP10 DUP1 PUSH2 0xCAB PUSH1 0x24 DUP12 ADD DUP5 PUSH2 0x193E JUMP JUMPDEST SWAP1 DUP3 MLOAD SWAP6 DUP7 SWAP3 DUP4 SWAP3 PUSH4 0x9888B5AB PUSH1 0xE0 SHL DUP5 MSTORE DUP11 DUP5 ADD PUSH2 0x142F JUMP JUMPDEST SUB DUP2 DUP11 GAS STATICCALL SWAP5 DUP6 ISZERO PUSH2 0xF35 JUMPI PUSH2 0xD24 SWAP8 DUP8 SWAP5 DUP9 SWAP8 PUSH2 0xF11 JUMPI JUMPDEST POP PUSH1 0x20 SWAP1 PUSH2 0xCEF PUSH1 0x24 DUP14 ADD DUP7 PUSH2 0x193E JUMP JUMPDEST SWAP2 SWAP1 DUP6 MLOAD DUP1 SWAP13 DUP2 SWAP5 DUP3 SWAP4 PUSH32 0xBEF48DDF00000000000000000000000000000000000000000000000000000000 DUP5 MSTORE DUP9 DUP5 ADD PUSH2 0x142F JUMP JUMPDEST SUB SWAP2 GAS STATICCALL SWAP8 DUP9 ISZERO PUSH2 0xF07 JUMPI DUP12 DUP11 SWAP2 DUP10 SWAP11 PUSH2 0xEBC JUMPI JUMPDEST POP PUSH1 0x20 DUP5 SWAP4 SWAP3 DUP12 SWAP3 DUP12 SWAP8 SWAP7 MLOAD DUP1 SWAP9 DUP2 SWAP4 DUP3 PUSH2 0xD91 DUP14 PUSH32 0xA9059CBB00000000000000000000000000000000000000000000000000000000 SWAP10 DUP11 DUP5 MSTORE DUP12 DUP5 ADD PUSH1 0x20 SWAP1 SWAP4 SWAP3 SWAP2 SWAP4 PUSH1 0x1 PUSH1 0x1 PUSH1 0xA0 SHL SUB PUSH1 0x40 DUP3 ADD SWAP6 AND DUP2 MSTORE ADD MSTORE JUMP JUMPDEST SUB SWAP4 AND GAS CALL SWAP5 DUP6 ISZERO PUSH2 0xEB2 JUMPI DUP9 PUSH1 0x20 SWAP5 PUSH2 0xDB6 DUP14 SWAP9 PUSH2 0xDDB SWAP5 DUP15 SWAP2 PUSH2 0xE9B JUMPI POP PUSH2 0x1971 JUMP JUMPDEST MLOAD SWAP7 DUP8 SWAP5 DUP6 SWAP5 DUP6 MSTORE DUP5 ADD PUSH1 0x20 SWAP1 SWAP4 SWAP3 SWAP2 SWAP4 PUSH1 0x1 PUSH1 0x1 PUSH1 0xA0 SHL SUB PUSH1 0x40 DUP3 ADD SWAP6 AND DUP2 MSTORE ADD MSTORE JUMP JUMPDEST SUB DUP2 DUP10 DUP13 DUP10 AND GAS CALL SWAP2 DUP3 ISZERO PUSH2 0xE91 JUMPI PUSH32 0xF3CD76241EDDC71264416C231683E08951D551766F5AE242F5EED7E54E8977D2 SWAP10 PUSH2 0xE25 PUSH2 0xE2C SWAP5 PUSH1 0x24 SWAP4 PUSH2 0xE6D SWAP11 SWAP2 PUSH2 0xE78 JUMPI POP PUSH2 0x1971 JUMP JUMPDEST ADD SWAP1 PUSH2 0x193E JUMP JUMPDEST SWAP1 DUP2 DUP12 MLOAD SWAP3 DUP4 SWAP3 DUP4 CALLDATACOPY DUP2 ADD DUP13 DUP2 MSTORE SUB SWAP1 KECCAK256 SWAP9 MLOAD SWAP6 DUP7 SWAP6 AND SWAP8 DUP6 SWAP1 PUSH1 0x60 SWAP3 SWAP6 SWAP5 SWAP4 PUSH1 0x80 DUP4 ADD SWAP7 PUSH1 0x1 PUSH1 0x1 PUSH1 0xA0 SHL SUB DUP1 SWAP4 AND DUP5 MSTORE PUSH1 0x20 DUP5 ADD MSTORE AND PUSH1 0x40 DUP3 ADD MSTORE ADD MSTORE JUMP JUMPDEST SUB SWAP1 LOG3 PUSH1 0x1 PUSH1 0x65 SSTORE DUP1 RETURN JUMPDEST PUSH2 0x665 SWAP2 POP PUSH1 0x20 RETURNDATASIZE PUSH1 0x20 GT PUSH2 0x450 JUMPI PUSH2 0x442 DUP2 DUP4 PUSH2 0x1273 JUMP JUMPDEST DUP12 MLOAD RETURNDATASIZE DUP9 DUP3 RETURNDATACOPY RETURNDATASIZE SWAP1 REVERT JUMPDEST PUSH2 0x665 SWAP2 POP DUP9 RETURNDATASIZE DUP11 GT PUSH2 0x450 JUMPI PUSH2 0x442 DUP2 DUP4 PUSH2 0x1273 JUMP JUMPDEST DUP4 MLOAD RETURNDATASIZE DUP12 DUP3 RETURNDATACOPY RETURNDATASIZE SWAP1 REVERT JUMPDEST SWAP10 POP POP POP SWAP2 SWAP1 POP PUSH1 0x20 DUP8 RETURNDATASIZE PUSH1 0x20 GT PUSH2 0xEFF JUMPI JUMPDEST DUP2 PUSH2 0xEDC PUSH1 0x20 SWAP4 DUP4 PUSH2 0x1273 JUMP JUMPDEST DUP2 ADD SUB SLT PUSH2 0x6D6 JUMPI DUP11 DUP7 SWAP3 DUP12 PUSH1 0x20 PUSH2 0xEF4 DUP13 SWAP12 PUSH2 0x131E JUMP JUMPDEST SWAP11 SWAP3 SWAP4 SWAP5 SWAP6 POP PUSH2 0xD39 JUMP JUMPDEST RETURNDATASIZE SWAP2 POP PUSH2 0xECF JUMP JUMPDEST DUP3 MLOAD RETURNDATASIZE DUP10 DUP3 RETURNDATACOPY RETURNDATASIZE SWAP1 REVERT JUMPDEST PUSH2 0xF2D SWAP2 SWAP8 POP PUSH1 0x20 SWAP6 POP DUP4 RETURNDATASIZE DUP6 GT PUSH2 0x3CD JUMPI PUSH2 0x3B7 DUP2 DUP4 PUSH2 0x1273 JUMP JUMPDEST SWAP7 SWAP1 SWAP5 PUSH2 0xCDE JUMP JUMPDEST DUP2 MLOAD RETURNDATASIZE DUP9 DUP3 RETURNDATACOPY RETURNDATASIZE SWAP1 REVERT JUMPDEST PUSH2 0xCC5 SWAP10 POP PUSH2 0xF5B SWAP3 SWAP4 POP DUP1 RETURNDATASIZE LT PUSH2 0x419 JUMPI PUSH2 0x3FD DUP2 DUP4 PUSH2 0x1273 JUMP JUMPDEST POP POP POP POP POP POP POP SWAP9 SWAP2 POP SWAP8 SWAP2 SWAP1 CODESIZE PUSH2 0xC96 JUMP JUMPDEST PUSH2 0x44A SWAP2 POP PUSH1 0x20 RETURNDATASIZE PUSH1 0x20 GT PUSH2 0x450 JUMPI PUSH2 0x442 DUP2 DUP4 PUSH2 0x1273 JUMP JUMPDEST DUP7 MLOAD RETURNDATASIZE DUP10 DUP3 RETURNDATACOPY RETURNDATASIZE SWAP1 REVERT JUMPDEST SWAP1 POP PUSH1 0x20 DUP2 RETURNDATASIZE PUSH1 0x20 GT PUSH2 0xFC1 JUMPI JUMPDEST DUP2 PUSH2 0xFAC PUSH1 0x20 SWAP4 DUP4 PUSH2 0x1273 JUMP JUMPDEST DUP2 ADD SUB SLT PUSH2 0xFBD JUMPI MLOAD PUSH2 0xC2A PUSH2 0xBFE JUMP JUMPDEST DUP8 DUP1 REVERT JUMPDEST RETURNDATASIZE SWAP2 POP PUSH2 0xF9F JUMP JUMPDEST DUP8 MLOAD RETURNDATASIZE DUP11 DUP3 RETURNDATACOPY RETURNDATASIZE SWAP1 REVERT JUMPDEST POP POP CALLVALUE PUSH2 0x1EA JUMPI DUP2 PUSH1 0x3 NOT CALLDATASIZE ADD SLT PUSH2 0x1EA JUMPI PUSH1 0x20 SWAP1 PUSH1 0xFF PUSH1 0x33 SLOAD AND SWAP1 MLOAD SWAP1 ISZERO ISZERO DUP2 MSTORE RETURN JUMPDEST POP CALLVALUE PUSH2 0x172 JUMPI DUP3 PUSH1 0x3 NOT CALLDATASIZE ADD SLT PUSH2 0x172 JUMPI PUSH2 0x1010 PUSH2 0x1180 JUMP JUMPDEST PUSH1 0x33 SLOAD SWAP1 PUSH1 0xFF DUP3 AND ISZERO PUSH2 0x1052 JUMPI POP PUSH1 0xFF NOT AND PUSH1 0x33 SSTORE MLOAD CALLER DUP2 MSTORE PUSH32 0x5DB9EE0A495BF2E6FF9C91A7834C1BA4FDD244A5E8AA4E537BD38AEAE4B073AA SWAP1 PUSH1 0x20 SWAP1 LOG1 DUP1 RETURN JUMPDEST PUSH1 0x64 SWAP1 PUSH1 0x20 DUP5 MLOAD SWAP2 PUSH3 0x461BCD PUSH1 0xE5 SHL DUP4 MSTORE DUP3 ADD MSTORE PUSH1 0x14 PUSH1 0x24 DUP3 ADD MSTORE PUSH32 0x5061757361626C653A206E6F7420706175736564000000000000000000000000 PUSH1 0x44 DUP3 ADD MSTORE REVERT JUMPDEST POP POP CALLVALUE PUSH2 0x1EA JUMPI DUP2 PUSH1 0x3 NOT CALLDATASIZE ADD SLT PUSH2 0x1EA JUMPI PUSH1 0x20 SWAP1 PUSH1 0x1 PUSH1 0x1 PUSH1 0xA0 SHL SUB PUSH1 0xCA SLOAD AND SWAP1 MLOAD SWAP1 DUP2 MSTORE RETURN JUMPDEST DUP4 DUP3 CALLVALUE PUSH2 0x1EA JUMPI PUSH1 0x20 CALLDATASIZE PUSH1 0x3 NOT ADD SLT PUSH2 0x1EA JUMPI CALLDATALOAD PUSH1 0x1 PUSH1 0x1 PUSH1 0xA0 SHL SUB DUP2 AND DUP1 SWAP2 SUB PUSH2 0x1EA JUMPI PUSH2 0x10EA PUSH2 0x1180 JUMP JUMPDEST DUP1 PUSH20 0xFFFFFFFFFFFFFFFFFFFFFFFFFFFFFFFFFFFFFFFF NOT PUSH1 0xCA SLOAD AND OR PUSH1 0xCA SSTORE CALLER PUSH32 0x458609883BFC2C0EB1300D68839F0A6AA0B7A1997ABA004773946CAF044A06FF DUP4 DUP1 LOG3 DUP1 RETURN JUMPDEST SWAP1 PUSH1 0x20 PUSH1 0x3 NOT DUP4 ADD SLT PUSH2 0x117B JUMPI PUSH1 0x4 CALLDATALOAD PUSH8 0xFFFFFFFFFFFFFFFF SWAP3 DUP4 DUP3 GT PUSH2 0x117B JUMPI DUP1 PUSH1 0x23 DUP4 ADD SLT ISZERO PUSH2 0x117B JUMPI DUP2 PUSH1 0x4 ADD CALLDATALOAD SWAP4 DUP5 GT PUSH2 0x117B JUMPI PUSH1 0x24 DUP5 DUP4 ADD ADD GT PUSH2 0x117B JUMPI PUSH1 0x24 ADD SWAP2 SWAP1 JUMP JUMPDEST PUSH1 0x0 DUP1 REVERT JUMPDEST PUSH1 0x1 PUSH1 0x1 PUSH1 0xA0 SHL SUB PUSH1 0x97 SLOAD AND CALLER SUB PUSH2 0x1194 JUMPI JUMP JUMPDEST PUSH1 0x64 PUSH1 0x40 MLOAD PUSH3 0x461BCD PUSH1 0xE5 SHL DUP2 MSTORE PUSH1 0x20 PUSH1 0x4 DUP3 ADD MSTORE PUSH1 0x20 PUSH1 0x24 DUP3 ADD MSTORE PUSH32 0x4F776E61626C653A2063616C6C6572206973206E6F7420746865206F776E6572 PUSH1 0x44 DUP3 ADD MSTORE REVERT JUMPDEST PUSH1 0x97 SLOAD SWAP1 PUSH1 0x1 PUSH1 0x1 PUSH1 0xA0 SHL SUB DUP1 SWAP2 AND SWAP2 DUP3 PUSH20 0xFFFFFFFFFFFFFFFFFFFFFFFFFFFFFFFFFFFFFFFF NOT DUP3 AND OR PUSH1 0x97 SSTORE AND PUSH32 0x8BE0079C531659141344CD1FD0A4F28419497F9722A3DAAFE3B4186F6B6457E0 PUSH1 0x0 DUP1 LOG3 JUMP JUMPDEST PUSH8 0xFFFFFFFFFFFFFFFF DUP2 GT PUSH2 0x1241 JUMPI PUSH1 0x40 MSTORE JUMP JUMPDEST PUSH4 0x4E487B71 PUSH1 0xE0 SHL PUSH1 0x0 MSTORE PUSH1 0x41 PUSH1 0x4 MSTORE PUSH1 0x24 PUSH1 0x0 REVERT JUMPDEST PUSH1 0x40 DUP2 ADD SWAP1 DUP2 LT PUSH8 0xFFFFFFFFFFFFFFFF DUP3 GT OR PUSH2 0x1241 JUMPI PUSH1 0x40 MSTORE JUMP JUMPDEST SWAP1 PUSH1 0x1F DUP1 NOT SWAP2 ADD AND DUP2 ADD SWAP1 DUP2 LT PUSH8 0xFFFFFFFFFFFFFFFF DUP3 GT OR PUSH2 0x1241 JUMPI PUSH1 0x40 MSTORE JUMP JUMPDEST SWAP1 DUP2 PUSH1 0x20 SWAP2 SUB SLT PUSH2 0x117B JUMPI MLOAD DUP1 ISZERO ISZERO DUP2 SUB PUSH2 0x117B JUMPI SWAP1 JUMP JUMPDEST ISZERO PUSH2 0x12B4 JUMPI JUMP JUMPDEST PUSH1 0x84 PUSH1 0x40 MLOAD PUSH3 0x461BCD PUSH1 0xE5 SHL DUP2 MSTORE PUSH1 0x20 PUSH1 0x4 DUP3 ADD MSTORE PUSH1 0x25 PUSH1 0x24 DUP3 ADD MSTORE PUSH32 0x5065726D697373696F6E3A206F6E6C792072656C61796572206973207065726D PUSH1 0x44 DUP3 ADD MSTORE PUSH32 0x6974746564000000000000000000000000000000000000000000000000000000 PUSH1 0x64 DUP3 ADD MSTORE REVERT JUMPDEST MLOAD SWAP1 PUSH1 0x1 PUSH1 0x1 PUSH1 0xA0 SHL SUB DUP3 AND DUP3 SUB PUSH2 0x117B JUMPI JUMP JUMPDEST SWAP2 SWAP1 DUP3 PUSH1 0x40 SWAP2 SUB SLT PUSH2 0x117B JUMPI PUSH1 0x40 MLOAD PUSH1 0x40 DUP2 ADD DUP2 DUP2 LT PUSH8 0xFFFFFFFFFFFFFFFF DUP3 GT OR PUSH2 0x1241 JUMPI PUSH1 0x40 MSTORE DUP1 SWAP3 DUP1 MLOAD PUSH1 0x4 DUP2 LT ISZERO PUSH2 0x117B JUMPI DUP3 MSTORE PUSH1 0x20 SWAP1 DUP2 ADD MLOAD SWAP2 ADD MSTORE JUMP JUMPDEST SWAP2 SWAP1 DUP3 DUP2 SUB SWAP1 PUSH2 0x1C0 DUP3 SLT PUSH2 0x117B JUMPI PUSH2 0x138D DUP5 PUSH2 0x131E JUMP JUMPDEST SWAP4 PUSH2 0x139A PUSH1 0x20 DUP3 ADD PUSH2 0x131E JUMP JUMPDEST SWAP4 PUSH2 0x13A7 PUSH1 0x40 DUP4 ADD PUSH2 0x131E JUMP JUMPDEST SWAP4 PUSH1 0x60 DUP4 ADD MLOAD SWAP4 PUSH1 0x80 DUP5 ADD MLOAD SWAP4 PUSH1 0xA0 DUP2 ADD MLOAD SWAP4 PUSH1 0x60 PUSH1 0xC0 DUP4 ADD MLOAD SWAP5 PUSH1 0xDF NOT ADD SLT PUSH2 0x117B JUMPI PUSH1 0x40 MLOAD PUSH1 0x60 DUP2 ADD DUP2 DUP2 LT PUSH8 0xFFFFFFFFFFFFFFFF DUP3 GT OR PUSH2 0x1241 JUMPI PUSH1 0x40 MSTORE PUSH1 0xE0 DUP4 ADD MLOAD DUP2 MSTORE PUSH2 0x100 DUP4 ADD MLOAD PUSH1 0x20 DUP3 ADD MSTORE PUSH2 0x120 DUP4 ADD MLOAD SWAP1 PUSH1 0x7 DUP3 LT ISZERO PUSH2 0x117B JUMPI PUSH2 0x142C SWAP2 PUSH1 0x40 DUP3 ADD MSTORE SWAP4 PUSH2 0x180 PUSH2 0x1425 DUP3 PUSH2 0x140 DUP8 ADD PUSH2 0x1332 JUMP JUMPDEST SWAP5 ADD PUSH2 0x1332 JUMP JUMPDEST SWAP1 JUMP JUMPDEST SWAP1 SWAP2 DUP1 PUSH1 0x40 SWAP4 PUSH1 0x20 DUP5 MSTORE DUP2 PUSH1 0x20 DUP6 ADD MSTORE DUP5 DUP5 ADD CALLDATACOPY PUSH1 0x0 DUP3 DUP3 ADD DUP5 ADD MSTORE PUSH1 0x1F ADD PUSH1 0x1F NOT AND ADD ADD SWAP1 JUMP JUMPDEST PUSH1 0x2 PUSH1 0x65 SLOAD EQ PUSH2 0x1468 JUMPI PUSH1 0x2 PUSH1 0x65 SSTORE JUMP JUMPDEST PUSH1 0x64 PUSH1 0x40 MLOAD PUSH3 0x461BCD PUSH1 0xE5 SHL DUP2 MSTORE PUSH1 0x20 PUSH1 0x4 DUP3 ADD MSTORE PUSH1 0x1F PUSH1 0x24 DUP3 ADD MSTORE PUSH32 0x5265656E7472616E637947756172643A207265656E7472616E742063616C6C00 PUSH1 0x44 DUP3 ADD MSTORE REVERT JUMPDEST SWAP2 SWAP1 DUP3 MLOAD SWAP3 DUP4 DUP3 MSTORE PUSH1 0x0 JUMPDEST DUP5 DUP2 LT PUSH2 0x14D8 JUMPI POP POP DUP3 PUSH1 0x0 PUSH1 0x20 DUP1 SWAP5 SWAP6 DUP5 ADD ADD MSTORE PUSH1 0x1F DUP1 NOT SWAP2 ADD AND ADD ADD SWAP1 JUMP JUMPDEST PUSH1 0x20 DUP2 DUP4 ADD DUP2 ADD MLOAD DUP5 DUP4 ADD DUP3 ADD MSTORE ADD PUSH2 0x14B7 JUMP JUMPDEST DUP1 MLOAD ISZERO PUSH2 0x14F9 JUMPI PUSH1 0x20 ADD SWAP1 JUMP JUMPDEST PUSH4 0x4E487B71 PUSH1 0xE0 SHL PUSH1 0x0 MSTORE PUSH1 0x32 PUSH1 0x4 MSTORE PUSH1 0x24 PUSH1 0x0 REVERT JUMPDEST SWAP2 PUSH1 0x1 PUSH1 0x1 PUSH1 0xA0 SHL SUB SWAP2 DUP3 DUP2 AND SWAP2 PUSH1 0xCA SLOAD SWAP3 PUSH1 0x0 SWAP5 PUSH1 0x40 SWAP8 DUP9 MLOAD SWAP3 PUSH32 0x95EA7B300000000000000000000000000000000000000000000000000000000 DUP5 MSTORE PUSH1 0x20 SWAP4 DUP5 DUP2 DUP1 PUSH2 0x157A DUP7 DUP9 PUSH1 0x4 SWAP14 AND DUP14 DUP5 ADD PUSH1 0x20 SWAP1 SWAP4 SWAP3 SWAP2 SWAP4 PUSH1 0x1 PUSH1 0x1 PUSH1 0xA0 SHL SUB PUSH1 0x40 DUP3 ADD SWAP6 AND DUP2 MSTORE ADD MSTORE JUMP JUMPDEST SUB DUP2 DUP13 DUP7 GAS CALL DUP1 ISZERO PUSH2 0x1901 JUMPI PUSH2 0x190B JUMPI JUMPDEST POP DUP3 PUSH1 0xCA SLOAD AND SWAP9 DUP10 EXTCODESIZE ISZERO PUSH2 0x6C1 JUMPI DUP4 SWAP1 DUP12 MLOAD SWAP3 PUSH32 0x87517C4500000000000000000000000000000000000000000000000000000000 DUP5 MSTORE DUP10 DUP5 ADD MSTORE AND SWAP1 DUP9 DUP2 PUSH1 0x24 SWAP12 DUP5 DUP14 DUP4 ADD MSTORE DUP7 DUP7 AND PUSH1 0x44 DUP4 ADD MSTORE TIMESTAMP PUSH6 0xFFFFFFFFFFFF AND PUSH1 0x64 DUP4 ADD MSTORE DUP2 DUP4 GAS SWAP3 PUSH1 0x84 SWAP4 CALL DUP1 ISZERO PUSH2 0x1901 JUMPI PUSH2 0x18EE JUMPI JUMPDEST POP DUP10 MLOAD SWAP2 DUP9 DUP6 DUP5 ADD MSTORE PUSH1 0x1 SWAP4 DUP5 DUP5 MSTORE PUSH2 0x1612 DUP5 PUSH2 0x1257 JUMP JUMPDEST DUP12 MLOAD SWAP8 PUSH2 0x161E DUP10 PUSH2 0x1257 JUMP JUMPDEST DUP6 DUP10 MSTORE DUP7 DUP12 JUMPDEST DUP2 DUP2 LT PUSH2 0x18DE JUMPI POP POP DUP13 MLOAD SWAP2 PUSH12 0xFFFFFFFFFFFFFFFFFFFFFFFF NOT DUP1 SWAP3 PUSH1 0x60 SHL AND DUP9 DUP5 ADD MSTORE PUSH31 0xBB80000000000000000000000000000000000000000000000000000000000 PUSH1 0x34 DUP5 ADD MSTORE DUP9 AND SWAP8 PUSH1 0x60 SHL AND PUSH1 0x37 DUP3 ADD MSTORE PUSH1 0x2B DUP2 MSTORE PUSH1 0x60 DUP2 ADD SWAP2 DUP2 DUP4 LT PUSH8 0xFFFFFFFFFFFFFFFF DUP5 GT OR PUSH2 0x18CA JUMPI SWAP1 PUSH2 0x16DC SWAP2 DUP4 DUP15 MSTORE ADDRESS PUSH1 0x80 DUP4 ADD MSTORE PUSH1 0xA0 DUP3 ADD MSTORE DUP11 PUSH1 0xC0 DUP3 ADD MSTORE PUSH1 0xA0 PUSH1 0xE0 DUP3 ADD MSTORE PUSH2 0x16C3 PUSH2 0x120 DUP3 ADD DUP3 PUSH2 0x14AC JUMP JUMPDEST DUP7 PUSH2 0x100 DUP4 ADD MSTORE SUB PUSH1 0x7F NOT DUP2 ADD DUP4 MSTORE PUSH1 0x5F NOT ADD DUP3 PUSH2 0x1273 JUMP JUMPDEST PUSH2 0x16E5 DUP8 PUSH2 0x14EC JUMP JUMPDEST MSTORE PUSH2 0x16EF DUP7 PUSH2 0x14EC JUMP JUMPDEST POP DUP10 MLOAD SWAP6 PUSH32 0x70A0823100000000000000000000000000000000000000000000000000000000 SWAP4 DUP5 DUP9 MSTORE ADDRESS DUP10 DUP10 ADD MSTORE DUP6 DUP9 DUP13 DUP2 DUP11 GAS STATICCALL SWAP8 DUP9 ISZERO PUSH2 0x18C0 JUMPI DUP11 SWAP9 PUSH2 0x1891 JUMPI JUMPDEST POP DUP3 EXTCODESIZE ISZERO PUSH2 0x188D JUMPI SWAP2 DUP12 SWAP2 DUP11 SWAP4 PUSH2 0x1778 DUP5 MLOAD SWAP7 DUP8 SWAP6 PUSH32 0x24856BC300000000000000000000000000000000000000000000000000000000 DUP8 MSTORE DUP14 DUP8 ADD MSTORE PUSH1 0x44 DUP7 ADD SWAP1 PUSH2 0x14AC JUMP JUMPDEST DUP5 DUP2 SUB PUSH1 0x3 NOT ADD DUP6 DUP16 ADD MSTORE DUP3 MLOAD DUP1 DUP3 MSTORE PUSH1 0x5 DUP2 SWAP1 SHL DUP3 ADD DUP11 ADD SWAP4 DUP11 ADD SWAP3 SWAP2 DUP8 SWAP1 DUP12 DUP2 ADD SWAP1 JUMPDEST DUP13 DUP5 DUP5 LT PUSH2 0x1858 JUMPI POP POP POP POP POP POP POP DUP4 DUP4 DUP1 SWAP3 SUB SWAP3 GAS CALL DUP1 ISZERO PUSH2 0x3D4 JUMPI DUP4 SWAP3 SWAP2 DUP9 SWAP2 PUSH2 0x183F JUMPI JUMPDEST POP POP DUP8 DUP10 MLOAD DUP1 SWAP6 DUP2 SWAP4 DUP3 MSTORE ADDRESS DUP10 DUP4 ADD MSTORE GAS STATICCALL SWAP7 DUP8 ISZERO PUSH2 0x1836 JUMPI POP DUP5 SWAP7 PUSH2 0x1806 JUMPI JUMPDEST POP POP DUP5 SUB SWAP4 DUP5 GT PUSH2 0x17F6 JUMPI POP POP POP SWAP1 JUMP JUMPDEST PUSH1 0x11 SWAP1 PUSH4 0x4E487B71 PUSH1 0xE0 SHL DUP4 MSTORE MSTORE REVERT JUMPDEST SWAP1 DUP1 SWAP3 SWAP7 POP DUP2 RETURNDATASIZE DUP4 GT PUSH2 0x182F JUMPI JUMPDEST PUSH2 0x181E DUP2 DUP4 PUSH2 0x1273 JUMP JUMPDEST DUP2 ADD SUB SLT PUSH2 0x117B JUMPI MLOAD SWAP4 CODESIZE DUP1 PUSH2 0x17E5 JUMP JUMPDEST POP RETURNDATASIZE PUSH2 0x1814 JUMP JUMPDEST MLOAD RETURNDATASIZE DUP7 DUP3 RETURNDATACOPY RETURNDATASIZE SWAP1 REVERT JUMPDEST PUSH2 0x184B SWAP2 SWAP3 SWAP4 POP PUSH2 0x122D JUMP JUMPDEST PUSH2 0x6D6 JUMPI DUP2 SWAP1 DUP7 CODESIZE PUSH2 0x17C4 JUMP JUMPDEST SWAP2 SWAP5 SWAP8 SWAP10 POP SWAP3 SWAP6 DUP8 SWAP3 SWAP6 SWAP9 POP PUSH2 0x1879 DUP3 SWAP2 PUSH1 0x1F NOT DUP7 DUP3 SUB ADD DUP8 MSTORE DUP11 MLOAD PUSH2 0x14AC JUMP JUMPDEST SWAP9 ADD SWAP4 ADD SWAP4 ADD DUP15 SWAP8 SWAP6 SWAP3 SWAP4 DUP10 SWAP8 SWAP6 SWAP3 PUSH2 0x179D JUMP JUMPDEST DUP10 DUP1 REVERT JUMPDEST SWAP1 SWAP8 POP DUP6 DUP2 DUP2 RETURNDATASIZE DUP4 GT PUSH2 0x18B9 JUMPI JUMPDEST PUSH2 0x18A9 DUP2 DUP4 PUSH2 0x1273 JUMP JUMPDEST DUP2 ADD SUB SLT PUSH2 0x117B JUMPI MLOAD SWAP7 CODESIZE PUSH2 0x1732 JUMP JUMPDEST POP RETURNDATASIZE PUSH2 0x189F JUMP JUMPDEST DUP13 MLOAD RETURNDATASIZE DUP13 DUP3 RETURNDATACOPY RETURNDATASIZE SWAP1 REVERT JUMPDEST DUP12 PUSH1 0x41 DUP12 PUSH4 0x4E487B71 PUSH1 0xE0 SHL PUSH1 0x0 MSTORE MSTORE PUSH1 0x0 REVERT JUMPDEST PUSH1 0x60 DUP3 DUP3 DUP14 ADD ADD MSTORE ADD DUP8 SWAP1 PUSH2 0x1624 JUMP JUMPDEST PUSH2 0x18FA SWAP1 SWAP9 SWAP2 SWAP9 PUSH2 0x122D JUMP JUMPDEST SWAP7 CODESIZE PUSH2 0x15FA JUMP JUMPDEST DUP12 MLOAD RETURNDATASIZE DUP12 DUP3 RETURNDATACOPY RETURNDATASIZE SWAP1 REVERT JUMPDEST PUSH2 0x1921 SWAP1 DUP6 RETURNDATASIZE DUP8 GT PUSH2 0x450 JUMPI PUSH2 0x442 DUP2 DUP4 PUSH2 0x1273 JUMP JUMPDEST POP CODESIZE PUSH2 0x158B JUMP JUMPDEST SWAP2 SWAP1 DUP3 PUSH1 0x40 SWAP2 SUB SLT PUSH2 0x117B JUMPI PUSH1 0x20 DUP3 MLOAD SWAP3 ADD MLOAD SWAP1 JUMP JUMPDEST SWAP1 CALLDATALOAD SWAP1 PUSH1 0x1E NOT DUP2 CALLDATASIZE SUB ADD DUP3 SLT ISZERO PUSH2 0x117B JUMPI ADD DUP1 CALLDATALOAD SWAP1 PUSH8 0xFFFFFFFFFFFFFFFF DUP3 GT PUSH2 0x117B JUMPI PUSH1 0x20 ADD SWAP2 DUP2 CALLDATASIZE SUB DUP4 SGT PUSH2 0x117B JUMPI JUMP JUMPDEST ISZERO PUSH2 0x1978 JUMPI JUMP JUMPDEST PUSH1 0x64 PUSH1 0x40 MLOAD PUSH3 0x461BCD PUSH1 0xE5 SHL DUP2 MSTORE PUSH1 0x20 PUSH1 0x4 DUP3 ADD MSTORE PUSH1 0x1C PUSH1 0x24 DUP3 ADD MSTORE PUSH32 0x4572726F723A2063616E6E6F74207472616E7366657220746F6B656E00000000 PUSH1 0x44 DUP3 ADD MSTORE REVERT JUMPDEST CALLDATALOAD PUSH1 0x1 PUSH1 0x1 PUSH1 0xA0 SHL SUB DUP2 AND DUP2 SUB PUSH2 0x117B JUMPI SWAP1 JUMP JUMPDEST ISZERO PUSH2 0x19D7 JUMPI JUMP JUMPDEST PUSH1 0x84 PUSH1 0x40 MLOAD PUSH3 0x461BCD PUSH1 0xE5 SHL DUP2 MSTORE PUSH1 0x20 PUSH1 0x4 DUP3 ADD MSTORE PUSH1 0x2B PUSH1 0x24 DUP3 ADD MSTORE PUSH32 0x496E697469616C697A61626C653A20636F6E7472616374206973206E6F742069 PUSH1 0x44 DUP3 ADD MSTORE PUSH32 0x6E697469616C697A696E67000000000000000000000000000000000000000000 PUSH1 0x64 DUP3 ADD MSTORE REVERT INVALID LOG2 PUSH5 0x6970667358 0x22 SLT KECCAK256 DUP16 SWAP5 0xC7 SHR 0xB8 CALLDATACOPY 0xDA BASEFEE PUSH25 0x20B73A54BECA7DAD71C36E7FFD350D85A97E622F2EDADB6473 PUSH16 0x6C634300081300330000000000000000 "},"methodIdentifiers":{"closePosition(string)":"9c89bb3d","deposit((address,string,uint256,address))":"8b6a70c4","initialize()":"8129fc1c","makeDCASwap(string)":"6afd431a","owner()":"8da5cb5b","pause()":"8456cb59","paused()":"5c975abb","permit2()":"12261ee7","registry()":"7b103999","renounceOwnership()":"715018a6","setPermit2(address)":"101ec30a","setRegistry(address)":"a91ee0dc","transferOwnership(address)":"f2fde38b","unpause()":"3f4ba83a","withdraw((address,string))":"61a45ae6"}},"storageLayout":{"storage":[{"astId":547,"contract":"contracts/PocketVault.sol:PocketVault","label":"_initialized","offset":0,"slot":"0","type":"t_uint8"},{"astId":550,"contract":"contracts/PocketVault.sol:PocketVault","label":"_initializing","offset":1,"slot":"0","type":"t_bool"},{"astId":1234,"contract":"contracts/PocketVault.sol:PocketVault","label":"__gap","offset":0,"slot":"1","type":"t_array(t_uint256)50_storage"},{"astId":730,"contract":"contracts/PocketVault.sol:PocketVault","label":"_paused","offset":0,"slot":"51","type":"t_bool"},{"astId":835,"contract":"contracts/PocketVault.sol:PocketVault","label":"__gap","offset":0,"slot":"52","type":"t_array(t_uint256)49_storage"},{"astId":850,"contract":"contracts/PocketVault.sol:PocketVault","label":"_status","offset":0,"slot":"101","type":"t_uint256"},{"astId":908,"contract":"contracts/PocketVault.sol:PocketVault","label":"__gap","offset":0,"slot":"102","type":"t_array(t_uint256)49_storage"},{"astId":419,"contract":"contracts/PocketVault.sol:PocketVault","label":"_owner","offset":0,"slot":"151","type":"t_address"},{"astId":539,"contract":"contracts/PocketVault.sol:PocketVault","label":"__gap","offset":0,"slot":"152","type":"t_array(t_uint256)49_storage"},{"astId":9752,"contract":"contracts/PocketVault.sol:PocketVault","label":"registry","offset":0,"slot":"201","type":"t_contract(PocketRegistry)9692"},{"astId":9755,"contract":"contracts/PocketVault.sol:PocketVault","label":"permit2","offset":0,"slot":"202","type":"t_contract(IPermit2)9737"}],"types":{"t_address":{"encoding":"inplace","label":"address","numberOfBytes":"20"},"t_array(t_uint256)49_storage":{"base":"t_uint256","encoding":"inplace","label":"uint256[49]","numberOfBytes":"1568"},"t_array(t_uint256)50_storage":{"base":"t_uint256","encoding":"inplace","label":"uint256[50]","numberOfBytes":"1600"},"t_bool":{"encoding":"inplace","label":"bool","numberOfBytes":"1"},"t_contract(IPermit2)9737":{"encoding":"inplace","label":"contract IPermit2","numberOfBytes":"20"},"t_contract(PocketRegistry)9692":{"encoding":"inplace","label":"contract PocketRegistry","numberOfBytes":"20"},"t_uint256":{"encoding":"inplace","label":"uint256","numberOfBytes":"32"},"t_uint8":{"encoding":"inplace","label":"uint8","numberOfBytes":"1"}}}}}}